{"abi":[{"type":"constructor","inputs":[{"name":"moduleGitCommit_","type":"bytes32","internalType":"bytes32"}],"stateMutability":"nonpayable"},{"type":"function","name":"batchDispatch","inputs":[{"name":"items","type":"tuple[]","internalType":"struct Exec.EulerBatchItem[]","components":[{"name":"allowError","type":"bool","internalType":"bool"},{"name":"proxyAddr","type":"address","internalType":"address"},{"name":"data","type":"bytes","internalType":"bytes"}]},{"name":"deferLiquidityChecks","type":"address[]","internalType":"address[]"}],"outputs":[],"stateMutability":"nonpayable"},{"type":"function","name":"batchDispatchSimulate","inputs":[{"name":"items","type":"tuple[]","internalType":"struct Exec.EulerBatchItem[]","components":[{"name":"allowError","type":"bool","internalType":"bool"},{"name":"proxyAddr","type":"address","internalType":"address"},{"name":"data","type":"bytes","internalType":"bytes"}]},{"name":"deferLiquidityChecks","type":"address[]","internalType":"address[]"}],"outputs":[],"stateMutability":"nonpayable"},{"type":"function","name":"deferLiquidityCheck","inputs":[{"name":"account","type":"address","internalType":"address"},{"name":"data","type":"bytes","internalType":"bytes"}],"outputs":[],"stateMutability":"nonpayable"},{"type":"function","name":"detailedLiquidity","inputs":[{"name":"account","type":"address","internalType":"address"}],"outputs":[{"name":"assets","type":"tuple[]","internalType":"struct IRiskManager.AssetLiquidity[]","components":[{"name":"underlying","type":"address","internalType":"address"},{"name":"status","type":"tuple","internalType":"struct IRiskManager.LiquidityStatus","components":[{"name":"collateralValue","type":"uint256","internalType":"uint256"},{"name":"liabilityValue","type":"uint256","internalType":"uint256"},{"name":"numBorrows","type":"uint256","internalType":"uint256"},{"name":"borrowIsolated","type":"bool","internalType":"bool"}]}]}],"stateMutability":"nonpayable"},{"type":"function","name":"doStaticCall","inputs":[{"name":"contractAddress","type":"address","internalType":"address"},{"name":"payload","type":"bytes","internalType":"bytes"}],"outputs":[{"name":"","type":"bytes","internalType":"bytes"}],"stateMutability":"view"},{"type":"function","name":"getAverageLiquidity","inputs":[{"name":"account","type":"address","internalType":"address"}],"outputs":[{"name":"","type":"uint256","internalType":"uint256"}],"stateMutability":"nonpayable"},{"type":"function","name":"getAverageLiquidityDelegateAccount","inputs":[{"name":"account","type":"address","internalType":"address"}],"outputs":[{"name":"","type":"address","internalType":"address"}],"stateMutability":"view"},{"type":"function","name":"getAverageLiquidityWithDelegate","inputs":[{"name":"account","type":"address","internalType":"address"}],"outputs":[{"name":"","type":"uint256","internalType":"uint256"}],"stateMutability":"nonpayable"},{"type":"function","name":"getPrice","inputs":[{"name":"underlying","type":"address","internalType":"address"}],"outputs":[{"name":"twap","type":"uint256","internalType":"uint256"},{"name":"twapPeriod","type":"uint256","internalType":"uint256"}],"stateMutability":"nonpayable"},{"type":"function","name":"getPriceFull","inputs":[{"name":"underlying","type":"address","internalType":"address"}],"outputs":[{"name":"twap","type":"uint256","internalType":"uint256"},{"name":"twapPeriod","type":"uint256","internalType":"uint256"},{"name":"currPrice","type":"uint256","internalType":"uint256"}],"stateMutability":"nonpayable"},{"type":"function","name":"liquidity","inputs":[{"name":"account","type":"address","internalType":"address"}],"outputs":[{"name":"status","type":"tuple","internalType":"struct IRiskManager.LiquidityStatus","components":[{"name":"collateralValue","type":"uint256","internalType":"uint256"},{"name":"liabilityValue","type":"uint256","internalType":"uint256"},{"name":"numBorrows","type":"uint256","internalType":"uint256"},{"name":"borrowIsolated","type":"bool","internalType":"bool"}]}],"stateMutability":"nonpayable"},{"type":"function","name":"moduleGitCommit","inputs":[],"outputs":[{"name":"","type":"bytes32","internalType":"bytes32"}],"stateMutability":"view"},{"type":"function","name":"moduleId","inputs":[],"outputs":[{"name":"","type":"uint256","internalType":"uint256"}],"stateMutability":"view"},{"type":"function","name":"pTokenUnWrap","inputs":[{"name":"underlying","type":"address","internalType":"address"},{"name":"amount","type":"uint256","internalType":"uint256"}],"outputs":[],"stateMutability":"nonpayable"},{"type":"function","name":"pTokenWrap","inputs":[{"name":"underlying","type":"address","internalType":"address"},{"name":"amount","type":"uint256","internalType":"uint256"}],"outputs":[],"stateMutability":"nonpayable"},{"type":"function","name":"trackAverageLiquidity","inputs":[{"name":"subAccountId","type":"uint256","internalType":"uint256"},{"name":"delegate","type":"address","internalType":"address"},{"name":"onlyDelegate","type":"bool","internalType":"bool"}],"outputs":[],"stateMutability":"nonpayable"},{"type":"function","name":"unTrackAverageLiquidity","inputs":[{"name":"subAccountId","type":"uint256","internalType":"uint256"}],"outputs":[],"stateMutability":"nonpayable"},{"type":"function","name":"usePermit","inputs":[{"name":"token","type":"address","internalType":"address"},{"name":"value","type":"uint256","internalType":"uint256"},{"name":"deadline","type":"uint256","internalType":"uint256"},{"name":"v","type":"uint8","internalType":"uint8"},{"name":"r","type":"bytes32","internalType":"bytes32"},{"name":"s","type":"bytes32","internalType":"bytes32"}],"outputs":[],"stateMutability":"nonpayable"},{"type":"function","name":"usePermitAllowed","inputs":[{"name":"token","type":"address","internalType":"address"},{"name":"nonce","type":"uint256","internalType":"uint256"},{"name":"expiry","type":"uint256","internalType":"uint256"},{"name":"allowed","type":"bool","internalType":"bool"},{"name":"v","type":"uint8","internalType":"uint8"},{"name":"r","type":"bytes32","internalType":"bytes32"},{"name":"s","type":"bytes32","internalType":"bytes32"}],"outputs":[],"stateMutability":"nonpayable"},{"type":"function","name":"usePermitPacked","inputs":[{"name":"token","type":"address","internalType":"address"},{"name":"value","type":"uint256","internalType":"uint256"},{"name":"deadline","type":"uint256","internalType":"uint256"},{"name":"signature","type":"bytes","internalType":"bytes"}],"outputs":[],"stateMutability":"nonpayable"},{"type":"event","name":"AssetStatus","inputs":[{"name":"underlying","type":"address","indexed":true,"internalType":"address"},{"name":"totalBalances","type":"uint256","indexed":false,"internalType":"uint256"},{"name":"totalBorrows","type":"uint256","indexed":false,"internalType":"uint256"},{"name":"reserveBalance","type":"uint96","indexed":false,"internalType":"uint96"},{"name":"poolSize","type":"uint256","indexed":false,"internalType":"uint256"},{"name":"interestAccumulator","type":"uint256","indexed":false,"internalType":"uint256"},{"name":"interestRate","type":"int96","indexed":false,"internalType":"int96"},{"name":"timestamp","type":"uint256","indexed":false,"internalType":"uint256"}],"anonymous":false},{"type":"event","name":"Borrow","inputs":[{"name":"underlying","type":"address","indexed":true,"internalType":"address"},{"name":"account","type":"address","indexed":true,"internalType":"address"},{"name":"amount","type":"uint256","indexed":false,"internalType":"uint256"}],"anonymous":false},{"type":"event","name":"DelegateAverageLiquidity","inputs":[{"name":"account","type":"address","indexed":true,"internalType":"address"},{"name":"delegate","type":"address","indexed":true,"internalType":"address"}],"anonymous":false},{"type":"event","name":"Deposit","inputs":[{"name":"underlying","type":"address","indexed":true,"internalType":"address"},{"name":"account","type":"address","indexed":true,"internalType":"address"},{"name":"amount","type":"uint256","indexed":false,"internalType":"uint256"}],"anonymous":false},{"type":"event","name":"EnterMarket","inputs":[{"name":"underlying","type":"address","indexed":true,"internalType":"address"},{"name":"account","type":"address","indexed":true,"internalType":"address"}],"anonymous":false},{"type":"event","name":"ExitMarket","inputs":[{"name":"underlying","type":"address","indexed":true,"internalType":"address"},{"name":"account","type":"address","indexed":true,"internalType":"address"}],"anonymous":false},{"type":"event","name":"Genesis","inputs":[],"anonymous":false},{"type":"event","name":"GovConvertReserves","inputs":[{"name":"underlying","type":"address","indexed":true,"internalType":"address"},{"name":"recipient","type":"address","indexed":true,"internalType":"address"},{"name":"amount","type":"uint256","indexed":false,"internalType":"uint256"}],"anonymous":false},{"type":"event","name":"GovSetAssetConfig","inputs":[{"name":"underlying","type":"address","indexed":true,"internalType":"address"},{"name":"newConfig","type":"tuple","indexed":false,"internalType":"struct Storage.AssetConfig","components":[{"name":"eTokenAddress","type":"address","internalType":"address"},{"name":"borrowIsolated","type":"bool","internalType":"bool"},{"name":"collateralFactor","type":"uint32","internalType":"uint32"},{"name":"borrowFactor","type":"uint32","internalType":"uint32"},{"name":"twapWindow","type":"uint24","internalType":"uint24"}]}],"anonymous":false},{"type":"event","name":"GovSetChainlinkPriceFeed","inputs":[{"name":"underlying","type":"address","indexed":true,"internalType":"address"},{"name":"chainlinkAggregator","type":"address","indexed":false,"internalType":"address"}],"anonymous":false},{"type":"event","name":"GovSetIRM","inputs":[{"name":"underlying","type":"address","indexed":true,"internalType":"address"},{"name":"interestRateModel","type":"uint256","indexed":false,"internalType":"uint256"},{"name":"resetParams","type":"bytes","indexed":false,"internalType":"bytes"}],"anonymous":false},{"type":"event","name":"GovSetPricingConfig","inputs":[{"name":"underlying","type":"address","indexed":true,"internalType":"address"},{"name":"newPricingType","type":"uint16","indexed":false,"internalType":"uint16"},{"name":"newPricingParameter","type":"uint32","indexed":false,"internalType":"uint32"}],"anonymous":false},{"type":"event","name":"GovSetReserveFee","inputs":[{"name":"underlying","type":"address","indexed":true,"internalType":"address"},{"name":"newReserveFee","type":"uint32","indexed":false,"internalType":"uint32"}],"anonymous":false},{"type":"event","name":"InstallerInstallModule","inputs":[{"name":"moduleId","type":"uint256","indexed":true,"internalType":"uint256"},{"name":"moduleImpl","type":"address","indexed":true,"internalType":"address"},{"name":"moduleGitCommit","type":"bytes32","indexed":false,"internalType":"bytes32"}],"anonymous":false},{"type":"event","name":"InstallerSetGovernorAdmin","inputs":[{"name":"newGovernorAdmin","type":"address","indexed":true,"internalType":"address"}],"anonymous":false},{"type":"event","name":"InstallerSetUpgradeAdmin","inputs":[{"name":"newUpgradeAdmin","type":"address","indexed":true,"internalType":"address"}],"anonymous":false},{"type":"event","name":"Liquidation","inputs":[{"name":"liquidator","type":"address","indexed":true,"internalType":"address"},{"name":"violator","type":"address","indexed":true,"internalType":"address"},{"name":"underlying","type":"address","indexed":true,"internalType":"address"},{"name":"collateral","type":"address","indexed":false,"internalType":"address"},{"name":"repay","type":"uint256","indexed":false,"internalType":"uint256"},{"name":"yield","type":"uint256","indexed":false,"internalType":"uint256"},{"name":"healthScore","type":"uint256","indexed":false,"internalType":"uint256"},{"name":"baseDiscount","type":"uint256","indexed":false,"internalType":"uint256"},{"name":"discount","type":"uint256","indexed":false,"internalType":"uint256"}],"anonymous":false},{"type":"event","name":"MarketActivated","inputs":[{"name":"underlying","type":"address","indexed":true,"internalType":"address"},{"name":"eToken","type":"address","indexed":true,"internalType":"address"},{"name":"dToken","type":"address","indexed":true,"internalType":"address"}],"anonymous":false},{"type":"event","name":"PTokenActivated","inputs":[{"name":"underlying","type":"address","indexed":true,"internalType":"address"},{"name":"pToken","type":"address","indexed":true,"internalType":"address"}],"anonymous":false},{"type":"event","name":"PTokenUnWrap","inputs":[{"name":"underlying","type":"address","indexed":true,"internalType":"address"},{"name":"account","type":"address","indexed":true,"internalType":"address"},{"name":"amount","type":"uint256","indexed":false,"internalType":"uint256"}],"anonymous":false},{"type":"event","name":"PTokenWrap","inputs":[{"name":"underlying","type":"address","indexed":true,"internalType":"address"},{"name":"account","type":"address","indexed":true,"internalType":"address"},{"name":"amount","type":"uint256","indexed":false,"internalType":"uint256"}],"anonymous":false},{"type":"event","name":"ProxyCreated","inputs":[{"name":"proxy","type":"address","indexed":true,"internalType":"address"},{"name":"moduleId","type":"uint256","indexed":false,"internalType":"uint256"}],"anonymous":false},{"type":"event","name":"Repay","inputs":[{"name":"underlying","type":"address","indexed":true,"internalType":"address"},{"name":"account","type":"address","indexed":true,"internalType":"address"},{"name":"amount","type":"uint256","indexed":false,"internalType":"uint256"}],"anonymous":false},{"type":"event","name":"RequestBorrow","inputs":[{"name":"account","type":"address","indexed":true,"internalType":"address"},{"name":"amount","type":"uint256","indexed":false,"internalType":"uint256"}],"anonymous":false},{"type":"event","name":"RequestBurn","inputs":[{"name":"account","type":"address","indexed":true,"internalType":"address"},{"name":"amount","type":"uint256","indexed":false,"internalType":"uint256"}],"anonymous":false},{"type":"event","name":"RequestDeposit","inputs":[{"name":"account","type":"address","indexed":true,"internalType":"address"},{"name":"amount","type":"uint256","indexed":false,"internalType":"uint256"}],"anonymous":false},{"type":"event","name":"RequestDonate","inputs":[{"name":"account","type":"address","indexed":true,"internalType":"address"},{"name":"amount","type":"uint256","indexed":false,"internalType":"uint256"}],"anonymous":false},{"type":"event","name":"RequestLiquidate","inputs":[{"name":"liquidator","type":"address","indexed":true,"internalType":"address"},{"name":"violator","type":"address","indexed":true,"internalType":"address"},{"name":"underlying","type":"address","indexed":true,"internalType":"address"},{"name":"collateral","type":"address","indexed":false,"internalType":"address"},{"name":"repay","type":"uint256","indexed":false,"internalType":"uint256"},{"name":"minYield","type":"uint256","indexed":false,"internalType":"uint256"}],"anonymous":false},{"type":"event","name":"RequestMint","inputs":[{"name":"account","type":"address","indexed":true,"internalType":"address"},{"name":"amount","type":"uint256","indexed":false,"internalType":"uint256"}],"anonymous":false},{"type":"event","name":"RequestRepay","inputs":[{"name":"account","type":"address","indexed":true,"internalType":"address"},{"name":"amount","type":"uint256","indexed":false,"internalType":"uint256"}],"anonymous":false},{"type":"event","name":"RequestSwap","inputs":[{"name":"accountIn","type":"address","indexed":true,"internalType":"address"},{"name":"accountOut","type":"address","indexed":true,"internalType":"address"},{"name":"underlyingIn","type":"address","indexed":true,"internalType":"address"},{"name":"underlyingOut","type":"address","indexed":false,"internalType":"address"},{"name":"amount","type":"uint256","indexed":false,"internalType":"uint256"},{"name":"swapType","type":"uint256","indexed":false,"internalType":"uint256"}],"anonymous":false},{"type":"event","name":"RequestSwapHub","inputs":[{"name":"accountIn","type":"address","indexed":true,"internalType":"address"},{"name":"accountOut","type":"address","indexed":true,"internalType":"address"},{"name":"underlyingIn","type":"address","indexed":true,"internalType":"address"},{"name":"underlyingOut","type":"address","indexed":false,"internalType":"address"},{"name":"amountIn","type":"uint256","indexed":false,"internalType":"uint256"},{"name":"amountOut","type":"uint256","indexed":false,"internalType":"uint256"},{"name":"mode","type":"uint256","indexed":false,"internalType":"uint256"},{"name":"swapHandler","type":"address","indexed":false,"internalType":"address"}],"anonymous":false},{"type":"event","name":"RequestSwapHubRepay","inputs":[{"name":"accountIn","type":"address","indexed":true,"internalType":"address"},{"name":"accountOut","type":"address","indexed":true,"internalType":"address"},{"name":"underlyingIn","type":"address","indexed":true,"internalType":"address"},{"name":"underlyingOut","type":"address","indexed":false,"internalType":"address"},{"name":"targetDebt","type":"uint256","indexed":false,"internalType":"uint256"},{"name":"swapHandler","type":"address","indexed":false,"internalType":"address"}],"anonymous":false},{"type":"event","name":"RequestTransferDToken","inputs":[{"name":"from","type":"address","indexed":true,"internalType":"address"},{"name":"to","type":"address","indexed":true,"internalType":"address"},{"name":"amount","type":"uint256","indexed":false,"internalType":"uint256"}],"anonymous":false},{"type":"event","name":"RequestTransferEToken","inputs":[{"name":"from","type":"address","indexed":true,"internalType":"address"},{"name":"to","type":"address","indexed":true,"internalType":"address"},{"name":"amount","type":"uint256","indexed":false,"internalType":"uint256"}],"anonymous":false},{"type":"event","name":"RequestWithdraw","inputs":[{"name":"account","type":"address","indexed":true,"internalType":"address"},{"name":"amount","type":"uint256","indexed":false,"internalType":"uint256"}],"anonymous":false},{"type":"event","name":"TrackAverageLiquidity","inputs":[{"name":"account","type":"address","indexed":true,"internalType":"address"}],"anonymous":false},{"type":"event","name":"UnTrackAverageLiquidity","inputs":[{"name":"account","type":"address","indexed":true,"internalType":"address"}],"anonymous":false},{"type":"event","name":"Withdraw","inputs":[{"name":"underlying","type":"address","indexed":true,"internalType":"address"},{"name":"account","type":"address","indexed":true,"internalType":"address"},{"name":"amount","type":"uint256","indexed":false,"internalType":"uint256"}],"anonymous":false},{"type":"error","name":"BatchDispatchSimulation","inputs":[{"name":"simulation","type":"tuple[]","internalType":"struct Exec.EulerBatchItemResponse[]","components":[{"name":"success","type":"bool","internalType":"bool"},{"name":"result","type":"bytes","internalType":"bytes"}]}]}],"bytecode":{"object":"0x60c060405234801561001057600080fd5b5060405161243e38038061243e83398101604081905261002f9161003c565b600560805260a052610055565b60006020828403121561004e57600080fd5b5051919050565b60805160a0516123c461007a60003960006101df0152600061025a01526123c46000f3fe608060405234801561001057600080fd5b506004361061012c5760003560e01c8063a1308f27116100ad578063d346cb9311610071578063d346cb93146102d5578063dec82caf146102e8578063df6b2aab14610308578063e94f487f14610333578063eb937aeb1461034657600080fd5b8063a1308f2714610255578063a3e022731461027c578063b8c876b11461028f578063bf143b34146102af578063c053d956146102c257600080fd5b80635f40fd76116100f45780635f40fd76146101b957806369a92ea3146101da5780636c744e361461020157806389b7b7a6146102145780639693fa6b1461022757600080fd5b806305d73427146101315780630f5621e7146101465780632c01aa4d1461015957806341976e091461016c5780635eec2fe814610199575b600080fd5b61014461013f366004611a46565b610359565b005b610144610154366004611aee565b6103be565b610144610167366004611b5c565b6104c8565b61017f61017a366004611b88565b610757565b604080519283526020830191909152015b60405180910390f35b6101ac6101a7366004611c15565b6107de565b6040516101909190611d0d565b6101cc6101c7366004611b88565b610856565b604051908152602001610190565b6101cc7f000000000000000000000000000000000000000000000000000000000000000081565b61014461020f366004611d20565b610893565b610144610222366004611c15565b610a32565b61023a610235366004611b88565b610b55565b60408051938452602084019290925290820152606001610190565b6101cc7f000000000000000000000000000000000000000000000000000000000000000081565b61014461028a366004611d62565b610bae565b6102a261029d366004611b88565b610cae565b6040516101909190611dbc565b6101446102bd366004611de9565b610d27565b6101446102d0366004611e7f565b610e07565b6101446102e3366004611b5c565b610ef8565b6102fb6102f6366004611b88565b61100f565b6040516101909190611e98565b61031b610316366004611b88565b611057565b6040516001600160a01b039091168152602001610190565b6101cc610341366004611b88565b611099565b610144610354366004611a46565b6110cb565b6103678484848460016110d5565b60405162461bcd60e51b815260206004820152602160248201527f652f62617463682f73696d756c6174696f6e2d6469642d6e6f742d72657665726044820152601d60fa1b60648201526084015b60405180910390fd5b6001600054146103e05760405162461bcd60e51b81526004016103b590611f1d565b600260009081556001600160a01b03888116825260086020526040909120541661041c5760405162461bcd60e51b81526004016103b590611f43565b6000610426611550565b6040516323f2ebc360e21b81526001600160a01b038083166004830152306024830152604482018a905260648201899052871515608483015260ff871660a483015260c4820186905260e4820185905291925090891690638fcbaf0c9061010401600060405180830381600087803b1580156104a157600080fd5b505af11580156104b5573d6000803e3d6000fd5b5050600160005550505050505050505050565b6001600054146104ea5760405162461bcd60e51b81526004016103b590611f1d565b600260009081556104f9611550565b9050806001600160a01b0316836001600160a01b03167f57b7591996b63beb220451b64468c7ae28028af074ca4808b43e62ccf53630938460405161054091815260200190565b60405180910390a36001600160a01b038084166000908152600c602052604090205416806105aa5760405162461bcd60e51b8152602060048201526017602482015276194bd95e1958cbdc1d1bdad95b8b5b9bdd0b599bdd5b99604a1b60448201526064016103b5565b6040516370a0823160e01b81526001600160a01b038281166004830152600091908616906370a0823190602401602060405180830381865afa1580156105f4573d6000803e3d6000fd5b505050506040513d601f19601f820116820180604052508101906106189190611f7a565b90506106268584848761155c565b6040516370a0823160e01b81526001600160a01b038381166004830152600091908716906370a0823190602401602060405180830381865afa158015610670573d6000803e3d6000fd5b505050506040513d601f19601f820116820180604052508101906106949190611f7a565b90506106a08583611fa9565b81146106ee5760405162461bcd60e51b815260206004820152601f60248201527f652f657865632f70746f6b656e2d7472616e736665722d6d69736d617463680060448201526064016103b5565b505060405163b77dfe0360e01b81526001600160a01b03838116600483015282169063b77dfe03906024015b600060405180830381600087803b15801561073457600080fd5b505af1158015610748573d6000803e3d6000fd5b50506001600055505050505050565b6040516001600160a01b0382166024820152600090819081906107bd90620f4240906341976e0960e01b906044015b60408051601f198184030181529190526020810180516001600160e01b03166001600160e01b031990931692909217909152611654565b9050808060200190518101906107d39190611fbc565b909590945092505050565b6060600080846001600160a01b0316846040516107fb9190611fe0565b600060405180830381855afa9150503d8060008114610836576040519150601f19603f3d011682016040523d82523d6000602084013e61083b565b606091505b50915091508161084e5761084e816116de565b805181602001f35b600060016000541461087a5760405162461bcd60e51b81526004016103b590611f1d565b600260005561088882611725565b600160005592915050565b6001600054146108b55760405162461bcd60e51b81526004016103b590611f1d565b600260009081556108c4611550565b905060006108d2828661178e565b9050836001600160a01b0316816001600160a01b03160361093f5760405162461bcd60e51b815260206004820152602160248201527f652f747261636b2d6c69717569646974792f73656c662d64656c65676174696f6044820152603760f91b60648201526084016103b5565b836001600160a01b0316816001600160a01b03167f051502faf43051388110b7fe115f611d5a926cebe3afba5e97616e187a9d1a8360405160405180910390a36001600160a01b03818116600090815260066020526040902060020180546001600160a01b03191691861691909117905582156109bd575050610a28565b6040516001600160a01b038216907f2f14ab30bf36a91e75ee398a1e22ab477e868b5ff60a364c51617e4b5478355290600090a26001600160a01b03166000908152600660205260408120805465ffffffffff0019166101004264ffffffffff160217815560010155505b5050600160005550565b6000610a3c611550565b6001600160a01b03841660009081526006602052604090205490915060ff1615610a9d5760405162461bcd60e51b8152602060048201526012602482015271652f64656665722f7265656e7472616e637960701b60448201526064016103b5565b6001600160a01b0380841660009081526006602052604090819020805460ff191660011790555163a15db5c560e01b81529082169063a15db5c590610ae6908590600401611d0d565b600060405180830381600087803b158015610b0057600080fd5b505af1158015610b14573d6000803e3d6000fd5b505050506001600160a01b0383166000908152600660205260409020805460ff19811690915560ff166001198101610b4f57610b4f846117e6565b50505050565b6040516001600160a01b0382166024820152600090819081908190610b8a90620f424090639693fa6b60e01b90604401610786565b905080806020019051810190610ba09190611ffc565b919790965090945092505050565b600160005414610bd05760405162461bcd60e51b81526004016103b590611f1d565b600260009081556001600160a01b038781168252600860205260409091205416610c0c5760405162461bcd60e51b81526004016103b590611f43565b6000610c16611550565b60405163d505accf60e01b81526001600160a01b038083166004830152306024830152604482018990526064820188905260ff8716608483015260a4820186905260c482018590529192509088169063d505accf9060e401600060405180830381600087803b158015610c8857600080fd5b505af1158015610c9c573d6000803e3d6000fd5b50506001600055505050505050505050565b610cdb60405180608001604052806000815260200160008152602001600081526020016000151581525090565b6040516001600160a01b0383166024820152600090610d0a90620f424090631bff4ba560e11b90604401610786565b905080806020019051810190610d20919061209a565b9392505050565b600160005414610d495760405162461bcd60e51b81526004016103b590611f1d565b600260009081556001600160a01b038681168252600860205260409091205416610d855760405162461bcd60e51b81526004016103b590611f43565b6000610d8f611550565b604051639fd5a6cf60e01b81529091506001600160a01b03871690639fd5a6cf90610dc890849030908a908a908a908a906004016120b6565b600060405180830381600087803b158015610de257600080fd5b505af1158015610df6573d6000803e3d6000fd5b505060016000555050505050505050565b600160005414610e295760405162461bcd60e51b81526004016103b590611f1d565b60026000908155610e38611550565b90506000610e46828461178e565b6040519091506001600160a01b038216907f3ec5abf257929cda6ab723d94fd209371973b3fe82857ed2e3d114caeb14ec1190600090a26040516000906001600160a01b038316907f051502faf43051388110b7fe115f611d5a926cebe3afba5e97616e187a9d1a83908390a36001600160a01b03166000908152600660205260408120805465ffffffffff00191681556001808201839055600290910180546001600160a01b031916905590555050565b600160005414610f1a5760405162461bcd60e51b81526004016103b590611f1d565b60026000908155610f29611550565b9050806001600160a01b0316836001600160a01b03167f445b2ab817a8c867c93a3bf9ef795d39620e5ac916be6cba45d7baed85c785ca84604051610f7091815260200190565b60405180910390a36001600160a01b038084166000908152600c60205260409020541680610fda5760405162461bcd60e51b8152602060048201526017602482015276194bd95e1958cbdc1d1bdad95b8b5b9bdd0b599bdd5b99604a1b60448201526064016103b5565b604051631ed575db60e01b81526001600160a01b03838116600483015260248201859052821690631ed575db9060440161071a565b6040516001600160a01b038216602482015260609060009061104190620f42409063ebd7ba1960e01b90604401610786565b905080806020019051810190610d209190612112565b6001600160a01b038082166000818152600660205260408082206002908101548516808452918320015491939092911614611093576000610d20565b92915050565b60006001600054146110bd5760405162461bcd60e51b81526004016103b590611f1d565b60026000556108888261186c565b610b4f8484848460005b60006110df611550565b905060005b838110156111a1576000858583818110611100576111006121ed565b90506020020160208101906111159190611b88565b6001600160a01b03811660009081526006602052604090205490915060ff16156111765760405162461bcd60e51b8152602060048201526012602482015271652f62617463682f7265656e7472616e637960701b60448201526064016103b5565b6001600160a01b03166000908152600660205260409020805460ff19166001908117909155016110e4565b506060821561120d578567ffffffffffffffff8111156111c3576111c3611ba5565b60405190808252806020026020018201604052801561120957816020015b6040805180820190915260008152606060208201528152602001906001900390816111e15790505b5090505b60005b868110156114ac573688888381811061122b5761122b6121ed565b905060200281019061123d9190612203565b905060006112516040830160208401611b88565b6001600160a01b0380821660009081526005602052604081205492935063ffffffff8316926401000000009004909116908290036112d15760405162461bcd60e51b815260206004820152601a60248201527f652f62617463682f756e6b6e6f776e2d70726f78792d6164647200000000000060448201526064016103b5565b620f423f8263ffffffff16111561132a5760405162461bcd60e51b815260206004820152601f60248201527f652f62617463682f63616c6c2d746f2d696e7465726e616c2d6d6f64756c650060448201526064016103b5565b6001600160a01b038116611359575063ffffffff81166000908152600360205260409020546001600160a01b03165b6001600160a01b0381166113af5760405162461bcd60e51b815260206004820152601c60248201527f652f62617463682f6d6f64756c652d6e6f742d696e7374616c6c65640000000060448201526064016103b5565b60006113be6040860186612219565b89866040516020016113d39493929190612260565b6040516020818303038152906040529050600080836001600160a01b0316836040516113ff9190611fe0565b600060405180830381855af49150503d806000811461143a576040519150601f19603f3d011682016040523d82523d6000602084013e61143f565b606091505b50915091508a1561147957600089898151811061145e5761145e6121ed565b6020908102919091018101518415158152018290525061149a565b818061148d575061148d6020880188612290565b61149a5761149a816116de565b50505050505050806001019050611210565b5082156114ce5780604051634019658760e11b81526004016103b591906122ad565b60005b848110156115465760008686838181106114ed576114ed6121ed565b90506020020160208101906115029190611b88565b6001600160a01b0381166000908152600660205260409020805460ff19811690915590915060ff16600119810161153c5761153c826117e6565b50506001016114d1565b5050505050505050565b60271936013560601c90565b604080516001600160a01b0385811660248301528481166044830152606480830185905283518084039091018152608490920183526020820180516001600160e01b03166323b872dd60e01b17905291516000928392908816916115c09190611fe0565b6000604051808303816000865af19150503d80600081146115fd576040519150601f19603f3d011682016040523d82523d6000602084013e611602565b606091505b509150915081801561162c57508051158061162c57508080602001905181019061162c9190612325565b819061164b5760405162461bcd60e51b81526004016103b59190611d0d565b50505050505050565b6000828152600360205260408082205490516060929182916001600160a01b0390911690611683908690611fe0565b600060405180830381855af49150503d80600081146116be576040519150601f19603f3d011682016040523d82523d6000602084013e6116c3565b606091505b5091509150816116d6576116d6816116de565b949350505050565b8051156116ed57805181602001fd5b60405162461bcd60e51b815260206004820152600d60248201526c3297b2b6b83a3c96b2b93937b960991b60448201526064016103b5565b6001600160a01b03808216600090815260066020526040812060020154909116801580159061177357506001600160a01b038181166000908152600660205260409020600201548116908416145b611785576117808361186c565b610d20565b610d208161186c565b600061010082106117e15760405162461bcd60e51b815260206004820152601860248201527f652f7375622d6163636f756e742d69642d746f6f2d626967000000000000000060448201526064016103b5565b501890565b6001600160a01b03811660009081526006602052604090205460ff1680611838576040516001600160a01b038316602482015261183390620f4240906361cdaa1d60e11b90604401610786565b505050565b60001960ff821601611868576001600160a01b0382166000908152600660205260409020805460ff191660021790555b5050565b6001600160a01b038116600090815260066020526040812054610100900464ffffffffff168082036118a15750600092915050565b60006118ad8242612342565b9050806000036118d8575050506001600160a01b031660009081526006602052604090206001015490565b6116d68482600080620151808310156118f157826118f6565b620151805b905060006119078262015180612342565b905060008060006119178861199b565b91509150808211611929576000611933565b6119338183612342565b925050506201518083826119479190612355565b611951919061236c565b6001600160a01b038716600090815260066020526040902060010154620151809061197d908590612355565b611987919061236c565b6119919190611fa9565b9695505050505050565b6040516001600160a01b0382166024820152600090819081906119ce90620f424090631bff4ba560e11b90604401610786565b90506000818060200190518101906119e6919061209a565b805160209091015190969095509350505050565b60008083601f840112611a0c57600080fd5b50813567ffffffffffffffff811115611a2457600080fd5b6020830191508360208260051b8501011115611a3f57600080fd5b9250929050565b60008060008060408587031215611a5c57600080fd5b843567ffffffffffffffff80821115611a7457600080fd5b611a80888389016119fa565b90965094506020870135915080821115611a9957600080fd5b50611aa6878288016119fa565b95989497509550505050565b6001600160a01b0381168114611ac757600080fd5b50565b8015158114611ac757600080fd5b803560ff81168114611ae957600080fd5b919050565b600080600080600080600060e0888a031215611b0957600080fd5b8735611b1481611ab2565b965060208801359550604088013594506060880135611b3281611aca565b9350611b4060808901611ad8565b925060a0880135915060c0880135905092959891949750929550565b60008060408385031215611b6f57600080fd5b8235611b7a81611ab2565b946020939093013593505050565b600060208284031215611b9a57600080fd5b8135610d2081611ab2565b634e487b7160e01b600052604160045260246000fd5b6040805190810167ffffffffffffffff81118282101715611bde57611bde611ba5565b60405290565b604051601f8201601f1916810167ffffffffffffffff81118282101715611c0d57611c0d611ba5565b604052919050565b60008060408385031215611c2857600080fd5b8235611c3381611ab2565b915060208381013567ffffffffffffffff80821115611c5157600080fd5b818601915086601f830112611c6557600080fd5b813581811115611c7757611c77611ba5565b611c89601f8201601f19168501611be4565b91508082528784828501011115611c9f57600080fd5b80848401858401376000848284010152508093505050509250929050565b60005b83811015611cd8578181015183820152602001611cc0565b50506000910152565b60008151808452611cf9816020860160208601611cbd565b601f01601f19169290920160200192915050565b602081526000610d206020830184611ce1565b600080600060608486031215611d3557600080fd5b833592506020840135611d4781611ab2565b91506040840135611d5781611aca565b809150509250925092565b60008060008060008060c08789031215611d7b57600080fd5b8635611d8681611ab2565b95506020870135945060408701359350611da260608801611ad8565b92506080870135915060a087013590509295509295509295565b81518152602080830151908201526040808301519082015260608083015115159082015260808101611093565b600080600080600060808688031215611e0157600080fd5b8535611e0c81611ab2565b94506020860135935060408601359250606086013567ffffffffffffffff80821115611e3757600080fd5b818801915088601f830112611e4b57600080fd5b813581811115611e5a57600080fd5b896020828501011115611e6c57600080fd5b9699959850939650602001949392505050565b600060208284031215611e9157600080fd5b5035919050565b6020808252825182820181905260009190848201906040850190845b81811015611f1157835180516001600160a01b03168452850151611efd868501828051825260208101516020830152604081015160408301526060810151151560608301525050565b509284019260a09290920191600101611eb4565b50909695505050505050565b6020808252600c908201526b652f7265656e7472616e637960a01b604082015260600190565b6020808252601b908201527f652f657865632f6d61726b65742d6e6f742d6163746976617465640000000000604082015260600190565b600060208284031215611f8c57600080fd5b5051919050565b634e487b7160e01b600052601160045260246000fd5b8082018082111561109357611093611f93565b60008060408385031215611fcf57600080fd5b505080516020909101519092909150565b60008251611ff2818460208701611cbd565b9190910192915050565b60008060006060848603121561201157600080fd5b8351925060208401519150604084015190509250925092565b60006080828403121561203c57600080fd5b6040516080810181811067ffffffffffffffff8211171561205f5761205f611ba5565b8060405250809150825181526020830151602082015260408301516040820152606083015161208d81611aca565b6060919091015292915050565b6000608082840312156120ac57600080fd5b610d20838361202a565b6001600160a01b03878116825286166020820152604081018590526060810184905260a06080820181905281018290526000828460c0840137600060c0848401015260c0601f19601f8501168301019050979650505050505050565b6000602080838503121561212557600080fd5b825167ffffffffffffffff8082111561213d57600080fd5b818501915085601f83011261215157600080fd5b81518181111561216357612163611ba5565b612171848260051b01611be4565b818152848101925060a091820284018501918883111561219057600080fd5b938501935b828510156121e15780858a0312156121ad5760008081fd5b6121b5611bbb565b85516121c081611ab2565b81526121ce8a87890161202a565b8188015284529384019392850192612195565b50979650505050505050565b634e487b7160e01b600052603260045260246000fd5b60008235605e19833603018112611ff257600080fd5b6000808335601e1984360301811261223057600080fd5b83018035915067ffffffffffffffff82111561224b57600080fd5b602001915036819003821315611a3f57600080fd5b838582376bffffffffffffffffffffffff19606093841b811694909101938452911b166014820152602801919050565b6000602082840312156122a257600080fd5b8135610d2081611aca565b600060208083018184528085518083526040925060408601915060408160051b87010184880160005b8381101561231757888303603f19018552815180511515845287015187840187905261230487850182611ce1565b95880195935050908601906001016122d6565b509098975050505050505050565b60006020828403121561233757600080fd5b8151610d2081611aca565b8181038181111561109357611093611f93565b808202811582820484141761109357611093611f93565b60008261238957634e487b7160e01b600052601260045260246000fd5b50049056fea2646970667358221220103ea2bdebbdd13f5eb07081cf28ee86b7e2d0e87993c034421f99c1a6cef49364736f6c63430008170033","linkReferences":{}},"methodIdentifiers":{"batchDispatch((bool,address,bytes)[],address[])":"eb937aeb","batchDispatchSimulate((bool,address,bytes)[],address[])":"05d73427","deferLiquidityCheck(address,bytes)":"89b7b7a6","detailedLiquidity(address)":"dec82caf","doStaticCall(address,bytes)":"5eec2fe8","getAverageLiquidity(address)":"e94f487f","getAverageLiquidityDelegateAccount(address)":"df6b2aab","getAverageLiquidityWithDelegate(address)":"5f40fd76","getPrice(address)":"41976e09","getPriceFull(address)":"9693fa6b","liquidity(address)":"b8c876b1","moduleGitCommit()":"69a92ea3","moduleId()":"a1308f27","pTokenUnWrap(address,uint256)":"d346cb93","pTokenWrap(address,uint256)":"2c01aa4d","trackAverageLiquidity(uint256,address,bool)":"6c744e36","unTrackAverageLiquidity(uint256)":"c053d956","usePermit(address,uint256,uint256,uint8,bytes32,bytes32)":"a3e02273","usePermitAllowed(address,uint256,uint256,bool,uint8,bytes32,bytes32)":"0f5621e7","usePermitPacked(address,uint256,uint256,bytes)":"bf143b34"},"id":20}