{"abi":[{"type":"constructor","inputs":[{"name":"_dai","type":"address","internalType":"contract IERC20"},{"name":"_eDAI","type":"address","internalType":"contract IEToken"},{"name":"_dDAI","type":"address","internalType":"contract IDToken"},{"name":"_euler","type":"address","internalType":"address"}],"stateMutability":"nonpayable"},{"type":"function","name":"violate","inputs":[],"outputs":[],"stateMutability":"nonpayable"}],"bytecode":{"object":"0x61010060405234801561001157600080fd5b506040516106443803806106448339810160408190526100309161006a565b6001600160a01b0393841660805291831660a052821660c0521660e0526100c9565b6001600160a01b038116811461006757600080fd5b50565b6000806000806080858703121561008057600080fd5b845161008b81610052565b602086015190945061009c81610052565b60408601519093506100ad81610052565b60608601519092506100be81610052565b939692955090935050565b60805160a05160c05160e05161052861011c60003960006051015260006102bf0152600081816101160152818161018f015281816102360152818161034a01526103d501526000608101526105286000f3fe608060405234801561001057600080fd5b506004361061002b5760003560e01c8063e8e6217814610030575b600080fd5b61003861003a565b005b60405163095ea7b360e01b81526001600160a01b037f00000000000000000000000000000000000000000000000000000000000000008116600483015260001960248301527f0000000000000000000000000000000000000000000000000000000000000000169063095ea7b3906044016020604051808303816000875af11580156100ca573d6000803e3d6000fd5b505050506040513d601f19601f820116820180604052508101906100ee91906104a6565b50604051631c57762b60e31b8152600060048201526a108b2a2c2802909400000060248201527f00000000000000000000000000000000000000000000000000000000000000006001600160a01b03169063e2bbb15890604401600060405180830381600087803b15801561016257600080fd5b505af1158015610176573d6000803e3d6000fd5b505060405163d3ea0f8960e01b81526001600160a01b037f0000000000000000000000000000000000000000000000000000000000000000166004820181905261020f9350915063d3ea0f8990602401602060405180830381865afa1580156101e3573d6000803e3d6000fd5b505050506040513d601f19601f8201168201806040525081019061020791906104cf565b600b0b61043d565b604051630d9778e560e11b8152600060048201526aa56fa5b99019a5c800000060248201527f00000000000000000000000000000000000000000000000000000000000000006001600160a01b031690631b2ef1ca90604401600060405180830381600087803b15801561028257600080fd5b505af1158015610296573d6000803e3d6000fd5b505060405163d8aed14560e01b8152600060048201526a084595161401484a00000060248201527f00000000000000000000000000000000000000000000000000000000000000006001600160a01b0316925063d8aed1459150604401600060405180830381600087803b15801561030d57600080fd5b505af1158015610321573d6000803e3d6000fd5b5050604051630d9778e560e11b8152600060048201526aa56fa5b99019a5c800000060248201527f00000000000000000000000000000000000000000000000000000000000000006001600160a01b03169250631b2ef1ca9150604401600060405180830381600087803b15801561039857600080fd5b505af11580156103ac573d6000803e3d6000fd5b5050604051631b78115560e11b8152600060048201526a52b7d2dcc80cd2e400000060248201527f00000000000000000000000000000000000000000000000000000000000000006001600160a01b031692506336f022aa9150604401600060405180830381600087803b15801561042357600080fd5b505af1158015610437573d6000803e3d6000fd5b50505050565b6104828160405160240161045391815260200190565b60408051601f198184030181529190526020810180516001600160e01b0316634e0c1d1d60e01b179052610485565b50565b80516a636f6e736f6c652e6c6f67602083016000808483855afa5050505050565b6000602082840312156104b857600080fd5b815180151581146104c857600080fd5b9392505050565b6000602082840312156104e157600080fd5b815180600b0b81146104c857600080fdfea2646970667358221220c9a84849d3adda92ca8025b59f159d2deb050526f3cacda8231a4e400273ad3264736f6c63430008170033","linkReferences":{}},"methodIdentifiers":{"violate()":"e8e62178"},"id":36}