{"abi":[{"type":"constructor","inputs":[{"name":"_dai","type":"address","internalType":"contract IERC20"},{"name":"_eDAI","type":"address","internalType":"contract IEToken"},{"name":"_dDAI","type":"address","internalType":"contract IDToken"},{"name":"_euler","type":"address","internalType":"address"},{"name":"_liquidation","type":"address","internalType":"contract ILiquidation"},{"name":"_markets","type":"address","internalType":"contract IMarkets"},{"name":"_person","type":"address","internalType":"address"}],"stateMutability":"nonpayable"},{"type":"function","name":"violate","inputs":[],"outputs":[],"stateMutability":"nonpayable"},{"type":"event","name":"log_named_decimal_uint","inputs":[{"name":"key","type":"string","indexed":false,"internalType":"string"},{"name":"val","type":"uint256","indexed":false,"internalType":"uint256"},{"name":"decimals","type":"uint256","indexed":false,"internalType":"uint256"}],"anonymous":false}],"bytecode":{"object":"0x6101606040523480156200001257600080fd5b506040516200112738038062001127833981016040819052620000359162000096565b6001600160a01b0396871660805294861660a05292851660c05290841660e05290831661010052821661012052600080546001600160a01b0319169190921617905562000141565b6001600160a01b03811681146200009357600080fd5b50565b600080600080600080600060e0888a031215620000b257600080fd5b8751620000bf816200007d565b6020890151909750620000d2816200007d565b6040890151909650620000e5816200007d565b6060890151909550620000f8816200007d565b60808901519094506200010b816200007d565b60a08901519093506200011e816200007d565b60c089015190925062000131816200007d565b8091505092959891949750929550565b60805160a05160c05160e051610100516101205161014051610f0b6200021c60003960005050600081816103ea01528181610663015281816108a70152610b200152600081816101f101528181610323015281816105c9015281816107e00152610a86015260006051015260006104ee015260008181610116015281816101c3015281816102aa015281816103520152818161059b015281816107670152818161080f015281816109ab0152610a5801526000818160810152818161041c01528181610695015281816108d90152610b520152610f0b6000f3fe608060405234801561001057600080fd5b506004361061002b5760003560e01c8063e8e6217814610030575b600080fd5b61003861003a565b005b60405163095ea7b360e01b81526001600160a01b037f00000000000000000000000000000000000000000000000000000000000000008116600483015260001960248301527f0000000000000000000000000000000000000000000000000000000000000000169063095ea7b3906044016020604051808303816000875af11580156100ca573d6000803e3d6000fd5b505050506040513d601f19601f820116820180604052508101906100ee9190610c66565b50604051631c57762b60e31b8152600060048201526a108b2a2c2802909400000060248201527f00000000000000000000000000000000000000000000000000000000000000006001600160a01b03169063e2bbb15890604401600060405180830381600087803b15801561016257600080fd5b505af1158015610176573d6000803e3d6000fd5b50506040516342ef90fb60e11b815260606004820152601d60648201527f4166746572206465706f736974696e67202876696f6c61746f72293a2000000060848201526001600160a01b037f0000000000000000000000000000000000000000000000000000000000000000811660248301523060448301527f00000000000000000000000000000000000000000000000000000000000000001692506385df21f6915060a4016060604051808303816000875af115801561023c573d6000803e3d6000fd5b505050506040513d601f19601f820116820180604052508101906102609190610c8f565b50610283604051806040016040528060018152602001600160fd1b815250610bff565b604051630d9778e560e11b8152600060048201526aa56fa5b99019a5c800000060248201527f00000000000000000000000000000000000000000000000000000000000000006001600160a01b031690631b2ef1ca90604401600060405180830381600087803b1580156102f657600080fd5b505af115801561030a573d6000803e3d6000fd5b50506040516342ef90fb60e11b81526001600160a01b037f00000000000000000000000000000000000000000000000000000000000000001692506385df21f6915061037c907f0000000000000000000000000000000000000000000000000000000000000000903090600401610d32565b6060604051808303816000875af115801561039b573d6000803e3d6000fd5b505050506040513d601f19601f820116820180604052508101906103bf9190610c8f565b50600054604051631a96d9d560e01b8152600080516020610eb6833981519152916001600160a01b037f0000000000000000000000000000000000000000000000000000000000000000811692631a96d9d59261044692169030907f0000000000000000000000000000000000000000000000000000000000000000908190600401610d80565b60c0604051808303816000875af1158015610465573d6000803e3d6000fd5b505050506040513d601f19601f820116820180604052508101906104899190610dab565b60400151601260405161049d929190610e33565b60405180910390a16104c7604051806040016040528060018152602001600160fd1b815250610bff565b60405163d8aed14560e01b8152600060048201526a084595161401484a00000060248201527f00000000000000000000000000000000000000000000000000000000000000006001600160a01b03169063d8aed14590604401600060405180830381600087803b15801561053a57600080fd5b505af115801561054e573d6000803e3d6000fd5b50506040516342ef90fb60e11b815260606004820152601b60648201527f4166746572207265706179696e67202876696f6c61746f72293a20000000000060848201526001600160a01b037f0000000000000000000000000000000000000000000000000000000000000000811660248301523060448301527f00000000000000000000000000000000000000000000000000000000000000001692506385df21f6915060a4016060604051808303816000875af1158015610614573d6000803e3d6000fd5b505050506040513d601f19601f820116820180604052508101906106389190610c8f565b50600054604051631a96d9d560e01b8152600080516020610eb6833981519152916001600160a01b037f0000000000000000000000000000000000000000000000000000000000000000811692631a96d9d5926106bf92169030907f0000000000000000000000000000000000000000000000000000000000000000908190600401610d80565b60c0604051808303816000875af11580156106de573d6000803e3d6000fd5b505050506040513d601f19601f820116820180604052508101906107029190610dab565b604001516012604051610716929190610e33565b60405180910390a1610740604051806040016040528060018152602001600160fd1b815250610bff565b604051630d9778e560e11b8152600060048201526aa56fa5b99019a5c800000060248201527f00000000000000000000000000000000000000000000000000000000000000006001600160a01b031690631b2ef1ca90604401600060405180830381600087803b1580156107b357600080fd5b505af11580156107c7573d6000803e3d6000fd5b50506040516342ef90fb60e11b81526001600160a01b037f00000000000000000000000000000000000000000000000000000000000000001692506385df21f69150610839907f0000000000000000000000000000000000000000000000000000000000000000903090600401610d32565b6060604051808303816000875af1158015610858573d6000803e3d6000fd5b505050506040513d601f19601f8201168201806040525081019061087c9190610c8f565b50600054604051631a96d9d560e01b8152600080516020610eb6833981519152916001600160a01b037f0000000000000000000000000000000000000000000000000000000000000000811692631a96d9d59261090392169030907f0000000000000000000000000000000000000000000000000000000000000000908190600401610d80565b60c0604051808303816000875af1158015610922573d6000803e3d6000fd5b505050506040513d601f19601f820116820180604052508101906109469190610dab565b60400151601260405161095a929190610e33565b60405180910390a1610984604051806040016040528060018152602001600160fd1b815250610bff565b604051631b78115560e11b8152600060048201526a52b7d2dcc80cd2e400000060248201527f00000000000000000000000000000000000000000000000000000000000000006001600160a01b0316906336f022aa90604401600060405180830381600087803b1580156109f757600080fd5b505af1158015610a0b573d6000803e3d6000fd5b50506040516342ef90fb60e11b815260606004820152601b60648201527f416674657220646f6e6174696e67202876696f6c61746f72293a20000000000060848201526001600160a01b037f0000000000000000000000000000000000000000000000000000000000000000811660248301523060448301527f00000000000000000000000000000000000000000000000000000000000000001692506385df21f6915060a4016060604051808303816000875af1158015610ad1573d6000803e3d6000fd5b505050506040513d601f19601f82011682018060405250810190610af59190610c8f565b50600054604051631a96d9d560e01b8152600080516020610eb6833981519152916001600160a01b037f0000000000000000000000000000000000000000000000000000000000000000811692631a96d9d592610b7c92169030907f0000000000000000000000000000000000000000000000000000000000000000908190600401610d80565b60c0604051808303816000875af1158015610b9b573d6000803e3d6000fd5b505050506040513d601f19601f82011682018060405250810190610bbf9190610dab565b604001516012604051610bd3929190610e33565b60405180910390a1610bfd604051806040016040528060018152602001600160fd1b815250610bff565b565b610c4281604051602401610c139190610e66565b60408051601f198184030181529190526020810180516001600160e01b031663104c13eb60e21b179052610c45565b50565b80516a636f6e736f6c652e6c6f67602083016000808483855afa5050505050565b600060208284031215610c7857600080fd5b81518015158114610c8857600080fd5b9392505050565b600060608284031215610ca157600080fd5b6040516060810181811067ffffffffffffffff82111715610cd257634e487b7160e01b600052604160045260246000fd5b60405282516dffffffffffffffffffffffffffff81168114610cf357600080fd5b8152602083015171ffffffffffffffffffffffffffffffffffff81168114610d1a57600080fd5b60208201526040928301519281019290925250919050565b6060808252601a908201527f4166746572206d696e74696e67202876696f6c61746f72293a2000000000000060808201526001600160a01b0392831660208201529116604082015260a00190565b6001600160a01b03948516815292841660208401529083166040830152909116606082015260800190565b600060c08284031215610dbd57600080fd5b60405160c0810181811067ffffffffffffffff82111715610dee57634e487b7160e01b600052604160045260246000fd5b8060405250825181526020830151602082015260408301516040820152606083015160608201526080830151608082015260a083015160a08201528091505092915050565b6060808252600c908201526b4865616c74682073636f726560a01b60808201526020810192909252604082015260a00190565b60006020808352835180602085015260005b81811015610e9457858101830151858201604001528201610e78565b506000604082860101526040601f19601f830116850101925050509291505056feeb8ba43ced7537421946bd43e828b8b2b8428927aa8f801c13d934bf11aca57ba2646970667358221220f12c8dab81906fff97f20fd1827f69dfb032a753c1d159970ba63201a176e18764736f6c63430008170033","linkReferences":{}},"methodIdentifiers":{"violate()":"e8e62178"},"id":37}