{"abi":[{"type":"constructor","inputs":[{"name":"moduleGitCommit_","type":"bytes32","internalType":"bytes32"}],"stateMutability":"nonpayable"},{"type":"function","name":"approveDebt","inputs":[{"name":"subAccountId","type":"uint256","internalType":"uint256"},{"name":"spender","type":"address","internalType":"address"},{"name":"amount","type":"uint256","internalType":"uint256"}],"outputs":[{"name":"","type":"bool","internalType":"bool"}],"stateMutability":"nonpayable"},{"type":"function","name":"balanceOf","inputs":[{"name":"account","type":"address","internalType":"address"}],"outputs":[{"name":"","type":"uint256","internalType":"uint256"}],"stateMutability":"view"},{"type":"function","name":"balanceOfExact","inputs":[{"name":"account","type":"address","internalType":"address"}],"outputs":[{"name":"","type":"uint256","internalType":"uint256"}],"stateMutability":"view"},{"type":"function","name":"borrow","inputs":[{"name":"subAccountId","type":"uint256","internalType":"uint256"},{"name":"amount","type":"uint256","internalType":"uint256"}],"outputs":[],"stateMutability":"nonpayable"},{"type":"function","name":"debtAllowance","inputs":[{"name":"holder","type":"address","internalType":"address"},{"name":"spender","type":"address","internalType":"address"}],"outputs":[{"name":"","type":"uint256","internalType":"uint256"}],"stateMutability":"view"},{"type":"function","name":"decimals","inputs":[],"outputs":[{"name":"","type":"uint8","internalType":"uint8"}],"stateMutability":"view"},{"type":"function","name":"flashLoan","inputs":[{"name":"amount","type":"uint256","internalType":"uint256"},{"name":"data","type":"bytes","internalType":"bytes"}],"outputs":[],"stateMutability":"nonpayable"},{"type":"function","name":"moduleGitCommit","inputs":[],"outputs":[{"name":"","type":"bytes32","internalType":"bytes32"}],"stateMutability":"view"},{"type":"function","name":"moduleId","inputs":[],"outputs":[{"name":"","type":"uint256","internalType":"uint256"}],"stateMutability":"view"},{"type":"function","name":"name","inputs":[],"outputs":[{"name":"","type":"string","internalType":"string"}],"stateMutability":"view"},{"type":"function","name":"repay","inputs":[{"name":"subAccountId","type":"uint256","internalType":"uint256"},{"name":"amount","type":"uint256","internalType":"uint256"}],"outputs":[],"stateMutability":"nonpayable"},{"type":"function","name":"symbol","inputs":[],"outputs":[{"name":"","type":"string","internalType":"string"}],"stateMutability":"view"},{"type":"function","name":"totalSupply","inputs":[],"outputs":[{"name":"","type":"uint256","internalType":"uint256"}],"stateMutability":"view"},{"type":"function","name":"totalSupplyExact","inputs":[],"outputs":[{"name":"","type":"uint256","internalType":"uint256"}],"stateMutability":"view"},{"type":"function","name":"transfer","inputs":[{"name":"to","type":"address","internalType":"address"},{"name":"amount","type":"uint256","internalType":"uint256"}],"outputs":[{"name":"","type":"bool","internalType":"bool"}],"stateMutability":"nonpayable"},{"type":"function","name":"transferFrom","inputs":[{"name":"from","type":"address","internalType":"address"},{"name":"to","type":"address","internalType":"address"},{"name":"amount","type":"uint256","internalType":"uint256"}],"outputs":[{"name":"","type":"bool","internalType":"bool"}],"stateMutability":"nonpayable"},{"type":"function","name":"underlyingAsset","inputs":[],"outputs":[{"name":"","type":"address","internalType":"address"}],"stateMutability":"view"},{"type":"event","name":"Approval","inputs":[{"name":"owner","type":"address","indexed":true,"internalType":"address"},{"name":"spender","type":"address","indexed":true,"internalType":"address"},{"name":"value","type":"uint256","indexed":false,"internalType":"uint256"}],"anonymous":false},{"type":"event","name":"AssetStatus","inputs":[{"name":"underlying","type":"address","indexed":true,"internalType":"address"},{"name":"totalBalances","type":"uint256","indexed":false,"internalType":"uint256"},{"name":"totalBorrows","type":"uint256","indexed":false,"internalType":"uint256"},{"name":"reserveBalance","type":"uint96","indexed":false,"internalType":"uint96"},{"name":"poolSize","type":"uint256","indexed":false,"internalType":"uint256"},{"name":"interestAccumulator","type":"uint256","indexed":false,"internalType":"uint256"},{"name":"interestRate","type":"int96","indexed":false,"internalType":"int96"},{"name":"timestamp","type":"uint256","indexed":false,"internalType":"uint256"}],"anonymous":false},{"type":"event","name":"Borrow","inputs":[{"name":"underlying","type":"address","indexed":true,"internalType":"address"},{"name":"account","type":"address","indexed":true,"internalType":"address"},{"name":"amount","type":"uint256","indexed":false,"internalType":"uint256"}],"anonymous":false},{"type":"event","name":"DelegateAverageLiquidity","inputs":[{"name":"account","type":"address","indexed":true,"internalType":"address"},{"name":"delegate","type":"address","indexed":true,"internalType":"address"}],"anonymous":false},{"type":"event","name":"Deposit","inputs":[{"name":"underlying","type":"address","indexed":true,"internalType":"address"},{"name":"account","type":"address","indexed":true,"internalType":"address"},{"name":"amount","type":"uint256","indexed":false,"internalType":"uint256"}],"anonymous":false},{"type":"event","name":"EnterMarket","inputs":[{"name":"underlying","type":"address","indexed":true,"internalType":"address"},{"name":"account","type":"address","indexed":true,"internalType":"address"}],"anonymous":false},{"type":"event","name":"ExitMarket","inputs":[{"name":"underlying","type":"address","indexed":true,"internalType":"address"},{"name":"account","type":"address","indexed":true,"internalType":"address"}],"anonymous":false},{"type":"event","name":"Genesis","inputs":[],"anonymous":false},{"type":"event","name":"GovConvertReserves","inputs":[{"name":"underlying","type":"address","indexed":true,"internalType":"address"},{"name":"recipient","type":"address","indexed":true,"internalType":"address"},{"name":"amount","type":"uint256","indexed":false,"internalType":"uint256"}],"anonymous":false},{"type":"event","name":"GovSetAssetConfig","inputs":[{"name":"underlying","type":"address","indexed":true,"internalType":"address"},{"name":"newConfig","type":"tuple","indexed":false,"internalType":"struct Storage.AssetConfig","components":[{"name":"eTokenAddress","type":"address","internalType":"address"},{"name":"borrowIsolated","type":"bool","internalType":"bool"},{"name":"collateralFactor","type":"uint32","internalType":"uint32"},{"name":"borrowFactor","type":"uint32","internalType":"uint32"},{"name":"twapWindow","type":"uint24","internalType":"uint24"}]}],"anonymous":false},{"type":"event","name":"GovSetChainlinkPriceFeed","inputs":[{"name":"underlying","type":"address","indexed":true,"internalType":"address"},{"name":"chainlinkAggregator","type":"address","indexed":false,"internalType":"address"}],"anonymous":false},{"type":"event","name":"GovSetIRM","inputs":[{"name":"underlying","type":"address","indexed":true,"internalType":"address"},{"name":"interestRateModel","type":"uint256","indexed":false,"internalType":"uint256"},{"name":"resetParams","type":"bytes","indexed":false,"internalType":"bytes"}],"anonymous":false},{"type":"event","name":"GovSetPricingConfig","inputs":[{"name":"underlying","type":"address","indexed":true,"internalType":"address"},{"name":"newPricingType","type":"uint16","indexed":false,"internalType":"uint16"},{"name":"newPricingParameter","type":"uint32","indexed":false,"internalType":"uint32"}],"anonymous":false},{"type":"event","name":"GovSetReserveFee","inputs":[{"name":"underlying","type":"address","indexed":true,"internalType":"address"},{"name":"newReserveFee","type":"uint32","indexed":false,"internalType":"uint32"}],"anonymous":false},{"type":"event","name":"InstallerInstallModule","inputs":[{"name":"moduleId","type":"uint256","indexed":true,"internalType":"uint256"},{"name":"moduleImpl","type":"address","indexed":true,"internalType":"address"},{"name":"moduleGitCommit","type":"bytes32","indexed":false,"internalType":"bytes32"}],"anonymous":false},{"type":"event","name":"InstallerSetGovernorAdmin","inputs":[{"name":"newGovernorAdmin","type":"address","indexed":true,"internalType":"address"}],"anonymous":false},{"type":"event","name":"InstallerSetUpgradeAdmin","inputs":[{"name":"newUpgradeAdmin","type":"address","indexed":true,"internalType":"address"}],"anonymous":false},{"type":"event","name":"Liquidation","inputs":[{"name":"liquidator","type":"address","indexed":true,"internalType":"address"},{"name":"violator","type":"address","indexed":true,"internalType":"address"},{"name":"underlying","type":"address","indexed":true,"internalType":"address"},{"name":"collateral","type":"address","indexed":false,"internalType":"address"},{"name":"repay","type":"uint256","indexed":false,"internalType":"uint256"},{"name":"yield","type":"uint256","indexed":false,"internalType":"uint256"},{"name":"healthScore","type":"uint256","indexed":false,"internalType":"uint256"},{"name":"baseDiscount","type":"uint256","indexed":false,"internalType":"uint256"},{"name":"discount","type":"uint256","indexed":false,"internalType":"uint256"}],"anonymous":false},{"type":"event","name":"MarketActivated","inputs":[{"name":"underlying","type":"address","indexed":true,"internalType":"address"},{"name":"eToken","type":"address","indexed":true,"internalType":"address"},{"name":"dToken","type":"address","indexed":true,"internalType":"address"}],"anonymous":false},{"type":"event","name":"PTokenActivated","inputs":[{"name":"underlying","type":"address","indexed":true,"internalType":"address"},{"name":"pToken","type":"address","indexed":true,"internalType":"address"}],"anonymous":false},{"type":"event","name":"PTokenUnWrap","inputs":[{"name":"underlying","type":"address","indexed":true,"internalType":"address"},{"name":"account","type":"address","indexed":true,"internalType":"address"},{"name":"amount","type":"uint256","indexed":false,"internalType":"uint256"}],"anonymous":false},{"type":"event","name":"PTokenWrap","inputs":[{"name":"underlying","type":"address","indexed":true,"internalType":"address"},{"name":"account","type":"address","indexed":true,"internalType":"address"},{"name":"amount","type":"uint256","indexed":false,"internalType":"uint256"}],"anonymous":false},{"type":"event","name":"ProxyCreated","inputs":[{"name":"proxy","type":"address","indexed":true,"internalType":"address"},{"name":"moduleId","type":"uint256","indexed":false,"internalType":"uint256"}],"anonymous":false},{"type":"event","name":"Repay","inputs":[{"name":"underlying","type":"address","indexed":true,"internalType":"address"},{"name":"account","type":"address","indexed":true,"internalType":"address"},{"name":"amount","type":"uint256","indexed":false,"internalType":"uint256"}],"anonymous":false},{"type":"event","name":"RequestBorrow","inputs":[{"name":"account","type":"address","indexed":true,"internalType":"address"},{"name":"amount","type":"uint256","indexed":false,"internalType":"uint256"}],"anonymous":false},{"type":"event","name":"RequestBurn","inputs":[{"name":"account","type":"address","indexed":true,"internalType":"address"},{"name":"amount","type":"uint256","indexed":false,"internalType":"uint256"}],"anonymous":false},{"type":"event","name":"RequestDeposit","inputs":[{"name":"account","type":"address","indexed":true,"internalType":"address"},{"name":"amount","type":"uint256","indexed":false,"internalType":"uint256"}],"anonymous":false},{"type":"event","name":"RequestDonate","inputs":[{"name":"account","type":"address","indexed":true,"internalType":"address"},{"name":"amount","type":"uint256","indexed":false,"internalType":"uint256"}],"anonymous":false},{"type":"event","name":"RequestLiquidate","inputs":[{"name":"liquidator","type":"address","indexed":true,"internalType":"address"},{"name":"violator","type":"address","indexed":true,"internalType":"address"},{"name":"underlying","type":"address","indexed":true,"internalType":"address"},{"name":"collateral","type":"address","indexed":false,"internalType":"address"},{"name":"repay","type":"uint256","indexed":false,"internalType":"uint256"},{"name":"minYield","type":"uint256","indexed":false,"internalType":"uint256"}],"anonymous":false},{"type":"event","name":"RequestMint","inputs":[{"name":"account","type":"address","indexed":true,"internalType":"address"},{"name":"amount","type":"uint256","indexed":false,"internalType":"uint256"}],"anonymous":false},{"type":"event","name":"RequestRepay","inputs":[{"name":"account","type":"address","indexed":true,"internalType":"address"},{"name":"amount","type":"uint256","indexed":false,"internalType":"uint256"}],"anonymous":false},{"type":"event","name":"RequestSwap","inputs":[{"name":"accountIn","type":"address","indexed":true,"internalType":"address"},{"name":"accountOut","type":"address","indexed":true,"internalType":"address"},{"name":"underlyingIn","type":"address","indexed":true,"internalType":"address"},{"name":"underlyingOut","type":"address","indexed":false,"internalType":"address"},{"name":"amount","type":"uint256","indexed":false,"internalType":"uint256"},{"name":"swapType","type":"uint256","indexed":false,"internalType":"uint256"}],"anonymous":false},{"type":"event","name":"RequestSwapHub","inputs":[{"name":"accountIn","type":"address","indexed":true,"internalType":"address"},{"name":"accountOut","type":"address","indexed":true,"internalType":"address"},{"name":"underlyingIn","type":"address","indexed":true,"internalType":"address"},{"name":"underlyingOut","type":"address","indexed":false,"internalType":"address"},{"name":"amountIn","type":"uint256","indexed":false,"internalType":"uint256"},{"name":"amountOut","type":"uint256","indexed":false,"internalType":"uint256"},{"name":"mode","type":"uint256","indexed":false,"internalType":"uint256"},{"name":"swapHandler","type":"address","indexed":false,"internalType":"address"}],"anonymous":false},{"type":"event","name":"RequestSwapHubRepay","inputs":[{"name":"accountIn","type":"address","indexed":true,"internalType":"address"},{"name":"accountOut","type":"address","indexed":true,"internalType":"address"},{"name":"underlyingIn","type":"address","indexed":true,"internalType":"address"},{"name":"underlyingOut","type":"address","indexed":false,"internalType":"address"},{"name":"targetDebt","type":"uint256","indexed":false,"internalType":"uint256"},{"name":"swapHandler","type":"address","indexed":false,"internalType":"address"}],"anonymous":false},{"type":"event","name":"RequestTransferDToken","inputs":[{"name":"from","type":"address","indexed":true,"internalType":"address"},{"name":"to","type":"address","indexed":true,"internalType":"address"},{"name":"amount","type":"uint256","indexed":false,"internalType":"uint256"}],"anonymous":false},{"type":"event","name":"RequestTransferEToken","inputs":[{"name":"from","type":"address","indexed":true,"internalType":"address"},{"name":"to","type":"address","indexed":true,"internalType":"address"},{"name":"amount","type":"uint256","indexed":false,"internalType":"uint256"}],"anonymous":false},{"type":"event","name":"RequestWithdraw","inputs":[{"name":"account","type":"address","indexed":true,"internalType":"address"},{"name":"amount","type":"uint256","indexed":false,"internalType":"uint256"}],"anonymous":false},{"type":"event","name":"TrackAverageLiquidity","inputs":[{"name":"account","type":"address","indexed":true,"internalType":"address"}],"anonymous":false},{"type":"event","name":"Transfer","inputs":[{"name":"from","type":"address","indexed":true,"internalType":"address"},{"name":"to","type":"address","indexed":true,"internalType":"address"},{"name":"value","type":"uint256","indexed":false,"internalType":"uint256"}],"anonymous":false},{"type":"event","name":"UnTrackAverageLiquidity","inputs":[{"name":"account","type":"address","indexed":true,"internalType":"address"}],"anonymous":false},{"type":"event","name":"Withdraw","inputs":[{"name":"underlying","type":"address","indexed":true,"internalType":"address"},{"name":"account","type":"address","indexed":true,"internalType":"address"},{"name":"amount","type":"uint256","indexed":false,"internalType":"uint256"}],"anonymous":false}],"bytecode":{"object":"0x60c06040523480156200001157600080fd5b5060405162002fea38038062002fea833981016040819052620000349162000044565b6207a12160805260a0526200005e565b6000602082840312156200005757600080fd5b5051919050565b60805160a051612f666200008460003960006101dc015260006102510152612f666000f3fe608060405234801561001057600080fd5b506004361061010b5760003560e01c80635ea0c45f116100a25780637ca90140116100715780637ca901401461023157806395d89b4114610244578063a1308f271461024c578063a9059cbb14610273578063d8aed1451461028657600080fd5b80635ea0c45f146101cf57806369a92ea3146101d757806370a08231146101fe5780637158da7c1461021157600080fd5b80631c9f006f116100de5780631c9f006f1461016c57806323b872dd1461017f578063313ce567146101a25780635296a431146101bc57600080fd5b806306fdde03146101105780630b2d90701461012e5780630ecbcdab1461014f57806318160ddd14610164575b600080fd5b610118610299565b60405161012591906129ae565b60405180910390f35b61014161013c3660046129fd565b610335565b604051908152602001610125565b61016261015d366004612a30565b6103ae565b005b61014161050d565b61014161017a366004612a52565b610563565b61019261018d366004612a6d565b6105c8565b6040519015158152602001610125565b6101aa610861565b60405160ff9091168152602001610125565b6101626101ca366004612aa9565b610882565b610141610a58565b6101417f000000000000000000000000000000000000000000000000000000000000000081565b61014161020c366004612a52565b610a8c565b610219610ac8565b6040516001600160a01b039091168152602001610125565b61019261023f366004612b25565b610add565b610118610bf0565b6101417f000000000000000000000000000000000000000000000000000000000000000081565b610192610281366004612b4a565b610c77565b610162610294366004612a30565b610c8c565b606060006102a5610da9565b5050509050806001600160a01b03166306fdde036040518163ffffffff1660e01b8152600401600060405180830381865afa1580156102e8573d6000803e3d6000fd5b505050506040513d6000823e601f3d908101601f191682016040526103109190810190612b8a565b6040516020016103209190612c37565b60405160208183030381529060405291505090565b6000806000610342610da9565b50509150915060006103548383610e53565b6001600160a01b0380881660009081526007850160209081526040808320938a1683529290522054909150600019811461039d576101a08201516103989082612c97565b6103a1565b6000195b9450505050505b92915050565b6001600054146103d95760405162461bcd60e51b81526004016103d090612cb9565b60405180910390fd5b600260009081558080806103eb610da9565b935093509350935060006103ff8288610eb1565b905061040a81610f09565b806001600160a01b03167f7a59cfb2756119e18fdaea3ea09825ada6f518aa38d0cec28a85ec4de091fb5e8760405161044591815260200190565b60405180910390a260006104598686610fb5565b9050600019870361047157806101800151965061047e565b61047b818861104b565b96505b8061018001518711156104d35760405162461bcd60e51b815260206004820152601f60248201527f652f696e73756666696369656e742d746f6b656e732d617661696c61626c650060448201526064016103d0565b6104de8184896110a3565b506104ec858286858b611143565b6104f5826112a9565b6104fe81611362565b50506001600055505050505050565b600080600061051a610da9565b505091509150600061052c8383610e53565b9050806101a00151633b9aca0082604001516001600160901b03166105519190612c97565b61055b9190612c97565b935050505090565b6000806000610570610da9565b50509150915060006105828383610e53565b6001600160a01b03861660009081526005840160205260409020549091506105bf90839083908890600160701b90046001600160901b031661141d565b95945050505050565b60006001600054146105ec5760405162461bcd60e51b81526004016103d090612cb9565b600260009081558080806105fe610da9565b935093509350935060006106128585610fb5565b90506001600160a01b038916610626578198505b876001600160a01b0316896001600160a01b0316036106795760405162461bcd60e51b815260206004820152600f60248201526e3297b9b2b63316ba3930b739b332b960891b60448201526064016103d0565b61068289610f09565b61068b88610f09565b876001600160a01b0316896001600160a01b03167ffa022ccb16f899bf5e8c5a391bf6af0441e2f7dad97b5b5ad47b7d217a8cb2b3896040516106d091815260200190565b60405180910390a360001987036106f3576106ec84828b611471565b9650610700565b6106fd818861104b565b96505b8660000361071657600195505050505050610855565b60ff8083176001600160a01b03908116918a17161415801561076157506001600160a01b03808916600090815260078601602090815260408083209386168352929052205460001914155b1561082b576001600160a01b0380891660009081526007860160209081526040808320938616835292905220548711156107dd5760405162461bcd60e51b815260206004820152601d60248201527f652f696e73756666696369656e742d646562742d616c6c6f77616e636500000060448201526064016103d0565b6001600160a01b03888116600090815260078601602090815260408083209386168352929052208054889003908190556101a082015161082b9185918b91869161082691612c97565b6114c6565b6108398482858c8c8c6115c6565b610842886112a9565b61084b81611362565b6001955050505050505b60016000559392505050565b60008061086c610da9565b50505465010000000000900460ff169392505050565b6001600054146108a45760405162461bcd60e51b81526004016103d090612cb9565b60026000908155806108b4610da9565b6040516370a0823160e01b815230600482015293955093506000926001600160a01b03861692506370a082319150602401602060405180830381865afa158015610902573d6000803e3d6000fd5b505050506040513d601f19601f820116820180604052508101906109269190612cdf565b9050610933838388611773565b604051631890a1d560e31b81526001600160a01b0383169063c4850ea8906109619088908890600401612cf8565b600060405180830381600087803b15801561097b57600080fd5b505af115801561098f573d6000803e3d6000fd5b50506040516370a0823160e01b81523060048201528392506001600160a01b03861691506370a0823190602401602060405180830381865afa1580156109d9573d6000803e3d6000fd5b505050506040513d601f19601f820116820180604052508101906109fd9190612cdf565b1015610a4b5760405162461bcd60e51b815260206004820152601760248201527f652f666c6173682d6c6f616e2d6e6f742d72657061696400000000000000000060448201526064016103d0565b5050600160005550505050565b6000806000610a65610da9565b5050915091506000610a778383610e53565b604001516001600160901b0316949350505050565b6000806000610a99610da9565b5050915091506000610aab8383610e53565b9050806101a00151610abe838388611471565b6105bf9190612c97565b600080610ad3610da9565b5091949350505050565b6000600160005414610b015760405162461bcd60e51b81526004016103d090612cb9565b60026000908155808080610b13610da9565b93509350935093506000610b27828a610eb1565b905060ff8089176001600160a01b039081169183171603610b7c5760405162461bcd60e51b815260206004820152600f60248201526e194bdcd95b198b585c1c1c9bdd985b608a1b60448201526064016103d0565b6000610b888686610fb5565b90506000198814610ba257610b9d818961104b565b610ba6565b6000195b6001600160a01b0380841660009081526007880160209081526040808320938e1683529290522055610bda84838b8b6114c6565b6001965050505050505060016000559392505050565b60606000610bfc610da9565b5050509050806001600160a01b03166395d89b416040518163ffffffff1660e01b8152600401600060405180830381865afa158015610c3f573d6000803e3d6000fd5b505050506040513d6000823e601f3d908101601f19168201604052610c679190810190612b8a565b6040516020016103209190612d27565b6000610c85600084846105c8565b9392505050565b600160005414610cae5760405162461bcd60e51b81526004016103d090612cb9565b60026000908155808080610cc0610da9565b93509350935093506000610cd48288610eb1565b9050610cdf81610f09565b806001600160a01b03167fd0a8bb1b09927c3a79ace14b798a3d0415da6d49dfec886c7105250818d4470587604051610d1a91815260200190565b60405180910390a26000610d2e8686610fb5565b90506000198714610d4657610d43818861104b565b96505b6000610d53868385611471565b905080600003610d695750505050505050610da0565b80881115610d75578097505b610d8082858a611862565b9750610d8f868387868c6118fe565b610d9882611362565b505050505050505b50506001600055565b36601319810135606090811c6000818152600a60205260408120549093849360271990910135901c906001600160a01b031680610e285760405162461bcd60e51b815260206004820152601c60248201527f652f756e7265636f676e697a65642d64746f6b656e2d63616c6c65720000000060448201526064016103d0565b6001600160a01b03908116600090815260096020526040902060018101549091169590945091925090565b610e5b61290e565b600160005414610e9f5760405162461bcd60e51b815260206004820152600f60248201526e652f726f2d7265656e7472616e637960881b60448201526064016103d0565b610eaa838383611a50565b5092915050565b60006101008210610f045760405162461bcd60e51b815260206004820152601860248201527f652f7375622d6163636f756e742d69642d746f6f2d626967000000000000000060448201526064016103d0565b501890565b6001600160a01b038116600090815260066020526040812054610100900464ffffffffff1690819003610f3a575050565b6000610f468242612d50565b905080600003610f5557505050565b6001600160a01b0383166000908152600660205260409020805465ffffffffff0019166101004264ffffffffff1602179055610f918382611df0565b6001600160a01b039093166000908152600660205260409020600101929092555050565b610fbd61290e565b610fc8838383611a50565b156103a85760a0810151825464ffffffffff90911664ffffffffff19909116178255805160608201516001600160601b0316600160a01b026001600160a01b03909116176001830155602081015160408201516001600160901b0316600160701b026001600160701b039091161760038301556080810151600483015592915050565b6000826101c001518211156110975760405162461bcd60e51b8152602060048201526012602482015271652f616d6f756e742d746f6f2d6c6172676560701b60448201526064016103d0565b506101a0909101510290565b61018083015183516101a0850151600092916110ca9186906110c59087612c97565b611773565b60006110df866110da8830611eae565b61104b565b61018087018190529050808210156111395760405162461bcd60e51b815260206004820152601a60248201527f652f6e656761746976652d7472616e736665722d616d6f756e7400000000000060448201526064016103d0565b9003949350505050565b611151633b9aca0082612d63565b61014085015190915061ffff166003141580611187575083516001600160a01b039081166000908152600b602052604090205416155b6111cc5760405162461bcd60e51b8152602060048201526016602482015275194bd89bdc9c9bddcb5b9bdd0b5cdd5c1c1bdc9d195960521b60448201526064016103d0565b6000806111da878786611f91565b91509150816000036111f4576111f4848760000151612024565b6111fe8383612d7a565b91506112098261221d565b6001600160a01b03851660009081526005890160205260409081902080546001600160701b0316600160701b6001600160901b039485160217905587015161125c9161125791869116612d7a565b61221d565b6001600160901b0316604087018190526003880180546001600160701b0316600160701b9092029190911790556112938787612284565b6112a086868684866123a3565b50505050505050565b6001600160a01b03811660009081526006602052604090205460ff168061132e576040516001600160a01b038316602482015261132990620f4240906361cdaa1d60e11b906044015b60408051601f198184030181529190526020810180516001600160e01b03166001600160e01b0319909316929092179091526124e9565b505050565b60001960ff82160161135e576001600160a01b0382166000908152600660205260409020805460ff191660021790555b5050565b80600001516001600160a01b03167f2f2d732e1a7a15fe7a2e51d3482efe83ff791579cebc5e3cd12cd2064374bc7f8260200151633b9aca0084604001516001600160901b03166113b39190612c97565b6060808601516101808701516080808901516101008a0151604080516001600160701b03909916895260208901979097526001600160601b03909416958701959095529285015290830191909152600b0b60a08201524260c082015260e00160405180910390a250565b60008160000361142f57506000611469565b6001600160a01b0383166000908152600586016020526040902060010154608085015161145c9084612d63565b6114669190612c97565b90505b949350505050565b6001600160a01b0381166000908152600584016020526040812054633b9aca00906114bc9085906114b790889083908890600160701b90046001600160901b031661141d565b61256b565b6114699190612c97565b600060405190506000856001600160a01b03166003604051806060016040528060218152602001612eef60219139805160209182012060405161151c93926001600160a01b03808c1692908b16918a9101612d8d565b60408051601f198184030181529082905261153691612dbf565b6000604051808303816000865af19150503d8060008114611573576040519150601f19603f3d011682016040523d82523d6000602084013e611578565b606091505b50509050806115bc5760405162461bcd60e51b815260206004820152601060248201526f194bdb1bd9cb5c1c9bde1e4b59985a5b60821b60448201526064016103d0565b5060405250505050565b60006115d6633b9aca0083612d63565b90506000806115e6898988611f91565b915091506000806115f88b8b89611f91565b915091508160000361161257611612878b60000151612024565b838511801561163c57506101a08a015161163090633b9aca00612d63565b61163a8587612d50565b105b15611645578394505b8484101561168e5760405162461bcd60e51b8152602060048201526016602482015275652f696e73756666696369656e742d62616c616e636560501b60448201526064016103d0565b8484039350633b9aca008410156116b0576116a98486612d7a565b9450600093505b6116ba8583612d7a565b91506116c58461221d565b6001600160a01b038916600090815260058d016020526040902080546001600160901b0392909216600160701b026001600160701b0390921691909117905561170d8261221d565b6001600160a01b038816600090815260058d016020526040902080546001600160901b0392909216600160701b026001600160701b039092169190911790556117598a8a8a86886123a3565b6117668a8a8984866123a3565b5050505050505050505050565b604080516001600160a01b038481166024830152604480830185905283518084039091018152606490920183526020820180516001600160e01b031663a9059cbb60e01b17905291516000928392908716916117cf9190612dbf565b6000604051808303816000865af19150503d806000811461180c576040519150601f19603f3d011682016040523d82523d6000602084013e611811565b606091505b509150915081801561183b57508051158061183b57508080602001905181019061183b9190612deb565b819061185a5760405162461bcd60e51b81526004016103d091906129ae565b505050505050565b61018083015183516101a08501516000929161188b91869030906118869088612c97565b6125a9565b600061189b866110da8830611eae565b61018087018190529050818110156118f55760405162461bcd60e51b815260206004820152601a60248201527f652f6e656761746976652d7472616e736665722d616d6f756e7400000000000060448201526064016103d0565b03949350505050565b600061190e633b9aca0083612d63565b905060008061191e888887611f91565b91509150600061192e888461256b565b9050808411156119735760405162461bcd60e51b815260206004820152601060248201526f0ca5ee4cae0c2f25ae8dede5adaeac6d60831b60448201526064016103d0565b6040880151848203906001600160901b031684111561199d5788604001516001600160901b031693505b6119a68161221d565b6001600160a01b038816600090815260058c0160205260409081902080546001600160701b0316600160701b6001600160901b03948516021790558a0151611a009183916119f691889116612d50565b6112579190612d7a565b6001600160901b031660408a0181905260038b0180546001600160701b0316600160701b909202919091179055611a378a8a612284565b611a4489898986856123a3565b50505050505050505050565b6001600160a01b0383168152815464ffffffffff811660a083015265010000000000810460ff90811660c08401819052600160301b830463ffffffff90811660e0860152600160501b8404600b0b610100860152600160b01b84048116610120860152600160d01b840461ffff16610140860152600160e01b9093049092166101608401526001840154600160a01b90046001600160601b0316606084015260038401546001600160701b038082166020860152600160701b9091046001600160901b03166040850152600485015460808501526012839003909116600a0a6101a084018190526000929181611b4857611b48612c6b565b046101c08401526000611b5b8430611eae565b9050836101c001518111611b7c576101a08401518102610180850152611b85565b60006101808501525b8360a0015164ffffffffff164214611de7576001925060008460a0015164ffffffffff1642611bb49190612d50565b905060006b033b2e3c9fd0803ce80000008660800151611c00886101000151600b0b6b033b2e3c9fd0803ce8000000611bed9190612e06565b856b033b2e3c9fd0803ce8000000612698565b611c0a9190612d63565b611c149190612c97565b9050600086608001518288604001516001600160901b0316611c369190612d63565b611c409190612c97565b606088015160208901519192506001600160601b0316906001600160701b03166000611c74633b9aca0063ee6b2800612d63565b6101208b015163ffffffff90811614611c92578a6101200151611c98565b6336d616005b63ffffffff168b604001516001600160901b031686611cb79190612d50565b611cc19190612d63565b611ccb9190612c97565b90508015611d3c576000611ce3633b9aca0086612c97565b8b6101800151611cf39190612d7a565b9050611cff8282612d50565b611d098483612d63565b611d139190612c97565b92508a602001516001600160701b031683611d2e9190612d50565b611d389085612d7a565b9350505b6001600160701b038211801590611d5a57506001600160901b038411155b8015611d6d57506001600160601b038311155b15611de057611d7b8461221d565b6001600160901b031660408b015260808a0185905264ffffffffff421660a08b015260208a01516001600160701b03168214611de057611dba83612755565b6001600160601b031660608b0152611dd1826127b9565b6001600160701b031660208b01525b5050505050505b50509392505050565b60008062015180831015611e045782611e09565b620151805b90506000611e1a8262015180612d50565b90506000806000611e2a88612812565b91509150808211611e3c576000611e46565b611e468183612d50565b92505050620151808382611e5a9190612d63565b611e649190612c97565b6001600160a01b0387166000908152600660205260409020600101546201518090611e90908590612d63565b611e9a9190612c97565b611ea49190612d7a565b9695505050505050565b6040805183516001600160a01b03848116602480850191909152845180850390910181526044840185526020810180516001600160e01b03166370a0823160e01b179052935160009485938493169162030d4091611f0b91612dbf565b6000604051808303818686fa925050503d8060008114611f47576040519150601f19603f3d011682016040523d82523d6000602084013e611f4c565b606091505b5091509150811580611f5f575060208151105b15611f6f57600093505050611f88565b80806020019051810190611f839190612cdf565b935050505b60405292915050565b6001600160a01b0381166000908152600584016020526040812054600160701b90046001600160901b0316611fc88585858461141d565b9150611fd38261221d565b6001600160a01b0390931660009081526005909501602052604090942080546001600160901b0393909316600160701b026001600160701b0390931692909217825560809092015160019091015591565b6001600160a01b0382166000908152600660209081526040808320805460079093529220600160301b90910463ffffffff169081156120d25782546001600160a01b03808616600160501b909204160361207f575050505050565b60015b8263ffffffff168110156120d057846001600160a01b0316828264010000000081106120b0576120b0612e2e565b01546001600160a01b0316036120c857505050505050565b600101612082565b505b600a8263ffffffff16106121285760405162461bcd60e51b815260206004820152601a60248201527f652f746f6f2d6d616e792d656e74657265642d6d61726b65747300000000000060448201526064016103d0565b8163ffffffff166000036121725782547fffff0000000000000000000000000000000000000000ffffffffffffffffffff16600160501b6001600160a01b038616021783556121af565b83818363ffffffff16640100000000811061218f5761218f612e2e565b0180546001600160a01b0319166001600160a01b03929092169190911790555b6121ba826001612e44565b835463ffffffff91909116600160301b0269ffffffff000000000000199091161783556040516001600160a01b0380871691908616907f1c0971b8e0f7bb4e90bdbd87cfe682c36c383e2fc3dc4716ecc02771186293cc90600090a35050505050565b60006001600160901b038211156122805760405162461bcd60e51b815260206004820152602160248201527f652f646562742d616d6f756e742d746f6f2d6c617267652d746f2d656e636f646044820152606560f81b60648201526084016103d0565b5090565b600080633b9aca0083604001516001600160901b03166122a49190612c97565b90506000818461018001516122b99190612d7a565b9050806000036122cc5760009250612305565b670de0b6b3a7640000816122e463ffffffff83612d63565b6122ee9085612d63565b6122f89190612c97565b6123029190612c97565b92505b505060e082015182516040516001600160a01b03909116602482015263ffffffff838116604483015260009261234992911690631aa1811f60e31b906064016112f2565b90506000818060200190518101906123619190612e61565b600b81900b61010090950194909452505082546001600160601b03909216600160501b026bffffffffffffffffffffffff60501b199092169190911790915550565b633b9aca006123b2868461256b565b6123bc9190612c97565b9150633b9aca006123cd868361256b565b6123d79190612c97565b9050818111156124635760006123ed8383612d50565b9050836001600160a01b031686600001516001600160a01b03167f312a5e5e1079f5dda4e95dbbd0b908b291fd5b992ef22073643ab691572c5b528360405161243891815260200190565b60405180910390a361245d85600086896101a00151856124589190612c97565b612871565b506124e2565b808211156124e25760006124778284612d50565b9050836001600160a01b031686600001516001600160a01b03167f05f2eeda0e08e4b437f487c8d7d29b14537d15e3488170dc3de5dbdf8dac4684836040516124c291815260200190565b60405180910390a361185a85856000896101a00151856124589190612c97565b5050505050565b6000828152600360205260408082205490516060929182916001600160a01b0390911690612518908690612dbf565b600060405180830381855af49150503d8060008114612553576040519150601f19603f3d011682016040523d82523d6000602084013e612558565b606091505b50915091508161146957611469816128c7565b60008160000361257d575060006103a8565b6101a0830151633b9aca00028080600019858201018161259f5761259f612c6b565b0402949350505050565b604080516001600160a01b0385811660248301528481166044830152606480830185905283518084039091018152608490920183526020820180516001600160e01b03166323b872dd60e01b179052915160009283929088169161260d9190612dbf565b6000604051808303816000865af19150503d806000811461264a576040519150601f19603f3d011682016040523d82523d6000602084013e61264f565b606091505b50915091508180156126795750805115806126795750808060200190518101906126799190612deb565b81906112a05760405162461bcd60e51b81526004016103d091906129ae565b6000838015612738576001841680156126b3578592506126b7565b8392505b50600283046002850494505b84156127325785860286878204146126da57600080fd5b818101818110156126ea57600080fd5b859004965050600185161561272757858302838782041415871515161561271057600080fd5b8181018181101561272057600080fd5b8590049350505b6002850494506126c3565b5061274d565b8380156127485760009250611de7565b839250505b509392505050565b60006001600160601b038211156122805760405162461bcd60e51b815260206004820152602260248201527f652f736d616c6c2d616d6f756e742d746f6f2d6c617267652d746f2d656e636f604482015261646560f01b60648201526084016103d0565b60006001600160701b038211156122805760405162461bcd60e51b815260206004820152601c60248201527f652f616d6f756e742d746f6f2d6c617267652d746f2d656e636f64650000000060448201526064016103d0565b6040516001600160a01b03821660248201526000908190819061284590620f424090631bff4ba560e11b906044016112f2565b905060008180602001905181019061285d9190612e84565b805160209091015190969095509350505050565b600060405190506000856001600160a01b03166003604051806060016040528060218152602001612f1060219139805160209182012060405161151c93926001600160a01b03808c1692908b16918a9101612d8d565b8051156128d657805181602001fd5b60405162461bcd60e51b815260206004820152600d60248201526c3297b2b6b83a3c96b2b93937b960991b60448201526064016103d0565b604080516101e081018252600080825260208201819052918101829052606081018290526080810182905260a0810182905260c0810182905260e08101829052610100810182905261012081018290526101408101829052610160810182905261018081018290526101a081018290526101c081019190915290565b60005b838110156129a557818101518382015260200161298d565b50506000910152565b60208152600082518060208401526129cd81604085016020870161298a565b601f01601f19169190910160400192915050565b80356001600160a01b03811681146129f857600080fd5b919050565b60008060408385031215612a1057600080fd5b612a19836129e1565b9150612a27602084016129e1565b90509250929050565b60008060408385031215612a4357600080fd5b50508035926020909101359150565b600060208284031215612a6457600080fd5b610c85826129e1565b600080600060608486031215612a8257600080fd5b612a8b846129e1565b9250612a99602085016129e1565b9150604084013590509250925092565b600080600060408486031215612abe57600080fd5b83359250602084013567ffffffffffffffff80821115612add57600080fd5b818601915086601f830112612af157600080fd5b813581811115612b0057600080fd5b876020828501011115612b1257600080fd5b6020830194508093505050509250925092565b600080600060608486031215612b3a57600080fd5b83359250612a99602085016129e1565b60008060408385031215612b5d57600080fd5b612b66836129e1565b946020939093013593505050565b634e487b7160e01b600052604160045260246000fd5b600060208284031215612b9c57600080fd5b815167ffffffffffffffff80821115612bb457600080fd5b818401915084601f830112612bc857600080fd5b815181811115612bda57612bda612b74565b604051601f8201601f19908116603f01168101908382118183101715612c0257612c02612b74565b81604052828152876020848701011115612c1b57600080fd5b612c2c83602083016020880161298a565b979650505050505050565b6b022bab632b9102232b13a1d160a51b815260008251612c5e81600c85016020870161298a565b91909101600c0192915050565b634e487b7160e01b600052601260045260246000fd5b634e487b7160e01b600052601160045260246000fd5b600082612cb457634e487b7160e01b600052601260045260246000fd5b500490565b6020808252600c908201526b652f7265656e7472616e637960a01b604082015260600190565b600060208284031215612cf157600080fd5b5051919050565b60208152816020820152818360408301376000818301604090810191909152601f909201601f19160101919050565b601960fa1b815260008251612d4381600185016020870161298a565b9190910160010192915050565b818103818111156103a8576103a8612c81565b80820281158282048414176103a8576103a8612c81565b808201808211156103a8576103a8612c81565b60f89590951b6001600160f81b0319168552600185019390935260218401919091526041830152606182015260810190565b60008251612dd181846020870161298a565b9190910192915050565b805180151581146129f857600080fd5b600060208284031215612dfd57600080fd5b610c8582612ddb565b8082018281126000831280158216821582161715612e2657612e26612c81565b505092915050565b634e487b7160e01b600052603260045260246000fd5b63ffffffff818116838216019080821115610eaa57610eaa612c81565b600060208284031215612e7357600080fd5b815180600b0b8114610c8557600080fd5b600060808284031215612e9657600080fd5b6040516080810181811067ffffffffffffffff82111715612eb957612eb9612b74565b8060405250825181526020830151602082015260408301516040820152612ee260608401612ddb565b6060820152939250505056fe417070726f76616c28616464726573732c616464726573732c75696e74323536295472616e7366657228616464726573732c616464726573732c75696e7432353629a2646970667358221220e6eb4f71daa11506abb376b3eb3563b3fea9994a48be4c226d02e8d60809fac564736f6c63430008170033","linkReferences":{}},"methodIdentifiers":{"approveDebt(uint256,address,uint256)":"7ca90140","balanceOf(address)":"70a08231","balanceOfExact(address)":"1c9f006f","borrow(uint256,uint256)":"0ecbcdab","debtAllowance(address,address)":"0b2d9070","decimals()":"313ce567","flashLoan(uint256,bytes)":"5296a431","moduleGitCommit()":"69a92ea3","moduleId()":"a1308f27","name()":"06fdde03","repay(uint256,uint256)":"d8aed145","symbol()":"95d89b41","totalSupply()":"18160ddd","totalSupplyExact()":"5ea0c45f","transfer(address,uint256)":"a9059cbb","transferFrom(address,address,uint256)":"23b872dd","underlyingAsset()":"7158da7c"},"id":18}