{"abi":[{"type":"constructor","inputs":[{"name":"moduleGitCommit_","type":"bytes32","internalType":"bytes32"}],"stateMutability":"nonpayable"},{"type":"function","name":"computeAPYs","inputs":[{"name":"borrowSPY","type":"uint256","internalType":"uint256"},{"name":"totalBorrows","type":"uint256","internalType":"uint256"},{"name":"totalBalancesUnderlying","type":"uint256","internalType":"uint256"},{"name":"reserveFee","type":"uint32","internalType":"uint32"}],"outputs":[{"name":"borrowAPY","type":"uint256","internalType":"uint256"},{"name":"supplyAPY","type":"uint256","internalType":"uint256"}],"stateMutability":"pure"},{"type":"function","name":"doQuery","inputs":[{"name":"q","type":"tuple","internalType":"struct EulerGeneralView.Query","components":[{"name":"eulerContract","type":"address","internalType":"address"},{"name":"account","type":"address","internalType":"address"},{"name":"markets","type":"address[]","internalType":"address[]"}]}],"outputs":[{"name":"r","type":"tuple","internalType":"struct EulerGeneralView.Response","components":[{"name":"timestamp","type":"uint256","internalType":"uint256"},{"name":"blockNumber","type":"uint256","internalType":"uint256"},{"name":"markets","type":"tuple[]","internalType":"struct EulerGeneralView.ResponseMarket[]","components":[{"name":"underlying","type":"address","internalType":"address"},{"name":"name","type":"string","internalType":"string"},{"name":"symbol","type":"string","internalType":"string"},{"name":"decimals","type":"uint8","internalType":"uint8"},{"name":"eTokenAddr","type":"address","internalType":"address"},{"name":"dTokenAddr","type":"address","internalType":"address"},{"name":"pTokenAddr","type":"address","internalType":"address"},{"name":"config","type":"tuple","internalType":"struct Storage.AssetConfig","components":[{"name":"eTokenAddress","type":"address","internalType":"address"},{"name":"borrowIsolated","type":"bool","internalType":"bool"},{"name":"collateralFactor","type":"uint32","internalType":"uint32"},{"name":"borrowFactor","type":"uint32","internalType":"uint32"},{"name":"twapWindow","type":"uint24","internalType":"uint24"}]},{"name":"poolSize","type":"uint256","internalType":"uint256"},{"name":"totalBalances","type":"uint256","internalType":"uint256"},{"name":"totalBorrows","type":"uint256","internalType":"uint256"},{"name":"reserveBalance","type":"uint256","internalType":"uint256"},{"name":"reserveFee","type":"uint32","internalType":"uint32"},{"name":"borrowAPY","type":"uint256","internalType":"uint256"},{"name":"supplyAPY","type":"uint256","internalType":"uint256"},{"name":"twap","type":"uint256","internalType":"uint256"},{"name":"twapPeriod","type":"uint256","internalType":"uint256"},{"name":"currPrice","type":"uint256","internalType":"uint256"},{"name":"pricingType","type":"uint16","internalType":"uint16"},{"name":"pricingParameters","type":"uint32","internalType":"uint32"},{"name":"pricingForwarded","type":"address","internalType":"address"},{"name":"underlyingBalance","type":"uint256","internalType":"uint256"},{"name":"eulerAllowance","type":"uint256","internalType":"uint256"},{"name":"eTokenBalance","type":"uint256","internalType":"uint256"},{"name":"eTokenBalanceUnderlying","type":"uint256","internalType":"uint256"},{"name":"dTokenBalance","type":"uint256","internalType":"uint256"},{"name":"liquidityStatus","type":"tuple","internalType":"struct IRiskManager.LiquidityStatus","components":[{"name":"collateralValue","type":"uint256","internalType":"uint256"},{"name":"liabilityValue","type":"uint256","internalType":"uint256"},{"name":"numBorrows","type":"uint256","internalType":"uint256"},{"name":"borrowIsolated","type":"bool","internalType":"bool"}]}]},{"name":"enteredMarkets","type":"address[]","internalType":"address[]"}]}],"stateMutability":"view"},{"type":"function","name":"doQueryAccountLiquidity","inputs":[{"name":"eulerContract","type":"address","internalType":"address"},{"name":"addrs","type":"address[]","internalType":"address[]"}],"outputs":[{"name":"r","type":"tuple[]","internalType":"struct EulerGeneralView.ResponseAccountLiquidity[]","components":[{"name":"markets","type":"tuple[]","internalType":"struct IRiskManager.AssetLiquidity[]","components":[{"name":"underlying","type":"address","internalType":"address"},{"name":"status","type":"tuple","internalType":"struct IRiskManager.LiquidityStatus","components":[{"name":"collateralValue","type":"uint256","internalType":"uint256"},{"name":"liabilityValue","type":"uint256","internalType":"uint256"},{"name":"numBorrows","type":"uint256","internalType":"uint256"},{"name":"borrowIsolated","type":"bool","internalType":"bool"}]}]}]}],"stateMutability":"view"},{"type":"function","name":"doQueryBatch","inputs":[{"name":"qs","type":"tuple[]","internalType":"struct EulerGeneralView.Query[]","components":[{"name":"eulerContract","type":"address","internalType":"address"},{"name":"account","type":"address","internalType":"address"},{"name":"markets","type":"address[]","internalType":"address[]"}]}],"outputs":[{"name":"r","type":"tuple[]","internalType":"struct EulerGeneralView.Response[]","components":[{"name":"timestamp","type":"uint256","internalType":"uint256"},{"name":"blockNumber","type":"uint256","internalType":"uint256"},{"name":"markets","type":"tuple[]","internalType":"struct EulerGeneralView.ResponseMarket[]","components":[{"name":"underlying","type":"address","internalType":"address"},{"name":"name","type":"string","internalType":"string"},{"name":"symbol","type":"string","internalType":"string"},{"name":"decimals","type":"uint8","internalType":"uint8"},{"name":"eTokenAddr","type":"address","internalType":"address"},{"name":"dTokenAddr","type":"address","internalType":"address"},{"name":"pTokenAddr","type":"address","internalType":"address"},{"name":"config","type":"tuple","internalType":"struct Storage.AssetConfig","components":[{"name":"eTokenAddress","type":"address","internalType":"address"},{"name":"borrowIsolated","type":"bool","internalType":"bool"},{"name":"collateralFactor","type":"uint32","internalType":"uint32"},{"name":"borrowFactor","type":"uint32","internalType":"uint32"},{"name":"twapWindow","type":"uint24","internalType":"uint24"}]},{"name":"poolSize","type":"uint256","internalType":"uint256"},{"name":"totalBalances","type":"uint256","internalType":"uint256"},{"name":"totalBorrows","type":"uint256","internalType":"uint256"},{"name":"reserveBalance","type":"uint256","internalType":"uint256"},{"name":"reserveFee","type":"uint32","internalType":"uint32"},{"name":"borrowAPY","type":"uint256","internalType":"uint256"},{"name":"supplyAPY","type":"uint256","internalType":"uint256"},{"name":"twap","type":"uint256","internalType":"uint256"},{"name":"twapPeriod","type":"uint256","internalType":"uint256"},{"name":"currPrice","type":"uint256","internalType":"uint256"},{"name":"pricingType","type":"uint16","internalType":"uint16"},{"name":"pricingParameters","type":"uint32","internalType":"uint32"},{"name":"pricingForwarded","type":"address","internalType":"address"},{"name":"underlyingBalance","type":"uint256","internalType":"uint256"},{"name":"eulerAllowance","type":"uint256","internalType":"uint256"},{"name":"eTokenBalance","type":"uint256","internalType":"uint256"},{"name":"eTokenBalanceUnderlying","type":"uint256","internalType":"uint256"},{"name":"dTokenBalance","type":"uint256","internalType":"uint256"},{"name":"liquidityStatus","type":"tuple","internalType":"struct IRiskManager.LiquidityStatus","components":[{"name":"collateralValue","type":"uint256","internalType":"uint256"},{"name":"liabilityValue","type":"uint256","internalType":"uint256"},{"name":"numBorrows","type":"uint256","internalType":"uint256"},{"name":"borrowIsolated","type":"bool","internalType":"bool"}]}]},{"name":"enteredMarkets","type":"address[]","internalType":"address[]"}]}],"stateMutability":"view"},{"type":"function","name":"doQueryIRM","inputs":[{"name":"q","type":"tuple","internalType":"struct EulerGeneralView.QueryIRM","components":[{"name":"eulerContract","type":"address","internalType":"address"},{"name":"underlying","type":"address","internalType":"address"}]}],"outputs":[{"name":"r","type":"tuple","internalType":"struct EulerGeneralView.ResponseIRM","components":[{"name":"kink","type":"uint256","internalType":"uint256"},{"name":"baseAPY","type":"uint256","internalType":"uint256"},{"name":"kinkAPY","type":"uint256","internalType":"uint256"},{"name":"maxAPY","type":"uint256","internalType":"uint256"},{"name":"baseSupplyAPY","type":"uint256","internalType":"uint256"},{"name":"kinkSupplyAPY","type":"uint256","internalType":"uint256"},{"name":"maxSupplyAPY","type":"uint256","internalType":"uint256"}]}],"stateMutability":"view"},{"type":"function","name":"moduleGitCommit","inputs":[],"outputs":[{"name":"","type":"bytes32","internalType":"bytes32"}],"stateMutability":"view"}],"bytecode":{"object":"0x60a060405234801561001057600080fd5b50604051620026533803806200265383398101604081905261003191610039565b608052610052565b60006020828403121561004b57600080fd5b5051919050565b6080516125e56200006e600039600061011e01526125e56000f3fe608060405234801561001057600080fd5b50600436106100625760003560e01c8063340d059a146100675780633d77bf7f146100905780634c0cf6f7146100f957806369a92ea314610119578063854c87271461014e5780638f863b2e1461016e575b600080fd5b61007a610075366004611a7e565b610196565b6040516100879190611e95565b60405180910390f35b6100a361009e366004611ef9565b610269565b6040516100879190600060e082019050825182526020830151602083015260408301516040830152606083015160608301526080830151608083015260a083015160a083015260c083015160c083015292915050565b61010c610107366004611f3a565b6106a9565b6040516100879190611f89565b6101407f000000000000000000000000000000000000000000000000000000000000000081565b604051908152602001610087565b61016161015c366004612061565b61084c565b604051610087919061209d565b61018161017c3660046120c9565b610c13565b60408051928352602083019190915201610087565b606081516001600160401b038111156101b1576101b16118ac565b60405190808252806020026020018201604052801561020d57816020015b6101fa6040518060800160405280600081526020016000815260200160608152602001606081525090565b8152602001906001900390816101cf5790505b50905060005b82518110156102635761023e8382815181106102315761023161210a565b602002602001015161084c565b8282815181106102505761025061210a565b6020908102919091010152600101610213565b50919050565b6102a96040518060e00160405280600081526020016000815260200160008152602001600081526020016000815260200160008152602001600081525090565b815160405163734c938f60e01b8152600260048201526000906001600160a01b0383169063734c938f90602401602060405180830381865afa1580156102f3573d6000803e3d6000fd5b505050506040513d601f19601f820116820180604052508101906103179190612120565b602085015160405163b409dd9b60e01b81526001600160a01b0391821660048201529192506000919083169063b409dd9b90602401602060405180830381865afa158015610369573d6000803e3d6000fd5b505050506040513d601f19601f8201168201806040525081019061038d919061213d565b60405163cab65f0160e01b8152600481018290529091506000906001600160a01b0385169063cab65f0190602401602060405180830381865afa1580156103d8573d6000803e3d6000fd5b505050506040513d601f19601f820116820180604052508101906103fc9190612120565b905060008190506000816001600160a01b031663fd2da3396040518163ffffffff1660e01b8152600401602060405180830381865afa158015610443573d6000803e3d6000fd5b505050506040513d601f19601f82011682018060405250810190610467919061213d565b808852602089015160405163b74b1ed560e01b81526001600160a01b0391821660048201529192506000919087169063b74b1ed590602401602060405180830381865afa1580156104bc573d6000803e3d6000fd5b505050506040513d601f19601f820116820180604052508101906104e09190612156565b90506000836001600160a01b0316631f68f20a6040518163ffffffff1660e01b8152600401602060405180830381865afa158015610522573d6000803e3d6000fd5b505050506040513d601f19601f82011682018060405250810190610546919061213d565b90506000846001600160a01b031663a62b75a86040518163ffffffff1660e01b8152600401602060405180830381865afa158015610588573d6000803e3d6000fd5b505050506040513d601f19601f820116820180604052508101906105ac919061213d565b6105b69085612189565b6105c090836121a0565b90506000856001600160a01b031663d0134cb76040518163ffffffff1660e01b8152600401602060405180830381865afa158015610602573d6000803e3d6000fd5b505050506040513d601f19601f82011682018060405250810190610626919061213d565b6106348663ffffffff6121b3565b61063e9190612189565b61064890836121a0565b905061065b83600063ffffffff87610c13565b60808d015260208c0152610675828663ffffffff87610c13565b60a08d015260408c015261068f8163ffffffff8087610c13565b60c08d015260608c015250989a9950505050505050505050565b60405163734c938f60e01b81526005600482015260609083906000906001600160a01b0383169063734c938f90602401602060405180830381865afa1580156106f6573d6000803e3d6000fd5b505050506040513d601f19601f8201168201806040525081019061071a9190612120565b905083516001600160401b03811115610735576107356118ac565b60405190808252806020026020018201604052801561077557816020015b6040805160208101909152606081528152602001906001900390816107535790505b50925060005b845181101561084357816001600160a01b031663dec82caf8683815181106107a5576107a561210a565b60200260200101516040518263ffffffff1660e01b81526004016107d891906001600160a01b0391909116815260200190565b600060405180830381865afa1580156107f5573d6000803e3d6000fd5b505050506040513d6000823e601f3d908101601f1916820160405261081d91908101906121db565b84828151811061082f5761082f61210a565b60209081029190910101515260010161077b565b50505092915050565b6108776040518060800160405280600081526020016000815260200160608152602001606081525090565b428152436020820152815160405163734c938f60e01b8152600260048201526000906001600160a01b0383169063734c938f90602401602060405180830381865afa1580156108ca573d6000803e3d6000fd5b505050506040513d601f19601f820116820180604052508101906108ee9190612120565b60405163734c938f60e01b8152600560048201529091506000906001600160a01b0384169063734c938f90602401602060405180830381865afa158015610939573d6000803e3d6000fd5b505050506040513d601f19601f8201168201806040525081019061095d9190612120565b60208601519091506060906001600160a01b0316156109ed57602086015160405163dec82caf60e01b81526001600160a01b0391821660048201529083169063dec82caf90602401600060405180830381865afa1580156109c2573d6000803e3d6000fd5b505050506040513d6000823e601f3d908101601f191682016040526109ea91908101906121db565b90505b85604001515181516109ff91906121a0565b6001600160401b03811115610a1657610a166118ac565b604051908082528060200260200182016040528015610a4f57816020015b610a3c61177b565b815260200190600190039081610a345790505b50604086015260005b8151811015610aea57600086604001518281518110610a7957610a7961210a565b60200260200101519050828281518110610a9557610a9561210a565b6020908102919091010151516001600160a01b031681528251839083908110610ac057610ac061210a565b602002602001015160200151816103400181905250610ae188828787610cd5565b50600101610a58565b5080515b8660400151518251610b0091906121a0565b811015610b7c576000825182610b1691906121b3565b9050600087604001518381518110610b3057610b3061210a565b6020026020010151905088604001518281518110610b5057610b5061210a565b60209081029190910101516001600160a01b03168152610b7289828888610cd5565b5050600101610aee565b5060208601516001600160a01b031615610c0a576020860151604051638ccb720b60e01b81526001600160a01b03918216600482015290841690638ccb720b90602401600060405180830381865afa158015610bdc573d6000803e3d6000fd5b505050506040513d6000823e601f3d908101601f19168201604052610c0491908101906122e0565b60608601525b50505050919050565b6000806b033b2e3c9fd0803ce8000000610c47610c3088836121a0565b6301e185586b033b2e3c9fd0803ce80000006115c2565b610c5191906121b3565b915060008415610c755784610c668789612189565b610c709190612379565b610c78565b60005b905063ee6b2800610c8f63ffffffff8616826121b3565b610c999083612189565b610ca39190612379565b90506b033b2e3c9fd0803ce8000000610cbf610c3083836121a0565b610cc991906121b3565b91505094509492505050565b8251610ce8906306fdde0360e01b611680565b60208401528251610d00906395d89b4160e01b611680565b836040018190525082600001516001600160a01b031663313ce5676040518163ffffffff1660e01b8152600401602060405180830381865afa158015610d4a573d6000803e3d6000fd5b505050506040513d601f19601f82011682018060405250810190610d6e919061239b565b60ff1660608401528251604051638948874960e01b81526001600160a01b03918216600482015290831690638948874990602401602060405180830381865afa158015610dbf573d6000803e3d6000fd5b505050506040513d601f19601f82011682018060405250810190610de39190612120565b6001600160a01b031660808401819052156115bc5760808301516040516335af1b0360e11b81526001600160a01b03918216600482015290831690636b5e360690602401602060405180830381865afa158015610e44573d6000803e3d6000fd5b505050506040513d601f19601f82011682018060405250810190610e689190612120565b6001600160a01b0390811660a08501528351604051633f5e523560e21b815290821660048201529083169063fd7948d490602401602060405180830381865afa158015610eb9573d6000803e3d6000fd5b505050506040513d601f19601f82011682018060405250810190610edd9190612120565b6001600160a01b0390811660c0850152835160405163274e7d6160e11b81529082166004820152600091841690634e9cfac29060240160a060405180830381865afa158015610f30573d6000803e3d6000fd5b505050506040513d601f19601f82011682018060405250810190610f5491906123be565b60e085015250825184516040516370a0823160e01b81526001600160a01b0391821660048201529116906370a0823190602401602060405180830381865afa158015610fa4573d6000803e3d6000fd5b505050506040513d601f19601f82011682018060405250810190610fc8919061213d565b8361010001818152505082608001516001600160a01b031663fea61faa6040518163ffffffff1660e01b8152600401602060405180830381865afa158015611014573d6000803e3d6000fd5b505050506040513d601f19601f82011682018060405250810190611038919061213d565b836101200181815250508260a001516001600160a01b03166318160ddd6040518163ffffffff1660e01b8152600401602060405180830381865afa158015611084573d6000803e3d6000fd5b505050506040513d601f19601f820116820180604052508101906110a8919061213d565b8361014001818152505082608001516001600160a01b031663e73277d06040518163ffffffff1660e01b8152600401602060405180830381865afa1580156110f4573d6000803e3d6000fd5b505050506040513d601f19601f82011682018060405250810190611118919061213d565b610160840152825160405163b74b1ed560e01b81526001600160a01b0391821660048201529083169063b74b1ed590602401602060405180830381865afa158015611167573d6000803e3d6000fd5b505050506040513d601f19601f8201168201806040525081019061118b9190612156565b63ffffffff1661018084015282516040516301f0b1a760e61b81526001600160a01b039182166004820152600091841690637c2c69c090602401602060405180830381865afa1580156111e2573d6000803e3d6000fd5b505050506040513d601f19601f82011682018060405250810190611206919061245b565b600b0b905061122681856101400151866101200151876101800151610c13565b6101c08601526101a0850152508251604051639693fa6b60e01b81526001600160a01b03918216600482015290821690639693fa6b90602401606060405180830381865afa15801561127c573d6000803e3d6000fd5b505050506040513d601f19601f820116820180604052508101906112a0919061247e565b6102208601526102008501526101e08401528251604051632a32116b60e11b81526001600160a01b0391821660048201529083169063546422d690602401606060405180830381865afa1580156112fb573d6000803e3d6000fd5b505050506040513d601f19601f8201168201806040525081019061131f91906124ac565b6001600160a01b0390811661028087015263ffffffff90911661026086015261ffff909116610240850152602085015116156115bc57825160208501516040516370a0823160e01b81526001600160a01b0391821660048201529116906370a0823190602401602060405180830381865afa1580156113a2573d6000803e3d6000fd5b505050506040513d601f19601f820116820180604052508101906113c6919061213d565b6102a0840152608083015160208501516040516370a0823160e01b81526001600160a01b0391821660048201529116906370a0823190602401602060405180830381865afa15801561141c573d6000803e3d6000fd5b505050506040513d601f19601f82011682018060405250810190611440919061213d565b6102e084015260808301516020850151604051633af9e66960e01b81526001600160a01b039182166004820152911690633af9e66990602401602060405180830381865afa158015611496573d6000803e3d6000fd5b505050506040513d601f19601f820116820180604052508101906114ba919061213d565b61030084015260a083015160208501516040516370a0823160e01b81526001600160a01b0391821660048201529116906370a0823190602401602060405180830381865afa158015611510573d6000803e3d6000fd5b505050506040513d601f19601f82011682018060405250810190611534919061213d565b610320840152825160208501518551604051636eb1769f60e11b81526001600160a01b039283166004820152908216602482015291169063dd62ed3e90604401602060405180830381865afa158015611591573d6000803e3d6000fd5b505050506040513d601f19601f820116820180604052508101906115b5919061213d565b6102c08401525b50505050565b6000838015611662576001841680156115dd578592506115e1565b8392505b50600283046002850494505b841561165c57858602868782041461160457600080fd5b8181018181101561161457600080fd5b859004965050600185161561165157858302838782041415871515161561163a57600080fd5b8181018181101561164a57600080fd5b8590049350505b6002850494506115ed565b50611678565b8380156116725760009250611676565b8392505b505b509392505050565b60408051600481526024810182526020810180516001600160e01b03166001600160e01b03198516179052905160609160009182916001600160a01b038716916116ca9190612500565b600060405180830381855afa9150503d8060008114611705576040519150601f19603f3d011682016040523d82523d6000602084013e61170a565b606091505b50915091508161172d576040518060200160405280600081525092505050611775565b805160201461174f578080602001905181019061174a919061251c565b611770565b806040516020016117609190612500565b6040516020818303038152906040525b925050505b92915050565b6040805161036081018252600080825260606020808401829052838501829052818401839052608080850184905260a080860185905260c0860185905286519081018752848152918201849052948101839052908101829052928301529060e0820190815260200160008152602001600081526020016000815260200160008152602001600063ffffffff1681526020016000815260200160008152602001600081526020016000815260200160008152602001600061ffff168152602001600063ffffffff16815260200160006001600160a01b0316815260200160008152602001600081526020016000815260200160008152602001600081526020016118a760405180608001604052806000815260200160008152602001600081526020016000151581525090565b905290565b634e487b7160e01b600052604160045260246000fd5b604080519081016001600160401b03811182821017156118e4576118e46118ac565b60405290565b604051608081016001600160401b03811182821017156118e4576118e46118ac565b604051601f8201601f191681016001600160401b0381118282101715611934576119346118ac565b604052919050565b60006001600160401b03821115611955576119556118ac565b5060051b60200190565b6001600160a01b038116811461197457600080fd5b50565b600082601f83011261198857600080fd5b8135602061199d6119988361193c565b61190c565b8083825260208201915060208460051b8701019350868411156119bf57600080fd5b602086015b848110156119e45780356119d78161195f565b83529183019183016119c4565b509695505050505050565b600060608284031215611a0157600080fd5b604051606081016001600160401b038282108183111715611a2457611a246118ac565b8160405282935084359150611a388261195f565b908252602084013590611a4a8261195f565b8160208401526040850135915080821115611a6457600080fd5b50611a7185828601611977565b6040830152505092915050565b60006020808385031215611a9157600080fd5b82356001600160401b0380821115611aa857600080fd5b818501915085601f830112611abc57600080fd5b8135611aca6119988261193c565b81815260059190911b83018401908481019088831115611ae957600080fd5b8585015b83811015611b2157803585811115611b055760008081fd5b611b138b89838a01016119ef565b845250918601918601611aed565b5098975050505050505050565b60005b83811015611b49578181015183820152602001611b31565b50506000910152565b60008151808452611b6a816020860160208601611b2e565b601f01601f19169290920160200192915050565b60008151808452602080850194506020840160005b83811015611bb85781516001600160a01b031687529582019590820190600101611b93565b509495945050505050565b6000608080840183518552602080850151818701526040808601516080604089015283815180865260a0955060a08a01915060a08160051b8b0101858401935060005b82811015611e6c578b8203609f19018452845180516001600160a01b0316835261044088820151818a860152611c3e82860182611b52565b9150508782015184820389860152611c568282611b52565b915050606080830151611c6d8287018260ff169052565b5050818b01516001600160a01b038116858d015250818a01516001600160a01b038116858c01525060c0828101516001600160a01b03811686830152505060e08281015180516001600160a01b03168683015260208101511515610100870152604081015163ffffffff908116610120880152606082015116610140870152608081015162ffffff166101608701525050610100820151610180818187015261012084015191506101a0828188015261014085015192506101c0838189015261016086015193506101e084818a01528387015194506102009350611d58848a018663ffffffff169052565b918601516102208981019190915290860151610240808a019190915291860151610260808a019190915292860151610280808a0191909152908601516102a0808a0191909152918601519350916102c090611db8828a018661ffff169052565b86015193506102e0611dd18982018663ffffffff169052565b92860151935061030092611def898501866001600160a01b03169052565b918601516103208981019190915290860151610340808a01919091529186015161036089015291850151610380880152908401516103a08701529092015180516103c086015260208101516103e0860152604081015161040086015260600151151561042090940193909352509386019392860192600101611c06565b5060608a015197508a810360608c0152611e868189611b7e565b9b9a5050505050505050505050565b600060208083016020845280855180835260408601915060408160051b87010192506020870160005b82811015611eec57603f19888603018452611eda858351611bc3565b94509285019290850190600101611ebe565b5092979650505050505050565b600060408284031215611f0b57600080fd5b611f136118c2565b8235611f1e8161195f565b81526020830135611f2e8161195f565b60208201529392505050565b60008060408385031215611f4d57600080fd5b8235611f588161195f565b915060208301356001600160401b03811115611f7357600080fd5b611f7f85828601611977565b9150509250929050565b600060208083018184528085518083526040925060408601915060408160051b8701018488016000805b8481101561205257898403603f190186528251518885528051898601819052908901908390898701905b8083101561203d57835180516001600160a01b031683528c01516120268d8401828051825260208101516020830152604081015160408301526060810151151560608301525050565b5060a0820191508b84019350600183019250611fdd565b50978a01979550505091870191600101611fb3565b50919998505050505050505050565b60006020828403121561207357600080fd5b81356001600160401b0381111561208957600080fd5b612095848285016119ef565b949350505050565b6020815260006120b06020830184611bc3565b9392505050565b63ffffffff8116811461197457600080fd5b600080600080608085870312156120df57600080fd5b84359350602085013592506040850135915060608501356120ff816120b7565b939692955090935050565b634e487b7160e01b600052603260045260246000fd5b60006020828403121561213257600080fd5b81516120b08161195f565b60006020828403121561214f57600080fd5b5051919050565b60006020828403121561216857600080fd5b81516120b0816120b7565b634e487b7160e01b600052601160045260246000fd5b808202811582820484141761177557611775612173565b8082018082111561177557611775612173565b8181038181111561177557611775612173565b805180151581146121d657600080fd5b919050565b600060208083850312156121ee57600080fd5b82516001600160401b0381111561220457600080fd5b8301601f8101851361221557600080fd5b80516122236119988261193c565b81815260a0918202830184019184820191908884111561224257600080fd5b938501935b838510156122d457848903818112156122605760008081fd5b6122686118c2565b86516122738161195f565b81526080601f1983018113156122895760008081fd5b6122916118ea565b92508888015183526040808901518a8501526060808a0151828601526122b8838b016121c6565b9085015250508088019190915283529384019391850191612247565b50979650505050505050565b600060208083850312156122f357600080fd5b82516001600160401b0381111561230957600080fd5b8301601f8101851361231a57600080fd5b80516123286119988261193c565b81815260059190911b8201830190838101908783111561234757600080fd5b928401925b8284101561236e57835161235f8161195f565b8252928401929084019061234c565b979650505050505050565b60008261239657634e487b7160e01b600052601260045260246000fd5b500490565b6000602082840312156123ad57600080fd5b815160ff811681146120b057600080fd5b600060a082840312156123d057600080fd5b60405160a081018181106001600160401b03821117156123f2576123f26118ac565b60405282516124008161195f565b815261240e602084016121c6565b60208201526040830151612421816120b7565b60408201526060830151612434816120b7565b6060820152608083015162ffffff8116811461244f57600080fd5b60808201529392505050565b60006020828403121561246d57600080fd5b815180600b0b81146120b057600080fd5b60008060006060848603121561249357600080fd5b8351925060208401519150604084015190509250925092565b6000806000606084860312156124c157600080fd5b835161ffff811681146124d357600080fd5b60208501519093506124e4816120b7565b60408501519092506124f58161195f565b809150509250925092565b60008251612512818460208701611b2e565b9190910192915050565b60006020828403121561252e57600080fd5b81516001600160401b038082111561254557600080fd5b818401915084601f83011261255957600080fd5b81518181111561256b5761256b6118ac565b61257e601f8201601f191660200161190c565b915080825285602082850101111561259557600080fd5b6125a6816020840160208601611b2e565b5094935050505056fea2646970667358221220a228c54f61140baf5f0b2128d9e2e1d506320e1da862c6c8c3769910ce168cae64736f6c63430008170033","linkReferences":{}},"methodIdentifiers":{"computeAPYs(uint256,uint256,uint256,uint32)":"8f863b2e","doQuery((address,address,address[]))":"854c8727","doQueryAccountLiquidity(address,address[])":"4c0cf6f7","doQueryBatch((address,address,address[])[])":"340d059a","doQueryIRM((address,address))":"3d77bf7f","moduleGitCommit()":"69a92ea3"},"id":56}