{"abi":[{"type":"constructor","inputs":[{"name":"oneInchAggregator_","type":"address","internalType":"address"},{"name":"uniSwapRouterV2","type":"address","internalType":"address"},{"name":"uniSwapRouterV3","type":"address","internalType":"address"}],"stateMutability":"nonpayable"},{"type":"function","name":"executeSwap","inputs":[{"name":"params","type":"tuple","internalType":"struct ISwapHandler.SwapParams","components":[{"name":"underlyingIn","type":"address","internalType":"address"},{"name":"underlyingOut","type":"address","internalType":"address"},{"name":"mode","type":"uint256","internalType":"uint256"},{"name":"amountIn","type":"uint256","internalType":"uint256"},{"name":"amountOut","type":"uint256","internalType":"uint256"},{"name":"exactOutTolerance","type":"uint256","internalType":"uint256"},{"name":"payload","type":"bytes","internalType":"bytes"}]}],"outputs":[],"stateMutability":"nonpayable"},{"type":"function","name":"oneInchAggregator","inputs":[],"outputs":[{"name":"","type":"address","internalType":"address"}],"stateMutability":"view"},{"type":"function","name":"uniSwapRouterV2","inputs":[],"outputs":[{"name":"","type":"address","internalType":"address"}],"stateMutability":"view"},{"type":"function","name":"uniSwapRouterV3","inputs":[],"outputs":[{"name":"","type":"address","internalType":"address"}],"stateMutability":"view"}],"bytecode":{"object":"0x60e060405234801561001057600080fd5b50604051610f7c380380610f7c83398101604081905261002f91610067565b6001600160a01b03918216608052811660a0521660c0526100aa565b80516001600160a01b038116811461006257600080fd5b919050565b60008060006060848603121561007c57600080fd5b6100858461004b565b92506100936020850161004b565b91506100a16040850161004b565b90509250925092565b60805160a05160c051610e7c6101006000396000818160c001528181610264015261028d015260008181605601528181610433015261049401526000818160990152818161035d01526103980152610e7c6000f3fe608060405234801561001057600080fd5b506004361061004c5760003560e01c80632181ac751461005157806332be98ac146100945780639e8e3eaa146100bb578063df5def35146100e2575b600080fd5b6100787f000000000000000000000000000000000000000000000000000000000000000081565b6040516001600160a01b03909116815260200160405180910390f35b6100787f000000000000000000000000000000000000000000000000000000000000000081565b6100787f000000000000000000000000000000000000000000000000000000000000000081565b6100f56100f0366004610a60565b6100f7565b005b60018160400151111561015f5760405162461bcd60e51b815260206004820152602560248201527f5377617048616e646c6572436f6d62696e6564426173653a20696e76616c6964604482015264206d6f646560d81b60648201526084015b60405180910390fd5b806040015160000361017a5761017481610253565b50610245565b60608160c001518060200190518101906101949190610b80565b60c0840191909152905060006101a983610253565b905082608001518110156102425760288251101580156101cb57506101e08251105b61022d5760405162461bcd60e51b815260206004820152602d60248201527f5377617048616e646c65725061796c6f6164426173653a207365636f6e64617260448201526c1e481c185d1a08199bdc9b585d609a1b6064820152608401610156565b6080830151819003610240848285610338565b505b50505b805161025090610514565b50565b6000610288826000015183606001517f0000000000000000000000000000000000000000000000000000000000000000610596565b6000807f00000000000000000000000000000000000000000000000000000000000000006001600160a01b03168460c001516040516102c79190610be4565b6000604051808303816000865af19150503d8060008114610304576040519150601f19603f3d011682016040523d82523d6000602084013e610309565b606091505b50915091508161031c5761031c81610627565b808060200190518101906103309190610c00565b949350505050565b6000806103448361067e565b91509150811561042457610381856000015186606001517f0000000000000000000000000000000000000000000000000000000000000000610596565b604051634401edf760e11b81526001600160a01b037f00000000000000000000000000000000000000000000000000000000000000001690638803dbee906103d790879060001990869033904290600401610c19565b6000604051808303816000875af11580156103f6573d6000803e3d6000fd5b505050506040513d6000823e601f3d908101601f1916820160405261041e9190810190610c8c565b5061050d565b610457856000015186606001517f0000000000000000000000000000000000000000000000000000000000000000610596565b6040805160a08101825284815233602082015242818301526060810186905260001960808201529051631e51809360e31b81526001600160a01b037f0000000000000000000000000000000000000000000000000000000000000000169163f28c0498916104c89190600401610d5e565b6020604051808303816000875af11580156104e7573d6000803e3d6000fd5b505050506040513d601f19601f8201168201806040525081019061050b9190610c00565b505b5050505050565b6040516370a0823160e01b81523060048201526000906001600160a01b038316906370a0823190602401602060405180830381865afa15801561055b573d6000803e3d6000fd5b505050506040513d601f19601f8201168201806040525081019061057f9190610c00565b905080156105925761059282338361074f565b5050565b604051636eb1769f60e11b81523060048201526001600160a01b0382811660248301526000919085169063dd62ed3e90604401602060405180830381865afa1580156105e6573d6000803e3d6000fd5b505050506040513d601f19601f8201168201806040525081019061060a9190610c00565b905082811015610621576106218483600019610836565b50505050565b80511561063657805181602001fd5b60405162461bcd60e51b815260206004820152601c60248201527f5377617048616e646c6572426173653a20656d707479206572726f72000000006044820152606401610156565b600060606000601484516106929190610dcc565b15905060608115610745576000601486516106ad9190610de0565b90508067ffffffffffffffff8111156106c8576106c8610956565b6040519080825280602002602001820160405280156106f1578160200160208202803683370190505b50915060005b818110156107425760206014820288010151600160601b900483828151811061072257610722610df4565b6001600160a01b03909216602092830291909101909101526001016106f7565b50505b9094909350915050565b604080516001600160a01b038481166024830152604480830185905283518084039091018152606490920183526020820180516001600160e01b031663a9059cbb60e01b17905291516000928392908716916107ab9190610be4565b6000604051808303816000865af19150503d80600081146107e8576040519150601f19603f3d011682016040523d82523d6000602084013e6107ed565b606091505b50915091508180156108175750805115806108175750808060200190518101906108179190610e0a565b819061050b5760405162461bcd60e51b81526004016101569190610e33565b60008061084485858561087f565b9150915081610871576108598585600061087f565b50915081156108715761086d85858561087f565b5091505b8161050d5761050d81610627565b604080516001600160a01b038481166024830152604480830185905283518084039091018152606490920183526020820180516001600160e01b031663095ea7b360e01b1790529151600092606092849283928916916108de91610be4565b6000604051808303816000865af19150503d806000811461091b576040519150601f19603f3d011682016040523d82523d6000602084013e610920565b606091505b509150915081801561094a57508051158061094a57508080602001905181019061094a9190610e0a565b97909650945050505050565b634e487b7160e01b600052604160045260246000fd5b60405160e0810167ffffffffffffffff8111828210171561098f5761098f610956565b60405290565b604051601f8201601f1916810167ffffffffffffffff811182821017156109be576109be610956565b604052919050565b80356001600160a01b03811681146109dd57600080fd5b919050565b600067ffffffffffffffff8211156109fc576109fc610956565b50601f01601f191660200190565b600082601f830112610a1b57600080fd5b8135610a2e610a29826109e2565b610995565b818152846020838601011115610a4357600080fd5b816020850160208301376000918101602001919091529392505050565b600060208284031215610a7257600080fd5b813567ffffffffffffffff80821115610a8a57600080fd5b9083019060e08286031215610a9e57600080fd5b610aa661096c565b610aaf836109c6565b8152610abd602084016109c6565b602082015260408301356040820152606083013560608201526080830135608082015260a083013560a082015260c083013582811115610afc57600080fd5b610b0887828601610a0a565b60c08301525095945050505050565b60005b83811015610b32578181015183820152602001610b1a565b50506000910152565b600082601f830112610b4c57600080fd5b8151610b5a610a29826109e2565b818152846020838601011115610b6f57600080fd5b610330826020830160208701610b17565b60008060408385031215610b9357600080fd5b825167ffffffffffffffff80821115610bab57600080fd5b610bb786838701610b3b565b93506020850151915080821115610bcd57600080fd5b50610bda85828601610b3b565b9150509250929050565b60008251610bf6818460208701610b17565b9190910192915050565b600060208284031215610c1257600080fd5b5051919050565b600060a08201878352602087602085015260a0604085015281875180845260c08601915060208901935060005b81811015610c6b5784516001600160a01b031683529383019391830191600101610c46565b50506001600160a01b03969096166060850152505050608001529392505050565b60006020808385031215610c9f57600080fd5b825167ffffffffffffffff80821115610cb757600080fd5b818501915085601f830112610ccb57600080fd5b815181811115610cdd57610cdd610956565b8060051b9150610cee848301610995565b8181529183018401918481019088841115610d0857600080fd5b938501935b83851015610d2657845182529385019390850190610d0d565b98975050505050505050565b60008151808452610d4a816020860160208601610b17565b601f01601f19169290920160200192915050565b602081526000825160a06020840152610d7a60c0840182610d32565b905060018060a01b0360208501511660408401526040840151606084015260608401516080840152608084015160a08401528091505092915050565b634e487b7160e01b600052601260045260246000fd5b600082610ddb57610ddb610db6565b500690565b600082610def57610def610db6565b500490565b634e487b7160e01b600052603260045260246000fd5b600060208284031215610e1c57600080fd5b81518015158114610e2c57600080fd5b9392505050565b602081526000610e2c6020830184610d3256fea2646970667358221220f46d2827c878e0441702c26cd1977312763371ca4b4a82af88003ae16d5b7d6b64736f6c63430008170033","linkReferences":{}},"methodIdentifiers":{"executeSwap((address,address,uint256,uint256,uint256,uint256,bytes))":"df5def35","oneInchAggregator()":"9e8e3eaa","uniSwapRouterV2()":"32be98ac","uniSwapRouterV3()":"2181ac75"},"id":43}