{"abi":[{"type":"constructor","inputs":[{"name":"moduleGitCommit_","type":"bytes32","internalType":"bytes32"},{"name":"uniswapRouter_","type":"address","internalType":"address"},{"name":"oneInch_","type":"address","internalType":"address"}],"stateMutability":"nonpayable"},{"type":"function","name":"moduleGitCommit","inputs":[],"outputs":[{"name":"","type":"bytes32","internalType":"bytes32"}],"stateMutability":"view"},{"type":"function","name":"moduleId","inputs":[],"outputs":[{"name":"","type":"uint256","internalType":"uint256"}],"stateMutability":"view"},{"type":"function","name":"oneInch","inputs":[],"outputs":[{"name":"","type":"address","internalType":"address"}],"stateMutability":"view"},{"type":"function","name":"swap1Inch","inputs":[{"name":"params","type":"tuple","internalType":"struct Swap.Swap1InchParams","components":[{"name":"subAccountIdIn","type":"uint256","internalType":"uint256"},{"name":"subAccountIdOut","type":"uint256","internalType":"uint256"},{"name":"underlyingIn","type":"address","internalType":"address"},{"name":"underlyingOut","type":"address","internalType":"address"},{"name":"amount","type":"uint256","internalType":"uint256"},{"name":"amountOutMinimum","type":"uint256","internalType":"uint256"},{"name":"payload","type":"bytes","internalType":"bytes"}]}],"outputs":[],"stateMutability":"nonpayable"},{"type":"function","name":"swapAndRepayUni","inputs":[{"name":"params","type":"tuple","internalType":"struct Swap.SwapUniExactOutputParams","components":[{"name":"subAccountIdIn","type":"uint256","internalType":"uint256"},{"name":"subAccountIdOut","type":"uint256","internalType":"uint256"},{"name":"amountOut","type":"uint256","internalType":"uint256"},{"name":"amountInMaximum","type":"uint256","internalType":"uint256"},{"name":"deadline","type":"uint256","internalType":"uint256"},{"name":"path","type":"bytes","internalType":"bytes"}]},{"name":"targetDebt","type":"uint256","internalType":"uint256"}],"outputs":[],"stateMutability":"nonpayable"},{"type":"function","name":"swapAndRepayUniSingle","inputs":[{"name":"params","type":"tuple","internalType":"struct Swap.SwapUniExactOutputSingleParams","components":[{"name":"subAccountIdIn","type":"uint256","internalType":"uint256"},{"name":"subAccountIdOut","type":"uint256","internalType":"uint256"},{"name":"underlyingIn","type":"address","internalType":"address"},{"name":"underlyingOut","type":"address","internalType":"address"},{"name":"amountOut","type":"uint256","internalType":"uint256"},{"name":"amountInMaximum","type":"uint256","internalType":"uint256"},{"name":"deadline","type":"uint256","internalType":"uint256"},{"name":"fee","type":"uint24","internalType":"uint24"},{"name":"sqrtPriceLimitX96","type":"uint160","internalType":"uint160"}]},{"name":"targetDebt","type":"uint256","internalType":"uint256"}],"outputs":[],"stateMutability":"nonpayable"},{"type":"function","name":"swapUniExactInput","inputs":[{"name":"params","type":"tuple","internalType":"struct Swap.SwapUniExactInputParams","components":[{"name":"subAccountIdIn","type":"uint256","internalType":"uint256"},{"name":"subAccountIdOut","type":"uint256","internalType":"uint256"},{"name":"amountIn","type":"uint256","internalType":"uint256"},{"name":"amountOutMinimum","type":"uint256","internalType":"uint256"},{"name":"deadline","type":"uint256","internalType":"uint256"},{"name":"path","type":"bytes","internalType":"bytes"}]}],"outputs":[],"stateMutability":"nonpayable"},{"type":"function","name":"swapUniExactInputSingle","inputs":[{"name":"params","type":"tuple","internalType":"struct Swap.SwapUniExactInputSingleParams","components":[{"name":"subAccountIdIn","type":"uint256","internalType":"uint256"},{"name":"subAccountIdOut","type":"uint256","internalType":"uint256"},{"name":"underlyingIn","type":"address","internalType":"address"},{"name":"underlyingOut","type":"address","internalType":"address"},{"name":"amountIn","type":"uint256","internalType":"uint256"},{"name":"amountOutMinimum","type":"uint256","internalType":"uint256"},{"name":"deadline","type":"uint256","internalType":"uint256"},{"name":"fee","type":"uint24","internalType":"uint24"},{"name":"sqrtPriceLimitX96","type":"uint160","internalType":"uint160"}]}],"outputs":[],"stateMutability":"nonpayable"},{"type":"function","name":"swapUniExactOutput","inputs":[{"name":"params","type":"tuple","internalType":"struct Swap.SwapUniExactOutputParams","components":[{"name":"subAccountIdIn","type":"uint256","internalType":"uint256"},{"name":"subAccountIdOut","type":"uint256","internalType":"uint256"},{"name":"amountOut","type":"uint256","internalType":"uint256"},{"name":"amountInMaximum","type":"uint256","internalType":"uint256"},{"name":"deadline","type":"uint256","internalType":"uint256"},{"name":"path","type":"bytes","internalType":"bytes"}]}],"outputs":[],"stateMutability":"nonpayable"},{"type":"function","name":"swapUniExactOutputSingle","inputs":[{"name":"params","type":"tuple","internalType":"struct Swap.SwapUniExactOutputSingleParams","components":[{"name":"subAccountIdIn","type":"uint256","internalType":"uint256"},{"name":"subAccountIdOut","type":"uint256","internalType":"uint256"},{"name":"underlyingIn","type":"address","internalType":"address"},{"name":"underlyingOut","type":"address","internalType":"address"},{"name":"amountOut","type":"uint256","internalType":"uint256"},{"name":"amountInMaximum","type":"uint256","internalType":"uint256"},{"name":"deadline","type":"uint256","internalType":"uint256"},{"name":"fee","type":"uint24","internalType":"uint24"},{"name":"sqrtPriceLimitX96","type":"uint160","internalType":"uint160"}]}],"outputs":[],"stateMutability":"nonpayable"},{"type":"function","name":"uniswapRouter","inputs":[],"outputs":[{"name":"","type":"address","internalType":"address"}],"stateMutability":"view"},{"type":"event","name":"AssetStatus","inputs":[{"name":"underlying","type":"address","indexed":true,"internalType":"address"},{"name":"totalBalances","type":"uint256","indexed":false,"internalType":"uint256"},{"name":"totalBorrows","type":"uint256","indexed":false,"internalType":"uint256"},{"name":"reserveBalance","type":"uint96","indexed":false,"internalType":"uint96"},{"name":"poolSize","type":"uint256","indexed":false,"internalType":"uint256"},{"name":"interestAccumulator","type":"uint256","indexed":false,"internalType":"uint256"},{"name":"interestRate","type":"int96","indexed":false,"internalType":"int96"},{"name":"timestamp","type":"uint256","indexed":false,"internalType":"uint256"}],"anonymous":false},{"type":"event","name":"Borrow","inputs":[{"name":"underlying","type":"address","indexed":true,"internalType":"address"},{"name":"account","type":"address","indexed":true,"internalType":"address"},{"name":"amount","type":"uint256","indexed":false,"internalType":"uint256"}],"anonymous":false},{"type":"event","name":"DelegateAverageLiquidity","inputs":[{"name":"account","type":"address","indexed":true,"internalType":"address"},{"name":"delegate","type":"address","indexed":true,"internalType":"address"}],"anonymous":false},{"type":"event","name":"Deposit","inputs":[{"name":"underlying","type":"address","indexed":true,"internalType":"address"},{"name":"account","type":"address","indexed":true,"internalType":"address"},{"name":"amount","type":"uint256","indexed":false,"internalType":"uint256"}],"anonymous":false},{"type":"event","name":"EnterMarket","inputs":[{"name":"underlying","type":"address","indexed":true,"internalType":"address"},{"name":"account","type":"address","indexed":true,"internalType":"address"}],"anonymous":false},{"type":"event","name":"ExitMarket","inputs":[{"name":"underlying","type":"address","indexed":true,"internalType":"address"},{"name":"account","type":"address","indexed":true,"internalType":"address"}],"anonymous":false},{"type":"event","name":"Genesis","inputs":[],"anonymous":false},{"type":"event","name":"GovConvertReserves","inputs":[{"name":"underlying","type":"address","indexed":true,"internalType":"address"},{"name":"recipient","type":"address","indexed":true,"internalType":"address"},{"name":"amount","type":"uint256","indexed":false,"internalType":"uint256"}],"anonymous":false},{"type":"event","name":"GovSetAssetConfig","inputs":[{"name":"underlying","type":"address","indexed":true,"internalType":"address"},{"name":"newConfig","type":"tuple","indexed":false,"internalType":"struct Storage.AssetConfig","components":[{"name":"eTokenAddress","type":"address","internalType":"address"},{"name":"borrowIsolated","type":"bool","internalType":"bool"},{"name":"collateralFactor","type":"uint32","internalType":"uint32"},{"name":"borrowFactor","type":"uint32","internalType":"uint32"},{"name":"twapWindow","type":"uint24","internalType":"uint24"}]}],"anonymous":false},{"type":"event","name":"GovSetChainlinkPriceFeed","inputs":[{"name":"underlying","type":"address","indexed":true,"internalType":"address"},{"name":"chainlinkAggregator","type":"address","indexed":false,"internalType":"address"}],"anonymous":false},{"type":"event","name":"GovSetIRM","inputs":[{"name":"underlying","type":"address","indexed":true,"internalType":"address"},{"name":"interestRateModel","type":"uint256","indexed":false,"internalType":"uint256"},{"name":"resetParams","type":"bytes","indexed":false,"internalType":"bytes"}],"anonymous":false},{"type":"event","name":"GovSetPricingConfig","inputs":[{"name":"underlying","type":"address","indexed":true,"internalType":"address"},{"name":"newPricingType","type":"uint16","indexed":false,"internalType":"uint16"},{"name":"newPricingParameter","type":"uint32","indexed":false,"internalType":"uint32"}],"anonymous":false},{"type":"event","name":"GovSetReserveFee","inputs":[{"name":"underlying","type":"address","indexed":true,"internalType":"address"},{"name":"newReserveFee","type":"uint32","indexed":false,"internalType":"uint32"}],"anonymous":false},{"type":"event","name":"InstallerInstallModule","inputs":[{"name":"moduleId","type":"uint256","indexed":true,"internalType":"uint256"},{"name":"moduleImpl","type":"address","indexed":true,"internalType":"address"},{"name":"moduleGitCommit","type":"bytes32","indexed":false,"internalType":"bytes32"}],"anonymous":false},{"type":"event","name":"InstallerSetGovernorAdmin","inputs":[{"name":"newGovernorAdmin","type":"address","indexed":true,"internalType":"address"}],"anonymous":false},{"type":"event","name":"InstallerSetUpgradeAdmin","inputs":[{"name":"newUpgradeAdmin","type":"address","indexed":true,"internalType":"address"}],"anonymous":false},{"type":"event","name":"Liquidation","inputs":[{"name":"liquidator","type":"address","indexed":true,"internalType":"address"},{"name":"violator","type":"address","indexed":true,"internalType":"address"},{"name":"underlying","type":"address","indexed":true,"internalType":"address"},{"name":"collateral","type":"address","indexed":false,"internalType":"address"},{"name":"repay","type":"uint256","indexed":false,"internalType":"uint256"},{"name":"yield","type":"uint256","indexed":false,"internalType":"uint256"},{"name":"healthScore","type":"uint256","indexed":false,"internalType":"uint256"},{"name":"baseDiscount","type":"uint256","indexed":false,"internalType":"uint256"},{"name":"discount","type":"uint256","indexed":false,"internalType":"uint256"}],"anonymous":false},{"type":"event","name":"MarketActivated","inputs":[{"name":"underlying","type":"address","indexed":true,"internalType":"address"},{"name":"eToken","type":"address","indexed":true,"internalType":"address"},{"name":"dToken","type":"address","indexed":true,"internalType":"address"}],"anonymous":false},{"type":"event","name":"PTokenActivated","inputs":[{"name":"underlying","type":"address","indexed":true,"internalType":"address"},{"name":"pToken","type":"address","indexed":true,"internalType":"address"}],"anonymous":false},{"type":"event","name":"PTokenUnWrap","inputs":[{"name":"underlying","type":"address","indexed":true,"internalType":"address"},{"name":"account","type":"address","indexed":true,"internalType":"address"},{"name":"amount","type":"uint256","indexed":false,"internalType":"uint256"}],"anonymous":false},{"type":"event","name":"PTokenWrap","inputs":[{"name":"underlying","type":"address","indexed":true,"internalType":"address"},{"name":"account","type":"address","indexed":true,"internalType":"address"},{"name":"amount","type":"uint256","indexed":false,"internalType":"uint256"}],"anonymous":false},{"type":"event","name":"ProxyCreated","inputs":[{"name":"proxy","type":"address","indexed":true,"internalType":"address"},{"name":"moduleId","type":"uint256","indexed":false,"internalType":"uint256"}],"anonymous":false},{"type":"event","name":"Repay","inputs":[{"name":"underlying","type":"address","indexed":true,"internalType":"address"},{"name":"account","type":"address","indexed":true,"internalType":"address"},{"name":"amount","type":"uint256","indexed":false,"internalType":"uint256"}],"anonymous":false},{"type":"event","name":"RequestBorrow","inputs":[{"name":"account","type":"address","indexed":true,"internalType":"address"},{"name":"amount","type":"uint256","indexed":false,"internalType":"uint256"}],"anonymous":false},{"type":"event","name":"RequestBurn","inputs":[{"name":"account","type":"address","indexed":true,"internalType":"address"},{"name":"amount","type":"uint256","indexed":false,"internalType":"uint256"}],"anonymous":false},{"type":"event","name":"RequestDeposit","inputs":[{"name":"account","type":"address","indexed":true,"internalType":"address"},{"name":"amount","type":"uint256","indexed":false,"internalType":"uint256"}],"anonymous":false},{"type":"event","name":"RequestDonate","inputs":[{"name":"account","type":"address","indexed":true,"internalType":"address"},{"name":"amount","type":"uint256","indexed":false,"internalType":"uint256"}],"anonymous":false},{"type":"event","name":"RequestLiquidate","inputs":[{"name":"liquidator","type":"address","indexed":true,"internalType":"address"},{"name":"violator","type":"address","indexed":true,"internalType":"address"},{"name":"underlying","type":"address","indexed":true,"internalType":"address"},{"name":"collateral","type":"address","indexed":false,"internalType":"address"},{"name":"repay","type":"uint256","indexed":false,"internalType":"uint256"},{"name":"minYield","type":"uint256","indexed":false,"internalType":"uint256"}],"anonymous":false},{"type":"event","name":"RequestMint","inputs":[{"name":"account","type":"address","indexed":true,"internalType":"address"},{"name":"amount","type":"uint256","indexed":false,"internalType":"uint256"}],"anonymous":false},{"type":"event","name":"RequestRepay","inputs":[{"name":"account","type":"address","indexed":true,"internalType":"address"},{"name":"amount","type":"uint256","indexed":false,"internalType":"uint256"}],"anonymous":false},{"type":"event","name":"RequestSwap","inputs":[{"name":"accountIn","type":"address","indexed":true,"internalType":"address"},{"name":"accountOut","type":"address","indexed":true,"internalType":"address"},{"name":"underlyingIn","type":"address","indexed":true,"internalType":"address"},{"name":"underlyingOut","type":"address","indexed":false,"internalType":"address"},{"name":"amount","type":"uint256","indexed":false,"internalType":"uint256"},{"name":"swapType","type":"uint256","indexed":false,"internalType":"uint256"}],"anonymous":false},{"type":"event","name":"RequestSwapHub","inputs":[{"name":"accountIn","type":"address","indexed":true,"internalType":"address"},{"name":"accountOut","type":"address","indexed":true,"internalType":"address"},{"name":"underlyingIn","type":"address","indexed":true,"internalType":"address"},{"name":"underlyingOut","type":"address","indexed":false,"internalType":"address"},{"name":"amountIn","type":"uint256","indexed":false,"internalType":"uint256"},{"name":"amountOut","type":"uint256","indexed":false,"internalType":"uint256"},{"name":"mode","type":"uint256","indexed":false,"internalType":"uint256"},{"name":"swapHandler","type":"address","indexed":false,"internalType":"address"}],"anonymous":false},{"type":"event","name":"RequestSwapHubRepay","inputs":[{"name":"accountIn","type":"address","indexed":true,"internalType":"address"},{"name":"accountOut","type":"address","indexed":true,"internalType":"address"},{"name":"underlyingIn","type":"address","indexed":true,"internalType":"address"},{"name":"underlyingOut","type":"address","indexed":false,"internalType":"address"},{"name":"targetDebt","type":"uint256","indexed":false,"internalType":"uint256"},{"name":"swapHandler","type":"address","indexed":false,"internalType":"address"}],"anonymous":false},{"type":"event","name":"RequestTransferDToken","inputs":[{"name":"from","type":"address","indexed":true,"internalType":"address"},{"name":"to","type":"address","indexed":true,"internalType":"address"},{"name":"amount","type":"uint256","indexed":false,"internalType":"uint256"}],"anonymous":false},{"type":"event","name":"RequestTransferEToken","inputs":[{"name":"from","type":"address","indexed":true,"internalType":"address"},{"name":"to","type":"address","indexed":true,"internalType":"address"},{"name":"amount","type":"uint256","indexed":false,"internalType":"uint256"}],"anonymous":false},{"type":"event","name":"RequestWithdraw","inputs":[{"name":"account","type":"address","indexed":true,"internalType":"address"},{"name":"amount","type":"uint256","indexed":false,"internalType":"uint256"}],"anonymous":false},{"type":"event","name":"TrackAverageLiquidity","inputs":[{"name":"account","type":"address","indexed":true,"internalType":"address"}],"anonymous":false},{"type":"event","name":"UnTrackAverageLiquidity","inputs":[{"name":"account","type":"address","indexed":true,"internalType":"address"}],"anonymous":false},{"type":"event","name":"Withdraw","inputs":[{"name":"underlying","type":"address","indexed":true,"internalType":"address"},{"name":"account","type":"address","indexed":true,"internalType":"address"},{"name":"amount","type":"uint256","indexed":false,"internalType":"uint256"}],"anonymous":false}],"bytecode":{"object":"0x6101006040523480156200001257600080fd5b506040516200343d3803806200343d833981016040819052620000359162000075565b600660805260a0929092526001600160a01b0390811660c0521660e052620000b6565b80516001600160a01b03811681146200007057600080fd5b919050565b6000806000606084860312156200008b57600080fd5b835192506200009d6020850162000058565b9150620000ad6040850162000058565b90509250925092565b60805160a05160c05160e0516132fa620001436000396000818160b3015281816103fa01526104290152600081816101540152818161060b01528181610637015281816107d90152818161080501528181610d1b01528181610d4801528181610e9c01528181610f6a01528181610f97015261112f0152600061011f015260006101b401526132fa6000f3fe608060405234801561001057600080fd5b50600436106100a95760003560e01c80637ee3d889116100715780637ee3d8891461017657806382d7af8f146101895780638dfb1f361461019c578063a1308f27146101af578063f205beb0146101d6578063fa258bf9146101e957600080fd5b8063045c08d5146100ae57806322848795146100f2578063465734c81461010757806369a92ea31461011a578063735de9f71461014f575b600080fd5b6100d57f000000000000000000000000000000000000000000000000000000000000000081565b6040516001600160a01b0390911681526020015b60405180910390f35b610105610100366004612d68565b6101fc565b005b610105610115366004612e70565b610290565b6101417f000000000000000000000000000000000000000000000000000000000000000081565b6040519081526020016100e9565b6100d57f000000000000000000000000000000000000000000000000000000000000000081565b610105610184366004612e8d565b610308565b610105610197366004612ec2565b610391565b6101056101aa366004612f79565b610528565b6101417f000000000000000000000000000000000000000000000000000000000000000081565b6101056101e4366004612e70565b6105a2565b6101056101f7366004612e8d565b610766565b6001600054146102275760405162461bcd60e51b815260040161021e90612fa6565b60405180910390fd5b60026000819055506000806102418460a0015160016108f4565b91509150600061025e8383868860000151896020015160076109f4565b905061026a8185610c69565b61012082015261027b818685610d15565b61028481610ec8565b50506001600055505050565b6001600054146102b25760405162461bcd60e51b815260040161021e90612fa6565b600260008190555060006102df8260400151836060015184608001518560000151866020015160036109f4565b608083015161012082015290506102f68183610f60565b6102ff8161115a565b50506001600055565b60016000541461032a5760405162461bcd60e51b815260040161021e90612fa6565b60026000819055506000806103448360a0015160016108f4565b915091506000610365838386604001518760000151886020015160046109f4565b6040850151610120820152905061037d818585610d15565b6103868161115a565b505060016000555050565b6001600054146103b35760405162461bcd60e51b815260040161021e90612fa6565b600260008190555060006103e08260400151836060015184608001518560000151866020015160056109f4565b90506103f08183608001516111e8565b61042482604001517f0000000000000000000000000000000000000000000000000000000000000000836101000151611298565b6000807f00000000000000000000000000000000000000000000000000000000000000006001600160a01b03168460c001516040516104639190612ff0565b6000604051808303816000865af19150503d80600081146104a0576040519150601f19603f3d011682016040523d82523d6000602084013e6104a5565b606091505b5091509150816104b8576104b881611387565b808060200190518101906104cc919061300c565b610120840181905260a0850151111561051f5760405162461bcd60e51b8152602060048201526015602482015274194bdcddd85c0bdb5a5b8b585b5bdd5b9d0b5bdd5d605a1b604482015260640161021e565b6103868361115a565b60016000541461054a5760405162461bcd60e51b815260040161021e90612fa6565b6002600081905550600061057383604001518460600151848660000151876020015160066109f4565b905061057f8183610c69565b61012082015261058f8184610f60565b61059881610ec8565b5050600160005550565b6001600054146105c45760405162461bcd60e51b815260040161021e90612fa6565b600260008190555060006105f18260400151836060015184608001518560000151866020015160016109f4565b90506106018183608001516111e8565b61063582604001517f0000000000000000000000000000000000000000000000000000000000000000836101000151611298565b7f00000000000000000000000000000000000000000000000000000000000000006001600160a01b031663414bf38960405180610100016040528085604001516001600160a01b0316815260200185606001516001600160a01b031681526020018560e0015162ffffff168152602001306001600160a01b0316815260200160008660c00151116106c657426106cc565b8560c001515b815260200184610100015181526020018560a0015181526020018561010001516001600160a01b03168152506040518263ffffffff1660e01b81526004016107149190613025565b6020604051808303816000875af1158015610733573d6000803e3d6000fd5b505050506040513d601f19601f82011682018060405250810190610757919061300c565b6101208201526102ff8161115a565b6001600054146107885760405162461bcd60e51b815260040161021e90612fa6565b60026000819055506000806107a28360a0015160006108f4565b9150915060006107c3838386604001518760000151886020015160026109f4565b90506107d38185604001516111e8565b610803837f0000000000000000000000000000000000000000000000000000000000000000836101000151611298565b7f00000000000000000000000000000000000000000000000000000000000000006001600160a01b031663c04b8d596040518060a001604052808760a001518152602001306001600160a01b031681526020016000886080015111610868574261086e565b87608001515b8152602001846101000151815260200187606001518152506040518263ffffffff1660e01b81526004016108a2919061310c565b6020604051808303816000875af11580156108c1573d6000803e3d6000fd5b505050506040513d601f19601f820116820180604052508101906108e5919061300c565b6101208201526103868161115a565b600080602b845110156109425760405162461bcd60e51b81526020600482015260166024820152750ca5ee6eec2e05eeadcd25ae0c2e8d05ad8cadccee8d60531b604482015260640161021e565b6017601485516109529190613135565b61095c919061315e565b156109a25760405162461bcd60e51b8152602060048201526016602482015275194bdcddd85c0bdd5b9a4b5c185d1a0b599bdc9b585d60521b604482015260640161021e565b6020840151600090600160601b9004905060006109d686601488516109c79190613135565b0160200151600160601b900490565b9050846109e45781816109e7565b80825b9350935050509250929050565b6109fc612afe565b856001600160a01b0316876001600160a01b031603610a4b5760405162461bcd60e51b815260206004820152600b60248201526a652f737761702f73616d6560a81b604482015260640161021e565b60271936013560601c610a5e81866113ce565b6001600160a01b03168252610a7381856113ce565b6001600160a01b031660208301528151610a8c90611426565b81602001516001600160a01b031682600001516001600160a01b031614610aba57610aba8260200151611426565b6020828101518351604080516001600160a01b038c811682529481018b90529081018790528b84169392831692909116907e67954c8a2fb8cdfeea6b19b552f81a3f98fb552a868f29df939556a2c57fff9060600160405180910390a46001600160a01b0380891660009081526008602081815260408084205485168782019081528c8616855292825280842054851660608801908152835186168552600990925280842091518516845290922090519192909116610bbb5760405162461bcd60e51b815260206004820152601e60248201527f652f737761702f696e2d6d61726b65742d6e6f742d6163746976617465640000604482015260640161021e565b60608401516001600160a01b0316610c155760405162461bcd60e51b815260206004820152601f60248201527f652f737761702f6f75742d6d61726b65742d6e6f742d61637469766174656400604482015260640161021e565b610c1f8a836114d2565b6080850152610c2e89826114d2565b60a08501526080840151610c429030611568565b60c085015260a0840151610c569030611568565b60e0850152509198975050505050505050565b6000808360a001516101a00151610cb16009600087606001516001600160a01b03166001600160a01b031681526020019081526020016000208660a00151876020015161164b565b610cbb9190613172565b9050828111610d015760405162461bcd60e51b8152602060048201526012602482015271194bdcddd85c0bdd185c99d95d0b5919589d60721b604482015260640161021e565b610d0b8382613135565b9150505b92915050565b610d44817f00000000000000000000000000000000000000000000000000000000000000008460600151611298565b60007f00000000000000000000000000000000000000000000000000000000000000006001600160a01b031663f28c04986040518060a001604052808660a001518152602001306001600160a01b031681526020016000876080015111610dab5742610db1565b86608001515b8152602001876101200151815260200186606001518152506040518263ffffffff1660e01b8152600401610de5919061310c565b6020604051808303816000875af1158015610e04573d6000803e3d6000fd5b505050506040513d601f19601f82011682018060405250810190610e28919061300c565b90506000198103610e7b5760405162461bcd60e51b815260206004820152601a60248201527f652f737761702f65786163742d6f75742d616d6f756e742d696e000000000000604482015260640161021e565b610e8584826111e8565b82606001518461010001511015610ec257610ec2827f00000000000000000000000000000000000000000000000000000000000000006000611298565b50505050565b6000610ed3826116a8565b604080840180516001600160a01b03166000908152600960205291909120608085015191518551610140870151949550610f109492939286611777565b610f516009600084606001516001600160a01b03166001600160a01b031681526020019081526020016000208360a00151846020015185610120015161179d565b8151610f5c906117cc565b5050565b610f9381604001517f00000000000000000000000000000000000000000000000000000000000000008360a00151611298565b60007f00000000000000000000000000000000000000000000000000000000000000006001600160a01b031663db3e219860405180610100016040528085604001516001600160a01b0316815260200185606001516001600160a01b031681526020018560e0015162ffffff168152602001306001600160a01b0316815260200160008660c0015111611026574261102c565b8560c001515b815260200186610120015181526020018560a0015181526020018561010001516001600160a01b03168152506040518263ffffffff1660e01b81526004016110749190613025565b6020604051808303816000875af1158015611093573d6000803e3d6000fd5b505050506040513d601f19601f820116820180604052508101906110b7919061300c565b9050600019810361110a5760405162461bcd60e51b815260206004820152601a60248201527f652f737761702f65786163742d6f75742d616d6f756e742d696e000000000000604482015260640161021e565b61111483826111e8565b8160a0015183610100015110156111555761115582604001517f00000000000000000000000000000000000000000000000000000000000000006000611298565b505050565b6000611165826116a8565b604080840180516001600160a01b031660009081526009602052919091206080850151915185516101408701519495506111a29492939286611777565b610f516009600084606001516001600160a01b03166001600160a01b031681526020019081526020016000208360a001518460600151856020015186610120015161187f565b6040808301516001600160a01b031660009081526009602052206080830151835161121592919084611909565b610140840152608083015161018001519091508111156112775760405162461bcd60e51b815260206004820152601d60248201527f652f737761702f696e73756666696369656e742d706f6f6c2d73697a65000000604482015260640161021e565b60808201516101a0015161128b9082613172565b6101009092019190915250565b604080516001600160a01b038481166024830152604480830185905283518084039091018152606490920183526020820180516001600160e01b031663095ea7b360e01b17905291516000928392908716916112f49190612ff0565b6000604051808303816000865af19150503d8060008114611331576040519150601f19603f3d011682016040523d82523d6000602084013e611336565b606091505b50915091508180156113605750805115806113605750808060200190518101906113609190613196565b819061137f5760405162461bcd60e51b815260040161021e91906131b1565b505050505050565b80511561139657805181602001fd5b60405162461bcd60e51b815260206004820152600d60248201526c3297b2b6b83a3c96b2b93937b960991b604482015260640161021e565b600061010082106114215760405162461bcd60e51b815260206004820152601860248201527f652f7375622d6163636f756e742d69642d746f6f2d6269670000000000000000604482015260640161021e565b501890565b6001600160a01b038116600090815260066020526040812054610100900464ffffffffff1690819003611457575050565b60006114638242613135565b90508060000361147257505050565b6001600160a01b0383166000908152600660205260409020805465ffffffffff0019166101004264ffffffffff16021790556114ae8382611973565b6001600160a01b039093166000908152600660205260409020600101929092555050565b6114da612b65565b6114e5838383611a31565b15610d0f5760a0810151825464ffffffffff90911664ffffffffff19909116178255805160608201516001600160601b0316600160a01b026001600160a01b03909116176001830155602081015160408201516001600160901b0316600160701b026001600160701b039091161760038301556080810151600483015592915050565b6040805183516001600160a01b03848116602480850191909152845180850390910181526044840185526020810180516001600160e01b03166370a0823160e01b179052935160009485938493169162030d40916115c591612ff0565b6000604051808303818686fa925050503d8060008114611601576040519150601f19603f3d011682016040523d82523d6000602084013e611606565b606091505b5091509150811580611619575060208151105b1561162957600093505050611642565b8080602001905181019061163d919061300c565b935050505b60405292915050565b6001600160a01b0381166000908152600584016020526040812054633b9aca009061169690859061169190889083908890600160701b90046001600160901b0316611dd4565b611e26565b6116a09190613172565b949350505050565b6000806116b9836080015130611568565b90508261010001518360c001516116d09190613135565b81146117125760405162461bcd60e51b81526020600482015260116024820152703297b9bbb0b817b130b630b731b296b4b760791b604482015260640161021e565b8261012001518360e0015161172791906131c4565b6117358460a0015130611568565b14610d0f5760405162461bcd60e51b8152602060048201526012602482015271194bdcddd85c0bd8985b185b98d94b5bdd5d60721b604482015260640161021e565b6117818582611e64565b6101808601526117948686868686611ebc565b61137f85612004565b60028401546117c390859085906001600160a01b0316856117be8387611e64565b6120bf565b610ec283612004565b6001600160a01b03811660009081526006602052604090205460ff168061184c576040516001600160a01b038316602482015261115590620f4240906361cdaa1d60e11b906044015b60408051601f198184030181529190526020810180516001600160e01b03166001600160e01b031990931692909217909152612216565b60001960ff821601610f5c576001600160a01b0382166000908152600660205260409020805460ff191660021790555050565b600061188b8583611e64565b905060006118998683612298565b90508186610180018181516118ae91906131c4565b9052506118be87878787856122c3565b6001600160a01b0384166000908152600588016020526040902054600160701b90046001600160901b0316156118f7576118f7846117cc565b61190086612004565b50505050505050565b6000806000600019840361194d57506001600160a01b03841660009081526005870160205260409020546001600160701b031661194686826123c6565b9350611966565b6119578685611e64565b935061196386856123e7565b90505b9296929550919350505050565b60008062015180831015611987578261198c565b620151805b9050600061199d8262015180613135565b905060008060006119ad8861241d565b915091508082116119bf5760006119c9565b6119c98183613135565b925050506201518083826119dd91906131d7565b6119e79190613172565b6001600160a01b0387166000908152600660205260409020600101546201518090611a139085906131d7565b611a1d9190613172565b611a2791906131c4565b9695505050505050565b6001600160a01b0383168152815464ffffffffff811660a083015265010000000000810460ff90811660c084018190526601000000000000830463ffffffff90811660e0860152600160501b8404600b0b610100860152600160b01b84048116610120860152600160d01b840461ffff16610140860152600160e01b9093049092166101608401526001840154600160a01b90046001600160601b0316606084015260038401546001600160701b038082166020860152600160701b9091046001600160901b03166040850152600485015460808501526012839003909116600a0a6101a084018190526000929181611b2c57611b2c613148565b046101c08401526000611b3f8430611568565b9050836101c001518111611b60576101a08401518102610180850152611b69565b60006101808501525b8360a0015164ffffffffff164214611dcb576001925060008460a0015164ffffffffff1642611b989190613135565b905060006b033b2e3c9fd0803ce80000008660800151611be4886101000151600b0b6b033b2e3c9fd0803ce8000000611bd191906131ee565b856b033b2e3c9fd0803ce800000061247c565b611bee91906131d7565b611bf89190613172565b9050600086608001518288604001516001600160901b0316611c1a91906131d7565b611c249190613172565b606088015160208901519192506001600160601b0316906001600160701b03166000611c58633b9aca0063ee6b28006131d7565b6101208b015163ffffffff90811614611c76578a6101200151611c7c565b6336d616005b63ffffffff168b604001516001600160901b031686611c9b9190613135565b611ca591906131d7565b611caf9190613172565b90508015611d20576000611cc7633b9aca0086613172565b8b6101800151611cd791906131c4565b9050611ce38282613135565b611ced84836131d7565b611cf79190613172565b92508a602001516001600160701b031683611d129190613135565b611d1c90856131c4565b9350505b6001600160701b038211801590611d3e57506001600160901b038411155b8015611d5157506001600160601b038311155b15611dc457611d5f84612539565b6001600160901b031660408b015260808a0185905264ffffffffff421660a08b015260208a01516001600160701b03168214611dc457611d9e836125a0565b6001600160601b031660608b0152611db582612604565b6001600160701b031660208b01525b5050505050505b50509392505050565b600081600003611de6575060006116a0565b6001600160a01b03831660009081526005860160205260409020600101546080850151611e1390846131d7565b611e1d9190613172565b95945050505050565b600081600003611e3857506000610d0f565b6101a0830151633b9aca000280806000198582010181611e5a57611e5a613148565b0402949350505050565b6000826101c00151821115611eb05760405162461bcd60e51b8152602060048201526012602482015271652f616d6f756e742d746f6f2d6c6172676560701b604482015260640161021e565b506101a0909101510290565b6001600160a01b03821660009081526005860160205260409020546001600160701b031681811015611f295760405162461bcd60e51b8152602060048201526016602482015275652f696e73756666696369656e742d62616c616e636560501b604482015260640161021e565b611f3b611f368383613135565b612604565b6001600160a01b0384166000908152600588016020908152604090912080546001600160701b0319166001600160701b03938416179055860151611f8591611f3691859116613135565b6001600160701b0316602086018190526003870180546001600160701b0319169091179055611fb4868661265d565b84516040518381526001600160a01b038086169216907f9b1bfa7fa9ee420a16e124f794c35ac9f90472acc99140eb2f6447c714cad8eb9060200160405180910390a361137f848460008561277c565b80600001516001600160a01b03167f2f2d732e1a7a15fe7a2e51d3482efe83ff791579cebc5e3cd12cd2064374bc7f8260200151633b9aca0084604001516001600160901b03166120559190613172565b6060808601516101808701516080808901516101008a0151604080516001600160701b03909916895260208901979097526001600160601b03909416958701959095529285015290830191909152600b0b60a08201524260c082015260e00160405180910390a250565b60006120cf633b9aca00836131d7565b90506000806120df88888761289c565b9150915060006120ef8884611e26565b9050808411156121345760405162461bcd60e51b815260206004820152601060248201526f0ca5ee4cae0c2f25ae8dede5adaeac6d60831b604482015260640161021e565b6040880151848203906001600160901b031684111561215e5788604001516001600160901b031693505b61216781612539565b6001600160a01b038816600090815260058c0160205260409081902080546001600160701b0316600160701b6001600160901b03948516021790558a01516121c69183916121b791889116613135565b6121c191906131c4565b612539565b6001600160901b031660408a0181905260038b0180546001600160701b0316600160701b9092029190911790556121fd8a8a61265d565b61220a898989868561292f565b50505050505050505050565b6000828152600360205260408082205490516060929182916001600160a01b0390911690612245908690612ff0565b600060405180830381855af49150503d8060008114612280576040519150601f19603f3d011682016040523d82523d6000602084013e612285565b606091505b509150915081610d0b57610d0b81611387565b6000806122a484612a6e565b9050806122b984670de0b6b3a76400006131d7565b610d0b9190613172565b6001600160a01b03821660009081526005860160205260409020546122f690611f369083906001600160701b03166131c4565b6001600160a01b0383166000908152600587016020908152604090912080546001600160701b0319166001600160701b0393841617905585015161234091611f36918491166131c4565b6001600160701b0316602085018190526003860180546001600160701b031916909117905561236f858561265d565b83516040518281526001600160a01b038085169216907f5548c837ab068cf56a2c2479df0882a4922fd203edb7517321831d95078c5f629060200160405180910390a36123bf836000848461277c565b5050505050565b6000806123d284612a6e565b9050670de0b6b3a76400006122b982856131d7565b6000806123f384612a6e565b905080612401600182613135565b61241385670de0b6b3a76400006131d7565b6122b991906131c4565b6040516001600160a01b03821660248201526000908190819061245090620f424090631bff4ba560e11b90604401611815565b90506000818060200190518101906124689190613216565b805160209091015190969095509350505050565b600083801561251c576001841680156124975785925061249b565b8392505b50600283046002850494505b84156125165785860286878204146124be57600080fd5b818101818110156124ce57600080fd5b859004965050600185161561250b5785830283878204141587151516156124f457600080fd5b8181018181101561250457600080fd5b8590049350505b6002850494506124a7565b50612531565b83801561252c5760009250611dcb565b839250505b509392505050565b60006001600160901b0382111561259c5760405162461bcd60e51b815260206004820152602160248201527f652f646562742d616d6f756e742d746f6f2d6c617267652d746f2d656e636f646044820152606560f81b606482015260840161021e565b5090565b60006001600160601b0382111561259c5760405162461bcd60e51b815260206004820152602260248201527f652f736d616c6c2d616d6f756e742d746f6f2d6c617267652d746f2d656e636f604482015261646560f01b606482015260840161021e565b60006001600160701b0382111561259c5760405162461bcd60e51b815260206004820152601c60248201527f652f616d6f756e742d746f6f2d6c617267652d746f2d656e636f646500000000604482015260640161021e565b600080633b9aca0083604001516001600160901b031661267d9190613172565b905060008184610180015161269291906131c4565b9050806000036126a557600092506126de565b670de0b6b3a7640000816126bd63ffffffff836131d7565b6126c790856131d7565b6126d19190613172565b6126db9190613172565b92505b505060e082015182516040516001600160a01b03909116602482015263ffffffff838116604483015260009261272292911690631aa1811f60e31b90606401611815565b905060008180602001905181019061273a9190613280565b600b81900b61010090950194909452505082546001600160601b03909216600160501b026bffffffffffffffffffffffff60501b199092169190911790915550565b600060405190506000856001600160a01b031660036040518060600160405280602181526020016132a460219139805160209182012060405160f89390931b6001600160f81b0319169183019190915260218201526001600160a01b038781166041830152861660618201526081810185905260a10160408051601f198184030181529082905261280c91612ff0565b6000604051808303816000865af19150503d8060008114612849576040519150601f19603f3d011682016040523d82523d6000602084013e61284e565b606091505b50509050806128925760405162461bcd60e51b815260206004820152601060248201526f194bdb1bd9cb5c1c9bde1e4b59985a5b60821b604482015260640161021e565b5060405250505050565b6001600160a01b0381166000908152600584016020526040812054600160701b90046001600160901b03166128d385858584611dd4565b91506128de82612539565b6001600160a01b0390931660009081526005909501602052604090942080546001600160901b0393909316600160701b026001600160701b0390931692909217825560809092015160019091015591565b633b9aca0061293e8684611e26565b6129489190613172565b9150633b9aca006129598683611e26565b6129639190613172565b9050818111156129ef5760006129798383613135565b9050836001600160a01b031686600001516001600160a01b03167f312a5e5e1079f5dda4e95dbbd0b908b291fd5b992ef22073643ab691572c5b52836040516129c491815260200190565b60405180910390a36129e985600086896101a00151856129e49190613172565b61277c565b506123bf565b808211156123bf576000612a038284613135565b9050836001600160a01b031686600001516001600160a01b03167f05f2eeda0e08e4b437f487c8d7d29b14537d15e3488170dc3de5dbdf8dac468483604051612a4e91815260200190565b60405180910390a361137f85856000896101a00151856129e49190613172565b600080633b9aca0083604001516001600160901b0316612a8e9190613172565b836101800151612a9e91906131c4565b9050801580612ab8575060208301516001600160701b0316155b15612acd5750670de0b6b3a764000092915050565b60208301516001600160701b0316612aed82670de0b6b3a76400006131d7565b612af79190613172565b9392505050565b6040805161016081018252600080825260208201819052918101829052606081019190915260808101612b2f612b65565b8152602001612b3c612b65565b815260200160008152602001600081526020016000815260200160008152602001600081525090565b604080516101e081018252600080825260208201819052918101829052606081018290526080810182905260a0810182905260c0810182905260e08101829052610100810182905261012081018290526101408101829052610160810182905261018081018290526101a081018290526101c081019190915290565b634e487b7160e01b600052604160045260246000fd5b604051610120810167ffffffffffffffff81118282101715612c1b57612c1b612be1565b60405290565b60405160e0810167ffffffffffffffff81118282101715612c1b57612c1b612be1565b600082601f830112612c5557600080fd5b813567ffffffffffffffff80821115612c7057612c70612be1565b604051601f8301601f19908116603f01168101908282118183101715612c9857612c98612be1565b81604052838152866020858801011115612cb157600080fd5b836020870160208301376000602085830101528094505050505092915050565b600060c08284031215612ce357600080fd5b60405160c0810167ffffffffffffffff8282108183111715612d0757612d07612be1565b81604052829350843583526020850135602084015260408501356040840152606085013560608401526080850135608084015260a0850135915080821115612d4e57600080fd5b50612d5b85828601612c44565b60a0830152505092915050565b60008060408385031215612d7b57600080fd5b823567ffffffffffffffff811115612d9257600080fd5b612d9e85828601612cd1565b95602094909401359450505050565b80356001600160a01b0381168114612dc457600080fd5b919050565b803562ffffff81168114612dc457600080fd5b60006101208284031215612def57600080fd5b612df7612bf7565b90508135815260208201356020820152612e1360408301612dad565b6040820152612e2460608301612dad565b60608201526080820135608082015260a082013560a082015260c082013560c0820152612e5360e08301612dc9565b60e0820152610100612e66818401612dad565b9082015292915050565b60006101208284031215612e8357600080fd5b612af78383612ddc565b600060208284031215612e9f57600080fd5b813567ffffffffffffffff811115612eb657600080fd5b610d0b84828501612cd1565b600060208284031215612ed457600080fd5b813567ffffffffffffffff80821115612eec57600080fd5b9083019060e08286031215612f0057600080fd5b612f08612c21565b8235815260208301356020820152612f2260408401612dad565b6040820152612f3360608401612dad565b60608201526080830135608082015260a083013560a082015260c083013582811115612f5e57600080fd5b612f6a87828601612c44565b60c08301525095945050505050565b6000806101408385031215612f8d57600080fd5b612f978484612ddc565b94610120939093013593505050565b6020808252600c908201526b652f7265656e7472616e637960a01b604082015260600190565b60005b83811015612fe7578181015183820152602001612fcf565b50506000910152565b60008251613002818460208701612fcc565b9190910192915050565b60006020828403121561301e57600080fd5b5051919050565b6101008101610d0f828480516001600160a01b03908116835260208083015182169084015260408083015162ffffff16908401526060808301518216908401526080808301519084015260a0828101519084015260c0808301519084015260e09182015116910152565b600081518084526130a7816020860160208601612fcc565b601f01601f19169290920160200192915050565b6000815160a084526130d060a085018261308f565b6020848101516001600160a01b031690860152604080850151908601526060808501519086015260809384015193909401929092525090919050565b602081526000612af760208301846130bb565b634e487b7160e01b600052601160045260246000fd5b81810381811115610d0f57610d0f61311f565b634e487b7160e01b600052601260045260246000fd5b60008261316d5761316d613148565b500690565b60008261318157613181613148565b500490565b80518015158114612dc457600080fd5b6000602082840312156131a857600080fd5b612af782613186565b602081526000612af7602083018461308f565b80820180821115610d0f57610d0f61311f565b8082028115828204841417610d0f57610d0f61311f565b808201828112600083128015821682158216171561320e5761320e61311f565b505092915050565b60006080828403121561322857600080fd5b6040516080810181811067ffffffffffffffff8211171561324b5761324b612be1565b806040525082518152602083015160208201526040830151604082015261327460608401613186565b60608201529392505050565b60006020828403121561329257600080fd5b815180600b0b8114612af757600080fdfe5472616e7366657228616464726573732c616464726573732c75696e7432353629a2646970667358221220015cd645530e6b84a85439f2a088239b5127a4d06b871c0bf22739569fdf9c2a64736f6c63430008170033","linkReferences":{}},"methodIdentifiers":{"moduleGitCommit()":"69a92ea3","moduleId()":"a1308f27","oneInch()":"045c08d5","swap1Inch((uint256,uint256,address,address,uint256,uint256,bytes))":"82d7af8f","swapAndRepayUni((uint256,uint256,uint256,uint256,uint256,bytes),uint256)":"22848795","swapAndRepayUniSingle((uint256,uint256,address,address,uint256,uint256,uint256,uint24,uint160),uint256)":"8dfb1f36","swapUniExactInput((uint256,uint256,uint256,uint256,uint256,bytes))":"fa258bf9","swapUniExactInputSingle((uint256,uint256,address,address,uint256,uint256,uint256,uint24,uint160))":"f205beb0","swapUniExactOutput((uint256,uint256,uint256,uint256,uint256,bytes))":"7ee3d889","swapUniExactOutputSingle((uint256,uint256,address,address,uint256,uint256,uint256,uint24,uint160))":"465734c8","uniswapRouter()":"735de9f7"},"id":26}