{"abi":[{"type":"constructor","inputs":[{"name":"_stETH","type":"address","internalType":"address"},{"name":"_chainlinkAggregator","type":"address","internalType":"address"}],"stateMutability":"nonpayable"},{"type":"function","name":"chainlinkAggregator","inputs":[],"outputs":[{"name":"","type":"address","internalType":"address"}],"stateMutability":"view"},{"type":"function","name":"decimals","inputs":[],"outputs":[{"name":"","type":"uint8","internalType":"uint8"}],"stateMutability":"pure"},{"type":"function","name":"description","inputs":[],"outputs":[{"name":"","type":"string","internalType":"string"}],"stateMutability":"pure"},{"type":"function","name":"latestAnswer","inputs":[],"outputs":[{"name":"answer","type":"int256","internalType":"int256"}],"stateMutability":"view"},{"type":"function","name":"latestTimestamp","inputs":[],"outputs":[{"name":"","type":"uint256","internalType":"uint256"}],"stateMutability":"view"},{"type":"function","name":"stETH","inputs":[],"outputs":[{"name":"","type":"address","internalType":"address"}],"stateMutability":"view"}],"bytecode":{"object":"0x60c060405234801561001057600080fd5b506040516104f83803806104f883398101604081905261002f91610062565b6001600160a01b039182166080521660a052610095565b80516001600160a01b038116811461005d57600080fd5b919050565b6000806040838503121561007557600080fd5b61007e83610046565b915061008c60208401610046565b90509250929050565b60805160a05161042a6100ce60003960008181608001528181610130015261027f01526000818161010901526101e2015261042a6000f3fe608060405234801561001057600080fd5b50600436106100625760003560e01c8063313ce567146100675780635004d36c1461007b57806350d25bcd146100ba5780637284e416146100d05780638205bf6a146100fc578063c1fe3e4814610104575b600080fd5b604051601281526020015b60405180910390f35b6100a27f000000000000000000000000000000000000000000000000000000000000000081565b6040516001600160a01b039091168152602001610072565b6100c261012b565b604051908152602001610072565b604080518082018252600a8152690aea6a88aa8905e8aa8960b31b602082015290516100729190610304565b6100c261027b565b6100a27f000000000000000000000000000000000000000000000000000000000000000081565b6000807f00000000000000000000000000000000000000000000000000000000000000006001600160a01b03166350d25bcd6040518163ffffffff1660e01b8152600401602060405180830381865afa15801561018c573d6000803e3d6000fd5b505050506040513d601f19601f820116820180604052508101906101b09190610353565b9050600081136101c257600091505090565b604051630f451f7160e31b8152670de0b6b3a764000060048201526000907f00000000000000000000000000000000000000000000000000000000000000006001600160a01b031690637a28fb8890602401602060405180830381865afa158015610231573d6000803e3d6000fd5b505050506040513d601f19601f820116820180604052508101906102559190610353565b9050670de0b6b3a764000061026a8383610382565b61027491906103b8565b9250505090565b60007f00000000000000000000000000000000000000000000000000000000000000006001600160a01b0316638205bf6a6040518163ffffffff1660e01b8152600401602060405180830381865afa1580156102db573d6000803e3d6000fd5b505050506040513d601f19601f820116820180604052508101906102ff9190610353565b905090565b60006020808352835180602085015260005b8181101561033257858101830151858201604001528201610316565b506000604082860101526040601f19601f8301168501019250505092915050565b60006020828403121561036557600080fd5b5051919050565b634e487b7160e01b600052601160045260246000fd5b80820260008212600160ff1b8414161561039e5761039e61036c565b81810583148215176103b2576103b261036c565b92915050565b6000826103d557634e487b7160e01b600052601260045260246000fd5b600160ff1b8214600019841416156103ef576103ef61036c565b50059056fea2646970667358221220b61ad88f09308716d3a9de12bb8cd945aec301be0eba308b9cf6d97ae7871a2b64736f6c63430008170033","linkReferences":{}},"methodIdentifiers":{"chainlinkAggregator()":"5004d36c","decimals()":"313ce567","description()":"7284e416","latestAnswer()":"50d25bcd","latestTimestamp()":"8205bf6a","stETH()":"c1fe3e48"},"id":40}