{"abi":[{"type":"constructor","inputs":[{"name":"euler_","type":"address","internalType":"address"},{"name":"underlying_","type":"address","internalType":"address"}],"stateMutability":"nonpayable"},{"type":"function","name":"allowance","inputs":[{"name":"holder","type":"address","internalType":"address"},{"name":"spender","type":"address","internalType":"address"}],"outputs":[{"name":"","type":"uint256","internalType":"uint256"}],"stateMutability":"view"},{"type":"function","name":"approve","inputs":[{"name":"spender","type":"address","internalType":"address"},{"name":"amount","type":"uint256","internalType":"uint256"}],"outputs":[{"name":"","type":"bool","internalType":"bool"}],"stateMutability":"nonpayable"},{"type":"function","name":"balanceOf","inputs":[{"name":"who","type":"address","internalType":"address"}],"outputs":[{"name":"","type":"uint256","internalType":"uint256"}],"stateMutability":"view"},{"type":"function","name":"claimSurplus","inputs":[{"name":"who","type":"address","internalType":"address"}],"outputs":[],"stateMutability":"nonpayable"},{"type":"function","name":"decimals","inputs":[],"outputs":[{"name":"","type":"uint8","internalType":"uint8"}],"stateMutability":"view"},{"type":"function","name":"forceUnwrap","inputs":[{"name":"who","type":"address","internalType":"address"},{"name":"amount","type":"uint256","internalType":"uint256"}],"outputs":[],"stateMutability":"nonpayable"},{"type":"function","name":"name","inputs":[],"outputs":[{"name":"","type":"string","internalType":"string"}],"stateMutability":"view"},{"type":"function","name":"symbol","inputs":[],"outputs":[{"name":"","type":"string","internalType":"string"}],"stateMutability":"view"},{"type":"function","name":"totalSupply","inputs":[],"outputs":[{"name":"","type":"uint256","internalType":"uint256"}],"stateMutability":"view"},{"type":"function","name":"transfer","inputs":[{"name":"recipient","type":"address","internalType":"address"},{"name":"amount","type":"uint256","internalType":"uint256"}],"outputs":[{"name":"","type":"bool","internalType":"bool"}],"stateMutability":"nonpayable"},{"type":"function","name":"transferFrom","inputs":[{"name":"from","type":"address","internalType":"address"},{"name":"recipient","type":"address","internalType":"address"},{"name":"amount","type":"uint256","internalType":"uint256"}],"outputs":[{"name":"","type":"bool","internalType":"bool"}],"stateMutability":"nonpayable"},{"type":"function","name":"underlying","inputs":[],"outputs":[{"name":"","type":"address","internalType":"address"}],"stateMutability":"view"},{"type":"function","name":"unwrap","inputs":[{"name":"amount","type":"uint256","internalType":"uint256"}],"outputs":[],"stateMutability":"nonpayable"},{"type":"function","name":"wrap","inputs":[{"name":"amount","type":"uint256","internalType":"uint256"}],"outputs":[],"stateMutability":"nonpayable"},{"type":"event","name":"Approval","inputs":[{"name":"owner","type":"address","indexed":true,"internalType":"address"},{"name":"spender","type":"address","indexed":true,"internalType":"address"},{"name":"value","type":"uint256","indexed":false,"internalType":"uint256"}],"anonymous":false},{"type":"event","name":"Transfer","inputs":[{"name":"from","type":"address","indexed":true,"internalType":"address"},{"name":"to","type":"address","indexed":true,"internalType":"address"},{"name":"value","type":"uint256","indexed":false,"internalType":"uint256"}],"anonymous":false}],"bytecode":{"object":"0x60c060405234801561001057600080fd5b506040516110b93803806110b983398101604081905261002f91610062565b6001600160a01b039182166080521660a052610095565b80516001600160a01b038116811461005d57600080fd5b919050565b6000806040838503121561007557600080fd5b61007e83610046565b915061008c60208401610046565b90509250929050565b60805160a051610fce6100eb6000396000818161019101528181610275015281816106960152818161071f015281816107df015281816109530152610a2c01526000818161039501526104870152610fce6000f3fe608060405234801561001057600080fd5b50600436106100ea5760003560e01c806370a082311161008c578063b77dfe0311610066578063b77dfe03146101ff578063dd62ed3e14610212578063de0e9a3e1461024b578063ea598cb01461025e57600080fd5b806370a08231146101bb57806395d89b41146101e4578063a9059cbb146101ec57600080fd5b80631ed575db116100c85780631ed575db1461014257806323b872dd14610157578063313ce5671461016a5780636f307dc31461018457600080fd5b806306fdde03146100ef578063095ea7b31461010d57806318160ddd14610130575b600080fd5b6100f7610271565b6040516101049190610ca2565b60405180910390f35b61012061011b366004610cf1565b61031d565b6040519015158152602001610104565b6002545b604051908152602001610104565b610155610150366004610cf1565b61038a565b005b610120610165366004610d1b565b610409565b610172610692565b60405160ff9091168152602001610104565b6040516001600160a01b037f0000000000000000000000000000000000000000000000000000000000000000168152602001610104565b6101346101c9366004610d57565b6001600160a01b031660009081526020819052604090205490565b6100f761071b565b6101206101fa366004610cf1565b6107b3565b61015561020d366004610d57565b6107c7565b610134610220366004610d72565b6001600160a01b03918216600090815260016020908152604080832093909416825291909152205490565b610155610259366004610da5565b610941565b61015561026c366004610da5565b61094e565b60607f00000000000000000000000000000000000000000000000000000000000000006001600160a01b03166306fdde036040518163ffffffff1660e01b8152600401600060405180830381865afa1580156102d1573d6000803e3d6000fd5b505050506040513d6000823e601f3d908101601f191682016040526102f99190810190610dd4565b6040516020016103099190610e81565b604051602081830303815290604052905090565b3360008181526001602090815260408083206001600160a01b038716808552925280832085905551919290917f8c5be1e5ebec7d5bd14f71427d1e84f3dd0314c0f7b2291e5b200ac8c7c3b925906103789086815260200190565b60405180910390a35060015b92915050565b336001600160a01b037f000000000000000000000000000000000000000000000000000000000000000016146103fb5760405162461bcd60e51b81526020600482015260116024820152701c195c9b5a5cdcda5bdb8819195b9a5959607a1b60448201526064015b60405180910390fd5b6104058282610983565b5050565b6001600160a01b0383166000908152602081905260408120548211156104685760405162461bcd60e51b8152602060048201526014602482015273696e73756666696369656e742062616c616e636560601b60448201526064016103f2565b6001600160a01b03841633148015906104aa5750336001600160a01b037f00000000000000000000000000000000000000000000000000000000000000001614155b80156104db57506001600160a01b038416600090815260016020908152604080832033845290915290205460001914155b156105df576001600160a01b038416600090815260016020908152604080832033845290915290205482111561054c5760405162461bcd60e51b8152602060048201526016602482015275696e73756666696369656e7420616c6c6f77616e636560501b60448201526064016103f2565b6001600160a01b03841660009081526001602090815260408083203384529091528120805484929061057f908490610ecf565b90915550506001600160a01b038416600081815260016020908152604080832033808552908352928190205490519081529192917f8c5be1e5ebec7d5bd14f71427d1e84f3dd0314c0f7b2291e5b200ac8c7c3b925910160405180910390a35b6001600160a01b03841660009081526020819052604081208054849290610607908490610ecf565b90915550506001600160a01b03831660009081526020819052604081208054849290610634908490610ee2565b92505081905550826001600160a01b0316846001600160a01b03167fddf252ad1be2c89b69c2b068fc378daa952ba7f163c4a11628f55a4df523b3ef8460405161068091815260200190565b60405180910390a35060019392505050565b60007f00000000000000000000000000000000000000000000000000000000000000006001600160a01b031663313ce5676040518163ffffffff1660e01b8152600401602060405180830381865afa1580156106f2573d6000803e3d6000fd5b505050506040513d601f19601f820116820180604052508101906107169190610ef5565b905090565b60607f00000000000000000000000000000000000000000000000000000000000000006001600160a01b03166395d89b416040518163ffffffff1660e01b8152600401600060405180830381865afa15801561077b573d6000803e3d6000fd5b505050506040513d6000823e601f3d908101601f191682016040526107a39190810190610dd4565b6040516020016103099190610f18565b60006107c0338484610409565b9392505050565b6040516370a0823160e01b81523060048201526000907f00000000000000000000000000000000000000000000000000000000000000006001600160a01b0316906370a0823190602401602060405180830381865afa15801561082e573d6000803e3d6000fd5b505050506040513d601f19601f820116820180604052508101906108529190610f41565b905060025481116108a55760405162461bcd60e51b815260206004820152601b60248201527f6e6f20737572706c75732062616c616e636520746f20636c61696d000000000060448201526064016103f2565b6000600254826108b59190610ecf565b905080600260008282546108c99190610ee2565b90915550506001600160a01b038316600090815260208190526040812080548392906108f6908490610ee2565b90915550506040518181526001600160a01b038416906000907fddf252ad1be2c89b69c2b068fc378daa952ba7f163c4a11628f55a4df523b3ef9060200160405180910390a3505050565b61094b3382610983565b50565b61097a7f0000000000000000000000000000000000000000000000000000000000000000333084610a97565b61094b336107c7565b6001600160a01b0382166000908152602081905260409020548111156109e25760405162461bcd60e51b8152602060048201526014602482015273696e73756666696369656e742062616c616e636560601b60448201526064016103f2565b80600260008282546109f49190610ecf565b90915550506001600160a01b03821660009081526020819052604081208054839290610a21908490610ecf565b90915550610a5290507f00000000000000000000000000000000000000000000000000000000000000008383610b8f565b6040518181526000906001600160a01b038416907fddf252ad1be2c89b69c2b068fc378daa952ba7f163c4a11628f55a4df523b3ef9060200160405180910390a35050565b604080516001600160a01b0385811660248301528481166044830152606480830185905283518084039091018152608490920183526020820180516001600160e01b03166323b872dd60e01b1790529151600092839290881691610afb9190610f5a565b6000604051808303816000865af19150503d8060008114610b38576040519150601f19603f3d011682016040523d82523d6000602084013e610b3d565b606091505b5091509150818015610b67575080511580610b67575080806020019051810190610b679190610f76565b8190610b865760405162461bcd60e51b81526004016103f29190610ca2565b50505050505050565b604080516001600160a01b038481166024830152604480830185905283518084039091018152606490920183526020820180516001600160e01b031663a9059cbb60e01b1790529151600092839290871691610beb9190610f5a565b6000604051808303816000865af19150503d8060008114610c28576040519150601f19603f3d011682016040523d82523d6000602084013e610c2d565b606091505b5091509150818015610c57575080511580610c57575080806020019051810190610c579190610f76565b8190610c765760405162461bcd60e51b81526004016103f29190610ca2565b505050505050565b60005b83811015610c99578181015183820152602001610c81565b50506000910152565b6020815260008251806020840152610cc1816040850160208701610c7e565b601f01601f19169190910160400192915050565b80356001600160a01b0381168114610cec57600080fd5b919050565b60008060408385031215610d0457600080fd5b610d0d83610cd5565b946020939093013593505050565b600080600060608486031215610d3057600080fd5b610d3984610cd5565b9250610d4760208501610cd5565b9150604084013590509250925092565b600060208284031215610d6957600080fd5b6107c082610cd5565b60008060408385031215610d8557600080fd5b610d8e83610cd5565b9150610d9c60208401610cd5565b90509250929050565b600060208284031215610db757600080fd5b5035919050565b634e487b7160e01b600052604160045260246000fd5b600060208284031215610de657600080fd5b815167ffffffffffffffff80821115610dfe57600080fd5b818401915084601f830112610e1257600080fd5b815181811115610e2457610e24610dbe565b604051601f8201601f19908116603f01168101908382118183101715610e4c57610e4c610dbe565b81604052828152876020848701011115610e6557600080fd5b610e76836020830160208801610c7e565b979650505050505050565b6f022bab632b910283937ba32b1ba32b2160851b815260008251610eac816010850160208701610c7e565b9190910160100192915050565b634e487b7160e01b600052601160045260246000fd5b8181038181111561038457610384610eb9565b8082018082111561038457610384610eb9565b600060208284031215610f0757600080fd5b815160ff811681146107c057600080fd5b600760fc1b815260008251610f34816001850160208701610c7e565b9190910160010192915050565b600060208284031215610f5357600080fd5b5051919050565b60008251610f6c818460208701610c7e565b9190910192915050565b600060208284031215610f8857600080fd5b815180151581146107c057600080fdfea2646970667358221220b62d196df1112f5074142a2da7089e086a363b6fea6d288bc4698f9eb0f10be164736f6c63430008170033","linkReferences":{}},"methodIdentifiers":{"allowance(address,address)":"dd62ed3e","approve(address,uint256)":"095ea7b3","balanceOf(address)":"70a08231","claimSurplus(address)":"b77dfe03","decimals()":"313ce567","forceUnwrap(address,uint256)":"1ed575db","name()":"06fdde03","symbol()":"95d89b41","totalSupply()":"18160ddd","transfer(address,uint256)":"a9059cbb","transferFrom(address,address,uint256)":"23b872dd","underlying()":"6f307dc3","unwrap(uint256)":"de0e9a3e","wrap(uint256)":"ea598cb0"},"id":8}