{"abi":[{"type":"constructor","inputs":[{"name":"eulDistributor_","type":"address","internalType":"address"},{"name":"owner_","type":"address","internalType":"address"},{"name":"updater_","type":"address","internalType":"address"}],"stateMutability":"nonpayable"},{"type":"function","name":"changeOwner","inputs":[{"name":"newOwner","type":"address","internalType":"address"}],"outputs":[],"stateMutability":"nonpayable"},{"type":"function","name":"changeUpdater","inputs":[{"name":"newUpdater","type":"address","internalType":"address"}],"outputs":[],"stateMutability":"nonpayable"},{"type":"function","name":"eulDistributor","inputs":[],"outputs":[{"name":"","type":"address","internalType":"address"}],"stateMutability":"view"},{"type":"function","name":"execute","inputs":[{"name":"destination","type":"address","internalType":"address"},{"name":"value","type":"uint256","internalType":"uint256"},{"name":"payload","type":"bytes","internalType":"bytes"}],"outputs":[],"stateMutability":"nonpayable"},{"type":"function","name":"name","inputs":[],"outputs":[{"name":"","type":"string","internalType":"string"}],"stateMutability":"view"},{"type":"function","name":"owner","inputs":[],"outputs":[{"name":"","type":"address","internalType":"address"}],"stateMutability":"view"},{"type":"function","name":"updateRoot","inputs":[{"name":"newRoot","type":"bytes32","internalType":"bytes32"}],"outputs":[],"stateMutability":"nonpayable"},{"type":"function","name":"updater","inputs":[],"outputs":[{"name":"","type":"address","internalType":"address"}],"stateMutability":"view"}],"bytecode":{"object":"0x60a060405234801561001057600080fd5b5060405161061d38038061061d83398101604081905261002f91610081565b6001600160a01b03928316608052600080549284166001600160a01b0319938416179055600180549190931691161790556100c4565b80516001600160a01b038116811461007c57600080fd5b919050565b60008060006060848603121561009657600080fd5b61009f84610065565b92506100ad60208501610065565b91506100bb60408501610065565b90509250925092565b6080516105376100e66000396000818161010401526101d301526105376000f3fe608060405234801561001057600080fd5b50600436106100885760003560e01c80638da5cb5b1161005b5780638da5cb5b1461013e578063a6f9dae114610151578063b61d27f614610164578063df034cd01461017757600080fd5b806306fdde031461008d57806321ff9970146100d7578063326220bf146100ec57806380fd4320146100ff575b600080fd5b6100c16040518060400160405280601581526020017422aaa6102234b9ba3934b13aba37b91027bbb732b960591b81525081565b6040516100ce919061039e565b60405180910390f35b6100ea6100e53660046103ed565b61018a565b005b6100ea6100fa366004610422565b61023a565b6101267f000000000000000000000000000000000000000000000000000000000000000081565b6040516001600160a01b0390911681526020016100ce565b600054610126906001600160a01b031681565b6100ea61015f366004610422565b610286565b6100ea610172366004610444565b6102d2565b600154610126906001600160a01b031681565b6001546001600160a01b031633146101bd5760405162461bcd60e51b81526004016101b4906104cb565b60405180910390fd5b60405163021ff99760e41b8152600481018290527f00000000000000000000000000000000000000000000000000000000000000006001600160a01b0316906321ff997090602401600060405180830381600087803b15801561021f57600080fd5b505af1158015610233573d6000803e3d6000fd5b5050505050565b6000546001600160a01b031633146102645760405162461bcd60e51b81526004016101b4906104cb565b600180546001600160a01b0319166001600160a01b0392909216919091179055565b6000546001600160a01b031633146102b05760405162461bcd60e51b81526004016101b4906104cb565b600080546001600160a01b0319166001600160a01b0392909216919091179055565b6000546001600160a01b031633146102fc5760405162461bcd60e51b81526004016101b4906104cb565b6000846001600160a01b03168484846040516103199291906104f1565b60006040518083038185875af1925050503d8060008114610356576040519150601f19603f3d011682016040523d82523d6000602084013e61035b565b606091505b50509050806102335760405162461bcd60e51b815260206004820152600f60248201526e65786563757465206661696c75726560881b60448201526064016101b4565b60006020808352835180602085015260005b818110156103cc578581018301518582016040015282016103b0565b506000604082860101526040601f19601f8301168501019250505092915050565b6000602082840312156103ff57600080fd5b5035919050565b80356001600160a01b038116811461041d57600080fd5b919050565b60006020828403121561043457600080fd5b61043d82610406565b9392505050565b6000806000806060858703121561045a57600080fd5b61046385610406565b935060208501359250604085013567ffffffffffffffff8082111561048757600080fd5b818701915087601f83011261049b57600080fd5b8135818111156104aa57600080fd5b8860208285010111156104bc57600080fd5b95989497505060200194505050565b6020808252600c908201526b1d5b985d5d1a1bdc9a5e995960a21b604082015260600190565b818382376000910190815291905056fea2646970667358221220890092f15e3f8acb12d216375f94aad067511c719c0c2702b1823b133f54d9b464736f6c63430008170033","linkReferences":{}},"methodIdentifiers":{"changeOwner(address)":"a6f9dae1","changeUpdater(address)":"326220bf","eulDistributor()":"80fd4320","execute(address,uint256,bytes)":"b61d27f6","name()":"06fdde03","owner()":"8da5cb5b","updateRoot(bytes32)":"21ff9970","updater()":"df034cd0"},"id":16}