{"abi":[{"type":"function","name":"violator","inputs":[],"outputs":[],"stateMutability":"nonpayable"}],"bytecode":{"object":"0x6080604052600080546001600160a01b0319908116736b175474e89094c44da98b954eedeac495271d0f1790915560018054821673e025e3ca2be02316033184551d4d3aa22024d9dc179055600280548216736085bc95f506c326dcbcd7a6dd6c79fbc18d468617905560038054821673f43ce1d09050bafd6980dd43cde2ab9f18c85b34179055600480549091167327182842e098f60e3d576794a5bffb0777e025d31790553480156100b257600080fd5b50610345806100c26000396000f3fe608060405234801561001057600080fd5b506004361061002b5760003560e01c8063fab2c7f114610030575b600080fd5b61003861003a565b005b6000546004805460405163095ea7b360e01b81526001600160a01b039182169281019290925260001960248301529091169063095ea7b3906044016020604051808303816000875af1158015610094573d6000803e3d6000fd5b505050506040513d601f19601f820116820180604052508101906100b891906102e6565b50600154604051631c57762b60e31b8152600060048201526a108b2a2c2802909400000060248201526001600160a01b039091169063e2bbb15890604401600060405180830381600087803b15801561011057600080fd5b505af1158015610124573d6000803e3d6000fd5b5050600154604051630d9778e560e11b8152600060048201526aa56fa5b99019a5c800000060248201526001600160a01b039091169250631b2ef1ca9150604401600060405180830381600087803b15801561017f57600080fd5b505af1158015610193573d6000803e3d6000fd5b505060025460405163d8aed14560e01b8152600060048201526a084595161401484a00000060248201526001600160a01b03909116925063d8aed1459150604401600060405180830381600087803b1580156101ee57600080fd5b505af1158015610202573d6000803e3d6000fd5b5050600154604051630d9778e560e11b8152600060048201526aa56fa5b99019a5c800000060248201526001600160a01b039091169250631b2ef1ca9150604401600060405180830381600087803b15801561025d57600080fd5b505af1158015610271573d6000803e3d6000fd5b5050600154604051631b78115560e11b8152600060048201526a52b7d2dcc80cd2e400000060248201526001600160a01b0390911692506336f022aa9150604401600060405180830381600087803b1580156102cc57600080fd5b505af11580156102e0573d6000803e3d6000fd5b50505050565b6000602082840312156102f857600080fd5b8151801515811461030857600080fd5b939250505056fea264697066735822122085930b400288ebc141f209278654986faebd7eed54732c9db024b41d96d3429c64736f6c63430008170033","linkReferences":{}},"methodIdentifiers":{"violator()":"fab2c7f1"},"id":20}