{"abi":[{"type":"constructor","inputs":[{"name":"uniSwapRouter02_","type":"address","internalType":"address"},{"name":"uniSwapRouterV2","type":"address","internalType":"address"},{"name":"uniSwapRouterV3","type":"address","internalType":"address"}],"stateMutability":"nonpayable"},{"type":"function","name":"executeSwap","inputs":[{"name":"params","type":"tuple","internalType":"struct ISwapHandler.SwapParams","components":[{"name":"underlyingIn","type":"address","internalType":"address"},{"name":"underlyingOut","type":"address","internalType":"address"},{"name":"mode","type":"uint256","internalType":"uint256"},{"name":"amountIn","type":"uint256","internalType":"uint256"},{"name":"amountOut","type":"uint256","internalType":"uint256"},{"name":"exactOutTolerance","type":"uint256","internalType":"uint256"},{"name":"payload","type":"bytes","internalType":"bytes"}]}],"outputs":[],"stateMutability":"nonpayable"},{"type":"function","name":"uniSwapRouter02","inputs":[],"outputs":[{"name":"","type":"address","internalType":"address"}],"stateMutability":"view"},{"type":"function","name":"uniSwapRouterV2","inputs":[],"outputs":[{"name":"","type":"address","internalType":"address"}],"stateMutability":"view"},{"type":"function","name":"uniSwapRouterV3","inputs":[],"outputs":[{"name":"","type":"address","internalType":"address"}],"stateMutability":"view"}],"bytecode":{"object":"0x60e060405234801561001057600080fd5b506040516110d63803806110d683398101604081905261002f91610067565b6001600160a01b03918216608052811660a0521660c0526100aa565b80516001600160a01b038116811461006257600080fd5b919050565b60008060006060848603121561007c57600080fd5b6100858461004b565b92506100936020850161004b565b91506100a16040850161004b565b90509250925092565b60805160a05160c051610fd66101006000396000818160c00152818161026401526106ee0152600081816056015281816104f5015261055601526000818160990152818161041f015261045a0152610fd66000f3fe608060405234801561001057600080fd5b506004361061004c5760003560e01c80632181ac751461005157806332be98ac146100945780636e871086146100bb578063df5def35146100e2575b600080fd5b6100787f000000000000000000000000000000000000000000000000000000000000000081565b6040516001600160a01b03909116815260200160405180910390f35b6100787f000000000000000000000000000000000000000000000000000000000000000081565b6100787f000000000000000000000000000000000000000000000000000000000000000081565b6100f56100f0366004610bb2565b6100f7565b005b60018160400151111561015f5760405162461bcd60e51b815260206004820152602560248201527f5377617048616e646c6572436f6d62696e6564426173653a20696e76616c6964604482015264206d6f646560d81b60648201526084015b60405180910390fd5b806040015160000361017a5761017481610253565b50610245565b60608160c001518060200190518101906101949190610cda565b60c0840191909152905060006101a983610253565b905082608001518110156102425760288251101580156101cb57506101e08251105b61022d5760405162461bcd60e51b815260206004820152602d60248201527f5377617048616e646c65725061796c6f6164426173653a207365636f6e64617260448201526c1e481c185d1a08199bdc9b585d609a1b6064820152608401610156565b60808301518190036102408482856103fa565b505b50505b8051610250906105d6565b50565b6000610288826000015183606001517f0000000000000000000000000000000000000000000000000000000000000000610658565b81604001516000036102a25761029d826106e9565b919050565b60208201516040516370a0823160e01b81523360048201526000916001600160a01b0316906370a0823190602401602060405180830381865afa1580156102ed573d6000803e3d6000fd5b505050506040513d601f19601f820116820180604052508101906103119190610d3e565b905061031c836106e9565b60208301516040516370a0823160e01b81523360048201526000916001600160a01b0316906370a0823190602401602060405180830381865afa158015610367573d6000803e3d6000fd5b505050506040513d601f19601f8201168201806040525081019061038b9190610d3e565b9050818110156103f35760405162461bcd60e51b815260206004820152602d60248201527f5377617048616e646c6572556e694175746f526f757465723a206e656761746960448201526c1d9948185b5bdd5b9d081bdd5d609a1b6064820152608401610156565b0392915050565b60008061040683610782565b9150915081156104e657610443856000015186606001517f0000000000000000000000000000000000000000000000000000000000000000610658565b604051634401edf760e11b81526001600160a01b037f00000000000000000000000000000000000000000000000000000000000000001690638803dbee9061049990879060001990869033904290600401610d57565b6000604051808303816000875af11580156104b8573d6000803e3d6000fd5b505050506040513d6000823e601f3d908101601f191682016040526104e09190810190610dca565b506105cf565b610519856000015186606001517f0000000000000000000000000000000000000000000000000000000000000000610658565b6040805160a08101825284815233602082015242818301526060810186905260001960808201529051631e51809360e31b81526001600160a01b037f0000000000000000000000000000000000000000000000000000000000000000169163f28c04989161058a9190600401610e9c565b6020604051808303816000875af11580156105a9573d6000803e3d6000fd5b505050506040513d601f19601f820116820180604052508101906105cd9190610d3e565b505b5050505050565b6040516370a0823160e01b81523060048201526000906001600160a01b038316906370a0823190602401602060405180830381865afa15801561061d573d6000803e3d6000fd5b505050506040513d601f19601f820116820180604052508101906106419190610d3e565b9050801561065457610654823383610853565b5050565b604051636eb1769f60e11b81523060048201526001600160a01b0382811660248301526000919085169063dd62ed3e90604401602060405180830381865afa1580156106a8573d6000803e3d6000fd5b505050506040513d601f19601f820116820180604052508101906106cc9190610d3e565b9050828110156106e3576106e3848360001961093a565b50505050565b6000807f00000000000000000000000000000000000000000000000000000000000000006001600160a01b03168360c001516040516107289190610ef4565b6000604051808303816000865af19150503d8060008114610765576040519150601f19603f3d011682016040523d82523d6000602084013e61076a565b606091505b50915091508161077d5761077d8161097f565b505050565b600060606000601484516107969190610f26565b15905060608115610849576000601486516107b19190610f3a565b90508067ffffffffffffffff8111156107cc576107cc610aad565b6040519080825280602002602001820160405280156107f5578160200160208202803683370190505b50915060005b818110156108465760206014820288010151600160601b900483828151811061082657610826610f4e565b6001600160a01b03909216602092830291909101909101526001016107fb565b50505b9094909350915050565b604080516001600160a01b038481166024830152604480830185905283518084039091018152606490920183526020820180516001600160e01b031663a9059cbb60e01b17905291516000928392908716916108af9190610ef4565b6000604051808303816000865af19150503d80600081146108ec576040519150601f19603f3d011682016040523d82523d6000602084013e6108f1565b606091505b509150915081801561091b57508051158061091b57508080602001905181019061091b9190610f64565b81906105cd5760405162461bcd60e51b81526004016101569190610f8d565b6000806109488585856109d6565b91509150816109755761095d858560006109d6565b5091508115610975576109718585856109d6565b5091505b816105cf576105cf815b80511561098e57805181602001fd5b60405162461bcd60e51b815260206004820152601c60248201527f5377617048616e646c6572426173653a20656d707479206572726f72000000006044820152606401610156565b604080516001600160a01b038481166024830152604480830185905283518084039091018152606490920183526020820180516001600160e01b031663095ea7b360e01b179052915160009260609284928392891691610a3591610ef4565b6000604051808303816000865af19150503d8060008114610a72576040519150601f19603f3d011682016040523d82523d6000602084013e610a77565b606091505b5091509150818015610aa1575080511580610aa1575080806020019051810190610aa19190610f64565b97909650945050505050565b634e487b7160e01b600052604160045260246000fd5b60405160e0810167ffffffffffffffff81118282101715610ae657610ae6610aad565b60405290565b604051601f8201601f1916810167ffffffffffffffff81118282101715610b1557610b15610aad565b604052919050565b80356001600160a01b038116811461029d57600080fd5b600067ffffffffffffffff821115610b4e57610b4e610aad565b50601f01601f191660200190565b600082601f830112610b6d57600080fd5b8135610b80610b7b82610b34565b610aec565b818152846020838601011115610b9557600080fd5b816020850160208301376000918101602001919091529392505050565b600060208284031215610bc457600080fd5b813567ffffffffffffffff80821115610bdc57600080fd5b9083019060e08286031215610bf057600080fd5b610bf8610ac3565b610c0183610b1d565b8152610c0f60208401610b1d565b602082015260408301356040820152606083013560608201526080830135608082015260a083013560a082015260c083013582811115610c4e57600080fd5b610c5a87828601610b5c565b60c08301525095945050505050565b60005b83811015610c84578181015183820152602001610c6c565b50506000910152565b600082601f830112610c9e57600080fd5b8151610cac610b7b82610b34565b818152846020838601011115610cc157600080fd5b610cd2826020830160208701610c69565b949350505050565b60008060408385031215610ced57600080fd5b825167ffffffffffffffff80821115610d0557600080fd5b610d1186838701610c8d565b93506020850151915080821115610d2757600080fd5b50610d3485828601610c8d565b9150509250929050565b600060208284031215610d5057600080fd5b5051919050565b600060a08201878352602087602085015260a0604085015281875180845260c08601915060208901935060005b81811015610da95784516001600160a01b031683529383019391830191600101610d84565b50506001600160a01b03969096166060850152505050608001529392505050565b60006020808385031215610ddd57600080fd5b825167ffffffffffffffff80821115610df557600080fd5b818501915085601f830112610e0957600080fd5b815181811115610e1b57610e1b610aad565b8060051b9150610e2c848301610aec565b8181529183018401918481019088841115610e4657600080fd5b938501935b83851015610e6457845182529385019390850190610e4b565b98975050505050505050565b60008151808452610e88816020860160208601610c69565b601f01601f19169290920160200192915050565b602081526000825160a06020840152610eb860c0840182610e70565b905060018060a01b0360208501511660408401526040840151606084015260608401516080840152608084015160a08401528091505092915050565b60008251610f06818460208701610c69565b9190910192915050565b634e487b7160e01b600052601260045260246000fd5b600082610f3557610f35610f10565b500690565b600082610f4957610f49610f10565b500490565b634e487b7160e01b600052603260045260246000fd5b600060208284031215610f7657600080fd5b81518015158114610f8657600080fd5b9392505050565b602081526000610f866020830184610e7056fea2646970667358221220bbc335e8566f446b68eb4f2f3b44103f2a78ea98152937488e77a5ee951cee4964736f6c63430008170033","linkReferences":{}},"methodIdentifiers":{"executeSwap((address,address,uint256,uint256,uint256,uint256,bytes))":"df5def35","uniSwapRouter02()":"6e871086","uniSwapRouterV2()":"32be98ac","uniSwapRouterV3()":"2181ac75"},"id":46}