{"abi":[{"type":"constructor","inputs":[{"name":"euler_","type":"address","internalType":"address"},{"name":"exec_","type":"address","internalType":"address"},{"name":"markets_","type":"address","internalType":"address"}],"stateMutability":"nonpayable"},{"type":"function","name":"CALLBACK_SUCCESS","inputs":[],"outputs":[{"name":"","type":"bytes32","internalType":"bytes32"}],"stateMutability":"view"},{"type":"function","name":"flashFee","inputs":[{"name":"token","type":"address","internalType":"address"},{"name":"","type":"uint256","internalType":"uint256"}],"outputs":[{"name":"","type":"uint256","internalType":"uint256"}],"stateMutability":"view"},{"type":"function","name":"flashLoan","inputs":[{"name":"receiver","type":"address","internalType":"contract IERC3156FlashBorrower"},{"name":"token","type":"address","internalType":"address"},{"name":"amount","type":"uint256","internalType":"uint256"},{"name":"data","type":"bytes","internalType":"bytes"}],"outputs":[{"name":"","type":"bool","internalType":"bool"}],"stateMutability":"nonpayable"},{"type":"function","name":"maxFlashLoan","inputs":[{"name":"token","type":"address","internalType":"address"}],"outputs":[{"name":"","type":"uint256","internalType":"uint256"}],"stateMutability":"view"},{"type":"function","name":"onDeferredLiquidityCheck","inputs":[{"name":"encodedData","type":"bytes","internalType":"bytes"}],"outputs":[],"stateMutability":"nonpayable"}],"bytecode":{"object":"0x60e060405234801561001057600080fd5b506040516200143a3803806200143a8339810160408190526100319161006a565b6001600160a01b0392831660805290821660a0521660c0526100ad565b80516001600160a01b038116811461006557600080fd5b919050565b60008060006060848603121561007f57600080fd5b6100888461004e565b92506100966020850161004e565b91506100a46040850161004e565b90509250925092565b60805160a05160c051611325620001156000396000818161011801528181610315015281816105180152818161060401528181610aac0152610b33015260006101ea0152600081816103a801528181610435015281816108a0015261092701526113256000f3fe608060405234801561001057600080fd5b50600436106100575760003560e01c80635cffe9de1461005c578063613255ab146100845780638237e538146100a5578063a15db5c5146100cc578063d9d98ce4146100e1575b600080fd5b61006f61006a366004610de3565b6100f4565b60405190151581526020015b60405180910390f35b610097610092366004610e82565b6102f1565b60405190815260200161007b565b6100977f439148f0bbc682ca079e46d6e2c2f0c1e3b820f1a291b069d8882abf8cf18dd981565b6100df6100da366004610f0e565b61042a565b005b6100976100ef366004610f8e565b6104f4565b604051638948874960e01b81526001600160a01b03858116600483015260009182917f00000000000000000000000000000000000000000000000000000000000000001690638948874990602401602060405180830381865afa15801561015f573d6000803e3d6000fd5b505050506040513d601f19601f820116820180604052508101906101839190610fba565b6001600160a01b0316036101de5760405162461bcd60e51b815260206004820152601e60248201527f652f666c6173682d6c6f616e2f756e737570706f727465642d746f6b656e000060448201526064015b60405180910390fd5b60005460ff166102a1577f00000000000000000000000000000000000000000000000000000000000000006001600160a01b03166389b7b7a63088888888883360405160200161023396959493929190610fd7565b6040516020818303038152906040526040518363ffffffff1660e01b815260040161025f929190611082565b600060405180830381600087803b15801561027957600080fd5b505af115801561028d573d6000803e3d6000fd5b50506000805460ff19169055506102e59050565b6102e586868686868080601f0160208091040260200160405190810160405280939291908181526020018383808284376000920191909152503392506105e2915050565b50600195945050505050565b604051638948874960e01b81526001600160a01b03828116600483015260009182917f00000000000000000000000000000000000000000000000000000000000000001690638948874990602401602060405180830381865afa15801561035c573d6000803e3d6000fd5b505050506040513d601f19601f820116820180604052508101906103809190610fba565b90506001600160a01b03811615610420576040516370a0823160e01b81526001600160a01b037f0000000000000000000000000000000000000000000000000000000000000000811660048301528416906370a0823190602401602060405180830381865afa1580156103f7573d6000803e3d6000fd5b505050506040513d601f19601f8201168201806040525081019061041b91906110ae565b610423565b60005b9392505050565b336001600160a01b037f000000000000000000000000000000000000000000000000000000000000000016146104a25760405162461bcd60e51b815260206004820152601f60248201527f652f666c6173682d6c6f616e2f6f6e2d64656665727265642d63616c6c65720060448201526064016101d5565b6000806000806000858060200190518101906104be91906110d7565b6000805460ff191660011790559398509196509450925090506104e485858585856105e2565b6104ec610a94565b505050505050565b604051638948874960e01b81526001600160a01b03838116600483015260009182917f00000000000000000000000000000000000000000000000000000000000000001690638948874990602401602060405180830381865afa15801561055f573d6000803e3d6000fd5b505050506040513d601f19601f820116820180604052508101906105839190610fba565b6001600160a01b0316036105d95760405162461bcd60e51b815260206004820152601e60248201527f652f666c6173682d6c6f616e2f756e737570706f727465642d746f6b656e000060448201526064016101d5565b50600092915050565b604051630d9802c160e11b81526001600160a01b0385811660048301526000917f000000000000000000000000000000000000000000000000000000000000000090911690631b30058290602401602060405180830381865afa15801561064d573d6000803e3d6000fd5b505050506040513d601f19601f820116820180604052508101906106719190610fba565b604051630ecbcdab60e01b815260006004820152602481018690529091506001600160a01b03821690630ecbcdab90604401600060405180830381600087803b1580156106bd57600080fd5b505af11580156106d1573d6000803e3d6000fd5b505050506106e0858786610bec565b6040516323e30c8b60e01b81527f439148f0bbc682ca079e46d6e2c2f0c1e3b820f1a291b069d8882abf8cf18dd9906001600160a01b038816906323e30c8b906107379086908a908a906000908b90600401611191565b6020604051808303816000875af1158015610756573d6000803e3d6000fd5b505050506040513d601f19601f8201168201806040525081019061077a91906110ae565b146107bf5760405162461bcd60e51b8152602060048201526015602482015274652f666c6173682d6c6f616e2f63616c6c6261636b60581b60448201526064016101d5565b6107cb85873087610cd3565b6040516370a0823160e01b815230600482015284906001600160a01b038716906370a0823190602401602060405180830381865afa158015610811573d6000803e3d6000fd5b505050506040513d601f19601f8201168201806040525081019061083591906110ae565b10156108835760405162461bcd60e51b815260206004820152601860248201527f652f666c6173682d6c6f616e2f70756c6c2d616d6f756e74000000000000000060448201526064016101d5565b604051636eb1769f60e11b81523060048201526001600160a01b037f0000000000000000000000000000000000000000000000000000000000000000811660248301526000919087169063dd62ed3e90604401602060405180830381865afa1580156108f3573d6000803e3d6000fd5b505050506040513d601f19601f8201168201806040525081019061091791906110ae565b905084811015610a2a57604080517f00000000000000000000000000000000000000000000000000000000000000006001600160a01b03908116602483015260001960448084019190915283518084039091018152606490920183526020820180516001600160e01b031663095ea7b360e01b179052915160009289169161099e916111d6565b6000604051808303816000865af19150503d80600081146109db576040519150601f19603f3d011682016040523d82523d6000602084013e6109e0565b606091505b5050905080610a285760405162461bcd60e51b8152602060048201526014602482015273652f666c6173682d6c6f616e2f617070726f766560601b60448201526064016101d5565b505b60405163d8aed14560e01b815260006004820152602481018690526001600160a01b0383169063d8aed14590604401600060405180830381600087803b158015610a7357600080fd5b505af1158015610a87573d6000803e3d6000fd5b5050505050505050505050565b604051638ccb720b60e01b81523060048201526000907f00000000000000000000000000000000000000000000000000000000000000006001600160a01b031690638ccb720b90602401600060405180830381865afa158015610afb573d6000803e3d6000fd5b505050506040513d6000823e601f3d908101601f19168201604052610b2391908101906111f2565b905060005b8151811015610be8577f00000000000000000000000000000000000000000000000000000000000000006001600160a01b031663c8a5fba36000848481518110610b7457610b746112a4565b60200260200101516040518363ffffffff1660e01b8152600401610bab9291909182526001600160a01b0316602082015260400190565b600060405180830381600087803b158015610bc557600080fd5b505af1158015610bd9573d6000803e3d6000fd5b50505050806001019050610b28565b5050565b604080516001600160a01b038481166024830152604480830185905283518084039091018152606490920183526020820180516001600160e01b031663a9059cbb60e01b1790529151600092839290871691610c4891906111d6565b6000604051808303816000865af19150503d8060008114610c85576040519150601f19603f3d011682016040523d82523d6000602084013e610c8a565b606091505b5091509150818015610cb4575080511580610cb4575080806020019051810190610cb491906112ba565b81906104ec5760405162461bcd60e51b81526004016101d591906112dc565b604080516001600160a01b0385811660248301528481166044830152606480830185905283518084039091018152608490920183526020820180516001600160e01b03166323b872dd60e01b1790529151600092839290881691610d3791906111d6565b6000604051808303816000865af19150503d8060008114610d74576040519150601f19603f3d011682016040523d82523d6000602084013e610d79565b606091505b5091509150818015610da3575080511580610da3575080806020019051810190610da391906112ba565b8190610dc25760405162461bcd60e51b81526004016101d591906112dc565b50505050505050565b6001600160a01b0381168114610de057600080fd5b50565b600080600080600060808688031215610dfb57600080fd5b8535610e0681610dcb565b94506020860135610e1681610dcb565b935060408601359250606086013567ffffffffffffffff80821115610e3a57600080fd5b818801915088601f830112610e4e57600080fd5b813581811115610e5d57600080fd5b896020828501011115610e6f57600080fd5b9699959850939650602001949392505050565b600060208284031215610e9457600080fd5b813561042381610dcb565b634e487b7160e01b600052604160045260246000fd5b604051601f8201601f1916810167ffffffffffffffff81118282101715610ede57610ede610e9f565b604052919050565b600067ffffffffffffffff821115610f0057610f00610e9f565b50601f01601f191660200190565b600060208284031215610f2057600080fd5b813567ffffffffffffffff811115610f3757600080fd5b8201601f81018413610f4857600080fd5b8035610f5b610f5682610ee6565b610eb5565b818152856020838501011115610f7057600080fd5b81602084016020830137600091810160200191909152949350505050565b60008060408385031215610fa157600080fd5b8235610fac81610dcb565b946020939093013593505050565b600060208284031215610fcc57600080fd5b815161042381610dcb565b600060018060a01b038089168352808816602084015286604084015260a060608401528460a0840152848660c0850137600083860160c0908101919091529316608083015250601f909201601f191690910101949350505050565b60005b8381101561104d578181015183820152602001611035565b50506000910152565b6000815180845261106e816020860160208601611032565b601f01601f19169290920160200192915050565b6001600160a01b03831681526040602082018190526000906110a690830184611056565b949350505050565b6000602082840312156110c057600080fd5b5051919050565b80516110d281610dcb565b919050565b600080600080600060a086880312156110ef57600080fd5b85516110fa81610dcb565b602087015190955061110b81610dcb565b60408701516060880151919550935067ffffffffffffffff81111561112f57600080fd5b8601601f8101881361114057600080fd5b805161114e610f5682610ee6565b81815289602083850101111561116357600080fd5b611174826020830160208601611032565b9350611185915050608087016110c7565b90509295509295909350565b6001600160a01b03868116825285166020820152604081018490526060810183905260a0608082018190526000906111cb90830184611056565b979650505050505050565b600082516111e8818460208701611032565b9190910192915050565b6000602080838503121561120557600080fd5b825167ffffffffffffffff8082111561121d57600080fd5b818501915085601f83011261123157600080fd5b81518181111561124357611243610e9f565b8060051b9150611254848301610eb5565b818152918301840191848101908884111561126e57600080fd5b938501935b83851015611298578451925061128883610dcb565b8282529385019390850190611273565b98975050505050505050565b634e487b7160e01b600052603260045260246000fd5b6000602082840312156112cc57600080fd5b8151801515811461042357600080fd5b602081526000610423602083018461105656fea2646970667358221220577ab8ea654643239ed88ebd4566151e46e128dec124f6fd0ccde4fa8b9bd69e64736f6c63430008170033","linkReferences":{}},"methodIdentifiers":{"CALLBACK_SUCCESS()":"8237e538","flashFee(address,uint256)":"d9d98ce4","flashLoan(address,address,uint256,bytes)":"5cffe9de","maxFlashLoan(address)":"613255ab","onDeferredLiquidityCheck(bytes)":"a15db5c5"},"id":14}