{"abi":[{"type":"constructor","inputs":[{"name":"moduleGitCommit_","type":"bytes32","internalType":"bytes32"}],"stateMutability":"nonpayable"},{"type":"function","name":"allowance","inputs":[{"name":"holder","type":"address","internalType":"address"},{"name":"spender","type":"address","internalType":"address"}],"outputs":[{"name":"","type":"uint256","internalType":"uint256"}],"stateMutability":"view"},{"type":"function","name":"approve","inputs":[{"name":"spender","type":"address","internalType":"address"},{"name":"amount","type":"uint256","internalType":"uint256"}],"outputs":[{"name":"","type":"bool","internalType":"bool"}],"stateMutability":"nonpayable"},{"type":"function","name":"approveSubAccount","inputs":[{"name":"subAccountId","type":"uint256","internalType":"uint256"},{"name":"spender","type":"address","internalType":"address"},{"name":"amount","type":"uint256","internalType":"uint256"}],"outputs":[{"name":"","type":"bool","internalType":"bool"}],"stateMutability":"nonpayable"},{"type":"function","name":"balanceOf","inputs":[{"name":"account","type":"address","internalType":"address"}],"outputs":[{"name":"","type":"uint256","internalType":"uint256"}],"stateMutability":"view"},{"type":"function","name":"balanceOfUnderlying","inputs":[{"name":"account","type":"address","internalType":"address"}],"outputs":[{"name":"","type":"uint256","internalType":"uint256"}],"stateMutability":"view"},{"type":"function","name":"burn","inputs":[{"name":"subAccountId","type":"uint256","internalType":"uint256"},{"name":"amount","type":"uint256","internalType":"uint256"}],"outputs":[],"stateMutability":"nonpayable"},{"type":"function","name":"convertBalanceToUnderlying","inputs":[{"name":"balance","type":"uint256","internalType":"uint256"}],"outputs":[{"name":"","type":"uint256","internalType":"uint256"}],"stateMutability":"view"},{"type":"function","name":"convertUnderlyingToBalance","inputs":[{"name":"underlyingAmount","type":"uint256","internalType":"uint256"}],"outputs":[{"name":"","type":"uint256","internalType":"uint256"}],"stateMutability":"view"},{"type":"function","name":"decimals","inputs":[],"outputs":[{"name":"","type":"uint8","internalType":"uint8"}],"stateMutability":"pure"},{"type":"function","name":"deposit","inputs":[{"name":"subAccountId","type":"uint256","internalType":"uint256"},{"name":"amount","type":"uint256","internalType":"uint256"}],"outputs":[],"stateMutability":"nonpayable"},{"type":"function","name":"donateToReserves","inputs":[{"name":"subAccountId","type":"uint256","internalType":"uint256"},{"name":"amount","type":"uint256","internalType":"uint256"}],"outputs":[],"stateMutability":"nonpayable"},{"type":"function","name":"mint","inputs":[{"name":"subAccountId","type":"uint256","internalType":"uint256"},{"name":"amount","type":"uint256","internalType":"uint256"}],"outputs":[],"stateMutability":"nonpayable"},{"type":"function","name":"moduleGitCommit","inputs":[],"outputs":[{"name":"","type":"bytes32","internalType":"bytes32"}],"stateMutability":"view"},{"type":"function","name":"moduleId","inputs":[],"outputs":[{"name":"","type":"uint256","internalType":"uint256"}],"stateMutability":"view"},{"type":"function","name":"name","inputs":[],"outputs":[{"name":"","type":"string","internalType":"string"}],"stateMutability":"view"},{"type":"function","name":"reserveBalance","inputs":[],"outputs":[{"name":"","type":"uint256","internalType":"uint256"}],"stateMutability":"view"},{"type":"function","name":"reserveBalanceUnderlying","inputs":[],"outputs":[{"name":"","type":"uint256","internalType":"uint256"}],"stateMutability":"view"},{"type":"function","name":"symbol","inputs":[],"outputs":[{"name":"","type":"string","internalType":"string"}],"stateMutability":"view"},{"type":"function","name":"totalSupply","inputs":[],"outputs":[{"name":"","type":"uint256","internalType":"uint256"}],"stateMutability":"view"},{"type":"function","name":"totalSupplyUnderlying","inputs":[],"outputs":[{"name":"","type":"uint256","internalType":"uint256"}],"stateMutability":"view"},{"type":"function","name":"touch","inputs":[],"outputs":[],"stateMutability":"nonpayable"},{"type":"function","name":"transfer","inputs":[{"name":"to","type":"address","internalType":"address"},{"name":"amount","type":"uint256","internalType":"uint256"}],"outputs":[{"name":"","type":"bool","internalType":"bool"}],"stateMutability":"nonpayable"},{"type":"function","name":"transferFrom","inputs":[{"name":"from","type":"address","internalType":"address"},{"name":"to","type":"address","internalType":"address"},{"name":"amount","type":"uint256","internalType":"uint256"}],"outputs":[{"name":"","type":"bool","internalType":"bool"}],"stateMutability":"nonpayable"},{"type":"function","name":"transferFromMax","inputs":[{"name":"from","type":"address","internalType":"address"},{"name":"to","type":"address","internalType":"address"}],"outputs":[{"name":"","type":"bool","internalType":"bool"}],"stateMutability":"nonpayable"},{"type":"function","name":"underlyingAsset","inputs":[],"outputs":[{"name":"","type":"address","internalType":"address"}],"stateMutability":"view"},{"type":"function","name":"withdraw","inputs":[{"name":"subAccountId","type":"uint256","internalType":"uint256"},{"name":"amount","type":"uint256","internalType":"uint256"}],"outputs":[],"stateMutability":"nonpayable"},{"type":"event","name":"Approval","inputs":[{"name":"owner","type":"address","indexed":true,"internalType":"address"},{"name":"spender","type":"address","indexed":true,"internalType":"address"},{"name":"value","type":"uint256","indexed":false,"internalType":"uint256"}],"anonymous":false},{"type":"event","name":"AssetStatus","inputs":[{"name":"underlying","type":"address","indexed":true,"internalType":"address"},{"name":"totalBalances","type":"uint256","indexed":false,"internalType":"uint256"},{"name":"totalBorrows","type":"uint256","indexed":false,"internalType":"uint256"},{"name":"reserveBalance","type":"uint96","indexed":false,"internalType":"uint96"},{"name":"poolSize","type":"uint256","indexed":false,"internalType":"uint256"},{"name":"interestAccumulator","type":"uint256","indexed":false,"internalType":"uint256"},{"name":"interestRate","type":"int96","indexed":false,"internalType":"int96"},{"name":"timestamp","type":"uint256","indexed":false,"internalType":"uint256"}],"anonymous":false},{"type":"event","name":"Borrow","inputs":[{"name":"underlying","type":"address","indexed":true,"internalType":"address"},{"name":"account","type":"address","indexed":true,"internalType":"address"},{"name":"amount","type":"uint256","indexed":false,"internalType":"uint256"}],"anonymous":false},{"type":"event","name":"DelegateAverageLiquidity","inputs":[{"name":"account","type":"address","indexed":true,"internalType":"address"},{"name":"delegate","type":"address","indexed":true,"internalType":"address"}],"anonymous":false},{"type":"event","name":"Deposit","inputs":[{"name":"underlying","type":"address","indexed":true,"internalType":"address"},{"name":"account","type":"address","indexed":true,"internalType":"address"},{"name":"amount","type":"uint256","indexed":false,"internalType":"uint256"}],"anonymous":false},{"type":"event","name":"EnterMarket","inputs":[{"name":"underlying","type":"address","indexed":true,"internalType":"address"},{"name":"account","type":"address","indexed":true,"internalType":"address"}],"anonymous":false},{"type":"event","name":"ExitMarket","inputs":[{"name":"underlying","type":"address","indexed":true,"internalType":"address"},{"name":"account","type":"address","indexed":true,"internalType":"address"}],"anonymous":false},{"type":"event","name":"Genesis","inputs":[],"anonymous":false},{"type":"event","name":"GovConvertReserves","inputs":[{"name":"underlying","type":"address","indexed":true,"internalType":"address"},{"name":"recipient","type":"address","indexed":true,"internalType":"address"},{"name":"amount","type":"uint256","indexed":false,"internalType":"uint256"}],"anonymous":false},{"type":"event","name":"GovSetAssetConfig","inputs":[{"name":"underlying","type":"address","indexed":true,"internalType":"address"},{"name":"newConfig","type":"tuple","indexed":false,"internalType":"struct Storage.AssetConfig","components":[{"name":"eTokenAddress","type":"address","internalType":"address"},{"name":"borrowIsolated","type":"bool","internalType":"bool"},{"name":"collateralFactor","type":"uint32","internalType":"uint32"},{"name":"borrowFactor","type":"uint32","internalType":"uint32"},{"name":"twapWindow","type":"uint24","internalType":"uint24"}]}],"anonymous":false},{"type":"event","name":"GovSetChainlinkPriceFeed","inputs":[{"name":"underlying","type":"address","indexed":true,"internalType":"address"},{"name":"chainlinkAggregator","type":"address","indexed":false,"internalType":"address"}],"anonymous":false},{"type":"event","name":"GovSetIRM","inputs":[{"name":"underlying","type":"address","indexed":true,"internalType":"address"},{"name":"interestRateModel","type":"uint256","indexed":false,"internalType":"uint256"},{"name":"resetParams","type":"bytes","indexed":false,"internalType":"bytes"}],"anonymous":false},{"type":"event","name":"GovSetPricingConfig","inputs":[{"name":"underlying","type":"address","indexed":true,"internalType":"address"},{"name":"newPricingType","type":"uint16","indexed":false,"internalType":"uint16"},{"name":"newPricingParameter","type":"uint32","indexed":false,"internalType":"uint32"}],"anonymous":false},{"type":"event","name":"GovSetReserveFee","inputs":[{"name":"underlying","type":"address","indexed":true,"internalType":"address"},{"name":"newReserveFee","type":"uint32","indexed":false,"internalType":"uint32"}],"anonymous":false},{"type":"event","name":"InstallerInstallModule","inputs":[{"name":"moduleId","type":"uint256","indexed":true,"internalType":"uint256"},{"name":"moduleImpl","type":"address","indexed":true,"internalType":"address"},{"name":"moduleGitCommit","type":"bytes32","indexed":false,"internalType":"bytes32"}],"anonymous":false},{"type":"event","name":"InstallerSetGovernorAdmin","inputs":[{"name":"newGovernorAdmin","type":"address","indexed":true,"internalType":"address"}],"anonymous":false},{"type":"event","name":"InstallerSetUpgradeAdmin","inputs":[{"name":"newUpgradeAdmin","type":"address","indexed":true,"internalType":"address"}],"anonymous":false},{"type":"event","name":"Liquidation","inputs":[{"name":"liquidator","type":"address","indexed":true,"internalType":"address"},{"name":"violator","type":"address","indexed":true,"internalType":"address"},{"name":"underlying","type":"address","indexed":true,"internalType":"address"},{"name":"collateral","type":"address","indexed":false,"internalType":"address"},{"name":"repay","type":"uint256","indexed":false,"internalType":"uint256"},{"name":"yield","type":"uint256","indexed":false,"internalType":"uint256"},{"name":"healthScore","type":"uint256","indexed":false,"internalType":"uint256"},{"name":"baseDiscount","type":"uint256","indexed":false,"internalType":"uint256"},{"name":"discount","type":"uint256","indexed":false,"internalType":"uint256"}],"anonymous":false},{"type":"event","name":"MarketActivated","inputs":[{"name":"underlying","type":"address","indexed":true,"internalType":"address"},{"name":"eToken","type":"address","indexed":true,"internalType":"address"},{"name":"dToken","type":"address","indexed":true,"internalType":"address"}],"anonymous":false},{"type":"event","name":"PTokenActivated","inputs":[{"name":"underlying","type":"address","indexed":true,"internalType":"address"},{"name":"pToken","type":"address","indexed":true,"internalType":"address"}],"anonymous":false},{"type":"event","name":"PTokenUnWrap","inputs":[{"name":"underlying","type":"address","indexed":true,"internalType":"address"},{"name":"account","type":"address","indexed":true,"internalType":"address"},{"name":"amount","type":"uint256","indexed":false,"internalType":"uint256"}],"anonymous":false},{"type":"event","name":"PTokenWrap","inputs":[{"name":"underlying","type":"address","indexed":true,"internalType":"address"},{"name":"account","type":"address","indexed":true,"internalType":"address"},{"name":"amount","type":"uint256","indexed":false,"internalType":"uint256"}],"anonymous":false},{"type":"event","name":"ProxyCreated","inputs":[{"name":"proxy","type":"address","indexed":true,"internalType":"address"},{"name":"moduleId","type":"uint256","indexed":false,"internalType":"uint256"}],"anonymous":false},{"type":"event","name":"Repay","inputs":[{"name":"underlying","type":"address","indexed":true,"internalType":"address"},{"name":"account","type":"address","indexed":true,"internalType":"address"},{"name":"amount","type":"uint256","indexed":false,"internalType":"uint256"}],"anonymous":false},{"type":"event","name":"RequestBorrow","inputs":[{"name":"account","type":"address","indexed":true,"internalType":"address"},{"name":"amount","type":"uint256","indexed":false,"internalType":"uint256"}],"anonymous":false},{"type":"event","name":"RequestBurn","inputs":[{"name":"account","type":"address","indexed":true,"internalType":"address"},{"name":"amount","type":"uint256","indexed":false,"internalType":"uint256"}],"anonymous":false},{"type":"event","name":"RequestDeposit","inputs":[{"name":"account","type":"address","indexed":true,"internalType":"address"},{"name":"amount","type":"uint256","indexed":false,"internalType":"uint256"}],"anonymous":false},{"type":"event","name":"RequestDonate","inputs":[{"name":"account","type":"address","indexed":true,"internalType":"address"},{"name":"amount","type":"uint256","indexed":false,"internalType":"uint256"}],"anonymous":false},{"type":"event","name":"RequestLiquidate","inputs":[{"name":"liquidator","type":"address","indexed":true,"internalType":"address"},{"name":"violator","type":"address","indexed":true,"internalType":"address"},{"name":"underlying","type":"address","indexed":true,"internalType":"address"},{"name":"collateral","type":"address","indexed":false,"internalType":"address"},{"name":"repay","type":"uint256","indexed":false,"internalType":"uint256"},{"name":"minYield","type":"uint256","indexed":false,"internalType":"uint256"}],"anonymous":false},{"type":"event","name":"RequestMint","inputs":[{"name":"account","type":"address","indexed":true,"internalType":"address"},{"name":"amount","type":"uint256","indexed":false,"internalType":"uint256"}],"anonymous":false},{"type":"event","name":"RequestRepay","inputs":[{"name":"account","type":"address","indexed":true,"internalType":"address"},{"name":"amount","type":"uint256","indexed":false,"internalType":"uint256"}],"anonymous":false},{"type":"event","name":"RequestSwap","inputs":[{"name":"accountIn","type":"address","indexed":true,"internalType":"address"},{"name":"accountOut","type":"address","indexed":true,"internalType":"address"},{"name":"underlyingIn","type":"address","indexed":true,"internalType":"address"},{"name":"underlyingOut","type":"address","indexed":false,"internalType":"address"},{"name":"amount","type":"uint256","indexed":false,"internalType":"uint256"},{"name":"swapType","type":"uint256","indexed":false,"internalType":"uint256"}],"anonymous":false},{"type":"event","name":"RequestSwapHub","inputs":[{"name":"accountIn","type":"address","indexed":true,"internalType":"address"},{"name":"accountOut","type":"address","indexed":true,"internalType":"address"},{"name":"underlyingIn","type":"address","indexed":true,"internalType":"address"},{"name":"underlyingOut","type":"address","indexed":false,"internalType":"address"},{"name":"amountIn","type":"uint256","indexed":false,"internalType":"uint256"},{"name":"amountOut","type":"uint256","indexed":false,"internalType":"uint256"},{"name":"mode","type":"uint256","indexed":false,"internalType":"uint256"},{"name":"swapHandler","type":"address","indexed":false,"internalType":"address"}],"anonymous":false},{"type":"event","name":"RequestSwapHubRepay","inputs":[{"name":"accountIn","type":"address","indexed":true,"internalType":"address"},{"name":"accountOut","type":"address","indexed":true,"internalType":"address"},{"name":"underlyingIn","type":"address","indexed":true,"internalType":"address"},{"name":"underlyingOut","type":"address","indexed":false,"internalType":"address"},{"name":"targetDebt","type":"uint256","indexed":false,"internalType":"uint256"},{"name":"swapHandler","type":"address","indexed":false,"internalType":"address"}],"anonymous":false},{"type":"event","name":"RequestTransferDToken","inputs":[{"name":"from","type":"address","indexed":true,"internalType":"address"},{"name":"to","type":"address","indexed":true,"internalType":"address"},{"name":"amount","type":"uint256","indexed":false,"internalType":"uint256"}],"anonymous":false},{"type":"event","name":"RequestTransferEToken","inputs":[{"name":"from","type":"address","indexed":true,"internalType":"address"},{"name":"to","type":"address","indexed":true,"internalType":"address"},{"name":"amount","type":"uint256","indexed":false,"internalType":"uint256"}],"anonymous":false},{"type":"event","name":"RequestWithdraw","inputs":[{"name":"account","type":"address","indexed":true,"internalType":"address"},{"name":"amount","type":"uint256","indexed":false,"internalType":"uint256"}],"anonymous":false},{"type":"event","name":"TrackAverageLiquidity","inputs":[{"name":"account","type":"address","indexed":true,"internalType":"address"}],"anonymous":false},{"type":"event","name":"Transfer","inputs":[{"name":"from","type":"address","indexed":true,"internalType":"address"},{"name":"to","type":"address","indexed":true,"internalType":"address"},{"name":"value","type":"uint256","indexed":false,"internalType":"uint256"}],"anonymous":false},{"type":"event","name":"UnTrackAverageLiquidity","inputs":[{"name":"account","type":"address","indexed":true,"internalType":"address"}],"anonymous":false},{"type":"event","name":"Withdraw","inputs":[{"name":"underlying","type":"address","indexed":true,"internalType":"address"},{"name":"account","type":"address","indexed":true,"internalType":"address"},{"name":"amount","type":"uint256","indexed":false,"internalType":"uint256"}],"anonymous":false}],"bytecode":{"object":"0x60c06040523480156200001157600080fd5b506040516200370a3803806200370a833981016040819052620000349162000044565b6207a12060805260a0526200005e565b6000602082840312156200005757600080fd5b5051919050565b60805160a051613686620000846000396000610294015260006102fe01526136866000f3fe608060405234801561001057600080fd5b506004361061018e5760003560e01c806370a08231116100de578063a9059cbb11610097578063dd62ed3e11610071578063dd62ed3e14610361578063e2bbb15814610374578063e73277d014610387578063fea61faa1461038f57600080fd5b8063a9059cbb14610328578063b390c0ab1461033b578063cbfdd7e11461034e57600080fd5b806370a08231146102b65780637158da7c146102c957806395d89b41146102e9578063a10954fe146102f1578063a1308f27146102f9578063a55526db1461032057600080fd5b8063313ce5671161014b5780633af9e669116101255780633af9e66914610256578063441a3e701461026957806352eac8af1461027c57806369a92ea31461028f57600080fd5b8063313ce5671461022157806332d1ca9b1461023057806336f022aa1461024357600080fd5b8063010ad6d11461019357806306fdde03146101b9578063095ea7b3146101ce57806318160ddd146101f15780631b2ef1ca146101f957806323b872dd1461020e575b600080fd5b6101a66101a136600461310c565b610397565b6040519081526020015b60405180910390f35b6101c16103db565b6040516101b09190613149565b6101e16101dc366004613198565b610477565b60405190151581526020016101b0565b6101a661048e565b61020c6102073660046131c2565b6104c2565b005b6101e161021c3660046131e4565b6105e1565b604051601281526020016101b0565b6101e161023e366004613220565b61087c565b61020c6102513660046131c2565b610963565b6101a6610264366004613245565b610b62565b61020c6102773660046131c2565b610bba565b6101a661028a36600461310c565b610cdf565b6101a67f000000000000000000000000000000000000000000000000000000000000000081565b6101a66102c4366004613245565b610d13565b6102d1610d4e565b6040516001600160a01b0390911681526020016101b0565b6101c1610d63565b6101a6610dea565b6101a67f000000000000000000000000000000000000000000000000000000000000000081565b61020c610e1e565b6101e1610336366004613198565b610e81565b61020c6103493660046131c2565b610e8f565b6101e161035c366004613260565b610fbd565b6101a661036f366004613260565b611007565b61020c6103823660046131c2565b611046565b6101a6611186565b6101a66111d6565b60008060006103a4611214565b50509150915060006103b6838361129b565b9050806101a001516103c882876112f9565b6103d291906132bf565b95945050505050565b606060006103e7611214565b5050509050806001600160a01b03166306fdde036040518163ffffffff1660e01b8152600401600060405180830381865afa15801561042a573d6000803e3d6000fd5b505050506040513d6000823e601f3d908101601f1916820160405261045291908101906132f7565b60405160200161046291906133a4565b60405160208183030381529060405291505090565b60006104856000848461087c565b90505b92915050565b600080600061049b611214565b50509150915060006104ad838361129b565b602001516001600160701b0316949350505050565b6001600054146104ed5760405162461bcd60e51b81526004016104e4906133d8565b60405180910390fd5b600260009081558080806104ff611214565b935093509350935060006105138288611324565b905061051e8161137c565b806001600160a01b03167f7053340faeaa787c14d517bde5b7f4f7e1ebc393c59b246723598563d39af9ed8760405161055991815260200190565b60405180910390a2600061056d8686611428565b905061057981886114be565b965060006105878289611516565b905061059382826112f9565b97506105a2868387868561154c565b60028601546105bf90879084906001600160a01b0316868c611654565b6105c8836117ba565b6105d182611873565b5050600160005550505050505050565b60006001600054146106055760405162461bcd60e51b81526004016104e4906133d8565b60026000908155808080610617611214565b9350935093509350600061062b8585611428565b90506001600160a01b03891661063f578198505b876001600160a01b0316896001600160a01b0316036106925760405162461bcd60e51b815260206004820152600f60248201526e3297b9b2b63316ba3930b739b332b960891b60448201526064016104e4565b61069b8961137c565b6106a48861137c565b876001600160a01b0316896001600160a01b03167f05c051db3761ec29f60be6db25acec44695498d628df7aa22ebff5a2922f8ffb896040516106e991815260200190565b60405180910390a38660000361070757600195505050505050610870565b60ff8083176001600160a01b03908116918b17161415801561075257506001600160a01b03808a16600090815260068601602090815260408083209386168352929052205460001914155b1561080d576001600160a01b03808a1660009081526006860160209081526040808320938616835292905220548711156107ce5760405162461bcd60e51b815260206004820152601860248201527f652f696e73756666696369656e742d616c6c6f77616e6365000000000000000060448201526064016104e4565b6001600160a01b038981166000908152600686016020908152604080832093861683529290522080548890039081905561080d9084908b90859061192e565b61081b8482858c8c8c611a2e565b610824896117ba565b6001600160a01b0388166000908152600585016020526040902054600160701b90046001600160901b03161561085d5761085d886117ba565b61086681611873565b6001955050505050505b60016000559392505050565b60006001600054146108a05760405162461bcd60e51b81526004016104e4906133d8565b6002600090815580806108b1611214565b9350935093505060006108c48289611324565b905060ff8088176001600160a01b0390811691831716036109195760405162461bcd60e51b815260206004820152600f60248201526e194bdcd95b198b585c1c1c9bdd985b608a1b60448201526064016104e4565b6001600160a01b0380821660009081526006860160209081526040808320938b1683529290522086905561094f8382898961192e565b600194505050505060016000559392505050565b6001600054146109855760405162461bcd60e51b81526004016104e4906133d8565b60026000908155808080610997611214565b935093509350935060006109ab8288611324565b90506109b68161137c565b806001600160a01b03167f1e090bfa40abafd9102cc09ab955b704519a275c8e78b2549f66c1b4439ce9d7876040516109f191815260200190565b60405180910390a26000610a058686611428565b6001600160a01b03831660009081526005870160205260408120549192506001600160701b039091169060018901610a4257509650866000610a67565b88821015610a625760405162461bcd60e51b81526004016104e4906133fe565b508781035b610a7081611b9d565b6001600160a01b0385166000908152600589016020526040902080546001600160701b0319166001600160701b03929092169190911790556060830151610aca90610ac5908b906001600160601b031661342e565b611bfa565b6001600160601b031660608401819052600188018054600160a01b9092026001600160a01b0392831617905583516040518683169291909116907f9b1bfa7fa9ee420a16e124f794c35ac9f90472acc99140eb2f6447c714cad8eb90610b33908d815260200190565b60405180910390a3610b48868560008c611c5e565b610b5183611873565b505060016000555050505050505050565b6000806000610b6f611214565b5050915091506000610b81838361129b565b6101a08101516001600160a01b0387166000908152600585016020526040902054919250906103c89083906001600160701b03166112f9565b600160005414610bdc5760405162461bcd60e51b81526004016104e4906133d8565b60026000908155808080610bee611214565b93509350935093506000610c028288611324565b9050610c0d8161137c565b806001600160a01b03167f0afd74a2a0a78f6c15e41029f44995ee023fe49276f44a4b2b2cf674829362e687604051610c4891815260200190565b60405180910390a26000610c5c8686611428565b90506000610c6c8683858b611cb4565b6101808401519199509150881115610cc65760405162461bcd60e51b815260206004820152601860248201527f652f696e73756666696369656e742d706f6f6c2d73697a65000000000000000060448201526064016104e4565b610cd182858a611d1e565b506105bf8683878685611dbe565b6000806000610cec611214565b5050915091506000610cfe838361129b565b90506103d281610d0e83886114be565b611ee0565b600080610d1e611214565b50506001600160a01b039094166000908152600590940160205250506040909120546001600160701b0316919050565b600080610d59611214565b5091949350505050565b60606000610d6f611214565b5050509050806001600160a01b03166395d89b416040518163ffffffff1660e01b8152600401600060405180830381865afa158015610db2573d6000803e3d6000fd5b505050506040513d6000823e601f3d908101601f19168201604052610dda91908101906132f7565b6040516020016104629190613441565b6000806000610df7611214565b5050915091506000610e09838361129b565b606001516001600160601b0316949350505050565b600160005414610e405760405162461bcd60e51b81526004016104e4906133d8565b6002600090815580610e50611214565b5050915091506000610e628383611428565b9050610e6e8282611f01565b610e7781611873565b5050600160005550565b6000610485600084846105e1565b600160005414610eb15760405162461bcd60e51b81526004016104e4906133d8565b60026000908155808080610ec3611214565b93509350935093506000610ed78288611324565b9050610ee28161137c565b806001600160a01b03167ff05dc13309edd62ddfddf2ba57299daa8fc08d8be6d2fad6c648fa9b2b0d91df87604051610f1d91815260200190565b60405180910390a26000610f318686611428565b90506000610f40868385612020565b905080600003610f565750505050505050610fb4565b6000610f648784868c611cb4565b909950905081891115610f8157819850610f7e838a611516565b90505b610f8e8784888785611dbe565b6002870154610fab90889085906001600160a01b0316878d61206b565b610b48846117ba565b50506001600055565b600080610fc8611214565b50506001600160a01b0386166000908152600582016020526040902054909250610fff9150859085906001600160701b03166105e1565b949350505050565b600080611012611214565b50506001600160a01b0395861660009081526006919091016020908152604080832096909716825294909452505050205490565b6001600054146110685760405162461bcd60e51b81526004016104e4906133d8565b6002600090815580808061107a611214565b9350935093509350600061108e8288611324565b90506110998161137c565b806001600160a01b03167fab5515522df06610b9fbcbbbd8416018226aca39364adcf5524751fcfef40ae5876040516110d491815260200190565b60405180910390a260006110e88686611428565b90506000198703611100576110fd81846121bd565b96505b61110a81886114be565b9650600061111982858a6122a0565b610180830180518290039052905060006111338383611ee0565b6101808401805184019052905061114d878488878561154c565b6001600160a01b0384166000908152600588016020526040902054600160701b90046001600160901b031615610b4857610b48846117ba565b6000806000611193611214565b50509150915060006111a5838361129b565b9050806101a001516111c48283606001516001600160601b03166112f9565b6111ce91906132bf565b935050505090565b60008060006111e3611214565b50509150915060006111f5838361129b565b9050806101a001516111c48283602001516001600160701b03166112f9565b36601319810135606090811c600081815260096020526040902060018101546001600160a01b031693909260271990910135901c836112955760405162461bcd60e51b815260206004820152601c60248201527f652f756e7265636f676e697a65642d65746f6b656e2d63616c6c65720000000060448201526064016104e4565b90919293565b6112a3613090565b6001600054146112e75760405162461bcd60e51b815260206004820152600f60248201526e652f726f2d7265656e7472616e637960881b60448201526064016104e4565b6112f283838361233c565b5092915050565b600080611305846126dc565b9050670de0b6b3a764000061131a828561346a565b610fff91906132bf565b600061010082106113775760405162461bcd60e51b815260206004820152601860248201527f652f7375622d6163636f756e742d69642d746f6f2d626967000000000000000060448201526064016104e4565b501890565b6001600160a01b038116600090815260066020526040812054610100900464ffffffffff16908190036113ad575050565b60006113b98242613481565b9050806000036113c857505050565b6001600160a01b0383166000908152600660205260409020805465ffffffffff0019166101004264ffffffffff1602179055611404838261276c565b6001600160a01b039093166000908152600660205260409020600101929092555050565b611430613090565b61143b83838361233c565b156104885760a0810151825464ffffffffff90911664ffffffffff19909116178255805160608201516001600160601b0316600160a01b026001600160a01b03909116176001830155602081015160408201516001600160901b0316600160701b026001600160701b039091161760038301556080810151600483015592915050565b6000826101c0015182111561150a5760405162461bcd60e51b8152602060048201526012602482015271652f616d6f756e742d746f6f2d6c6172676560701b60448201526064016104e4565b506101a0909101510290565b600080611522846126dc565b905080611530600182613481565b61154285670de0b6b3a764000061346a565b61131a919061342e565b6001600160a01b03821660009081526005860160205260409020546115849061157f9083906001600160701b031661342e565b611b9d565b6001600160a01b0383166000908152600587016020908152604090912080546001600160701b0319166001600160701b039384161790558501516115ce9161157f9184911661342e565b6001600160701b0316602085018190526003860180546001600160701b03191690911790556115fd8585611f01565b83516040518281526001600160a01b038085169216907f5548c837ab068cf56a2c2479df0882a4922fd203edb7517321831d95078c5f629060200160405180910390a361164d8360008484611c5e565b5050505050565b611662633b9aca008261346a565b61014085015190915061ffff166003141580611698575083516001600160a01b039081166000908152600b602052604090205416155b6116dd5760405162461bcd60e51b8152602060048201526016602482015275194bd89bdc9c9bddcb5b9bdd0b5cdd5c1c1bdc9d195960521b60448201526064016104e4565b6000806116eb87878661282a565b9150915081600003611705576117058487600001516128bd565b61170f838361342e565b915061171a82612ab6565b6001600160a01b03851660009081526005890160205260409081902080546001600160701b0316600160701b6001600160901b039485160217905587015161176d916117689186911661342e565b612ab6565b6001600160901b0316604087018190526003880180546001600160701b0316600160701b9092029190911790556117a48787611f01565b6117b18686868486612b19565b50505050505050565b6001600160a01b03811660009081526006602052604090205460ff168061183f576040516001600160a01b038316602482015261183a90620f4240906361cdaa1d60e11b906044015b60408051601f198184030181529190526020810180516001600160e01b03166001600160e01b031990931692909217909152612c58565b505050565b60001960ff82160161186f576001600160a01b0382166000908152600660205260409020805460ff191660021790555b5050565b80600001516001600160a01b03167f2f2d732e1a7a15fe7a2e51d3482efe83ff791579cebc5e3cd12cd2064374bc7f8260200151633b9aca0084604001516001600160901b03166118c491906132bf565b6060808601516101808701516080808901516101008a0151604080516001600160701b03909916895260208901979097526001600160601b03909416958701959095529285015290830191909152600b0b60a08201524260c082015260e00160405180910390a250565b600060405190506000856001600160a01b0316600360405180606001604052806021815260200161360f60219139805160209182012060405161198493926001600160a01b03808c1692908b16918a9101613494565b60408051601f198184030181529082905261199e916134c6565b6000604051808303816000865af19150503d80600081146119db576040519150601f19603f3d011682016040523d82523d6000602084013e6119e0565b606091505b5050905080611a245760405162461bcd60e51b815260206004820152601060248201526f194bdb1bd9cb5c1c9bde1e4b59985a5b60821b60448201526064016104e4565b5060405250505050565b6001600160a01b03831660009081526005870160205260409020546001600160701b031681811015611a725760405162461bcd60e51b81526004016104e4906133fe565b818103611a7e81611b9d565b6001600160a01b03868116600090815260058b01602052604080822080546001600160701b0319166001600160701b0395861617905591871681522054611acb9161157f9186911661342e565b6001600160a01b03858116600090815260058b01602090815260409182902080546001600160701b0319166001600160701b039590951694909417909355895190518681528883169391909216917f9b1bfa7fa9ee420a16e124f794c35ac9f90472acc99140eb2f6447c714cad8eb910160405180910390a386516040518481526001600160a01b038087169216907f5548c837ab068cf56a2c2479df0882a4922fd203edb7517321831d95078c5f629060200160405180910390a3611b9386868686611c5e565b5050505050505050565b60006001600160701b03821115611bf65760405162461bcd60e51b815260206004820152601c60248201527f652f616d6f756e742d746f6f2d6c617267652d746f2d656e636f64650000000060448201526064016104e4565b5090565b60006001600160601b03821115611bf65760405162461bcd60e51b815260206004820152602260248201527f652f736d616c6c2d616d6f756e742d746f6f2d6c617267652d746f2d656e636f604482015261646560f01b60648201526084016104e4565b600060405190506000856001600160a01b0316600360405180606001604052806021815260200161363060219139805160209182012060405161198493926001600160a01b03808c1692908b16918a9101613494565b60008060006000198403611cf857506001600160a01b03841660009081526005870160205260409020546001600160701b0316611cf186826112f9565b9350611d11565b611d0286856114be565b9350611d0e8685611516565b90505b9296929550919350505050565b61018083015183516101a085015160009291611d45918690611d4090876132bf565b612cda565b6000611d5a86611d5588306121bd565b6114be565b6101808701819052905080821015611db45760405162461bcd60e51b815260206004820152601a60248201527f652f6e656761746976652d7472616e736665722d616d6f756e7400000000000060448201526064016104e4565b9003949350505050565b6001600160a01b03821660009081526005860160205260409020546001600160701b031681811015611e025760405162461bcd60e51b81526004016104e4906133fe565b611e0f61157f8383613481565b6001600160a01b0384166000908152600588016020908152604090912080546001600160701b0319166001600160701b03938416179055860151611e599161157f91859116613481565b6001600160701b0316602086018190526003870180546001600160701b0319169091179055611e888686611f01565b84516040518381526001600160a01b038086169216907f9b1bfa7fa9ee420a16e124f794c35ac9f90472acc99140eb2f6447c714cad8eb9060200160405180910390a3611ed88484600085611c5e565b505050505050565b600080611eec846126dc565b90508061131a84670de0b6b3a764000061346a565b600080633b9aca0083604001516001600160901b0316611f2191906132bf565b9050600081846101800151611f36919061342e565b905080600003611f495760009250611f82565b670de0b6b3a764000081611f6163ffffffff8361346a565b611f6b908561346a565b611f7591906132bf565b611f7f91906132bf565b92505b505060e082015182516040516001600160a01b03909116602482015263ffffffff8381166044830152600092611fc692911690631aa1811f60e31b90606401611803565b9050600081806020019051810190611fde91906134e2565b600b81900b61010090950194909452505082546001600160601b03909216600160501b026bffffffffffffffffffffffff60501b199092169190911790915550565b6001600160a01b0381166000908152600584016020526040812054633b9aca009061131a90859061206690889083908890600160701b90046001600160901b0316612dc1565b612e00565b600061207b633b9aca008361346a565b905060008061208b88888761282a565b91509150600061209b8884612e00565b9050808411156120e05760405162461bcd60e51b815260206004820152601060248201526f0ca5ee4cae0c2f25ae8dede5adaeac6d60831b60448201526064016104e4565b6040880151848203906001600160901b031684111561210a5788604001516001600160901b031693505b61211381612ab6565b6001600160a01b038816600090815260058c0160205260409081902080546001600160701b0316600160701b6001600160901b03948516021790558a015161216d91839161216391889116613481565b611768919061342e565b6001600160901b031660408a0181905260038b0180546001600160701b0316600160701b9092029190911790556121a48a8a611f01565b6121b18989898685612b19565b50505050505050505050565b6040805183516001600160a01b03848116602480850191909152845180850390910181526044840185526020810180516001600160e01b03166370a0823160e01b179052935160009485938493169162030d409161221a916134c6565b6000604051808303818686fa925050503d8060008114612256576040519150601f19603f3d011682016040523d82523d6000602084013e61225b565b606091505b509150915081158061226e575060208151105b1561227e57600093505050612297565b808060200190518101906122929190613505565b935050505b60405292915050565b61018083015183516101a0850151600092916122c991869030906122c490886132bf565b612e3e565b60006122d986611d5588306121bd565b61018087018190529050818110156123335760405162461bcd60e51b815260206004820152601a60248201527f652f6e656761746976652d7472616e736665722d616d6f756e7400000000000060448201526064016104e4565b03949350505050565b6001600160a01b0383168152815464ffffffffff811660a083015265010000000000810460ff90811660c08401819052600160301b830463ffffffff90811660e0860152600160501b8404600b0b610100860152600160b01b84048116610120860152600160d01b840461ffff16610140860152600160e01b9093049092166101608401526001840154600160a01b90046001600160601b0316606084015260038401546001600160701b038082166020860152600160701b9091046001600160901b03166040850152600485015460808501526012839003909116600a0a6101a08401819052600092918161243457612434613293565b046101c0840152600061244784306121bd565b9050836101c001518111612468576101a08401518102610180850152612471565b60006101808501525b8360a0015164ffffffffff1642146126d3576001925060008460a0015164ffffffffff16426124a09190613481565b905060006b033b2e3c9fd0803ce800000086608001516124ec886101000151600b0b6b033b2e3c9fd0803ce80000006124d9919061351e565b856b033b2e3c9fd0803ce8000000612f2d565b6124f6919061346a565b61250091906132bf565b9050600086608001518288604001516001600160901b0316612522919061346a565b61252c91906132bf565b606088015160208901519192506001600160601b0316906001600160701b03166000612560633b9aca0063ee6b280061346a565b6101208b015163ffffffff9081161461257e578a6101200151612584565b6336d616005b63ffffffff168b604001516001600160901b0316866125a39190613481565b6125ad919061346a565b6125b791906132bf565b905080156126285760006125cf633b9aca00866132bf565b8b61018001516125df919061342e565b90506125eb8282613481565b6125f5848361346a565b6125ff91906132bf565b92508a602001516001600160701b03168361261a9190613481565b612624908561342e565b9350505b6001600160701b03821180159061264657506001600160901b038411155b801561265957506001600160601b038311155b156126cc5761266784612ab6565b6001600160901b031660408b015260808a0185905264ffffffffff421660a08b015260208a01516001600160701b031682146126cc576126a683611bfa565b6001600160601b031660608b01526126bd82611b9d565b6001600160701b031660208b01525b5050505050505b50509392505050565b600080633b9aca0083604001516001600160901b03166126fc91906132bf565b83610180015161270c919061342e565b9050801580612726575060208301516001600160701b0316155b1561273b5750670de0b6b3a764000092915050565b60208301516001600160701b031661275b82670de0b6b3a764000061346a565b61276591906132bf565b9392505050565b600080620151808310156127805782612785565b620151805b905060006127968262015180613481565b905060008060006127a688612fea565b915091508082116127b85760006127c2565b6127c28183613481565b925050506201518083826127d6919061346a565b6127e091906132bf565b6001600160a01b038716600090815260066020526040902060010154620151809061280c90859061346a565b61281691906132bf565b612820919061342e565b9695505050505050565b6001600160a01b0381166000908152600584016020526040812054600160701b90046001600160901b031661286185858584612dc1565b915061286c82612ab6565b6001600160a01b0390931660009081526005909501602052604090942080546001600160901b0393909316600160701b026001600160701b0390931692909217825560809092015160019091015591565b6001600160a01b0382166000908152600660209081526040808320805460079093529220600160301b90910463ffffffff1690811561296b5782546001600160a01b03808616600160501b9092041603612918575050505050565b60015b8263ffffffff1681101561296957846001600160a01b03168282640100000000811061294957612949613546565b01546001600160a01b03160361296157505050505050565b60010161291b565b505b600a8263ffffffff16106129c15760405162461bcd60e51b815260206004820152601a60248201527f652f746f6f2d6d616e792d656e74657265642d6d61726b65747300000000000060448201526064016104e4565b8163ffffffff16600003612a0b5782547fffff0000000000000000000000000000000000000000ffffffffffffffffffff16600160501b6001600160a01b03861602178355612a48565b83818363ffffffff166401000000008110612a2857612a28613546565b0180546001600160a01b0319166001600160a01b03929092169190911790555b612a5382600161355c565b835463ffffffff91909116600160301b0269ffffffff000000000000199091161783556040516001600160a01b0380871691908616907f1c0971b8e0f7bb4e90bdbd87cfe682c36c383e2fc3dc4716ecc02771186293cc90600090a35050505050565b60006001600160901b03821115611bf65760405162461bcd60e51b815260206004820152602160248201527f652f646562742d616d6f756e742d746f6f2d6c617267652d746f2d656e636f646044820152606560f81b60648201526084016104e4565b633b9aca00612b288684612e00565b612b3291906132bf565b9150633b9aca00612b438683612e00565b612b4d91906132bf565b905081811115612bd9576000612b638383613481565b9050836001600160a01b031686600001516001600160a01b03167f312a5e5e1079f5dda4e95dbbd0b908b291fd5b992ef22073643ab691572c5b5283604051612bae91815260200190565b60405180910390a3612bd385600086896101a0015185612bce91906132bf565b611c5e565b5061164d565b8082111561164d576000612bed8284613481565b9050836001600160a01b031686600001516001600160a01b03167f05f2eeda0e08e4b437f487c8d7d29b14537d15e3488170dc3de5dbdf8dac468483604051612c3891815260200190565b60405180910390a3611ed885856000896101a0015185612bce91906132bf565b6000828152600360205260408082205490516060929182916001600160a01b0390911690612c879086906134c6565b600060405180830381855af49150503d8060008114612cc2576040519150601f19603f3d011682016040523d82523d6000602084013e612cc7565b606091505b509150915081610fff57610fff81613049565b604080516001600160a01b038481166024830152604480830185905283518084039091018152606490920183526020820180516001600160e01b031663a9059cbb60e01b1790529151600092839290871691612d3691906134c6565b6000604051808303816000865af19150503d8060008114612d73576040519150601f19603f3d011682016040523d82523d6000602084013e612d78565b606091505b5091509150818015612da2575080511580612da2575080806020019051810190612da29190613589565b8190611ed85760405162461bcd60e51b81526004016104e49190613149565b600081600003612dd357506000610fff565b6001600160a01b038316600090815260058601602052604090206001015460808501516103c8908461346a565b600081600003612e1257506000610488565b6101a0830151633b9aca000280806000198582010181612e3457612e34613293565b0402949350505050565b604080516001600160a01b0385811660248301528481166044830152606480830185905283518084039091018152608490920183526020820180516001600160e01b03166323b872dd60e01b1790529151600092839290881691612ea291906134c6565b6000604051808303816000865af19150503d8060008114612edf576040519150601f19603f3d011682016040523d82523d6000602084013e612ee4565b606091505b5091509150818015612f0e575080511580612f0e575080806020019051810190612f0e9190613589565b81906117b15760405162461bcd60e51b81526004016104e49190613149565b6000838015612fcd57600184168015612f4857859250612f4c565b8392505b50600283046002850494505b8415612fc7578586028687820414612f6f57600080fd5b81810181811015612f7f57600080fd5b8590049650506001851615612fbc578583028387820414158715151615612fa557600080fd5b81810181811015612fb557600080fd5b8590049350505b600285049450612f58565b50612fe2565b838015612fdd57600092506126d3565b839250505b509392505050565b6040516001600160a01b03821660248201526000908190819061301d90620f424090631bff4ba560e11b90604401611803565b905060008180602001905181019061303591906135a4565b805160209091015190969095509350505050565b80511561305857805181602001fd5b60405162461bcd60e51b815260206004820152600d60248201526c3297b2b6b83a3c96b2b93937b960991b60448201526064016104e4565b604080516101e081018252600080825260208201819052918101829052606081018290526080810182905260a0810182905260c0810182905260e08101829052610100810182905261012081018290526101408101829052610160810182905261018081018290526101a081018290526101c081019190915290565b60006020828403121561311e57600080fd5b5035919050565b60005b83811015613140578181015183820152602001613128565b50506000910152565b6020815260008251806020840152613168816040850160208701613125565b601f01601f19169190910160400192915050565b80356001600160a01b038116811461319357600080fd5b919050565b600080604083850312156131ab57600080fd5b6131b48361317c565b946020939093013593505050565b600080604083850312156131d557600080fd5b50508035926020909101359150565b6000806000606084860312156131f957600080fd5b6132028461317c565b92506132106020850161317c565b9150604084013590509250925092565b60008060006060848603121561323557600080fd5b833592506132106020850161317c565b60006020828403121561325757600080fd5b6104858261317c565b6000806040838503121561327357600080fd5b61327c8361317c565b915061328a6020840161317c565b90509250929050565b634e487b7160e01b600052601260045260246000fd5b634e487b7160e01b600052601160045260246000fd5b6000826132dc57634e487b7160e01b600052601260045260246000fd5b500490565b634e487b7160e01b600052604160045260246000fd5b60006020828403121561330957600080fd5b815167ffffffffffffffff8082111561332157600080fd5b818401915084601f83011261333557600080fd5b815181811115613347576133476132e1565b604051601f8201601f19908116603f0116810190838211818310171561336f5761336f6132e1565b8160405282815287602084870101111561338857600080fd5b613399836020830160208801613125565b979650505050505050565b6b022bab632b9102837b7b61d160a51b8152600082516133cb81600c850160208701613125565b91909101600c0192915050565b6020808252600c908201526b652f7265656e7472616e637960a01b604082015260600190565b602080825260169082015275652f696e73756666696369656e742d62616c616e636560501b604082015260600190565b80820180821115610488576104886132a9565b606560f81b81526000825161345d816001850160208701613125565b9190910160010192915050565b8082028115828204841417610488576104886132a9565b81810381811115610488576104886132a9565b60f89590951b6001600160f81b0319168552600185019390935260218401919091526041830152606182015260810190565b600082516134d8818460208701613125565b9190910192915050565b6000602082840312156134f457600080fd5b815180600b0b811461276557600080fd5b60006020828403121561351757600080fd5b5051919050565b808201828112600083128015821682158216171561353e5761353e6132a9565b505092915050565b634e487b7160e01b600052603260045260246000fd5b63ffffffff8181168382160190808211156112f2576112f26132a9565b8051801515811461319357600080fd5b60006020828403121561359b57600080fd5b61048582613579565b6000608082840312156135b657600080fd5b6040516080810181811067ffffffffffffffff821117156135d9576135d96132e1565b806040525082518152602083015160208201526040830151604082015261360260608401613579565b6060820152939250505056fe417070726f76616c28616464726573732c616464726573732c75696e74323536295472616e7366657228616464726573732c616464726573732c75696e7432353629a26469706673582212203fa0603b4f113d56356e3cce9cdd269efe39686247353a18cdacf7455152c5f664736f6c63430008170033","linkReferences":{}},"methodIdentifiers":{"allowance(address,address)":"dd62ed3e","approve(address,uint256)":"095ea7b3","approveSubAccount(uint256,address,uint256)":"32d1ca9b","balanceOf(address)":"70a08231","balanceOfUnderlying(address)":"3af9e669","burn(uint256,uint256)":"b390c0ab","convertBalanceToUnderlying(uint256)":"010ad6d1","convertUnderlyingToBalance(uint256)":"52eac8af","decimals()":"313ce567","deposit(uint256,uint256)":"e2bbb158","donateToReserves(uint256,uint256)":"36f022aa","mint(uint256,uint256)":"1b2ef1ca","moduleGitCommit()":"69a92ea3","moduleId()":"a1308f27","name()":"06fdde03","reserveBalance()":"a10954fe","reserveBalanceUnderlying()":"e73277d0","symbol()":"95d89b41","totalSupply()":"18160ddd","totalSupplyUnderlying()":"fea61faa","touch()":"a55526db","transfer(address,uint256)":"a9059cbb","transferFrom(address,address,uint256)":"23b872dd","transferFromMax(address,address)":"cbfdd7e1","underlyingAsset()":"7158da7c","withdraw(uint256,uint256)":"441a3e70"},"id":14}