{"abi":[{"type":"constructor","inputs":[{"name":"moduleGitCommit_","type":"bytes32","internalType":"bytes32"}],"stateMutability":"nonpayable"},{"type":"function","name":"activateMarket","inputs":[{"name":"underlying","type":"address","internalType":"address"}],"outputs":[{"name":"","type":"address","internalType":"address"}],"stateMutability":"nonpayable"},{"type":"function","name":"activatePToken","inputs":[{"name":"underlying","type":"address","internalType":"address"}],"outputs":[{"name":"","type":"address","internalType":"address"}],"stateMutability":"nonpayable"},{"type":"function","name":"dTokenToUnderlying","inputs":[{"name":"dToken","type":"address","internalType":"address"}],"outputs":[{"name":"underlying","type":"address","internalType":"address"}],"stateMutability":"view"},{"type":"function","name":"eTokenToDToken","inputs":[{"name":"eToken","type":"address","internalType":"address"}],"outputs":[{"name":"dTokenAddr","type":"address","internalType":"address"}],"stateMutability":"view"},{"type":"function","name":"eTokenToUnderlying","inputs":[{"name":"eToken","type":"address","internalType":"address"}],"outputs":[{"name":"underlying","type":"address","internalType":"address"}],"stateMutability":"view"},{"type":"function","name":"enterMarket","inputs":[{"name":"subAccountId","type":"uint256","internalType":"uint256"},{"name":"newMarket","type":"address","internalType":"address"}],"outputs":[],"stateMutability":"nonpayable"},{"type":"function","name":"exitMarket","inputs":[{"name":"subAccountId","type":"uint256","internalType":"uint256"},{"name":"oldMarket","type":"address","internalType":"address"}],"outputs":[],"stateMutability":"nonpayable"},{"type":"function","name":"getChainlinkPriceFeedConfig","inputs":[{"name":"underlying","type":"address","internalType":"address"}],"outputs":[{"name":"chainlinkAggregator","type":"address","internalType":"address"}],"stateMutability":"view"},{"type":"function","name":"getEnteredMarkets","inputs":[{"name":"account","type":"address","internalType":"address"}],"outputs":[{"name":"","type":"address[]","internalType":"address[]"}],"stateMutability":"view"},{"type":"function","name":"getPricingConfig","inputs":[{"name":"underlying","type":"address","internalType":"address"}],"outputs":[{"name":"pricingType","type":"uint16","internalType":"uint16"},{"name":"pricingParameters","type":"uint32","internalType":"uint32"},{"name":"pricingForwarded","type":"address","internalType":"address"}],"stateMutability":"view"},{"type":"function","name":"interestAccumulator","inputs":[{"name":"underlying","type":"address","internalType":"address"}],"outputs":[{"name":"","type":"uint256","internalType":"uint256"}],"stateMutability":"view"},{"type":"function","name":"interestRate","inputs":[{"name":"underlying","type":"address","internalType":"address"}],"outputs":[{"name":"","type":"int96","internalType":"int96"}],"stateMutability":"view"},{"type":"function","name":"interestRateModel","inputs":[{"name":"underlying","type":"address","internalType":"address"}],"outputs":[{"name":"","type":"uint256","internalType":"uint256"}],"stateMutability":"view"},{"type":"function","name":"moduleGitCommit","inputs":[],"outputs":[{"name":"","type":"bytes32","internalType":"bytes32"}],"stateMutability":"view"},{"type":"function","name":"moduleId","inputs":[],"outputs":[{"name":"","type":"uint256","internalType":"uint256"}],"stateMutability":"view"},{"type":"function","name":"reserveFee","inputs":[{"name":"underlying","type":"address","internalType":"address"}],"outputs":[{"name":"","type":"uint32","internalType":"uint32"}],"stateMutability":"view"},{"type":"function","name":"underlyingToAssetConfig","inputs":[{"name":"underlying","type":"address","internalType":"address"}],"outputs":[{"name":"","type":"tuple","internalType":"struct Storage.AssetConfig","components":[{"name":"eTokenAddress","type":"address","internalType":"address"},{"name":"borrowIsolated","type":"bool","internalType":"bool"},{"name":"collateralFactor","type":"uint32","internalType":"uint32"},{"name":"borrowFactor","type":"uint32","internalType":"uint32"},{"name":"twapWindow","type":"uint24","internalType":"uint24"}]}],"stateMutability":"view"},{"type":"function","name":"underlyingToAssetConfigUnresolved","inputs":[{"name":"underlying","type":"address","internalType":"address"}],"outputs":[{"name":"config","type":"tuple","internalType":"struct Storage.AssetConfig","components":[{"name":"eTokenAddress","type":"address","internalType":"address"},{"name":"borrowIsolated","type":"bool","internalType":"bool"},{"name":"collateralFactor","type":"uint32","internalType":"uint32"},{"name":"borrowFactor","type":"uint32","internalType":"uint32"},{"name":"twapWindow","type":"uint24","internalType":"uint24"}]}],"stateMutability":"view"},{"type":"function","name":"underlyingToDToken","inputs":[{"name":"underlying","type":"address","internalType":"address"}],"outputs":[{"name":"","type":"address","internalType":"address"}],"stateMutability":"view"},{"type":"function","name":"underlyingToEToken","inputs":[{"name":"underlying","type":"address","internalType":"address"}],"outputs":[{"name":"","type":"address","internalType":"address"}],"stateMutability":"view"},{"type":"function","name":"underlyingToPToken","inputs":[{"name":"underlying","type":"address","internalType":"address"}],"outputs":[{"name":"","type":"address","internalType":"address"}],"stateMutability":"view"},{"type":"event","name":"AssetStatus","inputs":[{"name":"underlying","type":"address","indexed":true,"internalType":"address"},{"name":"totalBalances","type":"uint256","indexed":false,"internalType":"uint256"},{"name":"totalBorrows","type":"uint256","indexed":false,"internalType":"uint256"},{"name":"reserveBalance","type":"uint96","indexed":false,"internalType":"uint96"},{"name":"poolSize","type":"uint256","indexed":false,"internalType":"uint256"},{"name":"interestAccumulator","type":"uint256","indexed":false,"internalType":"uint256"},{"name":"interestRate","type":"int96","indexed":false,"internalType":"int96"},{"name":"timestamp","type":"uint256","indexed":false,"internalType":"uint256"}],"anonymous":false},{"type":"event","name":"Borrow","inputs":[{"name":"underlying","type":"address","indexed":true,"internalType":"address"},{"name":"account","type":"address","indexed":true,"internalType":"address"},{"name":"amount","type":"uint256","indexed":false,"internalType":"uint256"}],"anonymous":false},{"type":"event","name":"DelegateAverageLiquidity","inputs":[{"name":"account","type":"address","indexed":true,"internalType":"address"},{"name":"delegate","type":"address","indexed":true,"internalType":"address"}],"anonymous":false},{"type":"event","name":"Deposit","inputs":[{"name":"underlying","type":"address","indexed":true,"internalType":"address"},{"name":"account","type":"address","indexed":true,"internalType":"address"},{"name":"amount","type":"uint256","indexed":false,"internalType":"uint256"}],"anonymous":false},{"type":"event","name":"EnterMarket","inputs":[{"name":"underlying","type":"address","indexed":true,"internalType":"address"},{"name":"account","type":"address","indexed":true,"internalType":"address"}],"anonymous":false},{"type":"event","name":"ExitMarket","inputs":[{"name":"underlying","type":"address","indexed":true,"internalType":"address"},{"name":"account","type":"address","indexed":true,"internalType":"address"}],"anonymous":false},{"type":"event","name":"Genesis","inputs":[],"anonymous":false},{"type":"event","name":"GovConvertReserves","inputs":[{"name":"underlying","type":"address","indexed":true,"internalType":"address"},{"name":"recipient","type":"address","indexed":true,"internalType":"address"},{"name":"amount","type":"uint256","indexed":false,"internalType":"uint256"}],"anonymous":false},{"type":"event","name":"GovSetAssetConfig","inputs":[{"name":"underlying","type":"address","indexed":true,"internalType":"address"},{"name":"newConfig","type":"tuple","indexed":false,"internalType":"struct Storage.AssetConfig","components":[{"name":"eTokenAddress","type":"address","internalType":"address"},{"name":"borrowIsolated","type":"bool","internalType":"bool"},{"name":"collateralFactor","type":"uint32","internalType":"uint32"},{"name":"borrowFactor","type":"uint32","internalType":"uint32"},{"name":"twapWindow","type":"uint24","internalType":"uint24"}]}],"anonymous":false},{"type":"event","name":"GovSetChainlinkPriceFeed","inputs":[{"name":"underlying","type":"address","indexed":true,"internalType":"address"},{"name":"chainlinkAggregator","type":"address","indexed":false,"internalType":"address"}],"anonymous":false},{"type":"event","name":"GovSetIRM","inputs":[{"name":"underlying","type":"address","indexed":true,"internalType":"address"},{"name":"interestRateModel","type":"uint256","indexed":false,"internalType":"uint256"},{"name":"resetParams","type":"bytes","indexed":false,"internalType":"bytes"}],"anonymous":false},{"type":"event","name":"GovSetPricingConfig","inputs":[{"name":"underlying","type":"address","indexed":true,"internalType":"address"},{"name":"newPricingType","type":"uint16","indexed":false,"internalType":"uint16"},{"name":"newPricingParameter","type":"uint32","indexed":false,"internalType":"uint32"}],"anonymous":false},{"type":"event","name":"GovSetReserveFee","inputs":[{"name":"underlying","type":"address","indexed":true,"internalType":"address"},{"name":"newReserveFee","type":"uint32","indexed":false,"internalType":"uint32"}],"anonymous":false},{"type":"event","name":"InstallerInstallModule","inputs":[{"name":"moduleId","type":"uint256","indexed":true,"internalType":"uint256"},{"name":"moduleImpl","type":"address","indexed":true,"internalType":"address"},{"name":"moduleGitCommit","type":"bytes32","indexed":false,"internalType":"bytes32"}],"anonymous":false},{"type":"event","name":"InstallerSetGovernorAdmin","inputs":[{"name":"newGovernorAdmin","type":"address","indexed":true,"internalType":"address"}],"anonymous":false},{"type":"event","name":"InstallerSetUpgradeAdmin","inputs":[{"name":"newUpgradeAdmin","type":"address","indexed":true,"internalType":"address"}],"anonymous":false},{"type":"event","name":"Liquidation","inputs":[{"name":"liquidator","type":"address","indexed":true,"internalType":"address"},{"name":"violator","type":"address","indexed":true,"internalType":"address"},{"name":"underlying","type":"address","indexed":true,"internalType":"address"},{"name":"collateral","type":"address","indexed":false,"internalType":"address"},{"name":"repay","type":"uint256","indexed":false,"internalType":"uint256"},{"name":"yield","type":"uint256","indexed":false,"internalType":"uint256"},{"name":"healthScore","type":"uint256","indexed":false,"internalType":"uint256"},{"name":"baseDiscount","type":"uint256","indexed":false,"internalType":"uint256"},{"name":"discount","type":"uint256","indexed":false,"internalType":"uint256"}],"anonymous":false},{"type":"event","name":"MarketActivated","inputs":[{"name":"underlying","type":"address","indexed":true,"internalType":"address"},{"name":"eToken","type":"address","indexed":true,"internalType":"address"},{"name":"dToken","type":"address","indexed":true,"internalType":"address"}],"anonymous":false},{"type":"event","name":"PTokenActivated","inputs":[{"name":"underlying","type":"address","indexed":true,"internalType":"address"},{"name":"pToken","type":"address","indexed":true,"internalType":"address"}],"anonymous":false},{"type":"event","name":"PTokenUnWrap","inputs":[{"name":"underlying","type":"address","indexed":true,"internalType":"address"},{"name":"account","type":"address","indexed":true,"internalType":"address"},{"name":"amount","type":"uint256","indexed":false,"internalType":"uint256"}],"anonymous":false},{"type":"event","name":"PTokenWrap","inputs":[{"name":"underlying","type":"address","indexed":true,"internalType":"address"},{"name":"account","type":"address","indexed":true,"internalType":"address"},{"name":"amount","type":"uint256","indexed":false,"internalType":"uint256"}],"anonymous":false},{"type":"event","name":"ProxyCreated","inputs":[{"name":"proxy","type":"address","indexed":true,"internalType":"address"},{"name":"moduleId","type":"uint256","indexed":false,"internalType":"uint256"}],"anonymous":false},{"type":"event","name":"Repay","inputs":[{"name":"underlying","type":"address","indexed":true,"internalType":"address"},{"name":"account","type":"address","indexed":true,"internalType":"address"},{"name":"amount","type":"uint256","indexed":false,"internalType":"uint256"}],"anonymous":false},{"type":"event","name":"RequestBorrow","inputs":[{"name":"account","type":"address","indexed":true,"internalType":"address"},{"name":"amount","type":"uint256","indexed":false,"internalType":"uint256"}],"anonymous":false},{"type":"event","name":"RequestBurn","inputs":[{"name":"account","type":"address","indexed":true,"internalType":"address"},{"name":"amount","type":"uint256","indexed":false,"internalType":"uint256"}],"anonymous":false},{"type":"event","name":"RequestDeposit","inputs":[{"name":"account","type":"address","indexed":true,"internalType":"address"},{"name":"amount","type":"uint256","indexed":false,"internalType":"uint256"}],"anonymous":false},{"type":"event","name":"RequestDonate","inputs":[{"name":"account","type":"address","indexed":true,"internalType":"address"},{"name":"amount","type":"uint256","indexed":false,"internalType":"uint256"}],"anonymous":false},{"type":"event","name":"RequestLiquidate","inputs":[{"name":"liquidator","type":"address","indexed":true,"internalType":"address"},{"name":"violator","type":"address","indexed":true,"internalType":"address"},{"name":"underlying","type":"address","indexed":true,"internalType":"address"},{"name":"collateral","type":"address","indexed":false,"internalType":"address"},{"name":"repay","type":"uint256","indexed":false,"internalType":"uint256"},{"name":"minYield","type":"uint256","indexed":false,"internalType":"uint256"}],"anonymous":false},{"type":"event","name":"RequestMint","inputs":[{"name":"account","type":"address","indexed":true,"internalType":"address"},{"name":"amount","type":"uint256","indexed":false,"internalType":"uint256"}],"anonymous":false},{"type":"event","name":"RequestRepay","inputs":[{"name":"account","type":"address","indexed":true,"internalType":"address"},{"name":"amount","type":"uint256","indexed":false,"internalType":"uint256"}],"anonymous":false},{"type":"event","name":"RequestSwap","inputs":[{"name":"accountIn","type":"address","indexed":true,"internalType":"address"},{"name":"accountOut","type":"address","indexed":true,"internalType":"address"},{"name":"underlyingIn","type":"address","indexed":true,"internalType":"address"},{"name":"underlyingOut","type":"address","indexed":false,"internalType":"address"},{"name":"amount","type":"uint256","indexed":false,"internalType":"uint256"},{"name":"swapType","type":"uint256","indexed":false,"internalType":"uint256"}],"anonymous":false},{"type":"event","name":"RequestSwapHub","inputs":[{"name":"accountIn","type":"address","indexed":true,"internalType":"address"},{"name":"accountOut","type":"address","indexed":true,"internalType":"address"},{"name":"underlyingIn","type":"address","indexed":true,"internalType":"address"},{"name":"underlyingOut","type":"address","indexed":false,"internalType":"address"},{"name":"amountIn","type":"uint256","indexed":false,"internalType":"uint256"},{"name":"amountOut","type":"uint256","indexed":false,"internalType":"uint256"},{"name":"mode","type":"uint256","indexed":false,"internalType":"uint256"},{"name":"swapHandler","type":"address","indexed":false,"internalType":"address"}],"anonymous":false},{"type":"event","name":"RequestSwapHubRepay","inputs":[{"name":"accountIn","type":"address","indexed":true,"internalType":"address"},{"name":"accountOut","type":"address","indexed":true,"internalType":"address"},{"name":"underlyingIn","type":"address","indexed":true,"internalType":"address"},{"name":"underlyingOut","type":"address","indexed":false,"internalType":"address"},{"name":"targetDebt","type":"uint256","indexed":false,"internalType":"uint256"},{"name":"swapHandler","type":"address","indexed":false,"internalType":"address"}],"anonymous":false},{"type":"event","name":"RequestTransferDToken","inputs":[{"name":"from","type":"address","indexed":true,"internalType":"address"},{"name":"to","type":"address","indexed":true,"internalType":"address"},{"name":"amount","type":"uint256","indexed":false,"internalType":"uint256"}],"anonymous":false},{"type":"event","name":"RequestTransferEToken","inputs":[{"name":"from","type":"address","indexed":true,"internalType":"address"},{"name":"to","type":"address","indexed":true,"internalType":"address"},{"name":"amount","type":"uint256","indexed":false,"internalType":"uint256"}],"anonymous":false},{"type":"event","name":"RequestWithdraw","inputs":[{"name":"account","type":"address","indexed":true,"internalType":"address"},{"name":"amount","type":"uint256","indexed":false,"internalType":"uint256"}],"anonymous":false},{"type":"event","name":"TrackAverageLiquidity","inputs":[{"name":"account","type":"address","indexed":true,"internalType":"address"}],"anonymous":false},{"type":"event","name":"UnTrackAverageLiquidity","inputs":[{"name":"account","type":"address","indexed":true,"internalType":"address"}],"anonymous":false},{"type":"event","name":"Withdraw","inputs":[{"name":"underlying","type":"address","indexed":true,"internalType":"address"},{"name":"account","type":"address","indexed":true,"internalType":"address"},{"name":"amount","type":"uint256","indexed":false,"internalType":"uint256"}],"anonymous":false}],"bytecode":{"object":"0x60c060405234801561001057600080fd5b5060405162003a5638038062003a568339810160408190526100319161003e565b600260805260a052610057565b60006020828403121561005057600080fd5b5051919050565b60805160a0516139d96200007d60003960006102a10152600061039f01526139d96000f3fe60806040523480156200001157600080fd5b5060043610620001515760003560e01c80638ccb720b11620000c7578063b74b1ed51162000086578063b74b1ed51462000407578063b93982a01462000434578063bcc343ae146200044b578063c3c96b2b1462000462578063c8a5fba31462000479578063fd7948d4146200049057600080fd5b80638ccb720b146200035c5780638f34bdbc1462000382578063a1308f271462000399578063b3312cf414620003c1578063b409dd9b14620003f057600080fd5b806369a92ea3116200011457806369a92ea3146200029b5780636b5e360614620002d257806373f0b43714620002e95780637c2c69c0146200030257806389488749146200032d57600080fd5b80630d771df714620001565780631b300582146200018a5780634e80717714620001cb5780634e9cfac214620001e2578063546422d61462000255575b600080fd5b6200016d620001673660046200237d565b620004bf565b6040516001600160a01b0390911681526020015b60405180910390f35b6200016d6200019b3660046200237d565b6001600160a01b039081166000908152600860209081526040808320548416835260099091529020600201541690565b6200016d620001dc3660046200237d565b620006d1565b620001f9620001f33660046200237d565b62000777565b60405162000181919081516001600160a01b0316815260208083015115159082015260408083015163ffffffff908116918301919091526060808401519091169082015260809182015162ffffff169181019190915260a00190565b6200026c620002663660046200237d565b62000792565b6040805161ffff909416845263ffffffff90921660208401526001600160a01b03169082015260600162000181565b620002c37f000000000000000000000000000000000000000000000000000000000000000081565b60405190815260200162000181565b6200016d620002e33660046200237d565b620007f9565b62000300620002fa3660046200239d565b6200085e565b005b62000319620003133660046200237d565b620008f4565b604051600b9190910b815260200162000181565b6200016d6200033e3660046200237d565b6001600160a01b039081166000908152600860205260409020541690565b620003736200036d3660046200237d565b62000914565b604051620001819190620023d0565b620001f9620003933660046200237d565b62000921565b620002c37f000000000000000000000000000000000000000000000000000000000000000081565b6200016d620003d23660046200237d565b6001600160a01b039081166000908152600d60205260409020541690565b620002c3620004013660046200237d565b620009c3565b6200041e620004183660046200237d565b620009e6565b60405163ffffffff909116815260200162000181565b6200016d620004453660046200237d565b62000a30565b620002c36200045c3660046200237d565b62000a90565b6200016d620004733660046200237d565b62000aba565b620003006200048a3660046200239d565b62000b3d565b6200016d620004a13660046200237d565b6001600160a01b039081166000908152600c60205260409020541690565b6000600160005414620004ef5760405162461bcd60e51b8152600401620004e6906200241f565b60405180910390fd5b600260009081556001600160a01b038381168252600b6020526040909120541615620005505760405162461bcd60e51b815260206004820152600f60248201526e3297b732b9ba32b216b83a37b5b2b760891b6044820152606401620004e6565b6001600160a01b038281166000908152600c602052604090205416156200059357506001600160a01b038082166000908152600c602052604090205416620006c7565b6000620005a08362000c66565b9050806040015163ffffffff16600003620005fe5760405162461bcd60e51b815260206004820152601760248201527f652f70746f6b656e2f6e6f742d636f6c6c61746572616c0000000000000000006044820152606401620004e6565b50600030836040516200061190620022f4565b6001600160a01b03928316815291166020820152604001604051809103906000f08015801562000645573d6000803e3d6000fd5b506001600160a01b038082166000818152600b602090815260408083208054958a166001600160a01b03199687168117909155808452600c90925280832080549095168417909455925193945090927f73fb3a739df7a607a2d4190be1c2d2beb0a1a1d66712602ace77dfa83381b73f9190a3620006c38162000d4e565b5090505b6001600055919050565b6000600160005414620006f85760405162461bcd60e51b8152600401620004e6906200241f565b600260009081556001600160a01b038381168252600b6020526040909120541615620007615760405162461bcd60e51b81526020600482015260176024820152763297b6b0b935b2ba3997b4b73b30b634b216ba37b5b2b760491b6044820152606401620004e6565b6200076c8262000d4e565b600160005592915050565b6200078162002302565b6200078c8262000c66565b92915050565b600080600080620007a385620011db565b8054600160d01b810461ffff169550600160e01b900463ffffffff169350905060038414620007d4576000620007f0565b6001600160a01b038086166000908152600b6020526040902054165b93959294505050565b6001600160a01b038082166000908152600960205260409020600201541680620008595760405162461bcd60e51b815260206004820152601060248201526f3297b4b73b30b634b216b2ba37b5b2b760811b6044820152606401620004e6565b919050565b600160005414620008835760405162461bcd60e51b8152600401620004e6906200241f565b6002600090815560271936013560601c90620008a0828562001235565b6001600160a01b0384811660009081526008602052604090205491925016620008dd5760405162461bcd60e51b8152600401620004e69062002445565b620008e981846200128f565b505060016000555050565b6000806200090283620011db565b54600160501b9004600b0b9392505050565b60606200078c8262001482565b6200092b62002302565b506001600160a01b03818116600090815260086020908152604091829020825160a0810184529054938416808252600160a01b850460ff16151592820192909252600160a81b840463ffffffff90811693820193909352600160c81b84049092166060830152600160e81b90920462ffffff16608082015290620008595760405162461bcd60e51b8152600401620004e69062002445565b600080620009d183620011db565b54600160301b900463ffffffff169392505050565b600080620009f483620011db565b8054909150600160b01b900463ffffffff9081161462000a23578054600160b01b900463ffffffff1662000a29565b6336d616005b9392505050565b6001600160a01b038082166000908152600960205260409020600101541680620008595760405162461bcd60e51b815260206004820152601060248201526f3297b4b73b30b634b216b2ba37b5b2b760811b6044820152606401620004e6565b60008062000a9e83620011db565b9050600062000aae8483620015da565b60800151949350505050565b6001600160a01b038082166000908152600a60205260408120549091168062000b195760405162461bcd60e51b815260206004820152601060248201526f3297b4b73b30b634b216b23a37b5b2b760811b6044820152606401620004e6565b6001600160a01b039081166000908152600960205260409020600101541692915050565b60016000541462000b625760405162461bcd60e51b8152600401620004e6906200241f565b6002600090815560271936013560601c9062000b7f828562001235565b9050600062000b8e8462000c66565b80516001600160a01b039081166000908152600960209081526040808320938716835260058401909152902054919250906001600160701b03811690600160701b90046001600160901b0316801562000c215760405162461bcd60e51b8152602060048201526014602482015273652f6f75747374616e64696e672d626f72726f7760601b6044820152606401620004e6565b62000c2d8588620016ab565b604084015163ffffffff161580159062000c4657508115155b1562000c575762000c5785620018f3565b50506001600055505050505050565b62000c7062002302565b6001600160a01b03828116600090815260086020908152604091829020825160a0810184529054938416808252600160a01b850460ff16151592820192909252600160a81b840463ffffffff90811693820193909352600160c81b84049092166060830152600160e81b90920462ffffff1660808201529062000d075760405162461bcd60e51b8152600401620004e69062002445565b63ffffffff8016816060015163ffffffff160362000d2a576342c1d80060608201525b62ffffff8016816080015162ffffff16036200078c57610708608082015292915050565b6001600160a01b038181166000908152600860205260408120549091161562000d9057506001600160a01b039081166000908152600860205260409020541690565b6001600160a01b03821660009081526005602052604090205463ffffffff1615801562000dc657506001600160a01b0382163014155b62000e0e5760405162461bcd60e51b81526020600482015260176024820152763297b6b0b935b2ba3997b4b73b30b634b216ba37b5b2b760491b6044820152606401620004e6565b6000826001600160a01b031663313ce5676040518163ffffffff1660e01b8152600401602060405180830381865afa15801562000e4f573d6000803e3d6000fd5b505050506040513d601f19601f8201168201806040525081019062000e75919062002475565b905060128160ff16111562000ec35760405162461bcd60e51b8152602060048201526013602482015272652f746f6f2d6d616e792d646563696d616c7360681b6044820152606401620004e6565b62000ecd62002330565b6040516001600160a01b038516602482015260009062000f3190620f42409063476ee6c960e11b906044015b60408051601f198184030181529190526020810180516001600160e01b03166001600160e01b0319909316929092179091526200197d565b90508080602001905181019062000f4991906200252f565b915050600062000f5c6207a12062001a0e565b60408301516001600160a01b03909116908190529050600062000f826207a12162001a0e565b6040848101516001600160a01b038981166000818152600860209081528582208551815483880151888a015160608a01516080909a01519389166001600160a81b031990931692909217600160a01b911515919091021767ffffffffffffffff60a81b1916600160a81b63ffffffff9283160263ffffffff60c81b191617600160c81b98821698909802979097176001600160e81b0316600160e81b62ffffff90921691909102179055868416808352600a825286832080546001600160a01b0319908116968c169687179091559483526009825295909120600181018054851690931790925588518254918a01516002840180549095169096179093554264ffffffffff166001600160d01b03909116600160d01b61ffff909416939093026001600160e01b031692909217600160e01b94909316939093029190911765ffffffffffff1916176501000000000060ff8816021779ffffffff000000000000000000000000ffffffff000000000000191679ffffffff000000000000000000000000001e848000000000000017815590915062001123620f424062001bf2565b8160010160146101000a8154816001600160601b0302191690836001600160601b0316021790555062001159620f424062001c5c565b6003820180546dffffffffffffffffffffffffffff19166001600160701b03929092169190911790556b033b2e3c9fd0803ce800000060048201556040516001600160a01b0383811691858216918a16907f2ece124509c63be11a6985ae00b93c8cb8f8d8898f6e5239fc9e38bc7190966790600090a4509095945050505050565b6001600160a01b0380821660009081526008602052604081205490911680620012185760405162461bcd60e51b8152600401620004e69062002445565b6001600160a01b0316600090815260096020526040902092915050565b600061010082106200128a5760405162461bcd60e51b815260206004820152601860248201527f652f7375622d6163636f756e742d69642d746f6f2d62696700000000000000006044820152606401620004e6565b501890565b6001600160a01b0382166000908152600660209081526040808320805460079093529220600160301b90910463ffffffff16908115620013445782546001600160a01b03808616600160501b9092041603620012ec575050505050565b60015b8263ffffffff168110156200134257846001600160a01b03168282600160201b811062001320576200132062002610565b01546001600160a01b0316036200133957505050505050565b600101620012ef565b505b600a8263ffffffff16106200139c5760405162461bcd60e51b815260206004820152601a60248201527f652f746f6f2d6d616e792d656e74657265642d6d61726b6574730000000000006044820152606401620004e6565b8163ffffffff16600003620013d3578254600160501b600160f01b031916600160501b6001600160a01b0386160217835562001412565b83818363ffffffff16600160201b8110620013f257620013f262002610565b0180546001600160a01b0319166001600160a01b03929092169190911790555b6200141f8260016200263c565b835463ffffffff91909116600160301b0269ffffffff000000000000199091161783556040516001600160a01b0380871691908616907f1c0971b8e0f7bb4e90bdbd87cfe682c36c383e2fc3dc4716ecc02771186293cc90600090a35050505050565b6001600160a01b0380821660009081526006602052604081205460609263ffffffff600160301b83041692600160501b90920416908267ffffffffffffffff811115620014d357620014d36200249a565b604051908082528060200260200182016040528015620014fd578160200160208202803683370190505b5090508263ffffffff166000036200151757949350505050565b6001600160a01b038516600090815260076020526040812082519091849184919062001547576200154762002610565b6001600160a01b039092166020928302919091019091015260015b8463ffffffff16811015620015cf578181600160201b811062001589576200158962002610565b015483516001600160a01b0390911690849083908110620015ae57620015ae62002610565b6001600160a01b039092166020928302919091019091015260010162001562565b509095945050505050565b604080516101e081018252600080825260208201819052918101829052606081018290526080810182905260a0810182905260c0810182905260e08101829052610100810182905261012081018290526101408101829052610160810182905261018081018290526101a081018290526101c081018290529054600114620016975760405162461bcd60e51b815260206004820152600f60248201526e652f726f2d7265656e7472616e637960881b6044820152606401620004e6565b620016a483838362001cb7565b5092915050565b6001600160a01b0382166000908152600660209081526040808320805460079093529083209092600160301b90920463ffffffff169160001990839003620016f557505050505050565b83546001600160a01b03808716600160501b90920416036200171a5750600062001784565b60015b8363ffffffff168110156200177157856001600160a01b03168382600160201b81106200174e576200174e62002610565b01546001600160a01b031603620017685780915062001771565b6001016200171d565b5060001981036200178457505050505050565b6000620017936001856200265c565b63ffffffff1690508082146200184a5781600003620017ef578281600160201b8110620017c457620017c462002610565b01548554600160501b600160f01b0319166001600160a01b03909116600160501b021785556200184a565b8281600160201b811062001807576200180762002610565b01546001600160a01b03168383600160201b81106200182a576200182a62002610565b0180546001600160a01b0319166001600160a01b03929092169190911790555b845469ffffffff0000000000001916600160301b63ffffffff8316021785558015620018aa5760008382600160201b81106200188a576200188a62002610565b0180546001600160a01b0319166001600160a01b03929092169190911790555b866001600160a01b0316866001600160a01b03167f7a35d9c64b6bcbe8e9104e3f481fb44a765d4b2a54cfa1c2d434a46c69f0418960405160405180910390a350505050505050565b6001600160a01b03811660009081526006602052604090205460ff168062001948576040516001600160a01b03831660248201526200194390620f4240906361cdaa1d60e11b9060440162000ef9565b505050565b60001960ff82160162001979576001600160a01b0382166000908152600660205260409020805460ff191660021790555b5050565b6000828152600360205260408082205490516060929182916001600160a01b0390911690620019ae9086906200267c565b600060405180830381855af49150503d8060008114620019eb576040519150601f19603f3d011682016040523d82523d6000602084013e620019f0565b606091505b50915091508162001a065762001a068162002090565b949350505050565b60008160000362001a625760405162461bcd60e51b815260206004820152601d60248201527f652f6372656174652d70726f78792f696e76616c69642d6d6f64756c650000006044820152606401620004e6565b620f423f82111562001ab75760405162461bcd60e51b815260206004820152601e60248201527f652f6372656174652d70726f78792f696e7465726e616c2d6d6f64756c6500006044820152606401620004e6565b6000828152600460205260409020546001600160a01b03161562001af157506000908152600460205260409020546001600160a01b031690565b600060405162001b019062002356565b604051809103906000f08015801562001b1e573d6000803e3d6000fd5b5090506207a11f831162001b5457600083815260046020526040902080546001600160a01b0319166001600160a01b0383161790555b60408051808201825263ffffffff8086168252600060208084018281526001600160a01b03878116808552600590935292869020945185549151909316600160201b026001600160c01b031990911692909316919091179190911790915590517f6c6ffd7df9a0cfaa14ee2cf752003968de6c340564276242aa48ca641b09bce49062001be49086815260200190565b60405180910390a292915050565b60006001600160601b0382111562001c585760405162461bcd60e51b815260206004820152602260248201527f652f736d616c6c2d616d6f756e742d746f6f2d6c617267652d746f2d656e636f604482015261646560f01b6064820152608401620004e6565b5090565b60006001600160701b0382111562001c585760405162461bcd60e51b815260206004820152601c60248201527f652f616d6f756e742d746f6f2d6c617267652d746f2d656e636f6465000000006044820152606401620004e6565b6001600160a01b0383168152815464ffffffffff811660a083015265010000000000810460ff90811660c08401819052600160301b830463ffffffff90811660e0860152600160501b8404600b0b610100860152600160b01b84048116610120860152600160d01b840461ffff16610140860152600160e01b9093049092166101608401526001840154600160a01b90046001600160601b0316606084015260038401546001600160701b038082166020860152600160701b9091046001600160901b03166040850152600485015460808501526012839003909116600a0a6101a08401819052600092918162001db25762001db2620026ad565b046101c0840152600062001dc78430620020d9565b9050836101c00151811162001dea576101a0840151810261018085015262001df3565b60006101808501525b8360a0015164ffffffffff16421462002087576001925060008460a0015164ffffffffff164262001e259190620026c3565b905060006b033b2e3c9fd0803ce8000000866080015162001e75886101000151600b0b6b033b2e3c9fd0803ce800000062001e619190620026d9565b856b033b2e3c9fd0803ce8000000620021c5565b62001e81919062002704565b62001e8d91906200271e565b9050600086608001518288604001516001600160901b031662001eb1919062002704565b62001ebd91906200271e565b606088015160208901519192506001600160601b0316906001600160701b0316600062001ef3633b9aca0063ee6b280062002704565b6101208b015163ffffffff9081161462001f13578a610120015162001f19565b6336d616005b63ffffffff168b604001516001600160901b03168662001f3a9190620026c3565b62001f46919062002704565b62001f5291906200271e565b9050801562001fd257600062001f6d633b9aca00866200271e565b8b610180015162001f7f919062002741565b905062001f8d8282620026c3565b62001f99848362002704565b62001fa591906200271e565b92508a602001516001600160701b03168362001fc29190620026c3565b62001fce908562002741565b9350505b6001600160701b03821180159062001ff157506001600160901b038411155b80156200200557506001600160601b038311155b15620020805762002016846200228f565b6001600160901b031660408b015260808a0185905264ffffffffff421660a08b015260208a01516001600160701b031682146200208057620020588362001bf2565b6001600160601b031660608b0152620020718262001c5c565b6001600160701b031660208b01525b5050505050505b50509392505050565b805115620020a057805181602001fd5b60405162461bcd60e51b815260206004820152600d60248201526c3297b2b6b83a3c96b2b93937b960991b6044820152606401620004e6565b6040805183516001600160a01b03848116602480850191909152845180850390910181526044840185526020810180516001600160e01b03166370a0823160e01b179052935160009485938493169162030d409162002138916200267c565b6000604051808303818686fa925050503d806000811462002176576040519150601f19603f3d011682016040523d82523d6000602084013e6200217b565b606091505b50915091508115806200218f575060208151105b15620021a157600093505050620021bc565b80806020019051810190620021b7919062002757565b935050505b60405292915050565b60008380156200227057600184168015620021e357859250620021e7565b8392505b50600283046002850494505b8415620022695785860286878204146200220c57600080fd5b818101818110156200221d57600080fd5b85900496505060018516156200225d5785830283878204141587151516156200224557600080fd5b818101818110156200225657600080fd5b8590049350505b600285049450620021f3565b5062002287565b83801562002282576000925062002087565b839250505b509392505050565b60006001600160901b0382111562001c585760405162461bcd60e51b815260206004820152602160248201527f652f646562742d616d6f756e742d746f6f2d6c617267652d746f2d656e636f646044820152606560f81b6064820152608401620004e6565b6110b9806200277283390190565b6040805160a08101825260008082526020820181905291810182905260608101829052608081019190915290565b60408051606081018252600080825260208201529081016200235162002302565b905290565b610179806200382b83390190565b6001600160a01b03811681146200237a57600080fd5b50565b6000602082840312156200239057600080fd5b813562000a298162002364565b60008060408385031215620023b157600080fd5b823591506020830135620023c58162002364565b809150509250929050565b6020808252825182820181905260009190848201906040850190845b81811015620024135783516001600160a01b031683529284019291840191600101620023ec565b50909695505050505050565b6020808252600c908201526b652f7265656e7472616e637960a01b604082015260600190565b602080825260169082015275194bdb585c9ad95d0b5b9bdd0b5858dd1a5d985d195960521b604082015260600190565b6000602082840312156200248857600080fd5b815160ff8116811462000a2957600080fd5b634e487b7160e01b600052604160045260246000fd5b6040516060810167ffffffffffffffff81118282101715620024e257634e487b7160e01b600052604160045260246000fd5b60405290565b60405160a0810167ffffffffffffffff81118282101715620024e257634e487b7160e01b600052604160045260246000fd5b805163ffffffff811681146200085957600080fd5b600081830360e08112156200254357600080fd5b6200254d620024b0565b835161ffff811681146200256057600080fd5b815262002570602085016200251a565b602082015260a0603f19830112156200258857600080fd5b62002592620024e8565b91506040840151620025a48162002364565b825260608401518015158114620025ba57600080fd5b6020830152620025cd608085016200251a565b6040830152620025e060a085016200251a565b606083015260c084015162ffffff81168114620025fc57600080fd5b608083015260408101919091529392505050565b634e487b7160e01b600052603260045260246000fd5b634e487b7160e01b600052601160045260246000fd5b63ffffffff818116838216019080821115620016a457620016a462002626565b63ffffffff828116828216039080821115620016a457620016a462002626565b6000825160005b818110156200269f576020818601810151858301520162002683565b506000920191825250919050565b634e487b7160e01b600052601260045260246000fd5b818103818111156200078c576200078c62002626565b8082018281126000831280158216821582161715620026fc57620026fc62002626565b505092915050565b80820281158282048414176200078c576200078c62002626565b6000826200273c57634e487b7160e01b600052601260045260246000fd5b500490565b808201808211156200078c576200078c62002626565b6000602082840312156200276a57600080fd5b505191905056fe60c060405234801561001057600080fd5b506040516110b93803806110b983398101604081905261002f91610062565b6001600160a01b039182166080521660a052610095565b80516001600160a01b038116811461005d57600080fd5b919050565b6000806040838503121561007557600080fd5b61007e83610046565b915061008c60208401610046565b90509250929050565b60805160a051610fce6100eb6000396000818161019101528181610275015281816106960152818161071f015281816107df015281816109530152610a2c01526000818161039501526104870152610fce6000f3fe608060405234801561001057600080fd5b50600436106100ea5760003560e01c806370a082311161008c578063b77dfe0311610066578063b77dfe03146101ff578063dd62ed3e14610212578063de0e9a3e1461024b578063ea598cb01461025e57600080fd5b806370a08231146101bb57806395d89b41146101e4578063a9059cbb146101ec57600080fd5b80631ed575db116100c85780631ed575db1461014257806323b872dd14610157578063313ce5671461016a5780636f307dc31461018457600080fd5b806306fdde03146100ef578063095ea7b31461010d57806318160ddd14610130575b600080fd5b6100f7610271565b6040516101049190610ca2565b60405180910390f35b61012061011b366004610cf1565b61031d565b6040519015158152602001610104565b6002545b604051908152602001610104565b610155610150366004610cf1565b61038a565b005b610120610165366004610d1b565b610409565b610172610692565b60405160ff9091168152602001610104565b6040516001600160a01b037f0000000000000000000000000000000000000000000000000000000000000000168152602001610104565b6101346101c9366004610d57565b6001600160a01b031660009081526020819052604090205490565b6100f761071b565b6101206101fa366004610cf1565b6107b3565b61015561020d366004610d57565b6107c7565b610134610220366004610d72565b6001600160a01b03918216600090815260016020908152604080832093909416825291909152205490565b610155610259366004610da5565b610941565b61015561026c366004610da5565b61094e565b60607f00000000000000000000000000000000000000000000000000000000000000006001600160a01b03166306fdde036040518163ffffffff1660e01b8152600401600060405180830381865afa1580156102d1573d6000803e3d6000fd5b505050506040513d6000823e601f3d908101601f191682016040526102f99190810190610dd4565b6040516020016103099190610e81565b604051602081830303815290604052905090565b3360008181526001602090815260408083206001600160a01b038716808552925280832085905551919290917f8c5be1e5ebec7d5bd14f71427d1e84f3dd0314c0f7b2291e5b200ac8c7c3b925906103789086815260200190565b60405180910390a35060015b92915050565b336001600160a01b037f000000000000000000000000000000000000000000000000000000000000000016146103fb5760405162461bcd60e51b81526020600482015260116024820152701c195c9b5a5cdcda5bdb8819195b9a5959607a1b60448201526064015b60405180910390fd5b6104058282610983565b5050565b6001600160a01b0383166000908152602081905260408120548211156104685760405162461bcd60e51b8152602060048201526014602482015273696e73756666696369656e742062616c616e636560601b60448201526064016103f2565b6001600160a01b03841633148015906104aa5750336001600160a01b037f00000000000000000000000000000000000000000000000000000000000000001614155b80156104db57506001600160a01b038416600090815260016020908152604080832033845290915290205460001914155b156105df576001600160a01b038416600090815260016020908152604080832033845290915290205482111561054c5760405162461bcd60e51b8152602060048201526016602482015275696e73756666696369656e7420616c6c6f77616e636560501b60448201526064016103f2565b6001600160a01b03841660009081526001602090815260408083203384529091528120805484929061057f908490610ecf565b90915550506001600160a01b038416600081815260016020908152604080832033808552908352928190205490519081529192917f8c5be1e5ebec7d5bd14f71427d1e84f3dd0314c0f7b2291e5b200ac8c7c3b925910160405180910390a35b6001600160a01b03841660009081526020819052604081208054849290610607908490610ecf565b90915550506001600160a01b03831660009081526020819052604081208054849290610634908490610ee2565b92505081905550826001600160a01b0316846001600160a01b03167fddf252ad1be2c89b69c2b068fc378daa952ba7f163c4a11628f55a4df523b3ef8460405161068091815260200190565b60405180910390a35060019392505050565b60007f00000000000000000000000000000000000000000000000000000000000000006001600160a01b031663313ce5676040518163ffffffff1660e01b8152600401602060405180830381865afa1580156106f2573d6000803e3d6000fd5b505050506040513d601f19601f820116820180604052508101906107169190610ef5565b905090565b60607f00000000000000000000000000000000000000000000000000000000000000006001600160a01b03166395d89b416040518163ffffffff1660e01b8152600401600060405180830381865afa15801561077b573d6000803e3d6000fd5b505050506040513d6000823e601f3d908101601f191682016040526107a39190810190610dd4565b6040516020016103099190610f18565b60006107c0338484610409565b9392505050565b6040516370a0823160e01b81523060048201526000907f00000000000000000000000000000000000000000000000000000000000000006001600160a01b0316906370a0823190602401602060405180830381865afa15801561082e573d6000803e3d6000fd5b505050506040513d601f19601f820116820180604052508101906108529190610f41565b905060025481116108a55760405162461bcd60e51b815260206004820152601b60248201527f6e6f20737572706c75732062616c616e636520746f20636c61696d000000000060448201526064016103f2565b6000600254826108b59190610ecf565b905080600260008282546108c99190610ee2565b90915550506001600160a01b038316600090815260208190526040812080548392906108f6908490610ee2565b90915550506040518181526001600160a01b038416906000907fddf252ad1be2c89b69c2b068fc378daa952ba7f163c4a11628f55a4df523b3ef9060200160405180910390a3505050565b61094b3382610983565b50565b61097a7f0000000000000000000000000000000000000000000000000000000000000000333084610a97565b61094b336107c7565b6001600160a01b0382166000908152602081905260409020548111156109e25760405162461bcd60e51b8152602060048201526014602482015273696e73756666696369656e742062616c616e636560601b60448201526064016103f2565b80600260008282546109f49190610ecf565b90915550506001600160a01b03821660009081526020819052604081208054839290610a21908490610ecf565b90915550610a5290507f00000000000000000000000000000000000000000000000000000000000000008383610b8f565b6040518181526000906001600160a01b038416907fddf252ad1be2c89b69c2b068fc378daa952ba7f163c4a11628f55a4df523b3ef9060200160405180910390a35050565b604080516001600160a01b0385811660248301528481166044830152606480830185905283518084039091018152608490920183526020820180516001600160e01b03166323b872dd60e01b1790529151600092839290881691610afb9190610f5a565b6000604051808303816000865af19150503d8060008114610b38576040519150601f19603f3d011682016040523d82523d6000602084013e610b3d565b606091505b5091509150818015610b67575080511580610b67575080806020019051810190610b679190610f76565b8190610b865760405162461bcd60e51b81526004016103f29190610ca2565b50505050505050565b604080516001600160a01b038481166024830152604480830185905283518084039091018152606490920183526020820180516001600160e01b031663a9059cbb60e01b1790529151600092839290871691610beb9190610f5a565b6000604051808303816000865af19150503d8060008114610c28576040519150601f19603f3d011682016040523d82523d6000602084013e610c2d565b606091505b5091509150818015610c57575080511580610c57575080806020019051810190610c579190610f76565b8190610c765760405162461bcd60e51b81526004016103f29190610ca2565b505050505050565b60005b83811015610c99578181015183820152602001610c81565b50506000910152565b6020815260008251806020840152610cc1816040850160208701610c7e565b601f01601f19169190910160400192915050565b80356001600160a01b0381168114610cec57600080fd5b919050565b60008060408385031215610d0457600080fd5b610d0d83610cd5565b946020939093013593505050565b600080600060608486031215610d3057600080fd5b610d3984610cd5565b9250610d4760208501610cd5565b9150604084013590509250925092565b600060208284031215610d6957600080fd5b6107c082610cd5565b60008060408385031215610d8557600080fd5b610d8e83610cd5565b9150610d9c60208401610cd5565b90509250929050565b600060208284031215610db757600080fd5b5035919050565b634e487b7160e01b600052604160045260246000fd5b600060208284031215610de657600080fd5b815167ffffffffffffffff80821115610dfe57600080fd5b818401915084601f830112610e1257600080fd5b815181811115610e2457610e24610dbe565b604051601f8201601f19908116603f01168101908382118183101715610e4c57610e4c610dbe565b81604052828152876020848701011115610e6557600080fd5b610e76836020830160208801610c7e565b979650505050505050565b6f022bab632b910283937ba32b1ba32b2160851b815260008251610eac816010850160208701610c7e565b9190910160100192915050565b634e487b7160e01b600052601160045260246000fd5b8181038181111561038457610384610eb9565b8082018082111561038457610384610eb9565b600060208284031215610f0757600080fd5b815160ff811681146107c057600080fd5b600760fc1b815260008251610f34816001850160208701610c7e565b9190910160010192915050565b600060208284031215610f5357600080fd5b5051919050565b60008251610f6c818460208701610c7e565b9190910192915050565b600060208284031215610f8857600080fd5b815180151581146107c057600080fdfea26469706673582212207f02b5adab04f9083113f84c0a6b837313e455901ae378a32083bba23f5eff8564736f6c6343000817003360a060405234801561001057600080fd5b503360805260805161014a61002f60003960006013015261014a6000f3fe608060405234801561001057600080fd5b507f00000000000000000000000000000000000000000000000000000000000000006001600160a01b03811633036100d75760008081523681601f37805180156100785760018114610085576002811461009557600381146100a857600481146100be578182fd5b36600019016020a0508081f35b60205136602019016040a1508081f35b60405160205136604019016060a2508081f35b60605160405160205136606019016080a3508081f35b608051606051604051602051366080190160a0a4508081f35b633a7128eb60e21b6000523660006004373360601b366004015260008036601801600080855af13d6000803e80801561010f573d6000f35b3d6000fdfea2646970667358221220b447dc14656bbe6d3f87e327c5cf94ed446eedba65a7a6fc6e1a3ca21e187df364736f6c63430008170033a2646970667358221220f174cfd94ebbc120182a9c98a9704537badc35699f963b02da13071014f767d064736f6c63430008170033","linkReferences":{}},"methodIdentifiers":{"activateMarket(address)":"4e807177","activatePToken(address)":"0d771df7","dTokenToUnderlying(address)":"c3c96b2b","eTokenToDToken(address)":"6b5e3606","eTokenToUnderlying(address)":"b93982a0","enterMarket(uint256,address)":"73f0b437","exitMarket(uint256,address)":"c8a5fba3","getChainlinkPriceFeedConfig(address)":"b3312cf4","getEnteredMarkets(address)":"8ccb720b","getPricingConfig(address)":"546422d6","interestAccumulator(address)":"bcc343ae","interestRate(address)":"7c2c69c0","interestRateModel(address)":"b409dd9b","moduleGitCommit()":"69a92ea3","moduleId()":"a1308f27","reserveFee(address)":"b74b1ed5","underlyingToAssetConfig(address)":"4e9cfac2","underlyingToAssetConfigUnresolved(address)":"8f34bdbc","underlyingToDToken(address)":"1b300582","underlyingToEToken(address)":"89488749","underlyingToPToken(address)":"fd7948d4"},"id":24}