{"abi":[{"type":"constructor","inputs":[{"name":"uniSwapRouterV3_","type":"address","internalType":"address"}],"stateMutability":"nonpayable"},{"type":"function","name":"executeSwap","inputs":[{"name":"params","type":"tuple","internalType":"struct ISwapHandler.SwapParams","components":[{"name":"underlyingIn","type":"address","internalType":"address"},{"name":"underlyingOut","type":"address","internalType":"address"},{"name":"mode","type":"uint256","internalType":"uint256"},{"name":"amountIn","type":"uint256","internalType":"uint256"},{"name":"amountOut","type":"uint256","internalType":"uint256"},{"name":"exactOutTolerance","type":"uint256","internalType":"uint256"},{"name":"payload","type":"bytes","internalType":"bytes"}]}],"outputs":[],"stateMutability":"nonpayable"},{"type":"function","name":"uniSwapRouterV3","inputs":[],"outputs":[{"name":"","type":"address","internalType":"address"}],"stateMutability":"view"}],"bytecode":{"object":"0x60a060405234801561001057600080fd5b50604051610dae380380610dae83398101604081905261002f91610040565b6001600160a01b0316608052610070565b60006020828403121561005257600080fd5b81516001600160a01b038116811461006957600080fd5b9392505050565b608051610d016100ad6000396000818160400152818161010f01528181610316015281816104170152818161051501526105d50152610d016000f3fe608060405234801561001057600080fd5b50600436106100365760003560e01c80632181ac751461003b578063df5def351461007e575b600080fd5b6100627f000000000000000000000000000000000000000000000000000000000000000081565b6040516001600160a01b03909116815260200160405180910390f35b61009161008c3660046108f8565b610093565b005b6001816040013511156100f85760405162461bcd60e51b815260206004820152602260248201527f5377617048616e646c6572556e697377617056333a20696e76616c6964206d6f604482015261646560f01b60648201526084015b60405180910390fd5b6101336101086020830183610956565b82606001357f0000000000000000000000000000000000000000000000000000000000000000610283565b61014060c0820182610971565b90506040036101a85760008061015960c0840184610971565b81019061016691906109bf565b91509150826040013560000361018e5761018961018284610aad565b8383610314565b6101a1565b6101a161019a84610aad565b8383610415565b505061025f565b806040013560000361020c576102076101c082610aad565b6101cd60c0840184610971565b8080601f0160208091040260200160405190810160405280939291908181526020018383808284376000920191909152506104d392505050565b61025f565b61025f61021882610aad565b61022560c0840184610971565b8080601f01602080910402602001604051908101604052809392919081815260200183838082843760009201919091525061059192505050565b80604001356001036102805761028061027b6020830183610956565b610609565b50565b604051636eb1769f60e11b81523060048201526001600160a01b0382811660248301526000919085169063dd62ed3e90604401602060405180830381865afa1580156102d3573d6000803e3d6000fd5b505050506040513d601f19601f820116820180604052508101906102f79190610b3d565b90508281101561030e5761030e848360001961068b565b50505050565b7f00000000000000000000000000000000000000000000000000000000000000006001600160a01b031663414bf38960405180610100016040528086600001516001600160a01b0316815260200186602001516001600160a01b031681526020018462ffffff168152602001336001600160a01b031681526020014281526020018660600151815260200186608001518152602001856001600160a01b03168152506040518263ffffffff1660e01b81526004016103d29190610b56565b6020604051808303816000875af11580156103f1573d6000803e3d6000fd5b505050506040513d601f19601f8201168201806040525081019061030e9190610b3d565b7f00000000000000000000000000000000000000000000000000000000000000006001600160a01b031663db3e219860405180610100016040528086600001516001600160a01b0316815260200186602001516001600160a01b031681526020018462ffffff168152602001336001600160a01b031681526020014281526020018660800151815260200186606001518152602001856001600160a01b03168152506040518263ffffffff1660e01b81526004016103d29190610b56565b6040805160a08101825282815233602082015242818301526060848101519082015260808085015190820152905163c04b8d5960e01b81526001600160a01b037f0000000000000000000000000000000000000000000000000000000000000000169163c04b8d59916105499190600401610c67565b6020604051808303816000875af1158015610568573d6000803e3d6000fd5b505050506040513d601f19601f8201168201806040525081019061058c9190610b3d565b505050565b6040805160a0810182528281523360208201524281830152608080850151606080840191909152850151908201529051631e51809360e31b81526001600160a01b037f0000000000000000000000000000000000000000000000000000000000000000169163f28c0498916105499190600401610c67565b6040516370a0823160e01b81523060048201526000906001600160a01b038316906370a0823190602401602060405180830381865afa158015610650573d6000803e3d6000fd5b505050506040513d601f19601f820116820180604052508101906106749190610b3d565b90508015610687576106878233836106db565b5050565b6000806106998585856107ca565b91509150816106c6576106ae858560006107ca565b50915081156106c6576106c28585856107ca565b5091505b816106d4576106d4816108a1565b5050505050565b604080516001600160a01b038481166024830152604480830185905283518084039091018152606490920183526020820180516001600160e01b031663a9059cbb60e01b17905291516000928392908716916107379190610c7a565b6000604051808303816000865af19150503d8060008114610774576040519150601f19603f3d011682016040523d82523d6000602084013e610779565b606091505b50915091508180156107a35750805115806107a35750808060200190518101906107a39190610c96565b81906107c25760405162461bcd60e51b81526004016100ef9190610cb8565b505050505050565b604080516001600160a01b038481166024830152604480830185905283518084039091018152606490920183526020820180516001600160e01b031663095ea7b360e01b17905291516000926060928492839289169161082991610c7a565b6000604051808303816000865af19150503d8060008114610866576040519150601f19603f3d011682016040523d82523d6000602084013e61086b565b606091505b50915091508180156108955750805115806108955750808060200190518101906108959190610c96565b97909650945050505050565b8051156108b057805181602001fd5b60405162461bcd60e51b815260206004820152601c60248201527f5377617048616e646c6572426173653a20656d707479206572726f720000000060448201526064016100ef565b60006020828403121561090a57600080fd5b813567ffffffffffffffff81111561092157600080fd5b820160e0818503121561093357600080fd5b9392505050565b80356001600160a01b038116811461095157600080fd5b919050565b60006020828403121561096857600080fd5b6109338261093a565b6000808335601e1984360301811261098857600080fd5b83018035915067ffffffffffffffff8211156109a357600080fd5b6020019150368190038213156109b857600080fd5b9250929050565b600080604083850312156109d257600080fd5b50508035926020909101359150565b634e487b7160e01b600052604160045260246000fd5b60405160e0810167ffffffffffffffff81118282101715610a1a57610a1a6109e1565b60405290565b600082601f830112610a3157600080fd5b813567ffffffffffffffff80821115610a4c57610a4c6109e1565b604051601f8301601f19908116603f01168101908282118183101715610a7457610a746109e1565b81604052838152866020858801011115610a8d57600080fd5b836020870160208301376000602085830101528094505050505092915050565b600060e08236031215610abf57600080fd5b610ac76109f7565b610ad08361093a565b8152610ade6020840161093a565b602082015260408301356040820152606083013560608201526080830135608082015260a083013560a082015260c083013567ffffffffffffffff811115610b2557600080fd5b610b3136828601610a20565b60c08301525092915050565b600060208284031215610b4f57600080fd5b5051919050565b6101008101610bc0828480516001600160a01b03908116835260208083015182169084015260408083015162ffffff16908401526060808301518216908401526080808301519084015260a0828101519084015260c0808301519084015260e09182015116910152565b92915050565b60005b83811015610be1578181015183820152602001610bc9565b50506000910152565b60008151808452610c02816020860160208601610bc6565b601f01601f19169290920160200192915050565b6000815160a08452610c2b60a0850182610bea565b6020848101516001600160a01b031690860152604080850151908601526060808501519086015260809384015193909401929092525090919050565b6020815260006109336020830184610c16565b60008251610c8c818460208701610bc6565b9190910192915050565b600060208284031215610ca857600080fd5b8151801515811461093357600080fd5b6020815260006109336020830184610bea56fea2646970667358221220f49cf01d2cfd74bbb443772473384eecf777b0eb3f7a9e368f04ed8cfa72dcb864736f6c63430008170033","linkReferences":{}},"methodIdentifiers":{"executeSwap((address,address,uint256,uint256,uint256,uint256,bytes))":"df5def35","uniSwapRouterV3()":"2181ac75"},"id":47}