{"abi":[{"type":"constructor","inputs":[{"name":"admin","type":"address","internalType":"address"},{"name":"installerModule","type":"address","internalType":"address"}],"stateMutability":"nonpayable"},{"type":"function","name":"dispatch","inputs":[],"outputs":[],"stateMutability":"nonpayable"},{"type":"function","name":"moduleIdToImplementation","inputs":[{"name":"moduleId","type":"uint256","internalType":"uint256"}],"outputs":[{"name":"","type":"address","internalType":"address"}],"stateMutability":"view"},{"type":"function","name":"moduleIdToProxy","inputs":[{"name":"moduleId","type":"uint256","internalType":"uint256"}],"outputs":[{"name":"","type":"address","internalType":"address"}],"stateMutability":"view"},{"type":"function","name":"name","inputs":[],"outputs":[{"name":"","type":"string","internalType":"string"}],"stateMutability":"view"},{"type":"event","name":"AssetStatus","inputs":[{"name":"underlying","type":"address","indexed":true,"internalType":"address"},{"name":"totalBalances","type":"uint256","indexed":false,"internalType":"uint256"},{"name":"totalBorrows","type":"uint256","indexed":false,"internalType":"uint256"},{"name":"reserveBalance","type":"uint96","indexed":false,"internalType":"uint96"},{"name":"poolSize","type":"uint256","indexed":false,"internalType":"uint256"},{"name":"interestAccumulator","type":"uint256","indexed":false,"internalType":"uint256"},{"name":"interestRate","type":"int96","indexed":false,"internalType":"int96"},{"name":"timestamp","type":"uint256","indexed":false,"internalType":"uint256"}],"anonymous":false},{"type":"event","name":"Borrow","inputs":[{"name":"underlying","type":"address","indexed":true,"internalType":"address"},{"name":"account","type":"address","indexed":true,"internalType":"address"},{"name":"amount","type":"uint256","indexed":false,"internalType":"uint256"}],"anonymous":false},{"type":"event","name":"DelegateAverageLiquidity","inputs":[{"name":"account","type":"address","indexed":true,"internalType":"address"},{"name":"delegate","type":"address","indexed":true,"internalType":"address"}],"anonymous":false},{"type":"event","name":"Deposit","inputs":[{"name":"underlying","type":"address","indexed":true,"internalType":"address"},{"name":"account","type":"address","indexed":true,"internalType":"address"},{"name":"amount","type":"uint256","indexed":false,"internalType":"uint256"}],"anonymous":false},{"type":"event","name":"EnterMarket","inputs":[{"name":"underlying","type":"address","indexed":true,"internalType":"address"},{"name":"account","type":"address","indexed":true,"internalType":"address"}],"anonymous":false},{"type":"event","name":"ExitMarket","inputs":[{"name":"underlying","type":"address","indexed":true,"internalType":"address"},{"name":"account","type":"address","indexed":true,"internalType":"address"}],"anonymous":false},{"type":"event","name":"Genesis","inputs":[],"anonymous":false},{"type":"event","name":"GovConvertReserves","inputs":[{"name":"underlying","type":"address","indexed":true,"internalType":"address"},{"name":"recipient","type":"address","indexed":true,"internalType":"address"},{"name":"amount","type":"uint256","indexed":false,"internalType":"uint256"}],"anonymous":false},{"type":"event","name":"GovSetAssetConfig","inputs":[{"name":"underlying","type":"address","indexed":true,"internalType":"address"},{"name":"newConfig","type":"tuple","indexed":false,"internalType":"struct Storage.AssetConfig","components":[{"name":"eTokenAddress","type":"address","internalType":"address"},{"name":"borrowIsolated","type":"bool","internalType":"bool"},{"name":"collateralFactor","type":"uint32","internalType":"uint32"},{"name":"borrowFactor","type":"uint32","internalType":"uint32"},{"name":"twapWindow","type":"uint24","internalType":"uint24"}]}],"anonymous":false},{"type":"event","name":"GovSetChainlinkPriceFeed","inputs":[{"name":"underlying","type":"address","indexed":true,"internalType":"address"},{"name":"chainlinkAggregator","type":"address","indexed":false,"internalType":"address"}],"anonymous":false},{"type":"event","name":"GovSetIRM","inputs":[{"name":"underlying","type":"address","indexed":true,"internalType":"address"},{"name":"interestRateModel","type":"uint256","indexed":false,"internalType":"uint256"},{"name":"resetParams","type":"bytes","indexed":false,"internalType":"bytes"}],"anonymous":false},{"type":"event","name":"GovSetPricingConfig","inputs":[{"name":"underlying","type":"address","indexed":true,"internalType":"address"},{"name":"newPricingType","type":"uint16","indexed":false,"internalType":"uint16"},{"name":"newPricingParameter","type":"uint32","indexed":false,"internalType":"uint32"}],"anonymous":false},{"type":"event","name":"GovSetReserveFee","inputs":[{"name":"underlying","type":"address","indexed":true,"internalType":"address"},{"name":"newReserveFee","type":"uint32","indexed":false,"internalType":"uint32"}],"anonymous":false},{"type":"event","name":"InstallerInstallModule","inputs":[{"name":"moduleId","type":"uint256","indexed":true,"internalType":"uint256"},{"name":"moduleImpl","type":"address","indexed":true,"internalType":"address"},{"name":"moduleGitCommit","type":"bytes32","indexed":false,"internalType":"bytes32"}],"anonymous":false},{"type":"event","name":"InstallerSetGovernorAdmin","inputs":[{"name":"newGovernorAdmin","type":"address","indexed":true,"internalType":"address"}],"anonymous":false},{"type":"event","name":"InstallerSetUpgradeAdmin","inputs":[{"name":"newUpgradeAdmin","type":"address","indexed":true,"internalType":"address"}],"anonymous":false},{"type":"event","name":"Liquidation","inputs":[{"name":"liquidator","type":"address","indexed":true,"internalType":"address"},{"name":"violator","type":"address","indexed":true,"internalType":"address"},{"name":"underlying","type":"address","indexed":true,"internalType":"address"},{"name":"collateral","type":"address","indexed":false,"internalType":"address"},{"name":"repay","type":"uint256","indexed":false,"internalType":"uint256"},{"name":"yield","type":"uint256","indexed":false,"internalType":"uint256"},{"name":"healthScore","type":"uint256","indexed":false,"internalType":"uint256"},{"name":"baseDiscount","type":"uint256","indexed":false,"internalType":"uint256"},{"name":"discount","type":"uint256","indexed":false,"internalType":"uint256"}],"anonymous":false},{"type":"event","name":"MarketActivated","inputs":[{"name":"underlying","type":"address","indexed":true,"internalType":"address"},{"name":"eToken","type":"address","indexed":true,"internalType":"address"},{"name":"dToken","type":"address","indexed":true,"internalType":"address"}],"anonymous":false},{"type":"event","name":"PTokenActivated","inputs":[{"name":"underlying","type":"address","indexed":true,"internalType":"address"},{"name":"pToken","type":"address","indexed":true,"internalType":"address"}],"anonymous":false},{"type":"event","name":"PTokenUnWrap","inputs":[{"name":"underlying","type":"address","indexed":true,"internalType":"address"},{"name":"account","type":"address","indexed":true,"internalType":"address"},{"name":"amount","type":"uint256","indexed":false,"internalType":"uint256"}],"anonymous":false},{"type":"event","name":"PTokenWrap","inputs":[{"name":"underlying","type":"address","indexed":true,"internalType":"address"},{"name":"account","type":"address","indexed":true,"internalType":"address"},{"name":"amount","type":"uint256","indexed":false,"internalType":"uint256"}],"anonymous":false},{"type":"event","name":"ProxyCreated","inputs":[{"name":"proxy","type":"address","indexed":true,"internalType":"address"},{"name":"moduleId","type":"uint256","indexed":false,"internalType":"uint256"}],"anonymous":false},{"type":"event","name":"Repay","inputs":[{"name":"underlying","type":"address","indexed":true,"internalType":"address"},{"name":"account","type":"address","indexed":true,"internalType":"address"},{"name":"amount","type":"uint256","indexed":false,"internalType":"uint256"}],"anonymous":false},{"type":"event","name":"RequestBorrow","inputs":[{"name":"account","type":"address","indexed":true,"internalType":"address"},{"name":"amount","type":"uint256","indexed":false,"internalType":"uint256"}],"anonymous":false},{"type":"event","name":"RequestBurn","inputs":[{"name":"account","type":"address","indexed":true,"internalType":"address"},{"name":"amount","type":"uint256","indexed":false,"internalType":"uint256"}],"anonymous":false},{"type":"event","name":"RequestDeposit","inputs":[{"name":"account","type":"address","indexed":true,"internalType":"address"},{"name":"amount","type":"uint256","indexed":false,"internalType":"uint256"}],"anonymous":false},{"type":"event","name":"RequestDonate","inputs":[{"name":"account","type":"address","indexed":true,"internalType":"address"},{"name":"amount","type":"uint256","indexed":false,"internalType":"uint256"}],"anonymous":false},{"type":"event","name":"RequestLiquidate","inputs":[{"name":"liquidator","type":"address","indexed":true,"internalType":"address"},{"name":"violator","type":"address","indexed":true,"internalType":"address"},{"name":"underlying","type":"address","indexed":true,"internalType":"address"},{"name":"collateral","type":"address","indexed":false,"internalType":"address"},{"name":"repay","type":"uint256","indexed":false,"internalType":"uint256"},{"name":"minYield","type":"uint256","indexed":false,"internalType":"uint256"}],"anonymous":false},{"type":"event","name":"RequestMint","inputs":[{"name":"account","type":"address","indexed":true,"internalType":"address"},{"name":"amount","type":"uint256","indexed":false,"internalType":"uint256"}],"anonymous":false},{"type":"event","name":"RequestRepay","inputs":[{"name":"account","type":"address","indexed":true,"internalType":"address"},{"name":"amount","type":"uint256","indexed":false,"internalType":"uint256"}],"anonymous":false},{"type":"event","name":"RequestSwap","inputs":[{"name":"accountIn","type":"address","indexed":true,"internalType":"address"},{"name":"accountOut","type":"address","indexed":true,"internalType":"address"},{"name":"underlyingIn","type":"address","indexed":true,"internalType":"address"},{"name":"underlyingOut","type":"address","indexed":false,"internalType":"address"},{"name":"amount","type":"uint256","indexed":false,"internalType":"uint256"},{"name":"swapType","type":"uint256","indexed":false,"internalType":"uint256"}],"anonymous":false},{"type":"event","name":"RequestSwapHub","inputs":[{"name":"accountIn","type":"address","indexed":true,"internalType":"address"},{"name":"accountOut","type":"address","indexed":true,"internalType":"address"},{"name":"underlyingIn","type":"address","indexed":true,"internalType":"address"},{"name":"underlyingOut","type":"address","indexed":false,"internalType":"address"},{"name":"amountIn","type":"uint256","indexed":false,"internalType":"uint256"},{"name":"amountOut","type":"uint256","indexed":false,"internalType":"uint256"},{"name":"mode","type":"uint256","indexed":false,"internalType":"uint256"},{"name":"swapHandler","type":"address","indexed":false,"internalType":"address"}],"anonymous":false},{"type":"event","name":"RequestSwapHubRepay","inputs":[{"name":"accountIn","type":"address","indexed":true,"internalType":"address"},{"name":"accountOut","type":"address","indexed":true,"internalType":"address"},{"name":"underlyingIn","type":"address","indexed":true,"internalType":"address"},{"name":"underlyingOut","type":"address","indexed":false,"internalType":"address"},{"name":"targetDebt","type":"uint256","indexed":false,"internalType":"uint256"},{"name":"swapHandler","type":"address","indexed":false,"internalType":"address"}],"anonymous":false},{"type":"event","name":"RequestTransferDToken","inputs":[{"name":"from","type":"address","indexed":true,"internalType":"address"},{"name":"to","type":"address","indexed":true,"internalType":"address"},{"name":"amount","type":"uint256","indexed":false,"internalType":"uint256"}],"anonymous":false},{"type":"event","name":"RequestTransferEToken","inputs":[{"name":"from","type":"address","indexed":true,"internalType":"address"},{"name":"to","type":"address","indexed":true,"internalType":"address"},{"name":"amount","type":"uint256","indexed":false,"internalType":"uint256"}],"anonymous":false},{"type":"event","name":"RequestWithdraw","inputs":[{"name":"account","type":"address","indexed":true,"internalType":"address"},{"name":"amount","type":"uint256","indexed":false,"internalType":"uint256"}],"anonymous":false},{"type":"event","name":"TrackAverageLiquidity","inputs":[{"name":"account","type":"address","indexed":true,"internalType":"address"}],"anonymous":false},{"type":"event","name":"UnTrackAverageLiquidity","inputs":[{"name":"account","type":"address","indexed":true,"internalType":"address"}],"anonymous":false},{"type":"event","name":"Withdraw","inputs":[{"name":"underlying","type":"address","indexed":true,"internalType":"address"},{"name":"account","type":"address","indexed":true,"internalType":"address"},{"name":"amount","type":"uint256","indexed":false,"internalType":"uint256"}],"anonymous":false}],"bytecode":{"object":"0x608060405234801561001057600080fd5b5060405161079038038061079083398101604081905261002f91610310565b6040517f6bf6eaff5e9af8fbccb949f4c38cc016936f8775363ccf4224db160365785d5290600090a16001600081815581546001600160a01b038086166001600160a01b031992831681178555600280548416909117905583835260036020527fa15bc60c955c405d20d9149c709e2460f1c2d9a497496a7f46004d1772c3054c805491861691909216179055906100c690610107565b6001600160a01b03908116600090815260056020526040902080549190931664010000000002600160201b600160c01b031990911617909155506103439050565b60008160000361015e5760405162461bcd60e51b815260206004820152601d60248201527f652f6372656174652d70726f78792f696e76616c69642d6d6f64756c6500000060448201526064015b60405180910390fd5b620f423f8211156101b15760405162461bcd60e51b815260206004820152601e60248201527f652f6372656174652d70726f78792f696e7465726e616c2d6d6f64756c6500006044820152606401610155565b6000828152600460205260409020546001600160a01b0316156101ea57506000908152600460205260409020546001600160a01b031690565b60006040516101f8906102e7565b604051809103906000f080158015610214573d6000803e3d6000fd5b5090506207a11f831161024957600083815260046020526040902080546001600160a01b0319166001600160a01b0383161790555b60408051808201825263ffffffff8086168252600060208084018281526001600160a01b03878116808552600590935292869020945185549151909316640100000000026001600160c01b031990911692909316919091179190911790915590517f6c6ffd7df9a0cfaa14ee2cf752003968de6c340564276242aa48ca641b09bce4906102d99086815260200190565b60405180910390a292915050565b6101798061061783390190565b80516001600160a01b038116811461030b57600080fd5b919050565b6000806040838503121561032357600080fd5b61032c836102f4565b915061033a602084016102f4565b90509250929050565b6102c5806103526000396000f3fe608060405234801561001057600080fd5b506004361061004c5760003560e01c806306fdde0314610051578063734c938f14610094578063cab65f01146100d5578063e9c4a3ac146100fe575b600080fd5b61007e6040518060400160405280600e81526020016d115d5b195c88141c9bdd1bd8dbdb60921b81525081565b60405161008b9190610227565b60405180910390f35b6100bd6100a2366004610276565b6000908152600460205260409020546001600160a01b031690565b6040516001600160a01b03909116815260200161008b565b6100bd6100e3366004610276565b6000908152600360205260409020546001600160a01b031690565b610106610108565b005b3360009081526005602052604081205463ffffffff8116916401000000009091046001600160a01b03169082900361017e5760405162461bcd60e51b8152602060048201526014602482015273194bdcd95b99195c8b5b9bdd0b5d1c9d5cdd195960621b60448201526064015b60405180910390fd5b6001600160a01b0381166101ad575063ffffffff81166000908152600360205260409020546001600160a01b03165b36601c8110156101f35760405162461bcd60e51b8152602060048201526011602482015270194bda5b9c1d5d0b5d1bdbcb5cda1bdc9d607a1b6044820152606401610175565b600436038060046000373360601b8152600080601483016000865af490503d6000803e808015610222573d6000f35b3d6000fd5b60006020808352835180602085015260005b8181101561025557858101830151858201604001528201610239565b506000604082860101526040601f19601f8301168501019250505092915050565b60006020828403121561028857600080fd5b503591905056fea264697066735822122014a1f764c5cf2fc557840f0af10c8c287be80cdeaa7b5865ab9187af1809175264736f6c6343000817003360a060405234801561001057600080fd5b503360805260805161014a61002f60003960006013015261014a6000f3fe608060405234801561001057600080fd5b507f00000000000000000000000000000000000000000000000000000000000000006001600160a01b03811633036100d75760008081523681601f37805180156100785760018114610085576002811461009557600381146100a857600481146100be578182fd5b36600019016020a0508081f35b60205136602019016040a1508081f35b60405160205136604019016060a2508081f35b60605160405160205136606019016080a3508081f35b608051606051604051602051366080190160a0a4508081f35b633a7128eb60e21b6000523660006004373360601b366004015260008036601801600080855af13d6000803e80801561010f573d6000f35b3d6000fdfea2646970667358221220b447dc14656bbe6d3f87e327c5cf94ed446eedba65a7a6fc6e1a3ca21e187df364736f6c63430008170033","linkReferences":{}},"methodIdentifiers":{"dispatch()":"e9c4a3ac","moduleIdToImplementation(uint256)":"cab65f01","moduleIdToProxy(uint256)":"734c938f","name()":"06fdde03"},"id":6}