{"abi":[{"type":"constructor","inputs":[{"name":"eul_","type":"address","internalType":"address"}],"stateMutability":"nonpayable"},{"type":"function","name":"eul","inputs":[],"outputs":[{"name":"","type":"address","internalType":"address"}],"stateMutability":"view"},{"type":"function","name":"name","inputs":[],"outputs":[{"name":"","type":"string","internalType":"string"}],"stateMutability":"view"},{"type":"function","name":"stake","inputs":[{"name":"ops","type":"tuple[]","internalType":"struct EulStakes.StakeOp[]","components":[{"name":"underlying","type":"address","internalType":"address"},{"name":"amount","type":"int256","internalType":"int256"}]}],"outputs":[],"stateMutability":"nonpayable"},{"type":"function","name":"stakeGift","inputs":[{"name":"beneficiary","type":"address","internalType":"address"},{"name":"underlying","type":"address","internalType":"address"},{"name":"amount","type":"uint256","internalType":"uint256"}],"outputs":[],"stateMutability":"nonpayable"},{"type":"function","name":"stakePermit","inputs":[{"name":"ops","type":"tuple[]","internalType":"struct EulStakes.StakeOp[]","components":[{"name":"underlying","type":"address","internalType":"address"},{"name":"amount","type":"int256","internalType":"int256"}]},{"name":"value","type":"uint256","internalType":"uint256"},{"name":"deadline","type":"uint256","internalType":"uint256"},{"name":"v","type":"uint8","internalType":"uint8"},{"name":"r","type":"bytes32","internalType":"bytes32"},{"name":"s","type":"bytes32","internalType":"bytes32"}],"outputs":[],"stateMutability":"nonpayable"},{"type":"function","name":"staked","inputs":[{"name":"account","type":"address","internalType":"address"},{"name":"underlying","type":"address","internalType":"address"}],"outputs":[{"name":"","type":"uint256","internalType":"uint256"}],"stateMutability":"view"},{"type":"event","name":"Stake","inputs":[{"name":"who","type":"address","indexed":true,"internalType":"address"},{"name":"underlying","type":"address","indexed":true,"internalType":"address"},{"name":"sender","type":"address","indexed":false,"internalType":"address"},{"name":"newAmount","type":"uint256","indexed":false,"internalType":"uint256"}],"anonymous":false}],"bytecode":{"object":"0x60a060405234801561001057600080fd5b50604051610bb5380380610bb583398101604081905261002f91610040565b6001600160a01b0316608052610070565b60006020828403121561005257600080fd5b81516001600160a01b038116811461006957600080fd5b9392505050565b608051610b0e6100a76000396000818161010701528181610181015281816103bf015281816103f801526105240152610b0e6000f3fe608060405234801561001057600080fd5b50600436106100625760003560e01c806306fdde031461006757806327808a86146100a65780633bb6a829146100bb57806347a36445146100ce578063c6d3afc9146100e1578063d0bd906714610102575b600080fd5b6100906040518060400160405280600a81526020016945554c205374616b657360b01b81525081565b60405161009d919061077f565b60405180910390f35b6100b96100b43660046108e9565b610141565b005b6100b96100c9366004610964565b6101f6565b6100b96100dc3660046109a1565b610426565b6100f46100ef3660046109dd565b610551565b60405190815260200161009d565b6101297f000000000000000000000000000000000000000000000000000000000000000081565b6040516001600160a01b03909116815260200161009d565b60405163d505accf60e01b8152336004820152306024820152604481018690526064810185905260ff8416608482015260a4810183905260c481018290527f00000000000000000000000000000000000000000000000000000000000000006001600160a01b03169063d505accf9060e401600060405180830381600087803b1580156101cd57600080fd5b505af11580156101e1573d6000803e3d6000fd5b505050506101ee866101f6565b505050505050565b6000805b82518110156103b057600083828151811061021757610217610a10565b60200260200101519050806020015160000361023357506103a8565b6ec097ce7bc90715b34b9f0fffffffff19816020015113801561026857506ec097ce7bc90715b34b9f10000000008160200151125b6102af5760405162461bcd60e51b8152602060048201526013602482015272616d6f756e74206f7574206f662072616e676560681b60448201526064015b60405180910390fd5b602080820151336000908152808352604080822085516001600160a01b031683529093529182205482916102e291610a3c565b9050600081121561032b5760405162461bcd60e51b81526020600482015260136024820152721a5b9cdd59999a58da595b9d081cdd185ad959606a1b60448201526064016102a6565b3360008181526020818152604080832087516001600160a01b039081168552908352928190208590558651815185815292830186905294955093909116927fc5017594d2723c038bb216e5bcef3ac65910ade839c0e63253bf5b59efbf0fd7910160405180910390a360208201516103a39085610a3c565b935050505b6001016101fa565b5060008113156103ea576103e67f000000000000000000000000000000000000000000000000000000000000000033308461057c565b5050565b60008112156103e6576103e67f00000000000000000000000000000000000000000000000000000000000000003361042184610a64565b610674565b6ec097ce7bc90715b34b9f1000000000811061047a5760405162461bcd60e51b8152602060048201526013602482015272616d6f756e74206f7574206f662072616e676560681b60448201526064016102a6565b8060000361048757505050565b6001600160a01b038084166000908152602081815260408083209386168352929052908120546104b8908390610a80565b6001600160a01b03858116600081815260208181526040808320948916808452948252918290208590558151338152908101859052939450919290917fc5017594d2723c038bb216e5bcef3ac65910ade839c0e63253bf5b59efbf0fd7910160405180910390a361054b7f000000000000000000000000000000000000000000000000000000000000000033308561057c565b50505050565b6001600160a01b03808316600090815260208181526040808320938516835292905220545b92915050565b604080516001600160a01b0385811660248301528481166044830152606480830185905283518084039091018152608490920183526020820180516001600160e01b03166323b872dd60e01b17905291516000928392908816916105e09190610a93565b6000604051808303816000865af19150503d806000811461061d576040519150601f19603f3d011682016040523d82523d6000602084013e610622565b606091505b509150915081801561064c57508051158061064c57508080602001905181019061064c9190610aaf565b819061066b5760405162461bcd60e51b81526004016102a6919061077f565b50505050505050565b604080516001600160a01b038481166024830152604480830185905283518084039091018152606490920183526020820180516001600160e01b031663a9059cbb60e01b17905291516000928392908716916106d09190610a93565b6000604051808303816000865af19150503d806000811461070d576040519150601f19603f3d011682016040523d82523d6000602084013e610712565b606091505b509150915081801561073c57508051158061073c57508080602001905181019061073c9190610aaf565b81906101ee5760405162461bcd60e51b81526004016102a6919061077f565b60005b8381101561077657818101518382015260200161075e565b50506000910152565b602081526000825180602084015261079e81604085016020870161075b565b601f01601f19169190910160400192915050565b634e487b7160e01b600052604160045260246000fd5b6040805190810167ffffffffffffffff811182821017156107eb576107eb6107b2565b60405290565b604051601f8201601f1916810167ffffffffffffffff8111828210171561081a5761081a6107b2565b604052919050565b80356001600160a01b038116811461083957600080fd5b919050565b600082601f83011261084f57600080fd5b8135602067ffffffffffffffff82111561086b5761086b6107b2565b610879818360051b016107f1565b82815260069290921b8401810191818101908684111561089857600080fd5b8286015b848110156108de57604081890312156108b55760008081fd5b6108bd6107c8565b6108c682610822565b8152818501358582015283529183019160400161089c565b509695505050505050565b60008060008060008060c0878903121561090257600080fd5b863567ffffffffffffffff81111561091957600080fd5b61092589828a0161083e565b9650506020870135945060408701359350606087013560ff8116811461094a57600080fd5b9598949750929560808101359460a0909101359350915050565b60006020828403121561097657600080fd5b813567ffffffffffffffff81111561098d57600080fd5b6109998482850161083e565b949350505050565b6000806000606084860312156109b657600080fd5b6109bf84610822565b92506109cd60208501610822565b9150604084013590509250925092565b600080604083850312156109f057600080fd5b6109f983610822565b9150610a0760208401610822565b90509250929050565b634e487b7160e01b600052603260045260246000fd5b634e487b7160e01b600052601160045260246000fd5b8082018281126000831280158216821582161715610a5c57610a5c610a26565b505092915050565b6000600160ff1b8201610a7957610a79610a26565b5060000390565b8082018082111561057657610576610a26565b60008251610aa581846020870161075b565b9190910192915050565b600060208284031215610ac157600080fd5b81518015158114610ad157600080fd5b939250505056fea2646970667358221220b7224f38ee3342982027081154efb4cbede2facc0792262389a3069109b139c564736f6c63430008170033","linkReferences":{}},"methodIdentifiers":{"eul()":"d0bd9067","name()":"06fdde03","stake((address,int256)[])":"3bb6a829","stakeGift(address,address,uint256)":"47a36445","stakePermit((address,int256)[],uint256,uint256,uint8,bytes32,bytes32)":"27808a86","staked(address,address)":"c6d3afc9"},"id":17}