{"abi":[{"type":"constructor","inputs":[{"name":"moduleGitCommit_","type":"bytes32","internalType":"bytes32"}],"stateMutability":"nonpayable"},{"type":"function","name":"moduleGitCommit","inputs":[],"outputs":[{"name":"","type":"bytes32","internalType":"bytes32"}],"stateMutability":"view"},{"type":"function","name":"moduleId","inputs":[],"outputs":[{"name":"","type":"uint256","internalType":"uint256"}],"stateMutability":"view"},{"type":"function","name":"swap","inputs":[{"name":"subAccountIdIn","type":"uint256","internalType":"uint256"},{"name":"subAccountIdOut","type":"uint256","internalType":"uint256"},{"name":"swapHandler","type":"address","internalType":"address"},{"name":"params","type":"tuple","internalType":"struct ISwapHandler.SwapParams","components":[{"name":"underlyingIn","type":"address","internalType":"address"},{"name":"underlyingOut","type":"address","internalType":"address"},{"name":"mode","type":"uint256","internalType":"uint256"},{"name":"amountIn","type":"uint256","internalType":"uint256"},{"name":"amountOut","type":"uint256","internalType":"uint256"},{"name":"exactOutTolerance","type":"uint256","internalType":"uint256"},{"name":"payload","type":"bytes","internalType":"bytes"}]}],"outputs":[],"stateMutability":"nonpayable"},{"type":"function","name":"swapAndRepay","inputs":[{"name":"subAccountIdIn","type":"uint256","internalType":"uint256"},{"name":"subAccountIdOut","type":"uint256","internalType":"uint256"},{"name":"swapHandler","type":"address","internalType":"address"},{"name":"params","type":"tuple","internalType":"struct ISwapHandler.SwapParams","components":[{"name":"underlyingIn","type":"address","internalType":"address"},{"name":"underlyingOut","type":"address","internalType":"address"},{"name":"mode","type":"uint256","internalType":"uint256"},{"name":"amountIn","type":"uint256","internalType":"uint256"},{"name":"amountOut","type":"uint256","internalType":"uint256"},{"name":"exactOutTolerance","type":"uint256","internalType":"uint256"},{"name":"payload","type":"bytes","internalType":"bytes"}]},{"name":"targetDebt","type":"uint256","internalType":"uint256"}],"outputs":[],"stateMutability":"nonpayable"},{"type":"event","name":"AssetStatus","inputs":[{"name":"underlying","type":"address","indexed":true,"internalType":"address"},{"name":"totalBalances","type":"uint256","indexed":false,"internalType":"uint256"},{"name":"totalBorrows","type":"uint256","indexed":false,"internalType":"uint256"},{"name":"reserveBalance","type":"uint96","indexed":false,"internalType":"uint96"},{"name":"poolSize","type":"uint256","indexed":false,"internalType":"uint256"},{"name":"interestAccumulator","type":"uint256","indexed":false,"internalType":"uint256"},{"name":"interestRate","type":"int96","indexed":false,"internalType":"int96"},{"name":"timestamp","type":"uint256","indexed":false,"internalType":"uint256"}],"anonymous":false},{"type":"event","name":"Borrow","inputs":[{"name":"underlying","type":"address","indexed":true,"internalType":"address"},{"name":"account","type":"address","indexed":true,"internalType":"address"},{"name":"amount","type":"uint256","indexed":false,"internalType":"uint256"}],"anonymous":false},{"type":"event","name":"DelegateAverageLiquidity","inputs":[{"name":"account","type":"address","indexed":true,"internalType":"address"},{"name":"delegate","type":"address","indexed":true,"internalType":"address"}],"anonymous":false},{"type":"event","name":"Deposit","inputs":[{"name":"underlying","type":"address","indexed":true,"internalType":"address"},{"name":"account","type":"address","indexed":true,"internalType":"address"},{"name":"amount","type":"uint256","indexed":false,"internalType":"uint256"}],"anonymous":false},{"type":"event","name":"EnterMarket","inputs":[{"name":"underlying","type":"address","indexed":true,"internalType":"address"},{"name":"account","type":"address","indexed":true,"internalType":"address"}],"anonymous":false},{"type":"event","name":"ExitMarket","inputs":[{"name":"underlying","type":"address","indexed":true,"internalType":"address"},{"name":"account","type":"address","indexed":true,"internalType":"address"}],"anonymous":false},{"type":"event","name":"Genesis","inputs":[],"anonymous":false},{"type":"event","name":"GovConvertReserves","inputs":[{"name":"underlying","type":"address","indexed":true,"internalType":"address"},{"name":"recipient","type":"address","indexed":true,"internalType":"address"},{"name":"amount","type":"uint256","indexed":false,"internalType":"uint256"}],"anonymous":false},{"type":"event","name":"GovSetAssetConfig","inputs":[{"name":"underlying","type":"address","indexed":true,"internalType":"address"},{"name":"newConfig","type":"tuple","indexed":false,"internalType":"struct Storage.AssetConfig","components":[{"name":"eTokenAddress","type":"address","internalType":"address"},{"name":"borrowIsolated","type":"bool","internalType":"bool"},{"name":"collateralFactor","type":"uint32","internalType":"uint32"},{"name":"borrowFactor","type":"uint32","internalType":"uint32"},{"name":"twapWindow","type":"uint24","internalType":"uint24"}]}],"anonymous":false},{"type":"event","name":"GovSetChainlinkPriceFeed","inputs":[{"name":"underlying","type":"address","indexed":true,"internalType":"address"},{"name":"chainlinkAggregator","type":"address","indexed":false,"internalType":"address"}],"anonymous":false},{"type":"event","name":"GovSetIRM","inputs":[{"name":"underlying","type":"address","indexed":true,"internalType":"address"},{"name":"interestRateModel","type":"uint256","indexed":false,"internalType":"uint256"},{"name":"resetParams","type":"bytes","indexed":false,"internalType":"bytes"}],"anonymous":false},{"type":"event","name":"GovSetPricingConfig","inputs":[{"name":"underlying","type":"address","indexed":true,"internalType":"address"},{"name":"newPricingType","type":"uint16","indexed":false,"internalType":"uint16"},{"name":"newPricingParameter","type":"uint32","indexed":false,"internalType":"uint32"}],"anonymous":false},{"type":"event","name":"GovSetReserveFee","inputs":[{"name":"underlying","type":"address","indexed":true,"internalType":"address"},{"name":"newReserveFee","type":"uint32","indexed":false,"internalType":"uint32"}],"anonymous":false},{"type":"event","name":"InstallerInstallModule","inputs":[{"name":"moduleId","type":"uint256","indexed":true,"internalType":"uint256"},{"name":"moduleImpl","type":"address","indexed":true,"internalType":"address"},{"name":"moduleGitCommit","type":"bytes32","indexed":false,"internalType":"bytes32"}],"anonymous":false},{"type":"event","name":"InstallerSetGovernorAdmin","inputs":[{"name":"newGovernorAdmin","type":"address","indexed":true,"internalType":"address"}],"anonymous":false},{"type":"event","name":"InstallerSetUpgradeAdmin","inputs":[{"name":"newUpgradeAdmin","type":"address","indexed":true,"internalType":"address"}],"anonymous":false},{"type":"event","name":"Liquidation","inputs":[{"name":"liquidator","type":"address","indexed":true,"internalType":"address"},{"name":"violator","type":"address","indexed":true,"internalType":"address"},{"name":"underlying","type":"address","indexed":true,"internalType":"address"},{"name":"collateral","type":"address","indexed":false,"internalType":"address"},{"name":"repay","type":"uint256","indexed":false,"internalType":"uint256"},{"name":"yield","type":"uint256","indexed":false,"internalType":"uint256"},{"name":"healthScore","type":"uint256","indexed":false,"internalType":"uint256"},{"name":"baseDiscount","type":"uint256","indexed":false,"internalType":"uint256"},{"name":"discount","type":"uint256","indexed":false,"internalType":"uint256"}],"anonymous":false},{"type":"event","name":"MarketActivated","inputs":[{"name":"underlying","type":"address","indexed":true,"internalType":"address"},{"name":"eToken","type":"address","indexed":true,"internalType":"address"},{"name":"dToken","type":"address","indexed":true,"internalType":"address"}],"anonymous":false},{"type":"event","name":"PTokenActivated","inputs":[{"name":"underlying","type":"address","indexed":true,"internalType":"address"},{"name":"pToken","type":"address","indexed":true,"internalType":"address"}],"anonymous":false},{"type":"event","name":"PTokenUnWrap","inputs":[{"name":"underlying","type":"address","indexed":true,"internalType":"address"},{"name":"account","type":"address","indexed":true,"internalType":"address"},{"name":"amount","type":"uint256","indexed":false,"internalType":"uint256"}],"anonymous":false},{"type":"event","name":"PTokenWrap","inputs":[{"name":"underlying","type":"address","indexed":true,"internalType":"address"},{"name":"account","type":"address","indexed":true,"internalType":"address"},{"name":"amount","type":"uint256","indexed":false,"internalType":"uint256"}],"anonymous":false},{"type":"event","name":"ProxyCreated","inputs":[{"name":"proxy","type":"address","indexed":true,"internalType":"address"},{"name":"moduleId","type":"uint256","indexed":false,"internalType":"uint256"}],"anonymous":false},{"type":"event","name":"Repay","inputs":[{"name":"underlying","type":"address","indexed":true,"internalType":"address"},{"name":"account","type":"address","indexed":true,"internalType":"address"},{"name":"amount","type":"uint256","indexed":false,"internalType":"uint256"}],"anonymous":false},{"type":"event","name":"RequestBorrow","inputs":[{"name":"account","type":"address","indexed":true,"internalType":"address"},{"name":"amount","type":"uint256","indexed":false,"internalType":"uint256"}],"anonymous":false},{"type":"event","name":"RequestBurn","inputs":[{"name":"account","type":"address","indexed":true,"internalType":"address"},{"name":"amount","type":"uint256","indexed":false,"internalType":"uint256"}],"anonymous":false},{"type":"event","name":"RequestDeposit","inputs":[{"name":"account","type":"address","indexed":true,"internalType":"address"},{"name":"amount","type":"uint256","indexed":false,"internalType":"uint256"}],"anonymous":false},{"type":"event","name":"RequestDonate","inputs":[{"name":"account","type":"address","indexed":true,"internalType":"address"},{"name":"amount","type":"uint256","indexed":false,"internalType":"uint256"}],"anonymous":false},{"type":"event","name":"RequestLiquidate","inputs":[{"name":"liquidator","type":"address","indexed":true,"internalType":"address"},{"name":"violator","type":"address","indexed":true,"internalType":"address"},{"name":"underlying","type":"address","indexed":true,"internalType":"address"},{"name":"collateral","type":"address","indexed":false,"internalType":"address"},{"name":"repay","type":"uint256","indexed":false,"internalType":"uint256"},{"name":"minYield","type":"uint256","indexed":false,"internalType":"uint256"}],"anonymous":false},{"type":"event","name":"RequestMint","inputs":[{"name":"account","type":"address","indexed":true,"internalType":"address"},{"name":"amount","type":"uint256","indexed":false,"internalType":"uint256"}],"anonymous":false},{"type":"event","name":"RequestRepay","inputs":[{"name":"account","type":"address","indexed":true,"internalType":"address"},{"name":"amount","type":"uint256","indexed":false,"internalType":"uint256"}],"anonymous":false},{"type":"event","name":"RequestSwap","inputs":[{"name":"accountIn","type":"address","indexed":true,"internalType":"address"},{"name":"accountOut","type":"address","indexed":true,"internalType":"address"},{"name":"underlyingIn","type":"address","indexed":true,"internalType":"address"},{"name":"underlyingOut","type":"address","indexed":false,"internalType":"address"},{"name":"amount","type":"uint256","indexed":false,"internalType":"uint256"},{"name":"swapType","type":"uint256","indexed":false,"internalType":"uint256"}],"anonymous":false},{"type":"event","name":"RequestSwapHub","inputs":[{"name":"accountIn","type":"address","indexed":true,"internalType":"address"},{"name":"accountOut","type":"address","indexed":true,"internalType":"address"},{"name":"underlyingIn","type":"address","indexed":true,"internalType":"address"},{"name":"underlyingOut","type":"address","indexed":false,"internalType":"address"},{"name":"amountIn","type":"uint256","indexed":false,"internalType":"uint256"},{"name":"amountOut","type":"uint256","indexed":false,"internalType":"uint256"},{"name":"mode","type":"uint256","indexed":false,"internalType":"uint256"},{"name":"swapHandler","type":"address","indexed":false,"internalType":"address"}],"anonymous":false},{"type":"event","name":"RequestSwapHubRepay","inputs":[{"name":"accountIn","type":"address","indexed":true,"internalType":"address"},{"name":"accountOut","type":"address","indexed":true,"internalType":"address"},{"name":"underlyingIn","type":"address","indexed":true,"internalType":"address"},{"name":"underlyingOut","type":"address","indexed":false,"internalType":"address"},{"name":"targetDebt","type":"uint256","indexed":false,"internalType":"uint256"},{"name":"swapHandler","type":"address","indexed":false,"internalType":"address"}],"anonymous":false},{"type":"event","name":"RequestTransferDToken","inputs":[{"name":"from","type":"address","indexed":true,"internalType":"address"},{"name":"to","type":"address","indexed":true,"internalType":"address"},{"name":"amount","type":"uint256","indexed":false,"internalType":"uint256"}],"anonymous":false},{"type":"event","name":"RequestTransferEToken","inputs":[{"name":"from","type":"address","indexed":true,"internalType":"address"},{"name":"to","type":"address","indexed":true,"internalType":"address"},{"name":"amount","type":"uint256","indexed":false,"internalType":"uint256"}],"anonymous":false},{"type":"event","name":"RequestWithdraw","inputs":[{"name":"account","type":"address","indexed":true,"internalType":"address"},{"name":"amount","type":"uint256","indexed":false,"internalType":"uint256"}],"anonymous":false},{"type":"event","name":"TrackAverageLiquidity","inputs":[{"name":"account","type":"address","indexed":true,"internalType":"address"}],"anonymous":false},{"type":"event","name":"UnTrackAverageLiquidity","inputs":[{"name":"account","type":"address","indexed":true,"internalType":"address"}],"anonymous":false},{"type":"event","name":"Withdraw","inputs":[{"name":"underlying","type":"address","indexed":true,"internalType":"address"},{"name":"account","type":"address","indexed":true,"internalType":"address"},{"name":"amount","type":"uint256","indexed":false,"internalType":"uint256"}],"anonymous":false}],"bytecode":{"object":"0x60c060405234801561001057600080fd5b50604051620027ba380380620027ba8339810160408190526100319161003e565b600760805260a052610057565b60006020828403121561005057600080fd5b5051919050565b60805160a05161273f6200007b6000396000606b0152600060a4015261273f6000f3fe608060405234801561001057600080fd5b506004361061004c5760003560e01c806325cad4271461005157806369a92ea314610066578063a1308f271461009f578063b0257235146100c6575b600080fd5b61006461005f3660046123b7565b6100d9565b005b61008d7f000000000000000000000000000000000000000000000000000000000000000081565b60405190815260200160405180910390f35b61008d7f000000000000000000000000000000000000000000000000000000000000000081565b6100646100d4366004612418565b6102d5565b60016000541461011f5760405162461bcd60e51b815260206004820152600c60248201526b652f7265656e7472616e637960a01b60448201526064015b60405180910390fd5b600260009081556101318585846104f4565b82516020808301518351828701516060808901516080808b01516040808d015181516001600160a01b039788168152998a01949094528801529186015289821690850152949550928416939081169216907fe7972141601bb6bca7fe9d93661a68d2abd789ce10091411643aea0bbc51e1eb9060a00160405180910390a460006101bc828585610769565b905060006101ce8360a0015183610aa7565b905060006101e08460a0015183610aff565b90506101ff8460a00151848660e001516101fa9190612497565b610aa7565b60a08501805161018001919091526060850180516001600160a01b031660009081526009602090815260409091209251915190870151610243928492909186610b34565b6102508560a00151610c3c565b845161025b90610cf7565b84602001516001600160a01b031685600001516001600160a01b0316141580156102b357506020858101516001600160a01b03166000908152600583019091526040902054600160701b90046001600160901b031615155b156102c5576102c58560200151610cf7565b5050600160005550505050505050565b6001600054146103165760405162461bcd60e51b815260206004820152600c60248201526b652f7265656e7472616e637960a01b6044820152606401610116565b600260009081556103288686856104f4565b8351602080830151835182880151604080516001600160a01b0392831681529485018990528a821690850152949550928416939081169216907fd1dd5ee8e3827340c2d9eafeabee63ff7da58fb5b31ba8564c9709d3538f54489060600160405180910390a482604001516001146103da5760405162461bcd60e51b8152602060048201526015602482015274652f737761702d6875622f72657061792d6d6f646560581b6044820152606401610116565b60608101516001600160a01b03166000908152600960209081526040822060a08401516101a08101519285015191939291610416918591610db0565b61042091906124c0565b905083811161046a5760405162461bcd60e51b8152602060048201526016602482015275194bdcddd85c0b5a1d588bdd185c99d95d0b5919589d60521b6044820152606401610116565b61047484826124e2565b60808601526000610486848888610769565b90506104a08460a00151828660e001516101fa9190612497565b60a085018051610180019190915251600284015460208601516104dc92869290916001600160a01b03909116906104d78387610aa7565b610e0d565b6104e98460a00151610c3c565b83516102c590610cf7565b6104fc61216f565b81602001516001600160a01b031682600001516001600160a01b0316036105575760405162461bcd60e51b815260206004820152600f60248201526e652f737761702d6875622f73616d6560881b6044820152606401610116565b60271936013560601c61056a8186610f64565b6001600160a01b0316825261057f8185610f64565b6001600160a01b03166020830152815161059890610fbc565b81602001516001600160a01b031682600001516001600160a01b0316146105c6576105c68260200151610fbc565b82516001600160a01b0390811660009081526008602081815260408084205485168782019081528289015186168552929091529091205482166060850152511661065d5760405162461bcd60e51b815260206004820152602260248201527f652f737761702d6875622f696e2d6d61726b65742d6e6f742d61637469766174604482015261195960f21b6064820152608401610116565b60608201516001600160a01b03166106c35760405162461bcd60e51b815260206004820152602360248201527f652f737761702d6875622f6f75742d6d61726b65742d6e6f742d6163746976616044820152621d195960ea1b6064820152608401610116565b6040808301516001600160a01b0390811660009081526009602052828120606086015190921681529190912084516106fb9083611068565b6080850152602085015161070f9082611068565b60a085015260808401516101a08101516101809091015181610733576107336124aa565b0460c085015260a08401516101a08101516101809091015181610758576107586124aa565b0460e0850152509195945050505050565b60008060006107ae6009600088604001516001600160a01b03166001600160a01b031681526020019081526020016000208760800151886000015187606001516110fe565b91509150818660800151610180015110156108155760405162461bcd60e51b815260206004820152602160248201527f652f737761702d6875622f696e73756666696369656e742d706f6f6c2d73697a6044820152606560f81b6064820152608401610116565b60808601516101a0015161082990836124c0565b60608501819052845161083d918790611168565b60405163df5def3560e01b81526001600160a01b0386169063df5def3590610869908790600401612545565b600060405180830381600087803b15801561088357600080fd5b505af1158015610897573d6000803e3d6000fd5b5050505060006108ab876080015130611257565b905060006108bd8860a0015130611257565b9050600086604001516000036108d85750608086015161093c565b8660a0015187608001511161092f5760405162461bcd60e51b815260206004820152601e60248201527f652f737761702d6875622f65786163742d6f75742d746f6c6572616e636500006044820152606401610116565b5060a08601516080870151035b808960e0015161094c9190612497565b82101561099b5760405162461bcd60e51b815260206004820152601e60248201527f652f737761702d6875622f696e73756666696369656e742d6f757470757400006044820152606401610116565b828960c0015110156109ef5760405162461bcd60e51b815260206004820152601960248201527f652f737761702d6875622f706f7369746976652d696e707574000000000000006044820152606401610116565b60c089015160e08a0151604089015191859003919084039060011480610a19575088606001518214155b15610a3f57610a2c8b6080015183610aa7565b9650610a3c8b608001518861133a565b95505b610a4d8b6080015186610aa7565b60808c01805161018001919091526040808d0180516001600160a01b03166000908152600960205291909120915190518d51610a8c939291908a611370565b610a998b60800151610c3c565b9a9950505050505050505050565b6000826101c00151821115610af35760405162461bcd60e51b8152602060048201526012602482015271652f616d6f756e742d746f6f2d6c6172676560701b6044820152606401610116565b506101a0909101510290565b600080610b0b846114b3565b905080610b2084670de0b6b3a76400006125a9565b610b2a91906124c0565b9150505b92915050565b6001600160a01b0382166000908152600586016020526040902054610b6c90610b679083906001600160701b0316612497565b611543565b6001600160a01b0383166000908152600587016020908152604090912080546001600160701b0319166001600160701b03938416179055850151610bb691610b6791849116612497565b6001600160701b0316602085018190526003860180546001600160701b0319169091179055610be585856115a0565b83516040518281526001600160a01b038085169216907f5548c837ab068cf56a2c2479df0882a4922fd203edb7517321831d95078c5f629060200160405180910390a3610c3583600084846116bf565b5050505050565b80600001516001600160a01b03167f2f2d732e1a7a15fe7a2e51d3482efe83ff791579cebc5e3cd12cd2064374bc7f8260200151633b9aca0084604001516001600160901b0316610c8d91906124c0565b6060808601516101808701516080808901516101008a0151604080516001600160701b03909916895260208901979097526001600160601b03909416958701959095529285015290830191909152600b0b60a08201524260c082015260e00160405180910390a250565b6001600160a01b03811660009081526006602052604090205460ff1680610d7c576040516001600160a01b0383166024820152610d7790620f4240906361cdaa1d60e11b906044015b60408051601f198184030181529190526020810180516001600160e01b03166001600160e01b0319909316929092179091526117df565b505050565b60001960ff821601610dac576001600160a01b0382166000908152600660205260409020805460ff191660021790555b5050565b6001600160a01b0381166000908152600584016020526040812054633b9aca0090610dfb908590610df690889083908890600160701b90046001600160901b0316611861565b6118b3565b610e0591906124c0565b949350505050565b6000610e1d633b9aca00836125a9565b9050600080610e2d8888876118f1565b915091506000610e3d88846118b3565b905080841115610e825760405162461bcd60e51b815260206004820152601060248201526f0ca5ee4cae0c2f25ae8dede5adaeac6d60831b6044820152606401610116565b6040880151848203906001600160901b0316841115610eac5788604001516001600160901b031693505b610eb581611984565b6001600160a01b038816600090815260058c0160205260409081902080546001600160701b0316600160701b6001600160901b03948516021790558a0151610f14918391610f05918891166124e2565b610f0f9190612497565b611984565b6001600160901b031660408a0181905260038b0180546001600160701b0316600160701b909202919091179055610f4b8a8a6115a0565b610f5889898986856119e7565b50505050505050505050565b60006101008210610fb75760405162461bcd60e51b815260206004820152601860248201527f652f7375622d6163636f756e742d69642d746f6f2d62696700000000000000006044820152606401610116565b501890565b6001600160a01b038116600090815260066020526040812054610100900464ffffffffff1690819003610fed575050565b6000610ff982426124e2565b90508060000361100857505050565b6001600160a01b0383166000908152600660205260409020805465ffffffffff0019166101004264ffffffffff16021790556110448382611b26565b6001600160a01b039093166000908152600660205260409020600101929092555050565b6110706121c1565b61107b838383611be4565b15610b2e5760a0810151825464ffffffffff90911664ffffffffff19909116178255805160608201516001600160601b0316600160a01b026001600160a01b03909116176001830155602081015160408201516001600160901b0316600160701b026001600160701b039091161760038301556080810151600483015592915050565b6000806000600019840361114257506001600160a01b03841660009081526005870160205260409020546001600160701b031661113b8682611f87565b935061115b565b61114c8685610aa7565b9350611158868561133a565b90505b9296929550919350505050565b604080516001600160a01b038481166024830152604480830185905283518084039091018152606490920183526020820180516001600160e01b031663a9059cbb60e01b17905291516000928392908716916111c491906125c0565b6000604051808303816000865af19150503d8060008114611201576040519150601f19603f3d011682016040523d82523d6000602084013e611206565b606091505b509150915081801561123057508051158061123057508080602001905181019061123091906125ec565b819061124f5760405162461bcd60e51b81526004016101169190612607565b505050505050565b6040805183516001600160a01b03848116602480850191909152845180850390910181526044840185526020810180516001600160e01b03166370a0823160e01b179052935160009485938493169162030d40916112b4916125c0565b6000604051808303818686fa925050503d80600081146112f0576040519150601f19603f3d011682016040523d82523d6000602084013e6112f5565b606091505b5091509150811580611308575060208151105b1561131857600093505050611331565b8080602001905181019061132c919061261a565b935050505b60405292915050565b600080611346846114b3565b9050806113546001826124e2565b61136685670de0b6b3a76400006125a9565b610b209190612497565b6001600160a01b03821660009081526005860160205260409020546001600160701b0316818110156113dd5760405162461bcd60e51b8152602060048201526016602482015275652f696e73756666696369656e742d62616c616e636560501b6044820152606401610116565b6113ea610b6783836124e2565b6001600160a01b0384166000908152600588016020908152604090912080546001600160701b0319166001600160701b0393841617905586015161143491610b67918591166124e2565b6001600160701b0316602086018190526003870180546001600160701b031916909117905561146386866115a0565b84516040518381526001600160a01b038086169216907f9b1bfa7fa9ee420a16e124f794c35ac9f90472acc99140eb2f6447c714cad8eb9060200160405180910390a361124f84846000856116bf565b600080633b9aca0083604001516001600160901b03166114d391906124c0565b8361018001516114e39190612497565b90508015806114fd575060208301516001600160701b0316155b156115125750670de0b6b3a764000092915050565b60208301516001600160701b031661153282670de0b6b3a76400006125a9565b61153c91906124c0565b9392505050565b60006001600160701b0382111561159c5760405162461bcd60e51b815260206004820152601c60248201527f652f616d6f756e742d746f6f2d6c617267652d746f2d656e636f6465000000006044820152606401610116565b5090565b600080633b9aca0083604001516001600160901b03166115c091906124c0565b90506000818461018001516115d59190612497565b9050806000036115e85760009250611621565b670de0b6b3a76400008161160063ffffffff836125a9565b61160a90856125a9565b61161491906124c0565b61161e91906124c0565b92505b505060e082015182516040516001600160a01b03909116602482015263ffffffff838116604483015260009261166592911690631aa1811f60e31b90606401610d40565b905060008180602001905181019061167d9190612633565b600b81900b61010090950194909452505082546001600160601b03909216600160501b026bffffffffffffffffffffffff60501b199092169190911790915550565b600060405190506000856001600160a01b031660036040518060600160405280602181526020016126e960219139805160209182012060405160f89390931b6001600160f81b0319169183019190915260218201526001600160a01b038781166041830152861660618201526081810185905260a10160408051601f198184030181529082905261174f916125c0565b6000604051808303816000865af19150503d806000811461178c576040519150601f19603f3d011682016040523d82523d6000602084013e611791565b606091505b50509050806117d55760405162461bcd60e51b815260206004820152601060248201526f194bdb1bd9cb5c1c9bde1e4b59985a5b60821b6044820152606401610116565b5060405250505050565b6000828152600360205260408082205490516060929182916001600160a01b039091169061180e9086906125c0565b600060405180830381855af49150503d8060008114611849576040519150601f19603f3d011682016040523d82523d6000602084013e61184e565b606091505b509150915081610b2a57610b2a81611fa8565b60008160000361187357506000610e05565b6001600160a01b038316600090815260058601602052604090206001015460808501516118a090846125a9565b6118aa91906124c0565b95945050505050565b6000816000036118c557506000610b2e565b6101a0830151633b9aca0002808060001985820101816118e7576118e76124aa565b0402949350505050565b6001600160a01b0381166000908152600584016020526040812054600160701b90046001600160901b031661192885858584611861565b915061193382611984565b6001600160a01b0390931660009081526005909501602052604090942080546001600160901b0393909316600160701b026001600160701b0390931692909217825560809092015160019091015591565b60006001600160901b0382111561159c5760405162461bcd60e51b815260206004820152602160248201527f652f646562742d616d6f756e742d746f6f2d6c617267652d746f2d656e636f646044820152606560f81b6064820152608401610116565b633b9aca006119f686846118b3565b611a0091906124c0565b9150633b9aca00611a1186836118b3565b611a1b91906124c0565b905081811115611aa7576000611a3183836124e2565b9050836001600160a01b031686600001516001600160a01b03167f312a5e5e1079f5dda4e95dbbd0b908b291fd5b992ef22073643ab691572c5b5283604051611a7c91815260200190565b60405180910390a3611aa185600086896101a0015185611a9c91906124c0565b6116bf565b50610c35565b80821115610c35576000611abb82846124e2565b9050836001600160a01b031686600001516001600160a01b03167f05f2eeda0e08e4b437f487c8d7d29b14537d15e3488170dc3de5dbdf8dac468483604051611b0691815260200190565b60405180910390a361124f85856000896101a0015185611a9c91906124c0565b60008062015180831015611b3a5782611b3f565b620151805b90506000611b5082620151806124e2565b90506000806000611b6088611fef565b91509150808211611b72576000611b7c565b611b7c81836124e2565b92505050620151808382611b9091906125a9565b611b9a91906124c0565b6001600160a01b0387166000908152600660205260409020600101546201518090611bc69085906125a9565b611bd091906124c0565b611bda9190612497565b9695505050505050565b6001600160a01b0383168152815464ffffffffff811660a083015265010000000000810460ff90811660c084018190526601000000000000830463ffffffff90811660e0860152600160501b8404600b0b610100860152600160b01b84048116610120860152600160d01b840461ffff16610140860152600160e01b9093049092166101608401526001840154600160a01b90046001600160601b0316606084015260038401546001600160701b038082166020860152600160701b9091046001600160901b03166040850152600485015460808501526012839003909116600a0a6101a084018190526000929181611cdf57611cdf6124aa565b046101c08401526000611cf28430611257565b9050836101c001518111611d13576101a08401518102610180850152611d1c565b60006101808501525b8360a0015164ffffffffff164214611f7e576001925060008460a0015164ffffffffff1642611d4b91906124e2565b905060006b033b2e3c9fd0803ce80000008660800151611d97886101000151600b0b6b033b2e3c9fd0803ce8000000611d849190612656565b856b033b2e3c9fd0803ce800000061204e565b611da191906125a9565b611dab91906124c0565b9050600086608001518288604001516001600160901b0316611dcd91906125a9565b611dd791906124c0565b606088015160208901519192506001600160601b0316906001600160701b03166000611e0b633b9aca0063ee6b28006125a9565b6101208b015163ffffffff90811614611e29578a6101200151611e2f565b6336d616005b63ffffffff168b604001516001600160901b031686611e4e91906124e2565b611e5891906125a9565b611e6291906124c0565b90508015611ed3576000611e7a633b9aca00866124c0565b8b6101800151611e8a9190612497565b9050611e9682826124e2565b611ea084836125a9565b611eaa91906124c0565b92508a602001516001600160701b031683611ec591906124e2565b611ecf9085612497565b9350505b6001600160701b038211801590611ef157506001600160901b038411155b8015611f0457506001600160601b038311155b15611f7757611f1284611984565b6001600160901b031660408b015260808a0185905264ffffffffff421660a08b015260208a01516001600160701b03168214611f7757611f518361210b565b6001600160601b031660608b0152611f6882611543565b6001600160701b031660208b01525b5050505050505b50509392505050565b600080611f93846114b3565b9050670de0b6b3a7640000610b2082856125a9565b805115611fb757805181602001fd5b60405162461bcd60e51b815260206004820152600d60248201526c3297b2b6b83a3c96b2b93937b960991b6044820152606401610116565b6040516001600160a01b03821660248201526000908190819061202290620f424090631bff4ba560e11b90604401610d40565b905060008180602001905181019061203a919061267e565b805160209091015190969095509350505050565b60008380156120ee576001841680156120695785925061206d565b8392505b50600283046002850494505b84156120e857858602868782041461209057600080fd5b818101818110156120a057600080fd5b85900496505060018516156120dd5785830283878204141587151516156120c657600080fd5b818101818110156120d657600080fd5b8590049350505b600285049450612079565b50612103565b8380156120fe5760009250611f7e565b839250505b509392505050565b60006001600160601b0382111561159c5760405162461bcd60e51b815260206004820152602260248201527f652f736d616c6c2d616d6f756e742d746f6f2d6c617267652d746f2d656e636f604482015261646560f01b6064820152608401610116565b60408051610100810182526000808252602082018190529181018290526060810191909152608081016121a06121c1565b81526020016121ad6121c1565b815260200160008152602001600081525090565b604080516101e081018252600080825260208201819052918101829052606081018290526080810182905260a0810182905260c0810182905260e08101829052610100810182905261012081018290526101408101829052610160810182905261018081018290526101a081018290526101c081019190915290565b80356001600160a01b038116811461225457600080fd5b919050565b634e487b7160e01b600052604160045260246000fd5b60405160e0810167ffffffffffffffff8111828210171561229257612292612259565b60405290565b600082601f8301126122a957600080fd5b813567ffffffffffffffff808211156122c4576122c4612259565b604051601f8301601f19908116603f011681019082821181831017156122ec576122ec612259565b8160405283815286602085880101111561230557600080fd5b836020870160208301376000602085830101528094505050505092915050565b600060e0828403121561233757600080fd5b61233f61226f565b905061234a8261223d565b81526123586020830161223d565b602082015260408201356040820152606082013560608201526080820135608082015260a082013560a082015260c082013567ffffffffffffffff81111561239f57600080fd5b6123ab84828501612298565b60c08301525092915050565b600080600080608085870312156123cd57600080fd5b84359350602085013592506123e46040860161223d565b9150606085013567ffffffffffffffff81111561240057600080fd5b61240c87828801612325565b91505092959194509250565b600080600080600060a0868803121561243057600080fd5b85359450602086013593506124476040870161223d565b9250606086013567ffffffffffffffff81111561246357600080fd5b61246f88828901612325565b95989497509295608001359392505050565b634e487b7160e01b600052601160045260246000fd5b80820180821115610b2e57610b2e612481565b634e487b7160e01b600052601260045260246000fd5b6000826124dd57634e487b7160e01b600052601260045260246000fd5b500490565b81810381811115610b2e57610b2e612481565b60005b838110156125105781810151838201526020016124f8565b50506000910152565b600081518084526125318160208601602086016124f5565b601f01601f19169290920160200192915050565b60208152600060018060a01b03808451166020840152806020850151166040840152506040830151606083015260608301516080830152608083015160a083015260a083015160c083015260c083015160e080840152610b2a610100840182612519565b8082028115828204841417610b2e57610b2e612481565b600082516125d28184602087016124f5565b9190910192915050565b8051801515811461225457600080fd5b6000602082840312156125fe57600080fd5b61153c826125dc565b60208152600061153c6020830184612519565b60006020828403121561262c57600080fd5b5051919050565b60006020828403121561264557600080fd5b815180600b0b811461153c57600080fd5b808201828112600083128015821682158216171561267657612676612481565b505092915050565b60006080828403121561269057600080fd5b6040516080810181811067ffffffffffffffff821117156126b3576126b3612259565b80604052508251815260208301516020820152604083015160408201526126dc606084016125dc565b6060820152939250505056fe5472616e7366657228616464726573732c616464726573732c75696e7432353629a26469706673582212204a7d52bcc6416e294ef2d031f73d263b2c19d24f54610c2b2e0a45f94534b06764736f6c63430008170033","linkReferences":{}},"methodIdentifiers":{"moduleGitCommit()":"69a92ea3","moduleId()":"a1308f27","swap(uint256,uint256,address,(address,address,uint256,uint256,uint256,uint256,bytes))":"25cad427","swapAndRepay(uint256,uint256,address,(address,address,uint256,uint256,uint256,uint256,bytes),uint256)":"b0257235"},"id":27}