{"abi":[{"type":"constructor","inputs":[{"name":"_dai","type":"address","internalType":"contract IERC20"},{"name":"_eDAI","type":"address","internalType":"contract IEToken"},{"name":"_dDAI","type":"address","internalType":"contract IDToken"},{"name":"_euler","type":"address","internalType":"address"},{"name":"_liquidation","type":"address","internalType":"contract ILiquidation"},{"name":"_markets","type":"address","internalType":"contract IMarkets"}],"stateMutability":"nonpayable"},{"type":"function","name":"liquidate","inputs":[{"name":"violator","type":"address","internalType":"address"}],"outputs":[],"stateMutability":"nonpayable"}],"bytecode":{"object":"0x61014060405234801561001157600080fd5b50604051610c5b380380610c5b83398101604081905261003091610077565b6001600160a01b0395861660805293851660a05291841660c052831660e05282166101005216610120526100fe565b6001600160a01b038116811461007457600080fd5b50565b60008060008060008060c0878903121561009057600080fd5b865161009b8161005f565b60208801519096506100ac8161005f565b60408801519095506100bd8161005f565b60608801519094506100ce8161005f565b60808801519093506100df8161005f565b60a08801519092506100f08161005f565b809150509295509295509295565b60805160a05160c05160e0516101005161012051610ab86101a36000396000818161017c015281816103180152610678015260008181609c015261024f0152600081816103b90152818161046901526105b40152600050506000818161014b015281816102ea01528181610491015261064a015260008181606a01528181610210015281816103e1015281816104be015281816105dc01526106f90152610ab86000f3fe608060405234801561001057600080fd5b506004361061002b5760003560e01c80632f86556814610030575b600080fd5b61004361003e366004610854565b610045565b005b604051631a96d9d560e01b81523060048201526001600160a01b0382811660248301527f000000000000000000000000000000000000000000000000000000000000000081166044830181905260648301526000917f000000000000000000000000000000000000000000000000000000000000000090911690631a96d9d59060840160c0604051808303816000875af11580156100e7573d6000803e3d6000fd5b505050506040513d601f19601f8201168201806040525081019061010b9190610884565b6040516342ef90fb60e11b81526060600482015260126064820152716265666f7265206c69717569646174696e6760701b60848201526001600160a01b037f0000000000000000000000000000000000000000000000000000000000000000811660248301523060448301529192507f0000000000000000000000000000000000000000000000000000000000000000909116906385df21f69060a401606060405180830381865afa1580156101c5573d6000803e3d6000fd5b505050506040513d601f19601f820116820180604052508101906101e9919061090c565b5080516020820151604051636f70e66f60e01b81526001600160a01b0385811660048301527f00000000000000000000000000000000000000000000000000000000000000008116602483018190526044830152606482019390935260848101919091527f000000000000000000000000000000000000000000000000000000000000000090911690636f70e66f9060a401600060405180830381600087803b15801561029557600080fd5b505af11580156102a9573d6000803e3d6000fd5b50506040516342ef90fb60e11b81526060600482015260116064820152706166746572206c69717569646174696e6760781b60848201526001600160a01b037f0000000000000000000000000000000000000000000000000000000000000000811660248301523060448301527f00000000000000000000000000000000000000000000000000000000000000001692506385df21f6915060a401606060405180830381865afa158015610361573d6000803e3d6000fd5b505050506040513d601f19601f82011682018060405250810190610385919061090c565b50610452604051806060016040528060228152602001610a61602291396040516370a0823160e01b81526001600160a01b037f0000000000000000000000000000000000000000000000000000000000000000811660048301527f000000000000000000000000000000000000000000000000000000000000000016906370a08231906024015b602060405180830381865afa158015610429573d6000803e3d6000fd5b505050506040513d601f19601f8201168201806040525081019061044d91906109af565b6107ea565b6040516370a0823160e01b81526001600160a01b037f0000000000000000000000000000000000000000000000000000000000000000811660048301527f000000000000000000000000000000000000000000000000000000000000000081169163441a3e70916000917f0000000000000000000000000000000000000000000000000000000000000000909116906370a0823190602401602060405180830381865afa158015610507573d6000803e3d6000fd5b505050506040513d601f19601f8201168201806040525081019061052b91906109af565b6040516001600160e01b031960e085901b16815260048101929092526024820152604401600060405180830381600087803b15801561056957600080fd5b505af115801561057d573d6000803e3d6000fd5b5050505061060b604051806060016040528060218152602001610a40602191396040516370a0823160e01b81526001600160a01b037f0000000000000000000000000000000000000000000000000000000000000000811660048301527f000000000000000000000000000000000000000000000000000000000000000016906370a082319060240161040c565b6040516342ef90fb60e11b81526060600482015260116064820152706166746572207769746864726177696e6760781b60848201526001600160a01b037f0000000000000000000000000000000000000000000000000000000000000000811660248301523060448301527f000000000000000000000000000000000000000000000000000000000000000016906385df21f69060a401606060405180830381865afa1580156106bf573d6000803e3d6000fd5b505050506040513d601f19601f820116820180604052508101906106e3919061090c565b506040516370a0823160e01b81523060048201527f00000000000000000000000000000000000000000000000000000000000000006001600160a01b03169063a9059cbb90339083906370a0823190602401602060405180830381865afa158015610752573d6000803e3d6000fd5b505050506040513d601f19601f8201168201806040525081019061077691906109af565b6040516001600160e01b031960e085901b1681526001600160a01b03909216600483015260248201526044016020604051808303816000875af11580156107c1573d6000803e3d6000fd5b505050506040513d601f19601f820116820180604052508101906107e591906109c8565b505050565b61082f82826040516024016108009291906109ea565b60408051601f198184030181529190526020810180516001600160e01b03166309710a9d60e41b179052610833565b5050565b80516a636f6e736f6c652e6c6f67602083016000808483855afa5050505050565b60006020828403121561086657600080fd5b81356001600160a01b038116811461087d57600080fd5b9392505050565b600060c0828403121561089657600080fd5b60405160c0810181811067ffffffffffffffff821117156108c757634e487b7160e01b600052604160045260246000fd5b8060405250825181526020830151602082015260408301516040820152606083015160608201526080830151608082015260a083015160a08201528091505092915050565b60006060828403121561091e57600080fd5b6040516060810181811067ffffffffffffffff8211171561094f57634e487b7160e01b600052604160045260246000fd5b60405282516dffffffffffffffffffffffffffff8116811461097057600080fd5b8152602083015171ffffffffffffffffffffffffffffffffffff8116811461099757600080fd5b60208201526040928301519281019290925250919050565b6000602082840312156109c157600080fd5b5051919050565b6000602082840312156109da57600080fd5b8151801515811461087d57600080fd5b604081526000835180604084015260005b81811015610a1857602081870181015160608684010152016109fb565b506000606082850101526060601f19601f830116840101915050826020830152939250505056fe45554c45522062616c616e6365206166746572207769746864726177696e673a2045554c45522062616c616e6365206265666f7265207769746864726177696e673a20a2646970667358221220f53e30c6bc288443e79c7b961919d28f1b3cba9eced3c3a400fddba39b5a587164736f6c63430008170033","linkReferences":{}},"methodIdentifiers":{"liquidate(address)":"2f865568"},"id":35}