{"abi":[{"type":"constructor","inputs":[{"name":"_dai","type":"address","internalType":"contract IERC20"},{"name":"_eDAI","type":"address","internalType":"contract IEToken"},{"name":"_dDAI","type":"address","internalType":"contract IDToken"},{"name":"_euler","type":"address","internalType":"address"},{"name":"_liquidation","type":"address","internalType":"contract ILiquidation"},{"name":"_markets","type":"address","internalType":"contract IMarkets"}],"stateMutability":"nonpayable"},{"type":"function","name":"liquidate","inputs":[{"name":"violator","type":"address","internalType":"address"}],"outputs":[],"stateMutability":"nonpayable"}],"bytecode":{"object":"0x61014060405234801561001157600080fd5b5060405161068e38038061068e83398101604081905261003091610077565b6001600160a01b0395861660805293851660a05291841660c052831660e05282166101005216610120526100fe565b6001600160a01b038116811461007457600080fd5b50565b60008060008060008060c0878903121561009057600080fd5b865161009b8161005f565b60208801519096506100ac8161005f565b60408801519095506100bd8161005f565b60608801519094506100ce8161005f565b60808801519093506100df8161005f565b60a08801519092506100f08161005f565b809150509295509295509295565b60805160a05160c05160e051610100516101205161052d6101616000396000505060008181609c0152610173015260006101e4015260005050600061020c015260008181606a015281816101310152818161023b0152610311015261052d6000f3fe608060405234801561001057600080fd5b506004361061002b5760003560e01c80632f86556814610030575b600080fd5b61004361003e366004610404565b610045565b005b604051631a96d9d560e01b81523060048201526001600160a01b0382811660248301527f000000000000000000000000000000000000000000000000000000000000000081166044830181905260648301526000917f000000000000000000000000000000000000000000000000000000000000000090911690631a96d9d59060840160c0604051808303816000875af11580156100e7573d6000803e3d6000fd5b505050506040513d601f19601f8201168201806040525081019061010b9190610434565b80516020820151604051636f70e66f60e01b81526001600160a01b0386811660048301527f00000000000000000000000000000000000000000000000000000000000000008116602483018190526044830152606482019390935260848101919091529192507f00000000000000000000000000000000000000000000000000000000000000001690636f70e66f9060a401600060405180830381600087803b1580156101b757600080fd5b505af11580156101cb573d6000803e3d6000fd5b50506040516370a0823160e01b81526001600160a01b037f0000000000000000000000000000000000000000000000000000000000000000811660048301527f00000000000000000000000000000000000000000000000000000000000000008116935063441a3e7092506000917f0000000000000000000000000000000000000000000000000000000000000000909116906370a0823190602401602060405180830381865afa158015610284573d6000803e3d6000fd5b505050506040513d601f19601f820116820180604052508101906102a891906104bc565b6040516001600160e01b031960e085901b16815260048101929092526024820152604401600060405180830381600087803b1580156102e657600080fd5b505af11580156102fa573d6000803e3d6000fd5b50506040516370a0823160e01b81523060048201527f00000000000000000000000000000000000000000000000000000000000000006001600160a01b0316925063a9059cbb9150339083906370a0823190602401602060405180830381865afa15801561036c573d6000803e3d6000fd5b505050506040513d601f19601f8201168201806040525081019061039091906104bc565b6040516001600160e01b031960e085901b1681526001600160a01b03909216600483015260248201526044016020604051808303816000875af11580156103db573d6000803e3d6000fd5b505050506040513d601f19601f820116820180604052508101906103ff91906104d5565b505050565b60006020828403121561041657600080fd5b81356001600160a01b038116811461042d57600080fd5b9392505050565b600060c0828403121561044657600080fd5b60405160c0810181811067ffffffffffffffff8211171561047757634e487b7160e01b600052604160045260246000fd5b8060405250825181526020830151602082015260408301516040820152606083015160608201526080830151608082015260a083015160a08201528091505092915050565b6000602082840312156104ce57600080fd5b5051919050565b6000602082840312156104e757600080fd5b8151801515811461042d57600080fdfea264697066735822122085dbedf24a43ca0a684f5785b9150befbe4719c267226bc797d9773706d6b35764736f6c63430008170033","linkReferences":{}},"methodIdentifiers":{"liquidate(address)":"2f865568"},"id":35}