{"abi":[{"type":"constructor","inputs":[{"name":"moduleGitCommit_","type":"bytes32","internalType":"bytes32"}],"stateMutability":"nonpayable"},{"type":"function","name":"getUpgradeAdmin","inputs":[],"outputs":[{"name":"","type":"address","internalType":"address"}],"stateMutability":"view"},{"type":"function","name":"installModules","inputs":[{"name":"moduleAddrs","type":"address[]","internalType":"address[]"}],"outputs":[],"stateMutability":"nonpayable"},{"type":"function","name":"moduleGitCommit","inputs":[],"outputs":[{"name":"","type":"bytes32","internalType":"bytes32"}],"stateMutability":"view"},{"type":"function","name":"moduleId","inputs":[],"outputs":[{"name":"","type":"uint256","internalType":"uint256"}],"stateMutability":"view"},{"type":"function","name":"setGovernorAdmin","inputs":[{"name":"newGovernorAdmin","type":"address","internalType":"address"}],"outputs":[],"stateMutability":"nonpayable"},{"type":"function","name":"setUpgradeAdmin","inputs":[{"name":"newUpgradeAdmin","type":"address","internalType":"address"}],"outputs":[],"stateMutability":"nonpayable"},{"type":"event","name":"AssetStatus","inputs":[{"name":"underlying","type":"address","indexed":true,"internalType":"address"},{"name":"totalBalances","type":"uint256","indexed":false,"internalType":"uint256"},{"name":"totalBorrows","type":"uint256","indexed":false,"internalType":"uint256"},{"name":"reserveBalance","type":"uint96","indexed":false,"internalType":"uint96"},{"name":"poolSize","type":"uint256","indexed":false,"internalType":"uint256"},{"name":"interestAccumulator","type":"uint256","indexed":false,"internalType":"uint256"},{"name":"interestRate","type":"int96","indexed":false,"internalType":"int96"},{"name":"timestamp","type":"uint256","indexed":false,"internalType":"uint256"}],"anonymous":false},{"type":"event","name":"Borrow","inputs":[{"name":"underlying","type":"address","indexed":true,"internalType":"address"},{"name":"account","type":"address","indexed":true,"internalType":"address"},{"name":"amount","type":"uint256","indexed":false,"internalType":"uint256"}],"anonymous":false},{"type":"event","name":"DelegateAverageLiquidity","inputs":[{"name":"account","type":"address","indexed":true,"internalType":"address"},{"name":"delegate","type":"address","indexed":true,"internalType":"address"}],"anonymous":false},{"type":"event","name":"Deposit","inputs":[{"name":"underlying","type":"address","indexed":true,"internalType":"address"},{"name":"account","type":"address","indexed":true,"internalType":"address"},{"name":"amount","type":"uint256","indexed":false,"internalType":"uint256"}],"anonymous":false},{"type":"event","name":"EnterMarket","inputs":[{"name":"underlying","type":"address","indexed":true,"internalType":"address"},{"name":"account","type":"address","indexed":true,"internalType":"address"}],"anonymous":false},{"type":"event","name":"ExitMarket","inputs":[{"name":"underlying","type":"address","indexed":true,"internalType":"address"},{"name":"account","type":"address","indexed":true,"internalType":"address"}],"anonymous":false},{"type":"event","name":"Genesis","inputs":[],"anonymous":false},{"type":"event","name":"GovConvertReserves","inputs":[{"name":"underlying","type":"address","indexed":true,"internalType":"address"},{"name":"recipient","type":"address","indexed":true,"internalType":"address"},{"name":"amount","type":"uint256","indexed":false,"internalType":"uint256"}],"anonymous":false},{"type":"event","name":"GovSetAssetConfig","inputs":[{"name":"underlying","type":"address","indexed":true,"internalType":"address"},{"name":"newConfig","type":"tuple","indexed":false,"internalType":"struct Storage.AssetConfig","components":[{"name":"eTokenAddress","type":"address","internalType":"address"},{"name":"borrowIsolated","type":"bool","internalType":"bool"},{"name":"collateralFactor","type":"uint32","internalType":"uint32"},{"name":"borrowFactor","type":"uint32","internalType":"uint32"},{"name":"twapWindow","type":"uint24","internalType":"uint24"}]}],"anonymous":false},{"type":"event","name":"GovSetChainlinkPriceFeed","inputs":[{"name":"underlying","type":"address","indexed":true,"internalType":"address"},{"name":"chainlinkAggregator","type":"address","indexed":false,"internalType":"address"}],"anonymous":false},{"type":"event","name":"GovSetIRM","inputs":[{"name":"underlying","type":"address","indexed":true,"internalType":"address"},{"name":"interestRateModel","type":"uint256","indexed":false,"internalType":"uint256"},{"name":"resetParams","type":"bytes","indexed":false,"internalType":"bytes"}],"anonymous":false},{"type":"event","name":"GovSetPricingConfig","inputs":[{"name":"underlying","type":"address","indexed":true,"internalType":"address"},{"name":"newPricingType","type":"uint16","indexed":false,"internalType":"uint16"},{"name":"newPricingParameter","type":"uint32","indexed":false,"internalType":"uint32"}],"anonymous":false},{"type":"event","name":"GovSetReserveFee","inputs":[{"name":"underlying","type":"address","indexed":true,"internalType":"address"},{"name":"newReserveFee","type":"uint32","indexed":false,"internalType":"uint32"}],"anonymous":false},{"type":"event","name":"InstallerInstallModule","inputs":[{"name":"moduleId","type":"uint256","indexed":true,"internalType":"uint256"},{"name":"moduleImpl","type":"address","indexed":true,"internalType":"address"},{"name":"moduleGitCommit","type":"bytes32","indexed":false,"internalType":"bytes32"}],"anonymous":false},{"type":"event","name":"InstallerSetGovernorAdmin","inputs":[{"name":"newGovernorAdmin","type":"address","indexed":true,"internalType":"address"}],"anonymous":false},{"type":"event","name":"InstallerSetUpgradeAdmin","inputs":[{"name":"newUpgradeAdmin","type":"address","indexed":true,"internalType":"address"}],"anonymous":false},{"type":"event","name":"Liquidation","inputs":[{"name":"liquidator","type":"address","indexed":true,"internalType":"address"},{"name":"violator","type":"address","indexed":true,"internalType":"address"},{"name":"underlying","type":"address","indexed":true,"internalType":"address"},{"name":"collateral","type":"address","indexed":false,"internalType":"address"},{"name":"repay","type":"uint256","indexed":false,"internalType":"uint256"},{"name":"yield","type":"uint256","indexed":false,"internalType":"uint256"},{"name":"healthScore","type":"uint256","indexed":false,"internalType":"uint256"},{"name":"baseDiscount","type":"uint256","indexed":false,"internalType":"uint256"},{"name":"discount","type":"uint256","indexed":false,"internalType":"uint256"}],"anonymous":false},{"type":"event","name":"MarketActivated","inputs":[{"name":"underlying","type":"address","indexed":true,"internalType":"address"},{"name":"eToken","type":"address","indexed":true,"internalType":"address"},{"name":"dToken","type":"address","indexed":true,"internalType":"address"}],"anonymous":false},{"type":"event","name":"PTokenActivated","inputs":[{"name":"underlying","type":"address","indexed":true,"internalType":"address"},{"name":"pToken","type":"address","indexed":true,"internalType":"address"}],"anonymous":false},{"type":"event","name":"PTokenUnWrap","inputs":[{"name":"underlying","type":"address","indexed":true,"internalType":"address"},{"name":"account","type":"address","indexed":true,"internalType":"address"},{"name":"amount","type":"uint256","indexed":false,"internalType":"uint256"}],"anonymous":false},{"type":"event","name":"PTokenWrap","inputs":[{"name":"underlying","type":"address","indexed":true,"internalType":"address"},{"name":"account","type":"address","indexed":true,"internalType":"address"},{"name":"amount","type":"uint256","indexed":false,"internalType":"uint256"}],"anonymous":false},{"type":"event","name":"ProxyCreated","inputs":[{"name":"proxy","type":"address","indexed":true,"internalType":"address"},{"name":"moduleId","type":"uint256","indexed":false,"internalType":"uint256"}],"anonymous":false},{"type":"event","name":"Repay","inputs":[{"name":"underlying","type":"address","indexed":true,"internalType":"address"},{"name":"account","type":"address","indexed":true,"internalType":"address"},{"name":"amount","type":"uint256","indexed":false,"internalType":"uint256"}],"anonymous":false},{"type":"event","name":"RequestBorrow","inputs":[{"name":"account","type":"address","indexed":true,"internalType":"address"},{"name":"amount","type":"uint256","indexed":false,"internalType":"uint256"}],"anonymous":false},{"type":"event","name":"RequestBurn","inputs":[{"name":"account","type":"address","indexed":true,"internalType":"address"},{"name":"amount","type":"uint256","indexed":false,"internalType":"uint256"}],"anonymous":false},{"type":"event","name":"RequestDeposit","inputs":[{"name":"account","type":"address","indexed":true,"internalType":"address"},{"name":"amount","type":"uint256","indexed":false,"internalType":"uint256"}],"anonymous":false},{"type":"event","name":"RequestDonate","inputs":[{"name":"account","type":"address","indexed":true,"internalType":"address"},{"name":"amount","type":"uint256","indexed":false,"internalType":"uint256"}],"anonymous":false},{"type":"event","name":"RequestLiquidate","inputs":[{"name":"liquidator","type":"address","indexed":true,"internalType":"address"},{"name":"violator","type":"address","indexed":true,"internalType":"address"},{"name":"underlying","type":"address","indexed":true,"internalType":"address"},{"name":"collateral","type":"address","indexed":false,"internalType":"address"},{"name":"repay","type":"uint256","indexed":false,"internalType":"uint256"},{"name":"minYield","type":"uint256","indexed":false,"internalType":"uint256"}],"anonymous":false},{"type":"event","name":"RequestMint","inputs":[{"name":"account","type":"address","indexed":true,"internalType":"address"},{"name":"amount","type":"uint256","indexed":false,"internalType":"uint256"}],"anonymous":false},{"type":"event","name":"RequestRepay","inputs":[{"name":"account","type":"address","indexed":true,"internalType":"address"},{"name":"amount","type":"uint256","indexed":false,"internalType":"uint256"}],"anonymous":false},{"type":"event","name":"RequestSwap","inputs":[{"name":"accountIn","type":"address","indexed":true,"internalType":"address"},{"name":"accountOut","type":"address","indexed":true,"internalType":"address"},{"name":"underlyingIn","type":"address","indexed":true,"internalType":"address"},{"name":"underlyingOut","type":"address","indexed":false,"internalType":"address"},{"name":"amount","type":"uint256","indexed":false,"internalType":"uint256"},{"name":"swapType","type":"uint256","indexed":false,"internalType":"uint256"}],"anonymous":false},{"type":"event","name":"RequestSwapHub","inputs":[{"name":"accountIn","type":"address","indexed":true,"internalType":"address"},{"name":"accountOut","type":"address","indexed":true,"internalType":"address"},{"name":"underlyingIn","type":"address","indexed":true,"internalType":"address"},{"name":"underlyingOut","type":"address","indexed":false,"internalType":"address"},{"name":"amountIn","type":"uint256","indexed":false,"internalType":"uint256"},{"name":"amountOut","type":"uint256","indexed":false,"internalType":"uint256"},{"name":"mode","type":"uint256","indexed":false,"internalType":"uint256"},{"name":"swapHandler","type":"address","indexed":false,"internalType":"address"}],"anonymous":false},{"type":"event","name":"RequestSwapHubRepay","inputs":[{"name":"accountIn","type":"address","indexed":true,"internalType":"address"},{"name":"accountOut","type":"address","indexed":true,"internalType":"address"},{"name":"underlyingIn","type":"address","indexed":true,"internalType":"address"},{"name":"underlyingOut","type":"address","indexed":false,"internalType":"address"},{"name":"targetDebt","type":"uint256","indexed":false,"internalType":"uint256"},{"name":"swapHandler","type":"address","indexed":false,"internalType":"address"}],"anonymous":false},{"type":"event","name":"RequestTransferDToken","inputs":[{"name":"from","type":"address","indexed":true,"internalType":"address"},{"name":"to","type":"address","indexed":true,"internalType":"address"},{"name":"amount","type":"uint256","indexed":false,"internalType":"uint256"}],"anonymous":false},{"type":"event","name":"RequestTransferEToken","inputs":[{"name":"from","type":"address","indexed":true,"internalType":"address"},{"name":"to","type":"address","indexed":true,"internalType":"address"},{"name":"amount","type":"uint256","indexed":false,"internalType":"uint256"}],"anonymous":false},{"type":"event","name":"RequestWithdraw","inputs":[{"name":"account","type":"address","indexed":true,"internalType":"address"},{"name":"amount","type":"uint256","indexed":false,"internalType":"uint256"}],"anonymous":false},{"type":"event","name":"TrackAverageLiquidity","inputs":[{"name":"account","type":"address","indexed":true,"internalType":"address"}],"anonymous":false},{"type":"event","name":"UnTrackAverageLiquidity","inputs":[{"name":"account","type":"address","indexed":true,"internalType":"address"}],"anonymous":false},{"type":"event","name":"Withdraw","inputs":[{"name":"underlying","type":"address","indexed":true,"internalType":"address"},{"name":"account","type":"address","indexed":true,"internalType":"address"},{"name":"amount","type":"uint256","indexed":false,"internalType":"uint256"}],"anonymous":false}],"bytecode":{"object":"0x60c060405234801561001057600080fd5b50604051610b03380380610b0383398101604081905261002f9161003c565b600160805260a052610055565b60006020828403121561004e57600080fd5b5051919050565b60805160a051610a8b6100786000396000606c0152600060ce0152610a8b6000f3fe608060405234801561001057600080fd5b50600436106100625760003560e01c806369a92ea31461006757806382ebd674146100a15780639342f417146100b6578063a1308f27146100c9578063b2855bda146100f0578063c0b71ed91461010b575b600080fd5b61008e7f000000000000000000000000000000000000000000000000000000000000000081565b6040519081526020015b60405180910390f35b6100b46100af366004610753565b61011e565b005b6100b46100c4366004610753565b610228565b61008e7f000000000000000000000000000000000000000000000000000000000000000081565b6001546040516001600160a01b039091168152602001610098565b6100b461011936600461078b565b610329565b6001600054146101495760405162461bcd60e51b815260040161014090610850565b60405180910390fd5b600260005560015460271936013560601c906001600160a01b031681146101825760405162461bcd60e51b815260040161014090610876565b6001600160a01b0382166101d85760405162461bcd60e51b815260206004820152601860248201527f652f696e7374616c6c65722f6261642d676f762d6164647200000000000000006044820152606401610140565b600280546001600160a01b0319166001600160a01b0384169081179091556040517f5416132dde2698add23409e588b82cf7ab27aeb683e1ec150e14e024c9502fb390600090a250506001600055565b60016000541461024a5760405162461bcd60e51b815260040161014090610850565b600260005560015460271936013560601c906001600160a01b031681146102835760405162461bcd60e51b815260040161014090610876565b6001600160a01b0382166102d95760405162461bcd60e51b815260206004820152601a60248201527f652f696e7374616c6c65722f6261642d61646d696e2d616464720000000000006044820152606401610140565b600180546001600160a01b0319166001600160a01b0384169081179091556040517fb5af888789c1657814bc0784da812074b6c9a5ee37e3a48dcfd9de0b10a373a390600090a250506001600055565b60016000541461034b5760405162461bcd60e51b815260040161014090610850565b600260005560015460271936013560601c906001600160a01b031681146103845760405162461bcd60e51b815260040161014090610876565b60005b82518110156105455760008382815181106103a4576103a46108ad565b602002602001015190506000816001600160a01b031663a1308f276040518163ffffffff1660e01b8152600401602060405180830381865afa1580156103ee573d6000803e3d6000fd5b505050506040513d601f19601f8201168201806040525081019061041291906108c3565b90506000826001600160a01b03166369a92ea36040518163ffffffff1660e01b8152600401602060405180830381865afa158015610454573d6000803e3d6000fd5b505050506040513d601f19601f8201168201806040525081019061047891906108c3565b600083815260036020526040902080546001600160a01b0319166001600160a01b03861617905590506207a11f82116104f35760006104b68361054f565b6001600160a01b039081166000908152600560205260409020805491861664010000000002640100000000600160c01b0319909216919091179055505b826001600160a01b0316827f15fc136599039b272cb44c0ace0b099754f2656d1d52691b99c9e348662c805a8360405161052f91815260200190565b60405180910390a3505050806001019050610387565b5050600160005550565b6000816000036105a15760405162461bcd60e51b815260206004820152601d60248201527f652f6372656174652d70726f78792f696e76616c69642d6d6f64756c650000006044820152606401610140565b620f423f8211156105f45760405162461bcd60e51b815260206004820152601e60248201527f652f6372656174652d70726f78792f696e7465726e616c2d6d6f64756c6500006044820152606401610140565b6000828152600460205260409020546001600160a01b03161561062d57506000908152600460205260409020546001600160a01b031690565b600060405161063b9061072a565b604051809103906000f080158015610657573d6000803e3d6000fd5b5090506207a11f831161068c57600083815260046020526040902080546001600160a01b0319166001600160a01b0383161790555b60408051808201825263ffffffff8086168252600060208084018281526001600160a01b03878116808552600590935292869020945185549151909316640100000000026001600160c01b031990911692909316919091179190911790915590517f6c6ffd7df9a0cfaa14ee2cf752003968de6c340564276242aa48ca641b09bce49061071c9086815260200190565b60405180910390a292915050565b610179806108dd83390190565b80356001600160a01b038116811461074e57600080fd5b919050565b60006020828403121561076557600080fd5b61076e82610737565b9392505050565b634e487b7160e01b600052604160045260246000fd5b6000602080838503121561079e57600080fd5b823567ffffffffffffffff808211156107b657600080fd5b818501915085601f8301126107ca57600080fd5b8135818111156107dc576107dc610775565b8060051b604051601f19603f8301168101818110858211171561080157610801610775565b60405291825284820192508381018501918883111561081f57600080fd5b938501935b828510156108445761083585610737565b84529385019392850192610824565b98975050505050505050565b6020808252600c908201526b652f7265656e7472616e637960a01b604082015260600190565b60208082526018908201527f652f696e7374616c6c65722f756e617574686f72697a65640000000000000000604082015260600190565b634e487b7160e01b600052603260045260246000fd5b6000602082840312156108d557600080fd5b505191905056fe60a060405234801561001057600080fd5b503360805260805161014a61002f60003960006013015261014a6000f3fe608060405234801561001057600080fd5b507f00000000000000000000000000000000000000000000000000000000000000006001600160a01b03811633036100d75760008081523681601f37805180156100785760018114610085576002811461009557600381146100a857600481146100be578182fd5b36600019016020a0508081f35b60205136602019016040a1508081f35b60405160205136604019016060a2508081f35b60605160405160205136606019016080a3508081f35b608051606051604051602051366080190160a0a4508081f35b633a7128eb60e21b6000523660006004373360601b366004015260008036601801600080855af13d6000803e80801561010f573d6000f35b3d6000fdfea2646970667358221220b447dc14656bbe6d3f87e327c5cf94ed446eedba65a7a6fc6e1a3ca21e187df364736f6c63430008170033a2646970667358221220d4950e509691ea5e7c3f4fd509c9cf84df8be44b5e5d1f146946692aeba6e8b664736f6c63430008170033","linkReferences":{}},"methodIdentifiers":{"getUpgradeAdmin()":"b2855bda","installModules(address[])":"c0b71ed9","moduleGitCommit()":"69a92ea3","moduleId()":"a1308f27","setGovernorAdmin(address)":"82ebd674","setUpgradeAdmin(address)":"9342f417"},"id":22}