{"abi":[{"type":"constructor","inputs":[{"name":"moduleGitCommit_","type":"bytes32","internalType":"bytes32"},{"name":"settings","type":"tuple","internalType":"struct RiskManager.RiskManagerSettings","components":[{"name":"referenceAsset","type":"address","internalType":"address"},{"name":"uniswapFactory","type":"address","internalType":"address"},{"name":"uniswapPoolInitCodeHash","type":"bytes32","internalType":"bytes32"}]}],"stateMutability":"nonpayable"},{"type":"function","name":"computeAssetLiquidities","inputs":[{"name":"account","type":"address","internalType":"address"}],"outputs":[{"name":"","type":"tuple[]","internalType":"struct IRiskManager.AssetLiquidity[]","components":[{"name":"underlying","type":"address","internalType":"address"},{"name":"status","type":"tuple","internalType":"struct IRiskManager.LiquidityStatus","components":[{"name":"collateralValue","type":"uint256","internalType":"uint256"},{"name":"liabilityValue","type":"uint256","internalType":"uint256"},{"name":"numBorrows","type":"uint256","internalType":"uint256"},{"name":"borrowIsolated","type":"bool","internalType":"bool"}]}]}],"stateMutability":"view"},{"type":"function","name":"computeLiquidity","inputs":[{"name":"account","type":"address","internalType":"address"}],"outputs":[{"name":"","type":"tuple","internalType":"struct IRiskManager.LiquidityStatus","components":[{"name":"collateralValue","type":"uint256","internalType":"uint256"},{"name":"liabilityValue","type":"uint256","internalType":"uint256"},{"name":"numBorrows","type":"uint256","internalType":"uint256"},{"name":"borrowIsolated","type":"bool","internalType":"bool"}]}],"stateMutability":"view"},{"type":"function","name":"getNewMarketParameters","inputs":[{"name":"underlying","type":"address","internalType":"address"}],"outputs":[{"name":"p","type":"tuple","internalType":"struct IRiskManager.NewMarketParameters","components":[{"name":"pricingType","type":"uint16","internalType":"uint16"},{"name":"pricingParameters","type":"uint32","internalType":"uint32"},{"name":"config","type":"tuple","internalType":"struct Storage.AssetConfig","components":[{"name":"eTokenAddress","type":"address","internalType":"address"},{"name":"borrowIsolated","type":"bool","internalType":"bool"},{"name":"collateralFactor","type":"uint32","internalType":"uint32"},{"name":"borrowFactor","type":"uint32","internalType":"uint32"},{"name":"twapWindow","type":"uint24","internalType":"uint24"}]}]}],"stateMutability":"nonpayable"},{"type":"function","name":"getPrice","inputs":[{"name":"underlying","type":"address","internalType":"address"}],"outputs":[{"name":"twap","type":"uint256","internalType":"uint256"},{"name":"twapPeriod","type":"uint256","internalType":"uint256"}],"stateMutability":"view"},{"type":"function","name":"getPriceFull","inputs":[{"name":"underlying","type":"address","internalType":"address"}],"outputs":[{"name":"twap","type":"uint256","internalType":"uint256"},{"name":"twapPeriod","type":"uint256","internalType":"uint256"},{"name":"currPrice","type":"uint256","internalType":"uint256"}],"stateMutability":"view"},{"type":"function","name":"getPriceInternal","inputs":[{"name":"assetCache","type":"tuple","internalType":"struct BaseLogic.AssetCache","components":[{"name":"underlying","type":"address","internalType":"address"},{"name":"totalBalances","type":"uint112","internalType":"uint112"},{"name":"totalBorrows","type":"uint144","internalType":"uint144"},{"name":"reserveBalance","type":"uint96","internalType":"uint96"},{"name":"interestAccumulator","type":"uint256","internalType":"uint256"},{"name":"lastInterestAccumulatorUpdate","type":"uint40","internalType":"uint40"},{"name":"underlyingDecimals","type":"uint8","internalType":"uint8"},{"name":"interestRateModel","type":"uint32","internalType":"uint32"},{"name":"interestRate","type":"int96","internalType":"int96"},{"name":"reserveFee","type":"uint32","internalType":"uint32"},{"name":"pricingType","type":"uint16","internalType":"uint16"},{"name":"pricingParameters","type":"uint32","internalType":"uint32"},{"name":"poolSize","type":"uint256","internalType":"uint256"},{"name":"underlyingDecimalsScaler","type":"uint256","internalType":"uint256"},{"name":"maxExternalAmount","type":"uint256","internalType":"uint256"}]},{"name":"config","type":"tuple","internalType":"struct Storage.AssetConfig","components":[{"name":"eTokenAddress","type":"address","internalType":"address"},{"name":"borrowIsolated","type":"bool","internalType":"bool"},{"name":"collateralFactor","type":"uint32","internalType":"uint32"},{"name":"borrowFactor","type":"uint32","internalType":"uint32"},{"name":"twapWindow","type":"uint24","internalType":"uint24"}]}],"outputs":[{"name":"twap","type":"uint256","internalType":"uint256"},{"name":"twapPeriod","type":"uint256","internalType":"uint256"}],"stateMutability":"view"},{"type":"function","name":"moduleGitCommit","inputs":[],"outputs":[{"name":"","type":"bytes32","internalType":"bytes32"}],"stateMutability":"view"},{"type":"function","name":"moduleId","inputs":[],"outputs":[{"name":"","type":"uint256","internalType":"uint256"}],"stateMutability":"view"},{"type":"function","name":"requireLiquidity","inputs":[{"name":"account","type":"address","internalType":"address"}],"outputs":[],"stateMutability":"view"},{"type":"event","name":"AssetStatus","inputs":[{"name":"underlying","type":"address","indexed":true,"internalType":"address"},{"name":"totalBalances","type":"uint256","indexed":false,"internalType":"uint256"},{"name":"totalBorrows","type":"uint256","indexed":false,"internalType":"uint256"},{"name":"reserveBalance","type":"uint96","indexed":false,"internalType":"uint96"},{"name":"poolSize","type":"uint256","indexed":false,"internalType":"uint256"},{"name":"interestAccumulator","type":"uint256","indexed":false,"internalType":"uint256"},{"name":"interestRate","type":"int96","indexed":false,"internalType":"int96"},{"name":"timestamp","type":"uint256","indexed":false,"internalType":"uint256"}],"anonymous":false},{"type":"event","name":"Borrow","inputs":[{"name":"underlying","type":"address","indexed":true,"internalType":"address"},{"name":"account","type":"address","indexed":true,"internalType":"address"},{"name":"amount","type":"uint256","indexed":false,"internalType":"uint256"}],"anonymous":false},{"type":"event","name":"DelegateAverageLiquidity","inputs":[{"name":"account","type":"address","indexed":true,"internalType":"address"},{"name":"delegate","type":"address","indexed":true,"internalType":"address"}],"anonymous":false},{"type":"event","name":"Deposit","inputs":[{"name":"underlying","type":"address","indexed":true,"internalType":"address"},{"name":"account","type":"address","indexed":true,"internalType":"address"},{"name":"amount","type":"uint256","indexed":false,"internalType":"uint256"}],"anonymous":false},{"type":"event","name":"EnterMarket","inputs":[{"name":"underlying","type":"address","indexed":true,"internalType":"address"},{"name":"account","type":"address","indexed":true,"internalType":"address"}],"anonymous":false},{"type":"event","name":"ExitMarket","inputs":[{"name":"underlying","type":"address","indexed":true,"internalType":"address"},{"name":"account","type":"address","indexed":true,"internalType":"address"}],"anonymous":false},{"type":"event","name":"Genesis","inputs":[],"anonymous":false},{"type":"event","name":"GovConvertReserves","inputs":[{"name":"underlying","type":"address","indexed":true,"internalType":"address"},{"name":"recipient","type":"address","indexed":true,"internalType":"address"},{"name":"amount","type":"uint256","indexed":false,"internalType":"uint256"}],"anonymous":false},{"type":"event","name":"GovSetAssetConfig","inputs":[{"name":"underlying","type":"address","indexed":true,"internalType":"address"},{"name":"newConfig","type":"tuple","indexed":false,"internalType":"struct Storage.AssetConfig","components":[{"name":"eTokenAddress","type":"address","internalType":"address"},{"name":"borrowIsolated","type":"bool","internalType":"bool"},{"name":"collateralFactor","type":"uint32","internalType":"uint32"},{"name":"borrowFactor","type":"uint32","internalType":"uint32"},{"name":"twapWindow","type":"uint24","internalType":"uint24"}]}],"anonymous":false},{"type":"event","name":"GovSetChainlinkPriceFeed","inputs":[{"name":"underlying","type":"address","indexed":true,"internalType":"address"},{"name":"chainlinkAggregator","type":"address","indexed":false,"internalType":"address"}],"anonymous":false},{"type":"event","name":"GovSetIRM","inputs":[{"name":"underlying","type":"address","indexed":true,"internalType":"address"},{"name":"interestRateModel","type":"uint256","indexed":false,"internalType":"uint256"},{"name":"resetParams","type":"bytes","indexed":false,"internalType":"bytes"}],"anonymous":false},{"type":"event","name":"GovSetPricingConfig","inputs":[{"name":"underlying","type":"address","indexed":true,"internalType":"address"},{"name":"newPricingType","type":"uint16","indexed":false,"internalType":"uint16"},{"name":"newPricingParameter","type":"uint32","indexed":false,"internalType":"uint32"}],"anonymous":false},{"type":"event","name":"GovSetReserveFee","inputs":[{"name":"underlying","type":"address","indexed":true,"internalType":"address"},{"name":"newReserveFee","type":"uint32","indexed":false,"internalType":"uint32"}],"anonymous":false},{"type":"event","name":"InstallerInstallModule","inputs":[{"name":"moduleId","type":"uint256","indexed":true,"internalType":"uint256"},{"name":"moduleImpl","type":"address","indexed":true,"internalType":"address"},{"name":"moduleGitCommit","type":"bytes32","indexed":false,"internalType":"bytes32"}],"anonymous":false},{"type":"event","name":"InstallerSetGovernorAdmin","inputs":[{"name":"newGovernorAdmin","type":"address","indexed":true,"internalType":"address"}],"anonymous":false},{"type":"event","name":"InstallerSetUpgradeAdmin","inputs":[{"name":"newUpgradeAdmin","type":"address","indexed":true,"internalType":"address"}],"anonymous":false},{"type":"event","name":"Liquidation","inputs":[{"name":"liquidator","type":"address","indexed":true,"internalType":"address"},{"name":"violator","type":"address","indexed":true,"internalType":"address"},{"name":"underlying","type":"address","indexed":true,"internalType":"address"},{"name":"collateral","type":"address","indexed":false,"internalType":"address"},{"name":"repay","type":"uint256","indexed":false,"internalType":"uint256"},{"name":"yield","type":"uint256","indexed":false,"internalType":"uint256"},{"name":"healthScore","type":"uint256","indexed":false,"internalType":"uint256"},{"name":"baseDiscount","type":"uint256","indexed":false,"internalType":"uint256"},{"name":"discount","type":"uint256","indexed":false,"internalType":"uint256"}],"anonymous":false},{"type":"event","name":"MarketActivated","inputs":[{"name":"underlying","type":"address","indexed":true,"internalType":"address"},{"name":"eToken","type":"address","indexed":true,"internalType":"address"},{"name":"dToken","type":"address","indexed":true,"internalType":"address"}],"anonymous":false},{"type":"event","name":"PTokenActivated","inputs":[{"name":"underlying","type":"address","indexed":true,"internalType":"address"},{"name":"pToken","type":"address","indexed":true,"internalType":"address"}],"anonymous":false},{"type":"event","name":"PTokenUnWrap","inputs":[{"name":"underlying","type":"address","indexed":true,"internalType":"address"},{"name":"account","type":"address","indexed":true,"internalType":"address"},{"name":"amount","type":"uint256","indexed":false,"internalType":"uint256"}],"anonymous":false},{"type":"event","name":"PTokenWrap","inputs":[{"name":"underlying","type":"address","indexed":true,"internalType":"address"},{"name":"account","type":"address","indexed":true,"internalType":"address"},{"name":"amount","type":"uint256","indexed":false,"internalType":"uint256"}],"anonymous":false},{"type":"event","name":"ProxyCreated","inputs":[{"name":"proxy","type":"address","indexed":true,"internalType":"address"},{"name":"moduleId","type":"uint256","indexed":false,"internalType":"uint256"}],"anonymous":false},{"type":"event","name":"Repay","inputs":[{"name":"underlying","type":"address","indexed":true,"internalType":"address"},{"name":"account","type":"address","indexed":true,"internalType":"address"},{"name":"amount","type":"uint256","indexed":false,"internalType":"uint256"}],"anonymous":false},{"type":"event","name":"RequestBorrow","inputs":[{"name":"account","type":"address","indexed":true,"internalType":"address"},{"name":"amount","type":"uint256","indexed":false,"internalType":"uint256"}],"anonymous":false},{"type":"event","name":"RequestBurn","inputs":[{"name":"account","type":"address","indexed":true,"internalType":"address"},{"name":"amount","type":"uint256","indexed":false,"internalType":"uint256"}],"anonymous":false},{"type":"event","name":"RequestDeposit","inputs":[{"name":"account","type":"address","indexed":true,"internalType":"address"},{"name":"amount","type":"uint256","indexed":false,"internalType":"uint256"}],"anonymous":false},{"type":"event","name":"RequestDonate","inputs":[{"name":"account","type":"address","indexed":true,"internalType":"address"},{"name":"amount","type":"uint256","indexed":false,"internalType":"uint256"}],"anonymous":false},{"type":"event","name":"RequestLiquidate","inputs":[{"name":"liquidator","type":"address","indexed":true,"internalType":"address"},{"name":"violator","type":"address","indexed":true,"internalType":"address"},{"name":"underlying","type":"address","indexed":true,"internalType":"address"},{"name":"collateral","type":"address","indexed":false,"internalType":"address"},{"name":"repay","type":"uint256","indexed":false,"internalType":"uint256"},{"name":"minYield","type":"uint256","indexed":false,"internalType":"uint256"}],"anonymous":false},{"type":"event","name":"RequestMint","inputs":[{"name":"account","type":"address","indexed":true,"internalType":"address"},{"name":"amount","type":"uint256","indexed":false,"internalType":"uint256"}],"anonymous":false},{"type":"event","name":"RequestRepay","inputs":[{"name":"account","type":"address","indexed":true,"internalType":"address"},{"name":"amount","type":"uint256","indexed":false,"internalType":"uint256"}],"anonymous":false},{"type":"event","name":"RequestSwap","inputs":[{"name":"accountIn","type":"address","indexed":true,"internalType":"address"},{"name":"accountOut","type":"address","indexed":true,"internalType":"address"},{"name":"underlyingIn","type":"address","indexed":true,"internalType":"address"},{"name":"underlyingOut","type":"address","indexed":false,"internalType":"address"},{"name":"amount","type":"uint256","indexed":false,"internalType":"uint256"},{"name":"swapType","type":"uint256","indexed":false,"internalType":"uint256"}],"anonymous":false},{"type":"event","name":"RequestSwapHub","inputs":[{"name":"accountIn","type":"address","indexed":true,"internalType":"address"},{"name":"accountOut","type":"address","indexed":true,"internalType":"address"},{"name":"underlyingIn","type":"address","indexed":true,"internalType":"address"},{"name":"underlyingOut","type":"address","indexed":false,"internalType":"address"},{"name":"amountIn","type":"uint256","indexed":false,"internalType":"uint256"},{"name":"amountOut","type":"uint256","indexed":false,"internalType":"uint256"},{"name":"mode","type":"uint256","indexed":false,"internalType":"uint256"},{"name":"swapHandler","type":"address","indexed":false,"internalType":"address"}],"anonymous":false},{"type":"event","name":"RequestSwapHubRepay","inputs":[{"name":"accountIn","type":"address","indexed":true,"internalType":"address"},{"name":"accountOut","type":"address","indexed":true,"internalType":"address"},{"name":"underlyingIn","type":"address","indexed":true,"internalType":"address"},{"name":"underlyingOut","type":"address","indexed":false,"internalType":"address"},{"name":"targetDebt","type":"uint256","indexed":false,"internalType":"uint256"},{"name":"swapHandler","type":"address","indexed":false,"internalType":"address"}],"anonymous":false},{"type":"event","name":"RequestTransferDToken","inputs":[{"name":"from","type":"address","indexed":true,"internalType":"address"},{"name":"to","type":"address","indexed":true,"internalType":"address"},{"name":"amount","type":"uint256","indexed":false,"internalType":"uint256"}],"anonymous":false},{"type":"event","name":"RequestTransferEToken","inputs":[{"name":"from","type":"address","indexed":true,"internalType":"address"},{"name":"to","type":"address","indexed":true,"internalType":"address"},{"name":"amount","type":"uint256","indexed":false,"internalType":"uint256"}],"anonymous":false},{"type":"event","name":"RequestWithdraw","inputs":[{"name":"account","type":"address","indexed":true,"internalType":"address"},{"name":"amount","type":"uint256","indexed":false,"internalType":"uint256"}],"anonymous":false},{"type":"event","name":"TrackAverageLiquidity","inputs":[{"name":"account","type":"address","indexed":true,"internalType":"address"}],"anonymous":false},{"type":"event","name":"UnTrackAverageLiquidity","inputs":[{"name":"account","type":"address","indexed":true,"internalType":"address"}],"anonymous":false},{"type":"event","name":"Withdraw","inputs":[{"name":"underlying","type":"address","indexed":true,"internalType":"address"},{"name":"account","type":"address","indexed":true,"internalType":"address"},{"name":"amount","type":"uint256","indexed":false,"internalType":"uint256"}],"anonymous":false}],"bytecode":{"object":"0x6101206040523480156200001257600080fd5b506040516200353d3803806200353d833981016040819052620000359162000086565b620f424060805260a09190915280516001600160a01b0390811660c05260208201511660e05260400151610100526200011d565b80516001600160a01b03811681146200008157600080fd5b919050565b60008082840360808112156200009b57600080fd5b835192506060601f1982011215620000b257600080fd5b50604051606081016001600160401b0381118282101715620000e457634e487b7160e01b600052604160045260246000fd5b604052620000f56020850162000069565b8152620001056040850162000069565b60208201526060939093015160408401525092909150565b60805160a05160c05160e051610100516133c06200017d60003960006113c50152600081816103f7015261138a015260008181610313015281816104270152818161132b01526115cd0152600060ee015260006101d401526133c06000f3fe608060405234801561001057600080fd5b50600436106100935760003560e01c80639693fa6b116100665780639693fa6b146101a1578063a1308f27146101cf578063c39b543a146101f6578063ebd7ba191461020b578063f70c2fde1461022b57600080fd5b806337fe974a1461009857806341976e09146100c157806369a92ea3146100e95780638eddcd921461011e575b600080fd5b6100ab6100a6366004612988565b61023e565b6040516100b891906129a5565b60405180910390f35b6100d46100cf366004612988565b610283565b604080519283526020830191909152016100b8565b6101107f000000000000000000000000000000000000000000000000000000000000000081565b6040519081526020016100b8565b61013161012c366004612988565b6102d0565b60408051825161ffff16815260208084015163ffffffff908116828401529383015180516001600160a01b0316838501529081015115156060808401919091529281015184166080808401919091529281015190931660a082015291015162ffffff1660c082015260e0016100b8565b6101b46101af366004612988565b6107f1565b604080519384526020840192909252908201526060016100b8565b6101107f000000000000000000000000000000000000000000000000000000000000000081565b610209610204366004612988565b610986565b005b61021e610219366004612988565b610a46565b6040516100b891906129d2565b6100d4610239366004612c34565b610b8f565b61026b60405180608001604052806000815260200160008152602001600081526020016000151581525090565b61027d8261027884610ce5565b610e31565b92915050565b6000806000610291846111df565b80516001600160a01b031660009081526009602052604081209192506102b7868361130c565b90506102c38184610b8f565b9097909650945050505050565b6102d8612854565b60408082018051600160209091015280516000920191909152805163ffffffff6060909101525162ffffff6080909101526001600160a01b037f000000000000000000000000000000000000000000000000000000000000000081169083160361034c576001815260006020820152919050565b6001600160a01b038281166000908152600b602052604090205416156103ba5760038152600060208083018290526001600160a01b038085168352600b825260408084205490911683526008909152908190205481830151600160a81b90910463ffffffff16910152919050565b60408051608081018252610bb8815261271060208201526101f49181019190915260646060820152600090819081805b60048110156105ab5760007f00000000000000000000000000000000000000000000000000000000000000006001600160a01b0316631698ee82897f000000000000000000000000000000000000000000000000000000000000000087866004811061045857610458612d63565b60200201516040516001600160e01b031960e086901b1681526001600160a01b03938416600482015292909116602483015262ffffff166044820152606401602060405180830381865afa1580156104b4573d6000803e3d6000fd5b505050506040513d601f19601f820116820180604052508101906104d89190612d79565b90506001600160a01b0381166104ee57506105a3565b6000816001600160a01b0316631a6865026040518163ffffffff1660e01b8152600401602060405180830381865afa15801561052e573d6000803e3d6000fd5b505050506040513d601f19601f820116820180604052508101906105529190612d96565b90506001600160a01b038716158061057b5750836001600160801b0316816001600160801b0316115b156105a05781965084836004811061059557610595612d63565b602002015195508093505b50505b6001016103ea565b5050506001600160a01b0382166106095760405162461bcd60e51b815260206004820152601760248201527f652f6e6f2d756e69737761702d706f6f6c2d617661696c00000000000000000060448201526064015b60405180910390fd5b816001600160a01b031661061d8583611326565b6001600160a01b0316146106735760405162461bcd60e51b815260206004820152601760248201527f652f6261642d756e69737761702d706f6f6c2d616464720000000000000000006044820152606401610600565b6002835262ffffff811660208401526040516332148f6760e01b8152609060048201526001600160a01b038316906332148f6790602401600060405180830381600087803b1580156106c457600080fd5b505af19250505080156106d5575060015b6107e9576106e1612dbf565b806308c379a0036107ac57506106f5612ddb565b8061070057506107ae565b805160208201207f1fe14394fe440ba74c2caa4919b61019ba668ae98f3a2e6e8a9e676c13068ad7016107755760405162461bcd60e51b815260206004820152601e60248201527f652f7269736b2f756e69737761702d706f6f6c2d6e6f742d696e6974656400006044820152606401610600565b806040516020016107869190612e7e565b60408051601f198184030181529082905262461bcd60e51b825261060091600401612eb5565b505b3d8080156107d8576040519150601f19603f3d011682016040523d82523d6000602084013e6107dd565b606091505b506107e78161144a565b505b50505b919050565b600080600080610800856111df565b80516001600160a01b03166000908152600960205260408120919250610826878361130c565b90506108328184610b8f565b909650945060008080806108468588611491565b945050935093509350600161ffff168361ffff160361086f57670de0b6b3a76400009750610978565b61ffff831660021480610886575061ffff83166003145b156109225760006108978584611326565b90506000816001600160a01b0316633850c7bd6040518163ffffffff1660e01b815260040160e060405180830381865afa1580156108d9573d6000803e3d6000fd5b505050506040513d601f19601f820116820180604052508101906108fd9190612ee8565b50505050505090506109198684836001600160a01b03166115c9565b99505050610978565b60031961ffff84160161093757899750610978565b60405162461bcd60e51b8152602060048201526016602482015275652f756e6b6e6f776e2d70726963696e672d7479706560501b6044820152606401610600565b505050505050509193909250565b60006109918261023e565b9050806060015115806109a8575080604001516001145b6109f45760405162461bcd60e51b815260206004820152601c60248201527f652f626f72726f772d69736f6c6174696f6e2d76696f6c6174696f6e000000006044820152606401610600565b602081015181511015610a425760405162461bcd60e51b81526020600482015260166024820152753297b1b7b63630ba32b930b616bb34b7b630ba34b7b760511b6044820152606401610600565b5050565b60606000610a5383610ce5565b90506000815167ffffffffffffffff811115610a7157610a71612a57565b604051908082528060200260200182016040528015610aaa57816020015b610a976128a1565b815260200190600190039081610a8f5790505b50604080516001808252818301909252919250600091906020808301908036833701905050905060005b8351811015610b8557838181518110610aef57610aef612d63565b602002602001015182600081518110610b0a57610b0a612d63565b60200260200101906001600160a01b031690816001600160a01b0316815250838281518110610b3b57610b3b612d63565b60209081029190910101516001600160a01b039091169052610b5d8683610e31565b838281518110610b6f57610b6f612d63565b6020908102919091018101510152600101610ad4565b5090949350505050565b60405160009081908180808080610ba68a8a611491565b94509450945094509450600161ffff168461ffff1603610bd857670de0b6b3a764000097508162ffffff169650610cd4565b60011961ffff851601610c10576000610bf18685611326565b9050610c048683838662ffffff166116d8565b9099509750610cd49050565b60031961ffff851601610937576001600160a01b038086166000908152600d6020526040902054610c419116611b7a565b97506000965087158015610c59575062ffffff831615155b15610c84576000610c6a8685611326565b9050610c7d8683838662ffffff166116d8565b9099509750505b87600003610cd45760405162461bcd60e51b815260206004820152601960248201527f652f756e61626c652d746f2d6765742d7468652d7072696365000000000000006044820152606401610600565b505050505080604052509250929050565b6001600160a01b0380821660009081526006602052604081205460609263ffffffff660100000000000083041692600160501b90920416908267ffffffffffffffff811115610d3657610d36612a57565b604051908082528060200260200182016040528015610d5f578160200160208202803683370190505b5090508263ffffffff16600003610d7857949350505050565b6001600160a01b0385166000908152600760205260408120825190918491849190610da557610da5612d63565b6001600160a01b039092166020928302919091019091015260015b8463ffffffff16811015610e265781816401000000008110610de457610de4612d63565b015483516001600160a01b0390911690849083908110610e0657610e06612d63565b6001600160a01b0390921660209283029190910190910152600101610dc0565b509095945050505050565b610e5e60405180608001604052806000815260200160008152602001600081526020016000151581525090565b600080825260208201819052604082018190526060820152610ea76040805160a08101825260008082526020820181905291810182905260608101829052608081019190915290565b6000610eb16128e9565b60005b85518110156111d5576000868281518110610ed157610ed1612d63565b60200260200101519050610ee4816111df565b80516001600160a01b039081166000908152600960209081526040808320938d1683526005840190915290205491965094506001600160701b03811690600160701b90046001600160901b0316801561112057610f42838787611c72565b506000610f4f8689610b8f565b5060408a018051919250610f6282612fa1565b905250602088015115610f7757600160608a01525b6000610f8488888e612015565b905083156110a0576000610f988886612072565b905081600063e27f6600610fb063ee6b280084612fba565b610fba9190612fe7565b905082811115610fe75763ee6b2800610fd763e27f660085612fba565b610fe19190612fe7565b91508290505b600063ee6b28008d6040015163ffffffff1683866110059190612ffb565b61100f9190612fba565b6110199190612fe7565b9050611025838261300e565b9050670de0b6b3a764000061103a8783612fba565b6110449190612fe7565b8e518f9061105390839061300e565b90525061106290508285612ffb565b9350670de0b6b3a76400006110778684612fba565b6110819190612fe7565b8d602001818151611092919061300e565b90525050600160608d015250505b670de0b6b3a76400006110b38383612fba565b6110bd9190612fe7565b9050886060015163ffffffff166000036110de576001600160901b03611101565b606089015163ffffffff166110f763ee6b280083612fba565b6111019190612fe7565b9050808a602001818151611115919061300e565b9052506111c7915050565b81158015906111385750604087015163ffffffff1615155b156111c757611148838787611c72565b5060006111558689610b8f565b50905060006111648785612072565b90506000670de0b6b3a764000061117b8484612fba565b6111859190612fe7565b905063ee6b28008a6040015163ffffffff16826111a29190612fba565b6111ac9190612fe7565b9050808b6000018181516111c0919061300e565b9052505050505b505050806001019050610eb4565b5050505092915050565b6040805160a0810182526000808252602082018190529181018290526060810182905260808101919091526001600160a01b03828116600090815260086020908152604091829020825160a0810184529054938416808252600160a01b850460ff16151592820192909252600160a81b840463ffffffff90811693820193909352600160c81b84049092166060830152600160e81b90920462ffffff166080820152906112c75760405162461bcd60e51b8152602060048201526016602482015275194bdb585c9ad95d0b5b9bdd0b5858dd1a5d985d195960521b6044820152606401610600565b63ffffffff8016816060015163ffffffff16036112e9576342c1d80060608201525b62ffffff8016816080015162ffffff160361027d57610708608082015292915050565b6113146128e9565b61131f838383611c72565b5092915050565b6000827f00000000000000000000000000000000000000000000000000000000000000006001600160a01b03808216908316111561136057905b604080516001600160a01b03808516602083015283169181019190915262ffffff851660608201527f000000000000000000000000000000000000000000000000000000000000000090608001604051602081830303815290604052805190602001207f0000000000000000000000000000000000000000000000000000000000000000604051602001611429939291906001600160f81b0319815260609390931b6bffffffffffffffffffffffff191660018401526015830191909152603582015260550190565b60408051601f19818403018152919052805160209091012095945050505050565b80511561145957805181602001fd5b60405162461bcd60e51b815260206004820152600d60248201526c3297b2b6b83a3c96b2b93937b960991b6044820152606401610600565b6000806000806000600361ffff1687610140015161ffff160361159a5786516001600160a01b039081166000908152600b602052604081205490911695506114d8866111df565b608081015181516001600160a01b031660009081526009602052604090208054600160d01b810461ffff169850600160e01b810463ffffffff1697509195509192506115319065010000000000900460ff166012613021565b61153c90600a61311e565b925060021961ffff8716016115935760405162461bcd60e51b815260206004820152601960248201527f652f6e65737465642d70726963652d666f7277617264696e67000000000000006044820152606401610600565b50506115bf565b5050845161014086015161016087015160808701516101a08901519396509194509250905b9295509295909350565b60007f00000000000000000000000000000000000000000000000000000000000000006001600160a01b0316846001600160a01b0316101561163757826116268380611621670de0b6b3a7640000600160c01b612fe7565b612093565b6116309190612fe7565b9050611698565b61165c828061164e86670de0b6b3a7640000612fba565b61162190600160c01b612fe7565b90508060000361167c57506ec097ce7bc90715b34b9f10000000006116d1565b611695816ec097ce7bc90715b34b9f1000000000612fe7565b90505b6ec097ce7bc90715b34b9f10000000008111156116c557506ec097ce7bc90715b34b9f10000000006116d1565b806000036116d1575060015b9392505050565b604080516002808252606082018352600092839283929091602083019080368337019050509050838160008151811061171357611713612d63565b602002602001019063ffffffff16908163ffffffff168152505060008160018151811061174257611742612d63565b602002602001019063ffffffff16908163ffffffff1681525050600080866001600160a01b031663883bdbfd60e01b84604051602401611782919061312d565b60408051601f198184030181529181526020820180516001600160e01b03166001600160e01b03199094169390931790925290516117c0919061316b565b600060405180830381855afa9150503d80600081146117fb576040519150601f19603f3d011682016040523d82523d6000602084013e611800565b606091505b509150915081611ae05760405160206024820152600360448201526213d31160ea1b606482015260840160408051601f19818403018152919052602080820180516001600160e01b031662461bcd60e51b178152915190912082519183019190912014611870576118708161144a565b600080886001600160a01b0316633850c7bd6040518163ffffffff1660e01b815260040160e060405180830381865afa1580156118b1573d6000803e3d6000fd5b505050506040513d601f19601f820116820180604052508101906118d59190612ee8565b5050509350935050506000808a6001600160a01b031663252c09d7848660016118fe9190613187565b61190891906131a2565b6040516001600160e01b031960e084901b16815261ffff9091166004820152602401608060405180830381865afa158015611947573d6000803e3d6000fd5b505050506040513d601f19601f8201168201806040525081019061196b91906131d5565b935050509150806119e65760405163252c09d760e01b8152600060048201526001600160a01b038c169063252c09d790602401608060405180830381865afa1580156119bb573d6000803e3d6000fd5b505050506040513d601f19601f820116820180604052508101906119df91906131d5565b5091935050505b6119f663ffffffff831642612ffb565b99508987600081518110611a0c57611a0c612d63565b602002602001019063ffffffff16908163ffffffff16815250508a6001600160a01b031663883bdbfd60e01b88604051602401611a49919061312d565b60408051601f198184030181529181526020820180516001600160e01b03166001600160e01b0319909416939093179092529051611a87919061316b565b600060405180830381855afa9150503d8060008114611ac2576040519150601f19603f3d011682016040523d82523d6000602084013e611ac7565b606091505b50909650945085611adb57611adb8561144a565b505050505b600081806020019051810190611af69190613230565b905060008782600081518110611b0e57611b0e612d63565b602002602001015183600181518110611b2957611b29612d63565b6020026020010151611b3b91906132de565b611b45919061330b565b90506000611b5282612141565b9050611b688c8c836001600160a01b03166115c9565b9c989b50979950505050505050505050565b60408051600481526024810182526020810180516001600160e01b03166350d25bcd60e01b1790529051600091829182916001600160a01b03861691611bc0919061316b565b600060405180830381855afa9150503d8060008114611bfb576040519150601f19603f3d011682016040523d82523d6000602084013e611c00565b606091505b509150915081611c14575060009392505050565b600081806020019051810190611c2a9190613349565b905060008113611c3f57506000949350505050565b8093506ec097ce7bc90715b34b9f10000000008411156107e757506ec097ce7bc90715b34b9f1000000000949350505050565b6001600160a01b0383168152815464ffffffffff811660a083015265010000000000810460ff90811660c084018190526601000000000000830463ffffffff90811660e0860152600160501b8404600b0b610100860152600160b01b84048116610120860152600160d01b840461ffff16610140860152600160e01b9093049092166101608401526001840154600160a01b90046001600160601b0316606084015260038401546001600160701b038082166020860152600160701b9091046001600160901b03166040850152600485015460808501526012839003909116600a0a6101a084018190526000929181611d6d57611d6d612fd1565b046101c08401526000611d808430612477565b9050836101c001518111611da1576101a08401518102610180850152611daa565b60006101808501525b8360a0015164ffffffffff16421461200c576001925060008460a0015164ffffffffff1642611dd99190612ffb565b905060006b033b2e3c9fd0803ce80000008660800151611e25886101000151600b0b6b033b2e3c9fd0803ce8000000611e129190613362565b856b033b2e3c9fd0803ce800000061255a565b611e2f9190612fba565b611e399190612fe7565b9050600086608001518288604001516001600160901b0316611e5b9190612fba565b611e659190612fe7565b606088015160208901519192506001600160601b0316906001600160701b03166000611e99633b9aca0063ee6b2800612fba565b6101208b015163ffffffff90811614611eb7578a6101200151611ebd565b6336d616005b63ffffffff168b604001516001600160901b031686611edc9190612ffb565b611ee69190612fba565b611ef09190612fe7565b90508015611f61576000611f08633b9aca0086612fe7565b8b6101800151611f18919061300e565b9050611f248282612ffb565b611f2e8483612fba565b611f389190612fe7565b92508a602001516001600160701b031683611f539190612ffb565b611f5d908561300e565b9350505b6001600160701b038211801590611f7f57506001600160901b038411155b8015611f9257506001600160601b038311155b1561200557611fa084612617565b6001600160901b031660408b015260808a0185905264ffffffffff421660a08b015260208a01516001600160701b0316821461200557611fdf8361267e565b6001600160601b031660608b0152611ff6826126e2565b6001600160701b031660208b01525b5050505050505b50509392505050565b6001600160a01b0381166000908152600584016020526040812054633b9aca009061206090859061205b90889083908890600160701b90046001600160901b031661273b565b61278d565b61206a9190612fe7565b949350505050565b60008061207e846127cb565b9050670de0b6b3a76400006120608285612fba565b60008080600019858709858702925082811083820303915050806000036120cc57600084116120c157600080fd5b5082900490506116d1565b8084116120d857600080fd5b60008486880960026001871981018816978890046003810283188082028403028082028403028082028403028082028403028082028403029081029092039091026000889003889004909101858311909403939093029303949094049190911702949350505050565b60008060008360020b12612158578260020b612160565b8260020b6000035b9050620d89e88111156121995760405162461bcd60e51b81526020600482015260016024820152601560fa1b6044820152606401610600565b6000816001166000036121b057600160801b6121c2565b6ffffcb933bd6fad37aa2d162d1a5940015b70ffffffffffffffffffffffffffffffffff16905060028216156121f6576ffff97272373d413259a46990580e213a0260801c5b6004821615612215576ffff2e50f5f656932ef12357cf3c7fdcc0260801c5b6008821615612234576fffe5caca7e10e4e61c3624eaa0941cd00260801c5b6010821615612253576fffcb9843d60f6159c9db58835c9266440260801c5b6020821615612272576fff973b41fa98c081472e6896dfb254c00260801c5b6040821615612291576fff2ea16466c96a3843ec78b326b528610260801c5b60808216156122b0576ffe5dee046a99a2a811c461f1969c30530260801c5b6101008216156122d0576ffcbe86c7900a88aedcffc83b479aa3a40260801c5b6102008216156122f0576ff987a7253ac413176f2b074cf7815e540260801c5b610400821615612310576ff3392b0822b70005940c7a398e4b70f30260801c5b610800821615612330576fe7159475a2c29b7443b29c7fa6e889d90260801c5b611000821615612350576fd097f3bdfd2022b8845ad8f792aa58250260801c5b612000821615612370576fa9f746462d870fdf8a65dc1f90e061e50260801c5b614000821615612390576f70d869a156d2a1b890bb3df62baf32f70260801c5b6180008216156123b0576f31be135f97d08fd981231505542fcfa60260801c5b620100008216156123d1576f09aa508b5b7a84e1c677de54f3e99bc90260801c5b620200008216156123f1576e5d6af8dedb81196699c329225ee6040260801c5b62040000821615612410576d2216e584f5fa1ea926041bedfe980260801c5b6208000082161561242d576b048a170391f7dc42444e8fa20260801c5b60008460020b131561244e57806000198161244a5761244a612fd1565b0490505b640100000000810615612462576001612465565b60005b60ff16602082901c0192505050919050565b6040805183516001600160a01b03848116602480850191909152845180850390910181526044840185526020810180516001600160e01b03166370a0823160e01b179052935160009485938493169162030d40916124d49161316b565b6000604051808303818686fa925050503d8060008114612510576040519150601f19603f3d011682016040523d82523d6000602084013e612515565b606091505b5091509150811580612528575060208151105b1561253857600093505050612551565b8080602001905181019061254c9190613349565b935050505b60405292915050565b60008380156125fa5760018416801561257557859250612579565b8392505b50600283046002850494505b84156125f457858602868782041461259c57600080fd5b818101818110156125ac57600080fd5b85900496505060018516156125e95785830283878204141587151516156125d257600080fd5b818101818110156125e257600080fd5b8590049350505b600285049450612585565b5061260f565b83801561260a576000925061200c565b839250505b509392505050565b60006001600160901b0382111561267a5760405162461bcd60e51b815260206004820152602160248201527f652f646562742d616d6f756e742d746f6f2d6c617267652d746f2d656e636f646044820152606560f81b6064820152608401610600565b5090565b60006001600160601b0382111561267a5760405162461bcd60e51b815260206004820152602260248201527f652f736d616c6c2d616d6f756e742d746f6f2d6c617267652d746f2d656e636f604482015261646560f01b6064820152608401610600565b60006001600160701b0382111561267a5760405162461bcd60e51b815260206004820152601c60248201527f652f616d6f756e742d746f6f2d6c617267652d746f2d656e636f6465000000006044820152606401610600565b60008160000361274d5750600061206a565b6001600160a01b0383166000908152600586016020526040902060010154608085015161277a9084612fba565b6127849190612fe7565b95945050505050565b60008160000361279f5750600061027d565b6101a0830151633b9aca0002808060001985820101816127c1576127c1612fd1565b0402949350505050565b600080633b9aca0083604001516001600160901b03166127eb9190612fe7565b8361018001516127fb919061300e565b9050801580612815575060208301516001600160701b0316155b1561282a5750670de0b6b3a764000092915050565b60208301516001600160701b031661284a82670de0b6b3a7640000612fba565b6116d19190612fe7565b604080516060810182526000808252602082015290810161289c6040805160a08101825260008082526020820181905291810182905260608101829052608081019190915290565b905290565b604051806040016040528060006001600160a01b0316815260200161289c60405180608001604052806000815260200160008152602001600081526020016000151581525090565b604080516101e081018252600080825260208201819052918101829052606081018290526080810182905260a0810182905260c0810182905260e08101829052610100810182905261012081018290526101408101829052610160810182905261018081018290526101a081018290526101c081019190915290565b6001600160a01b038116811461297a57600080fd5b50565b80356107ec81612965565b60006020828403121561299a57600080fd5b81356116d181612965565b8151815260208083015190820152604080830151908201526060808301511515908201526080810161027d565b6020808252825182820181905260009190848201906040850190845b81811015612a4b57835180516001600160a01b03168452850151612a37868501828051825260208101516020830152604081015160408301526060810151151560608301525050565b509284019260a092909201916001016129ee565b50909695505050505050565b634e487b7160e01b600052604160045260246000fd5b601f8201601f1916810167ffffffffffffffff81118282101715612a9357612a93612a57565b6040525050565b6040516101e0810167ffffffffffffffff81118282101715612abe57612abe612a57565b60405290565b80356001600160701b03811681146107ec57600080fd5b80356001600160901b03811681146107ec57600080fd5b80356001600160601b03811681146107ec57600080fd5b803564ffffffffff811681146107ec57600080fd5b60ff8116811461297a57600080fd5b80356107ec81612b1e565b63ffffffff8116811461297a57600080fd5b80356107ec81612b38565b8035600b81900b81146107ec57600080fd5b61ffff8116811461297a57600080fd5b80356107ec81612b67565b801515811461297a57600080fd5b600060a08284031215612ba257600080fd5b60405160a0810181811067ffffffffffffffff82111715612bc557612bc5612a57565b6040529050808235612bd681612965565b81526020830135612be681612b82565b60208201526040830135612bf981612b38565b60408201526060830135612c0c81612b38565b6060820152608083013562ffffff81168114612c2757600080fd5b6080919091015292915050565b600080828403610280811215612c4957600080fd5b6101e080821215612c5957600080fd5b612c61612a9a565b9150612c6c8561297d565b8252612c7a60208601612ac4565b6020830152612c8b60408601612adb565b6040830152612c9c60608601612af2565b606083015260808501356080830152612cb760a08601612b09565b60a0830152612cc860c08601612b2d565b60c0830152612cd960e08601612b4a565b60e0830152610100612cec818701612b55565b90830152610120612cfe868201612b4a565b90830152610140612d10868201612b77565b90830152610160612d22868201612b4a565b9083015261018085810135908301526101a080860135908301526101c080860135908301529092508290612d5886828701612b90565b925050509250929050565b634e487b7160e01b600052603260045260246000fd5b600060208284031215612d8b57600080fd5b81516116d181612965565b600060208284031215612da857600080fd5b81516001600160801b03811681146116d157600080fd5b600060033d1115612dd85760046000803e5060005160e01c5b90565b600060443d1015612de95790565b6040516003193d81016004833e81513d67ffffffffffffffff8160248401118184111715612e1957505050505090565b8285019150815181811115612e315750505050505090565b843d8701016020828501011115612e4b5750505050505090565b610e2660208286010187612a6d565b60005b83811015612e75578181015183820152602001612e5d565b50506000910152565b6e652f7269736b2f756e69737761702f60881b815260008251612ea881600f850160208701612e5a565b91909101600f0192915050565b6020815260008251806020840152612ed4816040850160208701612e5a565b601f01601f19169190910160400192915050565b600080600080600080600060e0888a031215612f0357600080fd5b8751612f0e81612965565b8097505060208801518060020b8114612f2657600080fd5b6040890151909650612f3781612b67565b6060890151909550612f4881612b67565b6080890151909450612f5981612b67565b60a0890151909350612f6a81612b1e565b60c0890151909250612f7b81612b82565b8091505092959891949750929550565b634e487b7160e01b600052601160045260246000fd5b600060018201612fb357612fb3612f8b565b5060010190565b808202811582820484141761027d5761027d612f8b565b634e487b7160e01b600052601260045260246000fd5b600082612ff657612ff6612fd1565b500490565b8181038181111561027d5761027d612f8b565b8082018082111561027d5761027d612f8b565b60ff828116828216039081111561027d5761027d612f8b565b600181815b8085111561307557816000190482111561305b5761305b612f8b565b8085161561306857918102915b93841c939080029061303f565b509250929050565b60008261308c5750600161027d565b816130995750600061027d565b81600181146130af57600281146130b9576130d5565b600191505061027d565b60ff8411156130ca576130ca612f8b565b50506001821b61027d565b5060208310610133831016604e8410600b84101617156130f8575081810a61027d565b613102838361303a565b806000190482111561311657613116612f8b565b029392505050565b60006116d160ff84168361307d565b6020808252825182820181905260009190848201906040850190845b81811015612a4b57835163ffffffff1683529284019291840191600101613149565b6000825161317d818460208701612e5a565b9190910192915050565b61ffff81811683821601908082111561131f5761131f612f8b565b600061ffff808416806131b7576131b7612fd1565b92169190910692915050565b8051600681900b81146107ec57600080fd5b600080600080608085870312156131eb57600080fd5b84516131f681612b38565b9350613204602086016131c3565b9250604085015161321481612965565b606086015190925061322581612b82565b939692955090935050565b6000602080838503121561324357600080fd5b825167ffffffffffffffff8082111561325b57600080fd5b818501915085601f83011261326f57600080fd5b81518181111561328157613281612a57565b8060051b915060405161329685840182612a6d565b818152918301840191848101888411156132af57600080fd5b938501935b838510156132d2576132c5856131c3565b81529385019385016132b4565b50979650505050505050565b600682810b9082900b03667fffffffffffff198112667fffffffffffff8213171561027d5761027d612f8b565b60008160060b8360060b8061332257613322612fd1565b667fffffffffffff1982146000198214161561334057613340612f8b565b90059392505050565b60006020828403121561335b57600080fd5b5051919050565b808201828112600083128015821682158216171561338257613382612f8b565b50509291505056fea2646970667358221220d507ab6086556fa0208ee3e315c3bccbcf03f48f4d42c4e37633453efdaa155064736f6c63430008170033","linkReferences":{}},"methodIdentifiers":{"computeAssetLiquidities(address)":"ebd7ba19","computeLiquidity(address)":"37fe974a","getNewMarketParameters(address)":"8eddcd92","getPrice(address)":"41976e09","getPriceFull(address)":"9693fa6b","getPriceInternal((address,uint112,uint144,uint96,uint256,uint40,uint8,uint32,int96,uint32,uint16,uint32,uint256,uint256,uint256),(address,bool,uint32,uint32,uint24))":"f70c2fde","moduleGitCommit()":"69a92ea3","moduleId()":"a1308f27","requireLiquidity(address)":"c39b543a"},"id":13}