{"abi":[{"type":"constructor","inputs":[{"name":"moduleGitCommit_","type":"bytes32","internalType":"bytes32"},{"name":"euler_","type":"address","internalType":"address"}],"stateMutability":"nonpayable"},{"type":"function","name":"euler","inputs":[],"outputs":[{"name":"","type":"address","internalType":"contract Euler"}],"stateMutability":"view"},{"type":"function","name":"exec","inputs":[],"outputs":[{"name":"","type":"address","internalType":"contract Exec"}],"stateMutability":"view"},{"type":"function","name":"getAccountStatus","inputs":[{"name":"account","type":"address","internalType":"address"}],"outputs":[{"name":"collateralValue","type":"uint256","internalType":"uint256"},{"name":"liabilityValue","type":"uint256","internalType":"uint256"},{"name":"healthScore","type":"uint256","internalType":"uint256"}],"stateMutability":"view"},{"type":"function","name":"getDTokenBalance","inputs":[{"name":"underlying","type":"address","internalType":"address"},{"name":"account","type":"address","internalType":"address"}],"outputs":[{"name":"","type":"uint256","internalType":"uint256"}],"stateMutability":"view"},{"type":"function","name":"getETokenBalance","inputs":[{"name":"underlying","type":"address","internalType":"address"},{"name":"account","type":"address","internalType":"address"}],"outputs":[{"name":"","type":"uint256","internalType":"uint256"}],"stateMutability":"view"},{"type":"function","name":"getEnteredMarkets","inputs":[{"name":"account","type":"address","internalType":"address"}],"outputs":[{"name":"","type":"address[]","internalType":"address[]"}],"stateMutability":"view"},{"type":"function","name":"getEulerAccountAllowance","inputs":[{"name":"underlying","type":"address","internalType":"address"},{"name":"account","type":"address","internalType":"address"}],"outputs":[{"name":"","type":"uint256","internalType":"uint256"}],"stateMutability":"view"},{"type":"function","name":"getPTokenBalance","inputs":[{"name":"underlying","type":"address","internalType":"address"},{"name":"account","type":"address","internalType":"address"}],"outputs":[{"name":"","type":"uint256","internalType":"uint256"}],"stateMutability":"view"},{"type":"function","name":"getPriceFull","inputs":[{"name":"underlying","type":"address","internalType":"address"}],"outputs":[{"name":"twap","type":"uint256","internalType":"uint256"},{"name":"twapPeriod","type":"uint256","internalType":"uint256"},{"name":"currPrice","type":"uint256","internalType":"uint256"}],"stateMutability":"view"},{"type":"function","name":"getPricingConfig","inputs":[{"name":"underlying","type":"address","internalType":"address"}],"outputs":[{"name":"pricingType","type":"uint16","internalType":"uint16"},{"name":"pricingParameters","type":"uint32","internalType":"uint32"},{"name":"pricingForwarded","type":"address","internalType":"address"}],"stateMutability":"view"},{"type":"function","name":"getTokenInfo","inputs":[{"name":"underlying","type":"address","internalType":"address"}],"outputs":[{"name":"name","type":"string","internalType":"string"},{"name":"symbol","type":"string","internalType":"string"}],"stateMutability":"view"},{"type":"function","name":"getTotalSupplyAndDebts","inputs":[{"name":"underlying","type":"address","internalType":"address"}],"outputs":[{"name":"poolSize","type":"uint256","internalType":"uint256"},{"name":"totalBalances","type":"uint256","internalType":"uint256"},{"name":"totalBorrows","type":"uint256","internalType":"uint256"},{"name":"reserveBalance","type":"uint256","internalType":"uint256"}],"stateMutability":"view"},{"type":"function","name":"interestAccumulator","inputs":[{"name":"underlying","type":"address","internalType":"address"}],"outputs":[{"name":"","type":"uint256","internalType":"uint256"}],"stateMutability":"view"},{"type":"function","name":"interestRateModel","inputs":[{"name":"underlying","type":"address","internalType":"address"}],"outputs":[{"name":"","type":"uint256","internalType":"uint256"}],"stateMutability":"view"},{"type":"function","name":"interestRates","inputs":[{"name":"underlying","type":"address","internalType":"address"}],"outputs":[{"name":"borrowSPY","type":"uint256","internalType":"uint256"},{"name":"borrowAPY","type":"uint256","internalType":"uint256"},{"name":"supplyAPY","type":"uint256","internalType":"uint256"}],"stateMutability":"view"},{"type":"function","name":"irmSettings","inputs":[{"name":"underlying","type":"address","internalType":"address"}],"outputs":[{"name":"r","type":"tuple","internalType":"struct EulerSimpleLens.ResponseIRM","components":[{"name":"kink","type":"uint256","internalType":"uint256"},{"name":"baseAPY","type":"uint256","internalType":"uint256"},{"name":"kinkAPY","type":"uint256","internalType":"uint256"},{"name":"maxAPY","type":"uint256","internalType":"uint256"},{"name":"baseSupplyAPY","type":"uint256","internalType":"uint256"},{"name":"kinkSupplyAPY","type":"uint256","internalType":"uint256"},{"name":"maxSupplyAPY","type":"uint256","internalType":"uint256"}]}],"stateMutability":"view"},{"type":"function","name":"markets","inputs":[],"outputs":[{"name":"","type":"address","internalType":"contract Markets"}],"stateMutability":"view"},{"type":"function","name":"moduleGitCommit","inputs":[],"outputs":[{"name":"","type":"bytes32","internalType":"bytes32"}],"stateMutability":"view"},{"type":"function","name":"reserveFee","inputs":[{"name":"underlying","type":"address","internalType":"address"}],"outputs":[{"name":"","type":"uint32","internalType":"uint32"}],"stateMutability":"view"},{"type":"function","name":"underlyingToAssetConfig","inputs":[{"name":"underlying","type":"address","internalType":"address"}],"outputs":[{"name":"config","type":"tuple","internalType":"struct Storage.AssetConfig","components":[{"name":"eTokenAddress","type":"address","internalType":"address"},{"name":"borrowIsolated","type":"bool","internalType":"bool"},{"name":"collateralFactor","type":"uint32","internalType":"uint32"},{"name":"borrowFactor","type":"uint32","internalType":"uint32"},{"name":"twapWindow","type":"uint24","internalType":"uint24"}]}],"stateMutability":"view"},{"type":"function","name":"underlyingToDToken","inputs":[{"name":"underlying","type":"address","internalType":"address"}],"outputs":[{"name":"dToken","type":"address","internalType":"address"}],"stateMutability":"view"},{"type":"function","name":"underlyingToEToken","inputs":[{"name":"underlying","type":"address","internalType":"address"}],"outputs":[{"name":"eToken","type":"address","internalType":"address"}],"stateMutability":"view"},{"type":"function","name":"underlyingToInternalTokens","inputs":[{"name":"underlying","type":"address","internalType":"address"}],"outputs":[{"name":"eToken","type":"address","internalType":"address"},{"name":"dToken","type":"address","internalType":"address"},{"name":"pToken","type":"address","internalType":"address"}],"stateMutability":"view"},{"type":"function","name":"underlyingToPToken","inputs":[{"name":"underlying","type":"address","internalType":"address"}],"outputs":[{"name":"pToken","type":"address","internalType":"address"}],"stateMutability":"view"}],"bytecode":{"object":"0x6101006040523480156200001257600080fd5b5060405162001da338038062001da3833981016040819052620000359162000151565b60808290526001600160a01b03811660a081905260405163734c938f60e01b81526002600482015263734c938f90602401602060405180830381865afa15801562000084573d6000803e3d6000fd5b505050506040513d601f19601f82011682018060405250810190620000aa919062000180565b6001600160a01b0390811660c05260a05160405163734c938f60e01b81526005600482015291169063734c938f90602401602060405180830381865afa158015620000f9573d6000803e3d6000fd5b505050506040513d601f19601f820116820180604052508101906200011f919062000180565b6001600160a01b031660e05250620001a59050565b80516001600160a01b03811681146200014c57600080fd5b919050565b600080604083850312156200016557600080fd5b82519150620001776020840162000134565b90509250929050565b6000602082840312156200019357600080fd5b6200019e8262000134565b9392505050565b60805160a05160c05160e051611b546200024f60003960008181610416015281816108e401526112230152600081816101f0015281816105360152818161064a015281816106db01528181610777015281816107ca01528181610a1e01528181610aba01528181610d2401528181610db70152818161111b01526112f90152600081816104a60152818161097e01528181610b3e0152610e48015260006102c60152611b546000f3fe608060405234801561001057600080fd5b50600436106101585760003560e01c8063b409dd9b116100c3578063d6ba7c091161007c578063d6ba7c0914610438578063db661b71146104a1578063dccda03d146104c8578063eea0bd4d146104db578063fd4fa05a146104ee578063fd7948d41461050157600080fd5b8063b409dd9b1461037d578063b6e8f70514610390578063b74b1ed5146103a3578063b97dfd40146103cb578063bcc343ae146103fe578063c1c0e9c41461041157600080fd5b806369a92ea31161011557806369a92ea3146102c157806389488749146102f65780638ccb720b1461030957806395d20fc5146103295780639693fa6b1461033c578063a4f16fbd1461036a57600080fd5b80631b3005821461015d5780631f69565f1461018d578063342b9805146101ae5780633ac2a032146101eb5780634e9cfac214610212578063546422d614610280575b600080fd5b61017061016b3660046115c9565b610514565b6040516001600160a01b0390911681526020015b60405180910390f35b6101a061019b3660046115c9565b6105aa565b604051610184929190611636565b6101c16101bc3660046115c9565b6105d8565b604080516001600160a01b0394851681529284166020840152921691810191909152606001610184565b6101707f000000000000000000000000000000000000000000000000000000000000000081565b6102256102203660046115c9565b610604565b604051610184919081516001600160a01b0316815260208083015115159082015260408083015163ffffffff908116918301919091526060808401519091169082015260809182015162ffffff169181019190915260a00190565b61029361028e3660046115c9565b6106b5565b6040805161ffff909416845263ffffffff90921660208401526001600160a01b031690820152606001610184565b6102e87f000000000000000000000000000000000000000000000000000000000000000081565b604051908152602001610184565b6101706103043660046115c9565b610755565b61031c6103173660046115c9565b6107a8565b604051610184919061165b565b6102e86103373660046116a8565b61083b565b61034f61034a3660046115c9565b6108be565b60408051938452602084019290925290820152606001610184565b6102e86103783660046116a8565b61095f565b6102e861038b3660046115c9565b6109fc565b6102e861039e3660046116a8565b610a8c565b6103b66103b13660046115c9565b610a98565b60405163ffffffff9091168152602001610184565b6103de6103d93660046115c9565b610b27565b604080519485526020850193909352918301526060820152608001610184565b6102e861040c3660046115c9565b610d02565b6101707f000000000000000000000000000000000000000000000000000000000000000081565b61044b6104463660046115c9565b610d55565b6040516101849190600060e082019050825182526020830151602083015260408301516040830152606083015160608301526080830151608083015260a083015160a083015260c083015160c083015292915050565b6101707f000000000000000000000000000000000000000000000000000000000000000081565b61034f6104d63660046115c9565b6110f5565b6102e86104e93660046116a8565b6111bf565b61034f6104fc3660046115c9565b6111fd565b61017061050f3660046115c9565b6112d7565b604051630d9802c160e11b81526001600160a01b0382811660048301526000917f000000000000000000000000000000000000000000000000000000000000000090911690631b300582906024015b602060405180830381865afa158015610580573d6000803e3d6000fd5b505050506040513d601f19601f820116820180604052508101906105a491906116e1565b92915050565b6060806105be836306fdde0360e01b61132a565b91506105d1836395d89b4160e01b61132a565b9050915091565b60008060006105e684610755565b92506105f184610514565b91506105fc846112d7565b929491935050565b6040805160a081018252600080825260208201819052818301819052606082018190526080820152905163274e7d6160e11b81526001600160a01b0383811660048301527f00000000000000000000000000000000000000000000000000000000000000001690634e9cfac29060240160a060405180830381865afa158015610691573d6000803e3d6000fd5b505050506040513d601f19601f820116820180604052508101906105a4919061176e565b604051632a32116b60e11b81526001600160a01b038281166004830152600091829182917f00000000000000000000000000000000000000000000000000000000000000009091169063546422d690602401606060405180830381865afa158015610724573d6000803e3d6000fd5b505050506040513d601f19601f820116820180604052508101906107489190611808565b9196909550909350915050565b604051638948874960e01b81526001600160a01b0382811660048301526000917f000000000000000000000000000000000000000000000000000000000000000090911690638948874990602401610563565b604051638ccb720b60e01b81526001600160a01b0382811660048301526060917f000000000000000000000000000000000000000000000000000000000000000090911690638ccb720b90602401600060405180830381865afa158015610813573d6000803e3d6000fd5b505050506040513d6000823e601f3d908101601f191682016040526105a49190810190611858565b60008061084784610514565b6040516370a0823160e01b81526001600160a01b038581166004830152919250908216906370a08231906024015b602060405180830381865afa158015610892573d6000803e3d6000fd5b505050506040513d601f19601f820116820180604052508101906108b6919061190a565b949350505050565b604051639693fa6b60e01b81526001600160a01b038281166004830152600091829182917f000000000000000000000000000000000000000000000000000000000000000091821690639693fa6b90602401606060405180830381865afa15801561092d573d6000803e3d6000fd5b505050506040513d601f19601f820116820180604052508101906109519190611923565b919790965090945092505050565b604051636eb1769f60e11b81526001600160a01b0382811660048301527f0000000000000000000000000000000000000000000000000000000000000000811660248301526000919084169063dd62ed3e90604401602060405180830381865afa1580156109d1573d6000803e3d6000fd5b505050506040513d601f19601f820116820180604052508101906109f5919061190a565b9392505050565b60405163b409dd9b60e01b81526001600160a01b0382811660048301526000917f00000000000000000000000000000000000000000000000000000000000000009091169063b409dd9b906024015b602060405180830381865afa158015610a68573d6000803e3d6000fd5b505050506040513d601f19601f820116820180604052508101906105a4919061190a565b600080610847846112d7565b60405163b74b1ed560e01b81526001600160a01b0382811660048301526000917f00000000000000000000000000000000000000000000000000000000000000009091169063b74b1ed590602401602060405180830381865afa158015610b03573d6000803e3d6000fd5b505050506040513d601f19601f820116820180604052508101906105a49190611951565b6040516370a0823160e01b81526001600160a01b037f0000000000000000000000000000000000000000000000000000000000000000811660048301526000918291829182918616906370a0823190602401602060405180830381865afa158015610b96573d6000803e3d6000fd5b505050506040513d601f19601f82011682018060405250810190610bba919061190a565b9350600080610bc8876105d8565b5091509150816001600160a01b031663fea61faa6040518163ffffffff1660e01b8152600401602060405180830381865afa158015610c0b573d6000803e3d6000fd5b505050506040513d601f19601f82011682018060405250810190610c2f919061190a565b9450806001600160a01b03166318160ddd6040518163ffffffff1660e01b8152600401602060405180830381865afa158015610c6f573d6000803e3d6000fd5b505050506040513d601f19601f82011682018060405250810190610c93919061190a565b9350816001600160a01b031663e73277d06040518163ffffffff1660e01b8152600401602060405180830381865afa158015610cd3573d6000803e3d6000fd5b505050506040513d601f19601f82011682018060405250810190610cf7919061190a565b925050509193509193565b604051635e61a1d760e11b81526001600160a01b0382811660048301526000917f00000000000000000000000000000000000000000000000000000000000000009091169063bcc343ae90602401610a4b565b610d956040518060e00160405280600081526020016000815260200160008152602001600081526020016000815260200160008152602001600081525090565b60405163b409dd9b60e01b81526001600160a01b0383811660048301526000917f00000000000000000000000000000000000000000000000000000000000000009091169063b409dd9b90602401602060405180830381865afa158015610e00573d6000803e3d6000fd5b505050506040513d601f19601f82011682018060405250810190610e24919061190a565b60405163cab65f0160e01b8152600481018290529091506000906001600160a01b037f0000000000000000000000000000000000000000000000000000000000000000169063cab65f0190602401602060405180830381865afa158015610e8f573d6000803e3d6000fd5b505050506040513d601f19601f82011682018060405250810190610eb391906116e1565b905060008190506000816001600160a01b031663fd2da3396040518163ffffffff1660e01b8152600401602060405180830381865afa158015610efa573d6000803e3d6000fd5b505050506040513d601f19601f82011682018060405250810190610f1e919061190a565b80865290506000610f2e87610a98565b90506000836001600160a01b0316631f68f20a6040518163ffffffff1660e01b8152600401602060405180830381865afa158015610f70573d6000803e3d6000fd5b505050506040513d601f19601f82011682018060405250810190610f94919061190a565b90506000846001600160a01b031663a62b75a86040518163ffffffff1660e01b8152600401602060405180830381865afa158015610fd6573d6000803e3d6000fd5b505050506040513d601f19601f82011682018060405250810190610ffa919061190a565b6110049085611982565b61100e9083611999565b90506000856001600160a01b031663d0134cb76040518163ffffffff1660e01b8152600401602060405180830381865afa158015611050573d6000803e3d6000fd5b505050506040513d601f19601f82011682018060405250810190611074919061190a565b6110828663ffffffff6119ac565b61108c9190611982565b6110969083611999565b90506110a983600063ffffffff87611431565b60808b015260208a01526110c3828663ffffffff87611431565b60a08b015260408a01526110dd8163ffffffff8087611431565b60c08b015260608a0152509698975050505050505050565b6040516301f0b1a760e61b81526001600160a01b038281166004830152600091829182917f000000000000000000000000000000000000000000000000000000000000000090911690637c2c69c090602401602060405180830381865afa158015611164573d6000803e3d6000fd5b505050506040513d601f19601f8201168201806040525081019061118891906119bf565b600b0b925060008061119986610b27565b5092509250506111b38582846111ae8a610a98565b611431565b95979096509350505050565b6000806111cb84610755565b604051633af9e66960e01b81526001600160a01b03858116600483015291925090821690633af9e66990602401610875565b60405163b8c876b160e01b81526001600160a01b038281166004830152600091829182917f00000000000000000000000000000000000000000000000000000000000000009183919083169063b8c876b190602401608060405180830381865afa15801561126f573d6000803e3d6000fd5b505050506040513d601f19601f8201168201806040525081019061129391906119e2565b805160208201519096509450905083156112c957836112ba86670de0b6b3a7640000611982565b6112c49190611a4c565b6112cd565b6000195b9496939550505050565b604051633f5e523560e21b81526001600160a01b0382811660048301526000917f00000000000000000000000000000000000000000000000000000000000000009091169063fd7948d490602401610563565b60408051600481526024810182526020810180516001600160e01b03166001600160e01b03198516179052905160609160009182916001600160a01b038716916113749190611a6e565b600060405180830381855afa9150503d80600081146113af576040519150601f19603f3d011682016040523d82523d6000602084013e6113b4565b606091505b50915091508115806113c7575060208151105b156113e55760405180602001604052806000815250925050506105a4565b805160201461140757808060200190518101906114029190611a8a565b611428565b806040516020016114189190611a6e565b6040516020818303038152906040525b95945050505050565b6000806b033b2e3c9fd0803ce800000061146561144e8883611999565b6301e185586b033b2e3c9fd0803ce80000006114f3565b61146f91906119ac565b91506000841561149357846114848789611982565b61148e9190611a4c565b611496565b60005b905063ee6b28006114ad63ffffffff8616826119ac565b6114b79083611982565b6114c19190611a4c565b90506b033b2e3c9fd0803ce80000006114dd61144e8383611999565b6114e791906119ac565b91505094509492505050565b60008380156115935760018416801561150e57859250611512565b8392505b50600283046002850494505b841561158d57858602868782041461153557600080fd5b8181018181101561154557600080fd5b859004965050600185161561158257858302838782041415871515161561156b57600080fd5b8181018181101561157b57600080fd5b8590049350505b60028504945061151e565b506115a9565b8380156115a357600092506115a7565b8392505b505b509392505050565b6001600160a01b03811681146115c657600080fd5b50565b6000602082840312156115db57600080fd5b81356109f5816115b1565b60005b838110156116015781810151838201526020016115e9565b50506000910152565b600081518084526116228160208601602086016115e6565b601f01601f19169290920160200192915050565b604081526000611649604083018561160a565b8281036020840152611428818561160a565b6020808252825182820181905260009190848201906040850190845b8181101561169c5783516001600160a01b031683529284019291840191600101611677565b50909695505050505050565b600080604083850312156116bb57600080fd5b82356116c6816115b1565b915060208301356116d6816115b1565b809150509250929050565b6000602082840312156116f357600080fd5b81516109f5816115b1565b634e487b7160e01b600052604160045260246000fd5b604051601f8201601f1916810167ffffffffffffffff8111828210171561173d5761173d6116fe565b604052919050565b8051801515811461175557600080fd5b919050565b805163ffffffff8116811461175557600080fd5b600060a0828403121561178057600080fd5b60405160a0810181811067ffffffffffffffff821117156117a3576117a36116fe565b60405282516117b1816115b1565b81526117bf60208401611745565b60208201526117d06040840161175a565b60408201526117e16060840161175a565b6060820152608083015162ffffff811681146117fc57600080fd5b60808201529392505050565b60008060006060848603121561181d57600080fd5b835161ffff8116811461182f57600080fd5b925061183d6020850161175a565b9150604084015161184d816115b1565b809150509250925092565b6000602080838503121561186b57600080fd5b825167ffffffffffffffff8082111561188357600080fd5b818501915085601f83011261189757600080fd5b8151818111156118a9576118a96116fe565b8060051b91506118ba848301611714565b81815291830184019184810190888411156118d457600080fd5b938501935b838510156118fe57845192506118ee836115b1565b82825293850193908501906118d9565b98975050505050505050565b60006020828403121561191c57600080fd5b5051919050565b60008060006060848603121561193857600080fd5b8351925060208401519150604084015190509250925092565b60006020828403121561196357600080fd5b6109f58261175a565b634e487b7160e01b600052601160045260246000fd5b80820281158282048414176105a4576105a461196c565b808201808211156105a4576105a461196c565b818103818111156105a4576105a461196c565b6000602082840312156119d157600080fd5b815180600b0b81146109f557600080fd5b6000608082840312156119f457600080fd5b6040516080810181811067ffffffffffffffff82111715611a1757611a176116fe565b8060405250825181526020830151602082015260408301516040820152611a4060608401611745565b60608201529392505050565b600082611a6957634e487b7160e01b600052601260045260246000fd5b500490565b60008251611a808184602087016115e6565b9190910192915050565b600060208284031215611a9c57600080fd5b815167ffffffffffffffff80821115611ab457600080fd5b818401915084601f830112611ac857600080fd5b815181811115611ada57611ada6116fe565b611aed601f8201601f1916602001611714565b9150808252856020828501011115611b0457600080fd5b611b158160208401602086016115e6565b5094935050505056fea264697066735822122087c889b2dadcdd6b70efc7a5e87c3fe44bcaaba3ff65ba5a746a97934516a10664736f6c63430008170033","linkReferences":{}},"methodIdentifiers":{"euler()":"db661b71","exec()":"c1c0e9c4","getAccountStatus(address)":"fd4fa05a","getDTokenBalance(address,address)":"95d20fc5","getETokenBalance(address,address)":"eea0bd4d","getEnteredMarkets(address)":"8ccb720b","getEulerAccountAllowance(address,address)":"a4f16fbd","getPTokenBalance(address,address)":"b6e8f705","getPriceFull(address)":"9693fa6b","getPricingConfig(address)":"546422d6","getTokenInfo(address)":"1f69565f","getTotalSupplyAndDebts(address)":"b97dfd40","interestAccumulator(address)":"bcc343ae","interestRateModel(address)":"b409dd9b","interestRates(address)":"dccda03d","irmSettings(address)":"d6ba7c09","markets()":"3ac2a032","moduleGitCommit()":"69a92ea3","reserveFee(address)":"b74b1ed5","underlyingToAssetConfig(address)":"4e9cfac2","underlyingToDToken(address)":"1b300582","underlyingToEToken(address)":"89488749","underlyingToInternalTokens(address)":"342b9805","underlyingToPToken(address)":"fd7948d4"},"id":57}