{"abi":[{"type":"function","name":"activateMarket","inputs":[{"name":"underlying","type":"address","internalType":"address"}],"outputs":[{"name":"","type":"address","internalType":"address"}],"stateMutability":"nonpayable"},{"type":"function","name":"activatePToken","inputs":[{"name":"underlying","type":"address","internalType":"address"}],"outputs":[{"name":"","type":"address","internalType":"address"}],"stateMutability":"nonpayable"},{"type":"function","name":"dTokenToUnderlying","inputs":[{"name":"dToken","type":"address","internalType":"address"}],"outputs":[{"name":"underlying","type":"address","internalType":"address"}],"stateMutability":"view"},{"type":"function","name":"eTokenToDToken","inputs":[{"name":"eToken","type":"address","internalType":"address"}],"outputs":[{"name":"dTokenAddr","type":"address","internalType":"address"}],"stateMutability":"view"},{"type":"function","name":"eTokenToUnderlying","inputs":[{"name":"eToken","type":"address","internalType":"address"}],"outputs":[{"name":"underlying","type":"address","internalType":"address"}],"stateMutability":"view"},{"type":"function","name":"enterMarket","inputs":[{"name":"subAccountId","type":"uint256","internalType":"uint256"},{"name":"newMarket","type":"address","internalType":"address"}],"outputs":[],"stateMutability":"nonpayable"},{"type":"function","name":"exitMarket","inputs":[{"name":"subAccountId","type":"uint256","internalType":"uint256"},{"name":"oldMarket","type":"address","internalType":"address"}],"outputs":[],"stateMutability":"nonpayable"},{"type":"function","name":"getChainlinkPriceFeedConfig","inputs":[{"name":"underlying","type":"address","internalType":"address"}],"outputs":[{"name":"chainlinkAggregator","type":"address","internalType":"address"}],"stateMutability":"view"},{"type":"function","name":"getDTokenAddress","inputs":[{"name":"message","type":"string","internalType":"string"},{"name":"eToken","type":"address","internalType":"address"}],"outputs":[{"name":"","type":"address","internalType":"address"}],"stateMutability":"view"},{"type":"function","name":"getEnteredMarkets","inputs":[{"name":"account","type":"address","internalType":"address"}],"outputs":[{"name":"","type":"address[]","internalType":"address[]"}],"stateMutability":"view"},{"type":"function","name":"getInterestAccumulator","inputs":[{"name":"message","type":"string","internalType":"string"},{"name":"eToken","type":"address","internalType":"address"}],"outputs":[{"name":"","type":"uint256","internalType":"uint256"}],"stateMutability":"view"},{"type":"function","name":"getInterestRate","inputs":[{"name":"message","type":"string","internalType":"string"},{"name":"eToken","type":"address","internalType":"address"}],"outputs":[{"name":"","type":"int96","internalType":"int96"}],"stateMutability":"view"},{"type":"function","name":"getInterestRateModel","inputs":[{"name":"message","type":"string","internalType":"string"},{"name":"eToken","type":"address","internalType":"address"}],"outputs":[{"name":"","type":"uint32","internalType":"uint32"}],"stateMutability":"view"},{"type":"function","name":"getLastInterestAccumulatorUpdate","inputs":[{"name":"message","type":"string","internalType":"string"},{"name":"eToken","type":"address","internalType":"address"}],"outputs":[{"name":"","type":"uint40","internalType":"uint40"}],"stateMutability":"view"},{"type":"function","name":"getLiquidityStatus","inputs":[{"name":"account","type":"address","internalType":"address"}],"outputs":[{"name":"status","type":"tuple","internalType":"struct IRiskManager.LiquidityStatus","components":[{"name":"collateralValue","type":"uint256","internalType":"uint256"},{"name":"liabilityValue","type":"uint256","internalType":"uint256"},{"name":"numBorrows","type":"uint256","internalType":"uint256"},{"name":"borrowIsolated","type":"bool","internalType":"bool"}]}],"stateMutability":"nonpayable"},{"type":"function","name":"getPricingConfig","inputs":[{"name":"underlying","type":"address","internalType":"address"}],"outputs":[{"name":"pricingType","type":"uint16","internalType":"uint16"},{"name":"pricingParameters","type":"uint32","internalType":"uint32"},{"name":"pricingForwarded","type":"address","internalType":"address"}],"stateMutability":"view"},{"type":"function","name":"getPricingParameters","inputs":[{"name":"message","type":"string","internalType":"string"},{"name":"eToken","type":"address","internalType":"address"}],"outputs":[{"name":"","type":"uint32","internalType":"uint32"}],"stateMutability":"view"},{"type":"function","name":"getPricingType","inputs":[{"name":"message","type":"string","internalType":"string"},{"name":"eToken","type":"address","internalType":"address"}],"outputs":[{"name":"","type":"uint16","internalType":"uint16"}],"stateMutability":"view"},{"type":"function","name":"getReserveBalance","inputs":[{"name":"message","type":"string","internalType":"string"},{"name":"eToken","type":"address","internalType":"address"}],"outputs":[{"name":"","type":"uint96","internalType":"uint96"}],"stateMutability":"view"},{"type":"function","name":"getReserveFee","inputs":[{"name":"message","type":"string","internalType":"string"},{"name":"eToken","type":"address","internalType":"address"}],"outputs":[{"name":"","type":"uint32","internalType":"uint32"}],"stateMutability":"view"},{"type":"function","name":"getTotalBalances","inputs":[{"name":"message","type":"string","internalType":"string"},{"name":"eToken","type":"address","internalType":"address"}],"outputs":[{"name":"","type":"uint112","internalType":"uint112"}],"stateMutability":"view"},{"type":"function","name":"getTotalBorrows","inputs":[{"name":"message","type":"string","internalType":"string"},{"name":"eToken","type":"address","internalType":"address"}],"outputs":[{"name":"","type":"uint144","internalType":"uint144"}],"stateMutability":"view"},{"type":"function","name":"getUnderlying","inputs":[{"name":"message","type":"string","internalType":"string"},{"name":"eToken","type":"address","internalType":"address"}],"outputs":[{"name":"","type":"address","internalType":"address"}],"stateMutability":"view"},{"type":"function","name":"getUnderlyingDecimals","inputs":[{"name":"message","type":"string","internalType":"string"},{"name":"eToken","type":"address","internalType":"address"}],"outputs":[{"name":"","type":"uint8","internalType":"uint8"}],"stateMutability":"view"},{"type":"function","name":"getUserAsset","inputs":[{"name":"message","type":"string","internalType":"string"},{"name":"eToken","type":"address","internalType":"address"},{"name":"user","type":"address","internalType":"address"}],"outputs":[{"name":"","type":"tuple","internalType":"struct Storage.UserAsset","components":[{"name":"balance","type":"uint112","internalType":"uint112"},{"name":"owed","type":"uint144","internalType":"uint144"},{"name":"interestAccumulator","type":"uint256","internalType":"uint256"}]}],"stateMutability":"nonpayable"},{"type":"function","name":"interestAccumulator","inputs":[{"name":"underlying","type":"address","internalType":"address"}],"outputs":[{"name":"","type":"uint256","internalType":"uint256"}],"stateMutability":"view"},{"type":"function","name":"interestRate","inputs":[{"name":"underlying","type":"address","internalType":"address"}],"outputs":[{"name":"","type":"int96","internalType":"int96"}],"stateMutability":"view"},{"type":"function","name":"interestRateModel","inputs":[{"name":"underlying","type":"address","internalType":"address"}],"outputs":[{"name":"","type":"uint256","internalType":"uint256"}],"stateMutability":"view"},{"type":"function","name":"moduleGitCommit","inputs":[],"outputs":[{"name":"","type":"bytes32","internalType":"bytes32"}],"stateMutability":"view"},{"type":"function","name":"moduleId","inputs":[],"outputs":[{"name":"","type":"uint256","internalType":"uint256"}],"stateMutability":"view"},{"type":"function","name":"reserveFee","inputs":[{"name":"underlying","type":"address","internalType":"address"}],"outputs":[{"name":"","type":"uint32","internalType":"uint32"}],"stateMutability":"view"},{"type":"function","name":"underlyingToAssetConfig","inputs":[{"name":"underlying","type":"address","internalType":"address"}],"outputs":[{"name":"","type":"tuple","internalType":"struct Storage.AssetConfig","components":[{"name":"eTokenAddress","type":"address","internalType":"address"},{"name":"borrowIsolated","type":"bool","internalType":"bool"},{"name":"collateralFactor","type":"uint32","internalType":"uint32"},{"name":"borrowFactor","type":"uint32","internalType":"uint32"},{"name":"twapWindow","type":"uint24","internalType":"uint24"}]}],"stateMutability":"view"},{"type":"function","name":"underlyingToAssetConfigUnresolved","inputs":[{"name":"underlying","type":"address","internalType":"address"}],"outputs":[{"name":"config","type":"tuple","internalType":"struct Storage.AssetConfig","components":[{"name":"eTokenAddress","type":"address","internalType":"address"},{"name":"borrowIsolated","type":"bool","internalType":"bool"},{"name":"collateralFactor","type":"uint32","internalType":"uint32"},{"name":"borrowFactor","type":"uint32","internalType":"uint32"},{"name":"twapWindow","type":"uint24","internalType":"uint24"}]}],"stateMutability":"view"},{"type":"function","name":"underlyingToDToken","inputs":[{"name":"underlying","type":"address","internalType":"address"}],"outputs":[{"name":"","type":"address","internalType":"address"}],"stateMutability":"view"},{"type":"function","name":"underlyingToEToken","inputs":[{"name":"underlying","type":"address","internalType":"address"}],"outputs":[{"name":"","type":"address","internalType":"address"}],"stateMutability":"view"},{"type":"function","name":"underlyingToPToken","inputs":[{"name":"underlying","type":"address","internalType":"address"}],"outputs":[{"name":"","type":"address","internalType":"address"}],"stateMutability":"view"},{"type":"event","name":"AssetStatus","inputs":[{"name":"underlying","type":"address","indexed":true,"internalType":"address"},{"name":"totalBalances","type":"uint256","indexed":false,"internalType":"uint256"},{"name":"totalBorrows","type":"uint256","indexed":false,"internalType":"uint256"},{"name":"reserveBalance","type":"uint96","indexed":false,"internalType":"uint96"},{"name":"poolSize","type":"uint256","indexed":false,"internalType":"uint256"},{"name":"interestAccumulator","type":"uint256","indexed":false,"internalType":"uint256"},{"name":"interestRate","type":"int96","indexed":false,"internalType":"int96"},{"name":"timestamp","type":"uint256","indexed":false,"internalType":"uint256"}],"anonymous":false},{"type":"event","name":"Borrow","inputs":[{"name":"underlying","type":"address","indexed":true,"internalType":"address"},{"name":"account","type":"address","indexed":true,"internalType":"address"},{"name":"amount","type":"uint256","indexed":false,"internalType":"uint256"}],"anonymous":false},{"type":"event","name":"DelegateAverageLiquidity","inputs":[{"name":"account","type":"address","indexed":true,"internalType":"address"},{"name":"delegate","type":"address","indexed":true,"internalType":"address"}],"anonymous":false},{"type":"event","name":"Deposit","inputs":[{"name":"underlying","type":"address","indexed":true,"internalType":"address"},{"name":"account","type":"address","indexed":true,"internalType":"address"},{"name":"amount","type":"uint256","indexed":false,"internalType":"uint256"}],"anonymous":false},{"type":"event","name":"EnterMarket","inputs":[{"name":"underlying","type":"address","indexed":true,"internalType":"address"},{"name":"account","type":"address","indexed":true,"internalType":"address"}],"anonymous":false},{"type":"event","name":"ExitMarket","inputs":[{"name":"underlying","type":"address","indexed":true,"internalType":"address"},{"name":"account","type":"address","indexed":true,"internalType":"address"}],"anonymous":false},{"type":"event","name":"Genesis","inputs":[],"anonymous":false},{"type":"event","name":"GovConvertReserves","inputs":[{"name":"underlying","type":"address","indexed":true,"internalType":"address"},{"name":"recipient","type":"address","indexed":true,"internalType":"address"},{"name":"amount","type":"uint256","indexed":false,"internalType":"uint256"}],"anonymous":false},{"type":"event","name":"GovSetAssetConfig","inputs":[{"name":"underlying","type":"address","indexed":true,"internalType":"address"},{"name":"newConfig","type":"tuple","indexed":false,"internalType":"struct Storage.AssetConfig","components":[{"name":"eTokenAddress","type":"address","internalType":"address"},{"name":"borrowIsolated","type":"bool","internalType":"bool"},{"name":"collateralFactor","type":"uint32","internalType":"uint32"},{"name":"borrowFactor","type":"uint32","internalType":"uint32"},{"name":"twapWindow","type":"uint24","internalType":"uint24"}]}],"anonymous":false},{"type":"event","name":"GovSetChainlinkPriceFeed","inputs":[{"name":"underlying","type":"address","indexed":true,"internalType":"address"},{"name":"chainlinkAggregator","type":"address","indexed":false,"internalType":"address"}],"anonymous":false},{"type":"event","name":"GovSetIRM","inputs":[{"name":"underlying","type":"address","indexed":true,"internalType":"address"},{"name":"interestRateModel","type":"uint256","indexed":false,"internalType":"uint256"},{"name":"resetParams","type":"bytes","indexed":false,"internalType":"bytes"}],"anonymous":false},{"type":"event","name":"GovSetPricingConfig","inputs":[{"name":"underlying","type":"address","indexed":true,"internalType":"address"},{"name":"newPricingType","type":"uint16","indexed":false,"internalType":"uint16"},{"name":"newPricingParameter","type":"uint32","indexed":false,"internalType":"uint32"}],"anonymous":false},{"type":"event","name":"GovSetReserveFee","inputs":[{"name":"underlying","type":"address","indexed":true,"internalType":"address"},{"name":"newReserveFee","type":"uint32","indexed":false,"internalType":"uint32"}],"anonymous":false},{"type":"event","name":"InstallerInstallModule","inputs":[{"name":"moduleId","type":"uint256","indexed":true,"internalType":"uint256"},{"name":"moduleImpl","type":"address","indexed":true,"internalType":"address"},{"name":"moduleGitCommit","type":"bytes32","indexed":false,"internalType":"bytes32"}],"anonymous":false},{"type":"event","name":"InstallerSetGovernorAdmin","inputs":[{"name":"newGovernorAdmin","type":"address","indexed":true,"internalType":"address"}],"anonymous":false},{"type":"event","name":"InstallerSetUpgradeAdmin","inputs":[{"name":"newUpgradeAdmin","type":"address","indexed":true,"internalType":"address"}],"anonymous":false},{"type":"event","name":"Liquidation","inputs":[{"name":"liquidator","type":"address","indexed":true,"internalType":"address"},{"name":"violator","type":"address","indexed":true,"internalType":"address"},{"name":"underlying","type":"address","indexed":true,"internalType":"address"},{"name":"collateral","type":"address","indexed":false,"internalType":"address"},{"name":"repay","type":"uint256","indexed":false,"internalType":"uint256"},{"name":"yield","type":"uint256","indexed":false,"internalType":"uint256"},{"name":"healthScore","type":"uint256","indexed":false,"internalType":"uint256"},{"name":"baseDiscount","type":"uint256","indexed":false,"internalType":"uint256"},{"name":"discount","type":"uint256","indexed":false,"internalType":"uint256"}],"anonymous":false},{"type":"event","name":"MarketActivated","inputs":[{"name":"underlying","type":"address","indexed":true,"internalType":"address"},{"name":"eToken","type":"address","indexed":true,"internalType":"address"},{"name":"dToken","type":"address","indexed":true,"internalType":"address"}],"anonymous":false},{"type":"event","name":"PTokenActivated","inputs":[{"name":"underlying","type":"address","indexed":true,"internalType":"address"},{"name":"pToken","type":"address","indexed":true,"internalType":"address"}],"anonymous":false},{"type":"event","name":"PTokenUnWrap","inputs":[{"name":"underlying","type":"address","indexed":true,"internalType":"address"},{"name":"account","type":"address","indexed":true,"internalType":"address"},{"name":"amount","type":"uint256","indexed":false,"internalType":"uint256"}],"anonymous":false},{"type":"event","name":"PTokenWrap","inputs":[{"name":"underlying","type":"address","indexed":true,"internalType":"address"},{"name":"account","type":"address","indexed":true,"internalType":"address"},{"name":"amount","type":"uint256","indexed":false,"internalType":"uint256"}],"anonymous":false},{"type":"event","name":"ProxyCreated","inputs":[{"name":"proxy","type":"address","indexed":true,"internalType":"address"},{"name":"moduleId","type":"uint256","indexed":false,"internalType":"uint256"}],"anonymous":false},{"type":"event","name":"Repay","inputs":[{"name":"underlying","type":"address","indexed":true,"internalType":"address"},{"name":"account","type":"address","indexed":true,"internalType":"address"},{"name":"amount","type":"uint256","indexed":false,"internalType":"uint256"}],"anonymous":false},{"type":"event","name":"RequestBorrow","inputs":[{"name":"account","type":"address","indexed":true,"internalType":"address"},{"name":"amount","type":"uint256","indexed":false,"internalType":"uint256"}],"anonymous":false},{"type":"event","name":"RequestBurn","inputs":[{"name":"account","type":"address","indexed":true,"internalType":"address"},{"name":"amount","type":"uint256","indexed":false,"internalType":"uint256"}],"anonymous":false},{"type":"event","name":"RequestDeposit","inputs":[{"name":"account","type":"address","indexed":true,"internalType":"address"},{"name":"amount","type":"uint256","indexed":false,"internalType":"uint256"}],"anonymous":false},{"type":"event","name":"RequestDonate","inputs":[{"name":"account","type":"address","indexed":true,"internalType":"address"},{"name":"amount","type":"uint256","indexed":false,"internalType":"uint256"}],"anonymous":false},{"type":"event","name":"RequestLiquidate","inputs":[{"name":"liquidator","type":"address","indexed":true,"internalType":"address"},{"name":"violator","type":"address","indexed":true,"internalType":"address"},{"name":"underlying","type":"address","indexed":true,"internalType":"address"},{"name":"collateral","type":"address","indexed":false,"internalType":"address"},{"name":"repay","type":"uint256","indexed":false,"internalType":"uint256"},{"name":"minYield","type":"uint256","indexed":false,"internalType":"uint256"}],"anonymous":false},{"type":"event","name":"RequestMint","inputs":[{"name":"account","type":"address","indexed":true,"internalType":"address"},{"name":"amount","type":"uint256","indexed":false,"internalType":"uint256"}],"anonymous":false},{"type":"event","name":"RequestRepay","inputs":[{"name":"account","type":"address","indexed":true,"internalType":"address"},{"name":"amount","type":"uint256","indexed":false,"internalType":"uint256"}],"anonymous":false},{"type":"event","name":"RequestSwap","inputs":[{"name":"accountIn","type":"address","indexed":true,"internalType":"address"},{"name":"accountOut","type":"address","indexed":true,"internalType":"address"},{"name":"underlyingIn","type":"address","indexed":true,"internalType":"address"},{"name":"underlyingOut","type":"address","indexed":false,"internalType":"address"},{"name":"amount","type":"uint256","indexed":false,"internalType":"uint256"},{"name":"swapType","type":"uint256","indexed":false,"internalType":"uint256"}],"anonymous":false},{"type":"event","name":"RequestSwapHub","inputs":[{"name":"accountIn","type":"address","indexed":true,"internalType":"address"},{"name":"accountOut","type":"address","indexed":true,"internalType":"address"},{"name":"underlyingIn","type":"address","indexed":true,"internalType":"address"},{"name":"underlyingOut","type":"address","indexed":false,"internalType":"address"},{"name":"amountIn","type":"uint256","indexed":false,"internalType":"uint256"},{"name":"amountOut","type":"uint256","indexed":false,"internalType":"uint256"},{"name":"mode","type":"uint256","indexed":false,"internalType":"uint256"},{"name":"swapHandler","type":"address","indexed":false,"internalType":"address"}],"anonymous":false},{"type":"event","name":"RequestSwapHubRepay","inputs":[{"name":"accountIn","type":"address","indexed":true,"internalType":"address"},{"name":"accountOut","type":"address","indexed":true,"internalType":"address"},{"name":"underlyingIn","type":"address","indexed":true,"internalType":"address"},{"name":"underlyingOut","type":"address","indexed":false,"internalType":"address"},{"name":"targetDebt","type":"uint256","indexed":false,"internalType":"uint256"},{"name":"swapHandler","type":"address","indexed":false,"internalType":"address"}],"anonymous":false},{"type":"event","name":"RequestTransferDToken","inputs":[{"name":"from","type":"address","indexed":true,"internalType":"address"},{"name":"to","type":"address","indexed":true,"internalType":"address"},{"name":"amount","type":"uint256","indexed":false,"internalType":"uint256"}],"anonymous":false},{"type":"event","name":"RequestTransferEToken","inputs":[{"name":"from","type":"address","indexed":true,"internalType":"address"},{"name":"to","type":"address","indexed":true,"internalType":"address"},{"name":"amount","type":"uint256","indexed":false,"internalType":"uint256"}],"anonymous":false},{"type":"event","name":"RequestWithdraw","inputs":[{"name":"account","type":"address","indexed":true,"internalType":"address"},{"name":"amount","type":"uint256","indexed":false,"internalType":"uint256"}],"anonymous":false},{"type":"event","name":"TrackAverageLiquidity","inputs":[{"name":"account","type":"address","indexed":true,"internalType":"address"}],"anonymous":false},{"type":"event","name":"UnTrackAverageLiquidity","inputs":[{"name":"account","type":"address","indexed":true,"internalType":"address"}],"anonymous":false},{"type":"event","name":"Withdraw","inputs":[{"name":"underlying","type":"address","indexed":true,"internalType":"address"},{"name":"account","type":"address","indexed":true,"internalType":"address"},{"name":"amount","type":"uint256","indexed":false,"internalType":"uint256"}],"anonymous":false},{"type":"event","name":"log_named_decimal_uint","inputs":[{"name":"key","type":"string","indexed":false,"internalType":"string"},{"name":"val","type":"uint256","indexed":false,"internalType":"uint256"},{"name":"decimals","type":"uint256","indexed":false,"internalType":"uint256"}],"anonymous":false}],"bytecode":{"object":"0x60c060405234801561001057600080fd5b5060026080527f99ac22643f1ec0e690c9b0b8e1f8cce7e4839b1e1d2f86273dcc8c19cc0e981c60a05260805160a051614bba61005f60003960006104310152600061061a0152614bba6000f3fe60806040523480156200001157600080fd5b5060043610620002495760003560e01c80638f34bdbc116200013d578063c064e41111620000bb578063c94dbc181162000086578063c94dbc181462000753578063e05f13ba146200076a578063e778610214620007b7578063f2e7711714620007e2578063fd7948d414620007f957600080fd5b8063c064e41114620006f7578063c3c96b2b146200070e578063c7ec09971462000725578063c8a5fba3146200073c57600080fd5b8063b3312cf41162000108578063b3312cf4146200066c578063b409dd9b146200069b578063b74b1ed514620006b2578063b93982a014620006c9578063bcc343ae14620006e057600080fd5b80638f34bdbc14620005cd57806398cfb23014620005e4578063a1308f271462000614578063ab9690df146200063c57600080fd5b806369a92ea311620001cb5780637808bca811620001965780637808bca814620004b35780637c2c69c0146200050157806385df21f6146200052c5780638948874914620005785780638ccb720b14620005a757600080fd5b806369a92ea3146200042b5780636b5e360614620004535780637163c7e4146200046a57806373f0b437146200049a57600080fd5b80634e80717711620002185780634e80717714620003005780634e9cfac2146200031757806352d94d6b146200038a578063546422d614620003b757806359ce0cda14620003fd57600080fd5b80630d771df7146200024e5780631b30058214620002825780631c8df62514620002c3578063276b227f14620002da575b600080fd5b620002656200025f3660046200327b565b62000828565b6040516001600160a01b0390911681526020015b60405180910390f35b62000265620002933660046200327b565b6001600160a01b039081166000908152600860209081526040808320548416835260099091529020600201541690565b62000265620002d4366004620032e7565b62000a3a565b620002f1620002eb366004620032e7565b62000aff565b60405190815260200162000279565b62000265620003113660046200327b565b62000b8b565b6200032e620003283660046200327b565b62000c31565b60405162000279919081516001600160a01b0316815260208083015115159082015260408083015163ffffffff908116918301919091526060808401519091169082015260809182015162ffffff169181019190915260a00190565b620003a16200039b366004620032e7565b62000c4c565b60405163ffffffff909116815260200162000279565b620003ce620003c83660046200327b565b62000cec565b6040805161ffff909416845263ffffffff90921660208401526001600160a01b03169082015260600162000279565b620004146200040e366004620032e7565b62000d53565b60405164ffffffffff909116815260200162000279565b620002f17f000000000000000000000000000000000000000000000000000000000000000081565b62000265620004643660046200327b565b62000de7565b620004816200047b366004620032e7565b62000e4c565b6040516001600160901b03909116815260200162000279565b620004b1620004ab36600462003344565b62000ef8565b005b620004ee620004c4366004620032e7565b6001600160a01b031660009081526009602052604090205465010000000000900460ff1692915050565b60405160ff909116815260200162000279565b62000518620005123660046200327b565b62000f8e565b604051600b9190910b815260200162000279565b620005436200053d36600462003377565b62000fae565b6040805182516001600160701b031681526020808401516001600160901b031690820152918101519082015260600162000279565b62000265620005893660046200327b565b6001600160a01b039081166000908152600860205260409020541690565b620005be620005b83660046200327b565b620011e6565b604051620002799190620033e7565b6200032e620005de3660046200327b565b620011f3565b620005fb620005f5366004620032e7565b62001295565b6040516001600160601b03909116815260200162000279565b620002f17f000000000000000000000000000000000000000000000000000000000000000081565b620006536200064d366004620032e7565b62001341565b6040516001600160701b03909116815260200162000279565b620002656200067d3660046200327b565b6001600160a01b039081166000908152600d60205260409020541690565b620002f1620006ac3660046200327b565b620013df565b620003a1620006c33660046200327b565b62001402565b62000265620006da3660046200327b565b6200144c565b620002f1620006f13660046200327b565b620014ac565b620003a162000708366004620032e7565b620014d6565b620002656200071f3660046200327b565b62001576565b6200051862000736366004620034d2565b620015f9565b620004b16200074d36600462003344565b6200165c565b6200026562000764366004620032e7565b62001785565b620007816200077b3660046200327b565b62001816565b60405162000279919081518152602080830151908201526040808301519082015260609182015115159181019190915260800190565b620007ce620007c8366004620032e7565b620018c0565b60405161ffff909116815260200162000279565b620003a1620007f3366004620032e7565b6200195c565b620002656200080a3660046200327b565b6001600160a01b039081166000908152600c60205260409020541690565b6000600160005414620008585760405162461bcd60e51b81526004016200084f9062003583565b60405180910390fd5b600260009081556001600160a01b038381168252600b6020526040909120541615620008b95760405162461bcd60e51b815260206004820152600f60248201526e3297b732b9ba32b216b83a37b5b2b760891b60448201526064016200084f565b6001600160a01b038281166000908152600c60205260409020541615620008fc57506001600160a01b038082166000908152600c60205260409020541662000a30565b60006200090983620019fc565b9050806040015163ffffffff16600003620009675760405162461bcd60e51b815260206004820152601760248201527f652f70746f6b656e2f6e6f742d636f6c6c61746572616c00000000000000000060448201526064016200084f565b50600030836040516200097a90620031e8565b6001600160a01b03928316815291166020820152604001604051809103906000f080158015620009ae573d6000803e3d6000fd5b506001600160a01b038082166000818152600b602090815260408083208054958a166001600160a01b03199687168117909155808452600c90925280832080549095168417909455925193945090927f73fb3a739df7a607a2d4190be1c2d2beb0a1a1d66712602ace77dfa83381b73f9190a362000a2c8162001ae4565b5090505b6001600055919050565b600062000a7d84848080601f01602080910402602001604051908101604052809392919081815260200183838082843760009201919091525062001f3e92505050565b62000ada84848080601f01602080910402602001604051908101604052809392919081815260200183838082843760009201829052506001600160a01b038089168252600960205260409091206001015416925062001f88915050565b506001600160a01b039081166000908152600960205260409020600101541692915050565b600062000b4284848080601f01602080910402602001604051908101604052809392919081815260200183838082843760009201919091525062001f3e92505050565b6001600160a01b03821660009081526009602052604090206004015462000b699062001fd5565b506001600160a01b031660009081526009602052604090206004015492915050565b600060016000541462000bb25760405162461bcd60e51b81526004016200084f9062003583565b600260009081556001600160a01b038381168252600b602052604090912054161562000c1b5760405162461bcd60e51b81526020600482015260176024820152763297b6b0b935b2ba3997b4b73b30b634b216ba37b5b2b760491b60448201526064016200084f565b62000c268262001ae4565b600160005592915050565b62000c3b620031f6565b62000c4682620019fc565b92915050565b600062000c8f84848080601f01602080910402602001604051908101604052809392919081815260200183838082843760009201919091525062001f3e92505050565b6001600160a01b03821660009081526009602052604090205462000cc090600160301b900463ffffffff1662001fd5565b506001600160a01b0316600090815260096020526040902054600160301b900463ffffffff1692915050565b60008060008062000cfd856200201d565b8054600160d01b810461ffff169550600160e01b900463ffffffff16935090506003841462000d2e57600062000d4a565b6001600160a01b038086166000908152600b6020526040902054165b93959294505050565b600062000d9684848080601f01602080910402602001604051908101604052809392919081815260200183838082843760009201919091525062001f3e92505050565b6001600160a01b03821660009081526009602052604090205462000dc19064ffffffffff1662001fd5565b506001600160a01b031660009081526009602052604090205464ffffffffff1692915050565b6001600160a01b03808216600090815260096020526040902060020154168062000e475760405162461bcd60e51b815260206004820152601060248201526f3297b4b73b30b634b216b2ba37b5b2b760811b60448201526064016200084f565b919050565b600062000e8f84848080601f01602080910402602001604051908101604052809392919081815260200183838082843760009201919091525062001f3e92505050565b6001600160a01b03821660009081526009602052604090206003015462000ec690600160701b90046001600160901b031662001fd5565b506001600160a01b0316600090815260096020526040902060030154600160701b90046001600160901b031692915050565b60016000541462000f1d5760405162461bcd60e51b81526004016200084f9062003583565b6002600090815560271936013560601c9062000f3a828562002077565b6001600160a01b038481166000908152600860205260409020549192501662000f775760405162461bcd60e51b81526004016200084f90620035a9565b62000f838184620020d1565b505060016000555050565b60008062000f9c836200201d565b54600160501b9004600b0b9392505050565b60408051606081018252600080825260208201819052918101919091526200100c85858080601f01602080910402602001604051908101604052809392919081815260200183838082843760009201919091525062001f3e92505050565b6001600160a01b03831660009081526009602052604081207feb8ba43ced7537421946bd43e828b8b2b8428927aa8f801c13d934bf11aca57b9160059091019062001058858262002077565b6001600160a01b0316815260208082019290925260409081016000205481516060808252600a908201526910dbdb1b185d195c985b60b21b60808201526001600160701b039091169281019290925260129082015260a00160405180910390a16001600160a01b03831660009081526009602052604081207feb8ba43ced7537421946bd43e828b8b2b8428927aa8f801c13d934bf11aca57b9160059091019062001104858262002077565b6001600160a01b0316815260208082019290925260409081016000205481516060808252600490820152631119589d60e21b6080820152600160701b9091046001600160901b031692810192909252601b9082015260a00160405180910390a16001600160a01b0383166000908152600960205260408120600501906200118c848262002077565b6001600160a01b031681526020808201929092526040908101600020815160608101835281546001600160701b0381168252600160701b90046001600160901b031693810193909352600101549082015295945050505050565b606062000c4682620022c4565b620011fd620031f6565b506001600160a01b03818116600090815260086020908152604091829020825160a0810184529054938416808252600160a01b850460ff16151592820192909252600160a81b840463ffffffff90811693820193909352600160c81b84049092166060830152600160e81b90920462ffffff1660808201529062000e475760405162461bcd60e51b81526004016200084f90620035a9565b6000620012d884848080601f01602080910402602001604051908101604052809392919081815260200183838082843760009201919091525062001f3e92505050565b6001600160a01b0382166000908152600960205260409020600101546200130f90600160a01b90046001600160601b031662001fd5565b506001600160a01b0316600090815260096020526040902060010154600160a01b90046001600160601b031692915050565b60006200138484848080601f01602080910402602001604051908101604052809392919081815260200183838082843760009201919091525062001f3e92505050565b6001600160a01b038216600090815260096020526040902060030154620013b4906001600160701b031662001fd5565b506001600160a01b03166000908152600960205260409020600301546001600160701b031692915050565b600080620013ed836200201d565b54600160301b900463ffffffff169392505050565b60008062001410836200201d565b8054909150600160b01b900463ffffffff908116146200143f578054600160b01b900463ffffffff1662001445565b6336d616005b9392505050565b6001600160a01b03808216600090815260096020526040902060010154168062000e475760405162461bcd60e51b815260206004820152601060248201526f3297b4b73b30b634b216b2ba37b5b2b760811b60448201526064016200084f565b600080620014ba836200201d565b90506000620014ca84836200241c565b60800151949350505050565b60006200151984848080601f01602080910402602001604051908101604052809392919081815260200183838082843760009201919091525062001f3e92505050565b6001600160a01b0382166000908152600960205260409020546200154a90600160e01b900463ffffffff1662001fd5565b506001600160a01b0316600090815260096020526040902054600160e01b900463ffffffff1692915050565b6001600160a01b038082166000908152600a602052604081205490911680620015d55760405162461bcd60e51b815260206004820152601060248201526f3297b4b73b30b634b216b23a37b5b2b760811b60448201526064016200084f565b6001600160a01b039081166000908152600960205260409020600101541692915050565b6000620016068362001f3e565b6001600160a01b0382166000908152600960205260409020546200163490600160501b9004600b0b620024ed565b506001600160a01b0316600090815260096020526040902054600160501b9004600b0b919050565b600160005414620016815760405162461bcd60e51b81526004016200084f9062003583565b6002600090815560271936013560601c906200169e828562002077565b90506000620016ad84620019fc565b80516001600160a01b039081166000908152600960209081526040808320938716835260058401909152902054919250906001600160701b03811690600160701b90046001600160901b03168015620017405760405162461bcd60e51b8152602060048201526014602482015273652f6f75747374616e64696e672d626f72726f7760601b60448201526064016200084f565b6200174c858862002535565b604084015163ffffffff16158015906200176557508115155b15620017765762001776856200277d565b50506001600055505050505050565b6000620017c884848080601f01602080910402602001604051908101604052809392919081815260200183838082843760009201919091525062001f3e92505050565b6001600160a01b03808316600090815260096020526040902060020154620017f1911662002806565b506001600160a01b039081166000908152600960205260409020600201541692915050565b6200184460405180608001604052806000815260200160008152602001600081526020016000151581525090565b6040516001600160a01b0383166024820152600090620018a890620f424090631bff4ba560e11b906044015b60408051601f198184030181529190526020810180516001600160e01b03166001600160e01b03199093169290921790915262002850565b905080806020019051810190620014459190620035ea565b60006200190384848080601f01602080910402602001604051908101604052809392919081815260200183838082843760009201919091525062001f3e92505050565b6001600160a01b0382166000908152600960205260409020546200193290600160d01b900461ffff1662001fd5565b506001600160a01b0316600090815260096020526040902054600160d01b900461ffff1692915050565b60006200199f84848080601f01602080910402602001604051908101604052809392919081815260200183838082843760009201919091525062001f3e92505050565b6001600160a01b038216600090815260096020526040902054620019d090600160b01b900463ffffffff1662001fd5565b506001600160a01b0316600090815260096020526040902054600160b01b900463ffffffff1692915050565b62001a06620031f6565b6001600160a01b03828116600090815260086020908152604091829020825160a0810184529054938416808252600160a01b850460ff16151592820192909252600160a81b840463ffffffff90811693820193909352600160c81b84049092166060830152600160e81b90920462ffffff1660808201529062001a9d5760405162461bcd60e51b81526004016200084f90620035a9565b63ffffffff8016816060015163ffffffff160362001ac0576342c1d80060608201525b62ffffff8016816080015162ffffff160362000c4657610708608082015292915050565b6001600160a01b038181166000908152600860205260408120549091161562001b2657506001600160a01b039081166000908152600860205260409020541690565b6001600160a01b03821660009081526005602052604090205463ffffffff1615801562001b5c57506001600160a01b0382163014155b62001ba45760405162461bcd60e51b81526020600482015260176024820152763297b6b0b935b2ba3997b4b73b30b634b216ba37b5b2b760491b60448201526064016200084f565b6000826001600160a01b031663313ce5676040518163ffffffff1660e01b8152600401602060405180830381865afa15801562001be5573d6000803e3d6000fd5b505050506040513d601f19601f8201168201806040525081019062001c0b91906200365a565b905060128160ff16111562001c595760405162461bcd60e51b8152602060048201526013602482015272652f746f6f2d6d616e792d646563696d616c7360681b60448201526064016200084f565b62001c6362003224565b6040516001600160a01b038516602482015260009062001c9490620f42409063476ee6c960e11b9060440162001870565b90508080602001905181019062001cac919062003694565b915050600062001cbf6207a120620028e1565b60408301516001600160a01b03909116908190529050600062001ce56207a121620028e1565b6040848101516001600160a01b038981166000818152600860209081528582208551815483880151888a015160608a01516080909a01519389166001600160a81b031990931692909217600160a01b911515919091021767ffffffffffffffff60a81b1916600160a81b63ffffffff9283160263ffffffff60c81b191617600160c81b98821698909802979097176001600160e81b0316600160e81b62ffffff90921691909102179055868416808352600a825286832080546001600160a01b0319908116968c169687179091559483526009825295909120600181018054851690931790925588518254918a01516002840180549095169096179093554264ffffffffff166001600160d01b03909116600160d01b61ffff909416939093026001600160e01b031692909217600160e01b94909316939093029190911765ffffffffffff1916176501000000000060ff8816021779ffffffff000000000000000000000000ffffffff000000000000191679ffffffff000000000000000000000000001e848000000000000017815590915062001e86620f424062002ac5565b8160010160146101000a8154816001600160601b0302191690836001600160601b0316021790555062001ebc620f424062002b2f565b6003820180546dffffffffffffffffffffffffffff19166001600160701b03929092169190911790556b033b2e3c9fd0803ce800000060048201556040516001600160a01b0383811691858216918a16907f2ece124509c63be11a6985ae00b93c8cb8f8d8898f6e5239fc9e38bc7190966790600090a4509095945050505050565b62001f858160405160240162001f559190620037c3565b60408051601f198184030181529190526020810180516001600160e01b031663104c13eb60e21b17905262002b8a565b50565b62001fd1828260405160240162001fa1929190620037d8565b60408051601f198184030181529190526020810180516001600160e01b031663319af33360e01b17905262002b8a565b5050565b62001f858160405160240162001fed91815260200190565b60408051601f198184030181529190526020810180516001600160e01b031663f5b1bba960e01b17905262002b8a565b6001600160a01b03808216600090815260086020526040812054909116806200205a5760405162461bcd60e51b81526004016200084f90620035a9565b6001600160a01b0316600090815260096020526040902092915050565b60006101008210620020cc5760405162461bcd60e51b815260206004820152601860248201527f652f7375622d6163636f756e742d69642d746f6f2d626967000000000000000060448201526064016200084f565b501890565b6001600160a01b0382166000908152600660209081526040808320805460079093529220600160301b90910463ffffffff16908115620021865782546001600160a01b03808616600160501b90920416036200212e575050505050565b60015b8263ffffffff168110156200218457846001600160a01b03168282600160201b811062002162576200216262003804565b01546001600160a01b0316036200217b57505050505050565b60010162002131565b505b600a8263ffffffff1610620021de5760405162461bcd60e51b815260206004820152601a60248201527f652f746f6f2d6d616e792d656e74657265642d6d61726b65747300000000000060448201526064016200084f565b8163ffffffff1660000362002215578254600160501b600160f01b031916600160501b6001600160a01b0386160217835562002254565b83818363ffffffff16600160201b811062002234576200223462003804565b0180546001600160a01b0319166001600160a01b03929092169190911790555b6200226182600162003830565b835463ffffffff91909116600160301b0269ffffffff000000000000199091161783556040516001600160a01b0380871691908616907f1c0971b8e0f7bb4e90bdbd87cfe682c36c383e2fc3dc4716ecc02771186293cc90600090a35050505050565b6001600160a01b0380821660009081526006602052604081205460609263ffffffff600160301b83041692600160501b90920416908267ffffffffffffffff81111562002315576200231562003436565b6040519080825280602002602001820160405280156200233f578160200160208202803683370190505b5090508263ffffffff166000036200235957949350505050565b6001600160a01b038516600090815260076020526040812082519091849184919062002389576200238962003804565b6001600160a01b039092166020928302919091019091015260015b8463ffffffff1681101562002411578181600160201b8110620023cb57620023cb62003804565b015483516001600160a01b0390911690849083908110620023f057620023f062003804565b6001600160a01b0390921660209283029190910190910152600101620023a4565b509095945050505050565b604080516101e081018252600080825260208201819052918101829052606081018290526080810182905260a0810182905260c0810182905260e08101829052610100810182905261012081018290526101408101829052610160810182905261018081018290526101a081018290526101c081018290529054600114620024d95760405162461bcd60e51b815260206004820152600f60248201526e652f726f2d7265656e7472616e637960881b60448201526064016200084f565b620024e683838362002bab565b5092915050565b62001f85816040516024016200250591815260200190565b60408051601f198184030181529190526020810180516001600160e01b0316634e0c1d1d60e01b17905262002b8a565b6001600160a01b0382166000908152600660209081526040808320805460079093529083209092600160301b90920463ffffffff1691600019908390036200257f57505050505050565b83546001600160a01b03808716600160501b9092041603620025a4575060006200260e565b60015b8363ffffffff16811015620025fb57856001600160a01b03168382600160201b8110620025d857620025d862003804565b01546001600160a01b031603620025f257809150620025fb565b600101620025a7565b5060001981036200260e57505050505050565b60006200261d60018562003850565b63ffffffff169050808214620026d4578160000362002679578281600160201b81106200264e576200264e62003804565b01548554600160501b600160f01b0319166001600160a01b03909116600160501b02178555620026d4565b8281600160201b811062002691576200269162003804565b01546001600160a01b03168383600160201b8110620026b457620026b462003804565b0180546001600160a01b0319166001600160a01b03929092169190911790555b845469ffffffff0000000000001916600160301b63ffffffff8316021785558015620027345760008382600160201b811062002714576200271462003804565b0180546001600160a01b0319166001600160a01b03929092169190911790555b866001600160a01b0316866001600160a01b03167f7a35d9c64b6bcbe8e9104e3f481fb44a765d4b2a54cfa1c2d434a46c69f0418960405160405180910390a350505050505050565b6001600160a01b03811660009081526006602052604090205460ff1680620027d2576040516001600160a01b0383166024820152620027cd90620f4240906361cdaa1d60e11b9060440162001870565b505050565b60001960ff82160162001fd1576001600160a01b0382166000908152600660205260409020805460ff191660021790555050565b6040516001600160a01b038216602482015262001f859060440160408051601f198184030181529190526020810180516001600160e01b031663161765e160e11b17905262002b8a565b6000828152600360205260408082205490516060929182916001600160a01b03909116906200288190869062003870565b600060405180830381855af49150503d8060008114620028be576040519150601f19603f3d011682016040523d82523d6000602084013e620028c3565b606091505b509150915081620028d957620028d98162002f84565b949350505050565b600081600003620029355760405162461bcd60e51b815260206004820152601d60248201527f652f6372656174652d70726f78792f696e76616c69642d6d6f64756c6500000060448201526064016200084f565b620f423f8211156200298a5760405162461bcd60e51b815260206004820152601e60248201527f652f6372656174652d70726f78792f696e7465726e616c2d6d6f64756c65000060448201526064016200084f565b6000828152600460205260409020546001600160a01b031615620029c457506000908152600460205260409020546001600160a01b031690565b6000604051620029d4906200324a565b604051809103906000f080158015620029f1573d6000803e3d6000fd5b5090506207a11f831162002a2757600083815260046020526040902080546001600160a01b0319166001600160a01b0383161790555b60408051808201825263ffffffff8086168252600060208084018281526001600160a01b03878116808552600590935292869020945185549151909316600160201b026001600160c01b031990911692909316919091179190911790915590517f6c6ffd7df9a0cfaa14ee2cf752003968de6c340564276242aa48ca641b09bce49062002ab79086815260200190565b60405180910390a292915050565b60006001600160601b0382111562002b2b5760405162461bcd60e51b815260206004820152602260248201527f652f736d616c6c2d616d6f756e742d746f6f2d6c617267652d746f2d656e636f604482015261646560f01b60648201526084016200084f565b5090565b60006001600160701b0382111562002b2b5760405162461bcd60e51b815260206004820152601c60248201527f652f616d6f756e742d746f6f2d6c617267652d746f2d656e636f64650000000060448201526064016200084f565b80516a636f6e736f6c652e6c6f67602083016000808483855afa5050505050565b6001600160a01b0383168152815464ffffffffff811660a083015265010000000000810460ff90811660c08401819052600160301b830463ffffffff90811660e0860152600160501b8404600b0b610100860152600160b01b84048116610120860152600160d01b840461ffff16610140860152600160e01b9093049092166101608401526001840154600160a01b90046001600160601b0316606084015260038401546001600160701b038082166020860152600160701b9091046001600160901b03166040850152600485015460808501526012839003909116600a0a6101a08401819052600092918162002ca65762002ca66200388e565b046101c0840152600062002cbb843062002fcd565b9050836101c00151811162002cde576101a0840151810261018085015262002ce7565b60006101808501525b8360a0015164ffffffffff16421462002f7b576001925060008460a0015164ffffffffff164262002d199190620038a4565b905060006b033b2e3c9fd0803ce8000000866080015162002d69886101000151600b0b6b033b2e3c9fd0803ce800000062002d559190620038ba565b856b033b2e3c9fd0803ce8000000620030b9565b62002d759190620038e5565b62002d819190620038ff565b9050600086608001518288604001516001600160901b031662002da59190620038e5565b62002db19190620038ff565b606088015160208901519192506001600160601b0316906001600160701b0316600062002de7633b9aca0063ee6b2800620038e5565b6101208b015163ffffffff9081161462002e07578a610120015162002e0d565b6336d616005b63ffffffff168b604001516001600160901b03168662002e2e9190620038a4565b62002e3a9190620038e5565b62002e469190620038ff565b9050801562002ec657600062002e61633b9aca0086620038ff565b8b610180015162002e73919062003922565b905062002e818282620038a4565b62002e8d8483620038e5565b62002e999190620038ff565b92508a602001516001600160701b03168362002eb69190620038a4565b62002ec2908562003922565b9350505b6001600160701b03821180159062002ee557506001600160901b038411155b801562002ef957506001600160601b038311155b1562002f745762002f0a8462003183565b6001600160901b031660408b015260808a0185905264ffffffffff421660a08b015260208a01516001600160701b0316821462002f745762002f4c8362002ac5565b6001600160601b031660608b015262002f658262002b2f565b6001600160701b031660208b01525b5050505050505b50509392505050565b80511562002f9457805181602001fd5b60405162461bcd60e51b815260206004820152600d60248201526c3297b2b6b83a3c96b2b93937b960991b60448201526064016200084f565b6040805183516001600160a01b03848116602480850191909152845180850390910181526044840185526020810180516001600160e01b03166370a0823160e01b179052935160009485938493169162030d40916200302c9162003870565b6000604051808303818686fa925050503d80600081146200306a576040519150601f19603f3d011682016040523d82523d6000602084013e6200306f565b606091505b509150915081158062003083575060208151105b156200309557600093505050620030b0565b80806020019051810190620030ab919062003938565b935050505b60405292915050565b60008380156200316457600184168015620030d757859250620030db565b8392505b50600283046002850494505b84156200315d5785860286878204146200310057600080fd5b818101818110156200311157600080fd5b8590049650506001851615620031515785830283878204141587151516156200313957600080fd5b818101818110156200314a57600080fd5b8590049350505b600285049450620030e7565b506200317b565b83801562003176576000925062002f7b565b839250505b509392505050565b60006001600160901b0382111562002b2b5760405162461bcd60e51b815260206004820152602160248201527f652f646562742d616d6f756e742d746f6f2d6c617267652d746f2d656e636f646044820152606560f81b60648201526084016200084f565b6110b9806200395383390190565b6040805160a08101825260008082526020820181905291810182905260608101829052608081019190915290565b604080516060810182526000808252602082015290810162003245620031f6565b905290565b6101798062004a0c83390190565b6001600160a01b038116811462001f8557600080fd5b803562000e478162003258565b6000602082840312156200328e57600080fd5b8135620014458162003258565b60008083601f840112620032ae57600080fd5b50813567ffffffffffffffff811115620032c757600080fd5b602083019150836020828501011115620032e057600080fd5b9250929050565b600080600060408486031215620032fd57600080fd5b833567ffffffffffffffff8111156200331557600080fd5b62003323868287016200329b565b9094509250506020840135620033398162003258565b809150509250925092565b600080604083850312156200335857600080fd5b8235915060208301356200336c8162003258565b809150509250929050565b600080600080606085870312156200338e57600080fd5b843567ffffffffffffffff811115620033a657600080fd5b620033b4878288016200329b565b9095509350506020850135620033ca8162003258565b91506040850135620033dc8162003258565b939692955090935050565b6020808252825182820181905260009190848201906040850190845b818110156200342a5783516001600160a01b03168352928401929184019160010162003403565b50909695505050505050565b634e487b7160e01b600052604160045260246000fd5b6040516060810167ffffffffffffffff8111828210171562003472576200347262003436565b60405290565b60405160a0810167ffffffffffffffff8111828210171562003472576200347262003436565b604051601f8201601f1916810167ffffffffffffffff81118282101715620034ca57620034ca62003436565b604052919050565b60008060408385031215620034e657600080fd5b823567ffffffffffffffff80821115620034ff57600080fd5b818501915085601f8301126200351457600080fd5b81356020828211156200352b576200352b62003436565b6200353f601f8301601f191682016200349e565b925081835287818386010111156200355657600080fd5b81818501828501376000818385010152829550620035768188016200326e565b9450505050509250929050565b6020808252600c908201526b652f7265656e7472616e637960a01b604082015260600190565b602080825260169082015275194bdb585c9ad95d0b5b9bdd0b5858dd1a5d985d195960521b604082015260600190565b8051801515811462000e4757600080fd5b600060808284031215620035fd57600080fd5b6040516080810181811067ffffffffffffffff8211171562003623576200362362003436565b80604052508251815260208301516020820152604083015160408201526200364e60608401620035d9565b60608201529392505050565b6000602082840312156200366d57600080fd5b815160ff811681146200144557600080fd5b805163ffffffff8116811462000e4757600080fd5b600081830360e0811215620036a857600080fd5b620036b26200344c565b835161ffff81168114620036c557600080fd5b8152620036d5602085016200367f565b602082015260a0603f1983011215620036ed57600080fd5b620036f762003478565b91506040840151620037098162003258565b82526200371960608501620035d9565b60208301526200372c608085016200367f565b60408301526200373f60a085016200367f565b606083015260c084015162ffffff811681146200375b57600080fd5b608083015260408101919091529392505050565b60005b838110156200378c57818101518382015260200162003772565b50506000910152565b60008151808452620037af8160208601602086016200376f565b601f01601f19169290920160200192915050565b60208152600062001445602083018462003795565b604081526000620037ed604083018562003795565b905060018060a01b03831660208301529392505050565b634e487b7160e01b600052603260045260246000fd5b634e487b7160e01b600052601160045260246000fd5b63ffffffff818116838216019080821115620024e657620024e66200381a565b63ffffffff828116828216039080821115620024e657620024e66200381a565b60008251620038848184602087016200376f565b9190910192915050565b634e487b7160e01b600052601260045260246000fd5b8181038181111562000c465762000c466200381a565b8082018281126000831280158216821582161715620038dd57620038dd6200381a565b505092915050565b808202811582820484141762000c465762000c466200381a565b6000826200391d57634e487b7160e01b600052601260045260246000fd5b500490565b8082018082111562000c465762000c466200381a565b6000602082840312156200394b57600080fd5b505191905056fe60c060405234801561001057600080fd5b506040516110b93803806110b983398101604081905261002f91610062565b6001600160a01b039182166080521660a052610095565b80516001600160a01b038116811461005d57600080fd5b919050565b6000806040838503121561007557600080fd5b61007e83610046565b915061008c60208401610046565b90509250929050565b60805160a051610fce6100eb6000396000818161019101528181610275015281816106960152818161071f015281816107df015281816109530152610a2c01526000818161039501526104870152610fce6000f3fe608060405234801561001057600080fd5b50600436106100ea5760003560e01c806370a082311161008c578063b77dfe0311610066578063b77dfe03146101ff578063dd62ed3e14610212578063de0e9a3e1461024b578063ea598cb01461025e57600080fd5b806370a08231146101bb57806395d89b41146101e4578063a9059cbb146101ec57600080fd5b80631ed575db116100c85780631ed575db1461014257806323b872dd14610157578063313ce5671461016a5780636f307dc31461018457600080fd5b806306fdde03146100ef578063095ea7b31461010d57806318160ddd14610130575b600080fd5b6100f7610271565b6040516101049190610ca2565b60405180910390f35b61012061011b366004610cf1565b61031d565b6040519015158152602001610104565b6002545b604051908152602001610104565b610155610150366004610cf1565b61038a565b005b610120610165366004610d1b565b610409565b610172610692565b60405160ff9091168152602001610104565b6040516001600160a01b037f0000000000000000000000000000000000000000000000000000000000000000168152602001610104565b6101346101c9366004610d57565b6001600160a01b031660009081526020819052604090205490565b6100f761071b565b6101206101fa366004610cf1565b6107b3565b61015561020d366004610d57565b6107c7565b610134610220366004610d72565b6001600160a01b03918216600090815260016020908152604080832093909416825291909152205490565b610155610259366004610da5565b610941565b61015561026c366004610da5565b61094e565b60607f00000000000000000000000000000000000000000000000000000000000000006001600160a01b03166306fdde036040518163ffffffff1660e01b8152600401600060405180830381865afa1580156102d1573d6000803e3d6000fd5b505050506040513d6000823e601f3d908101601f191682016040526102f99190810190610dd4565b6040516020016103099190610e81565b604051602081830303815290604052905090565b3360008181526001602090815260408083206001600160a01b038716808552925280832085905551919290917f8c5be1e5ebec7d5bd14f71427d1e84f3dd0314c0f7b2291e5b200ac8c7c3b925906103789086815260200190565b60405180910390a35060015b92915050565b336001600160a01b037f000000000000000000000000000000000000000000000000000000000000000016146103fb5760405162461bcd60e51b81526020600482015260116024820152701c195c9b5a5cdcda5bdb8819195b9a5959607a1b60448201526064015b60405180910390fd5b6104058282610983565b5050565b6001600160a01b0383166000908152602081905260408120548211156104685760405162461bcd60e51b8152602060048201526014602482015273696e73756666696369656e742062616c616e636560601b60448201526064016103f2565b6001600160a01b03841633148015906104aa5750336001600160a01b037f00000000000000000000000000000000000000000000000000000000000000001614155b80156104db57506001600160a01b038416600090815260016020908152604080832033845290915290205460001914155b156105df576001600160a01b038416600090815260016020908152604080832033845290915290205482111561054c5760405162461bcd60e51b8152602060048201526016602482015275696e73756666696369656e7420616c6c6f77616e636560501b60448201526064016103f2565b6001600160a01b03841660009081526001602090815260408083203384529091528120805484929061057f908490610ecf565b90915550506001600160a01b038416600081815260016020908152604080832033808552908352928190205490519081529192917f8c5be1e5ebec7d5bd14f71427d1e84f3dd0314c0f7b2291e5b200ac8c7c3b925910160405180910390a35b6001600160a01b03841660009081526020819052604081208054849290610607908490610ecf565b90915550506001600160a01b03831660009081526020819052604081208054849290610634908490610ee2565b92505081905550826001600160a01b0316846001600160a01b03167fddf252ad1be2c89b69c2b068fc378daa952ba7f163c4a11628f55a4df523b3ef8460405161068091815260200190565b60405180910390a35060019392505050565b60007f00000000000000000000000000000000000000000000000000000000000000006001600160a01b031663313ce5676040518163ffffffff1660e01b8152600401602060405180830381865afa1580156106f2573d6000803e3d6000fd5b505050506040513d601f19601f820116820180604052508101906107169190610ef5565b905090565b60607f00000000000000000000000000000000000000000000000000000000000000006001600160a01b03166395d89b416040518163ffffffff1660e01b8152600401600060405180830381865afa15801561077b573d6000803e3d6000fd5b505050506040513d6000823e601f3d908101601f191682016040526107a39190810190610dd4565b6040516020016103099190610f18565b60006107c0338484610409565b9392505050565b6040516370a0823160e01b81523060048201526000907f00000000000000000000000000000000000000000000000000000000000000006001600160a01b0316906370a0823190602401602060405180830381865afa15801561082e573d6000803e3d6000fd5b505050506040513d601f19601f820116820180604052508101906108529190610f41565b905060025481116108a55760405162461bcd60e51b815260206004820152601b60248201527f6e6f20737572706c75732062616c616e636520746f20636c61696d000000000060448201526064016103f2565b6000600254826108b59190610ecf565b905080600260008282546108c99190610ee2565b90915550506001600160a01b038316600090815260208190526040812080548392906108f6908490610ee2565b90915550506040518181526001600160a01b038416906000907fddf252ad1be2c89b69c2b068fc378daa952ba7f163c4a11628f55a4df523b3ef9060200160405180910390a3505050565b61094b3382610983565b50565b61097a7f0000000000000000000000000000000000000000000000000000000000000000333084610a97565b61094b336107c7565b6001600160a01b0382166000908152602081905260409020548111156109e25760405162461bcd60e51b8152602060048201526014602482015273696e73756666696369656e742062616c616e636560601b60448201526064016103f2565b80600260008282546109f49190610ecf565b90915550506001600160a01b03821660009081526020819052604081208054839290610a21908490610ecf565b90915550610a5290507f00000000000000000000000000000000000000000000000000000000000000008383610b8f565b6040518181526000906001600160a01b038416907fddf252ad1be2c89b69c2b068fc378daa952ba7f163c4a11628f55a4df523b3ef9060200160405180910390a35050565b604080516001600160a01b0385811660248301528481166044830152606480830185905283518084039091018152608490920183526020820180516001600160e01b03166323b872dd60e01b1790529151600092839290881691610afb9190610f5a565b6000604051808303816000865af19150503d8060008114610b38576040519150601f19603f3d011682016040523d82523d6000602084013e610b3d565b606091505b5091509150818015610b67575080511580610b67575080806020019051810190610b679190610f76565b8190610b865760405162461bcd60e51b81526004016103f29190610ca2565b50505050505050565b604080516001600160a01b038481166024830152604480830185905283518084039091018152606490920183526020820180516001600160e01b031663a9059cbb60e01b1790529151600092839290871691610beb9190610f5a565b6000604051808303816000865af19150503d8060008114610c28576040519150601f19603f3d011682016040523d82523d6000602084013e610c2d565b606091505b5091509150818015610c57575080511580610c57575080806020019051810190610c579190610f76565b8190610c765760405162461bcd60e51b81526004016103f29190610ca2565b505050505050565b60005b83811015610c99578181015183820152602001610c81565b50506000910152565b6020815260008251806020840152610cc1816040850160208701610c7e565b601f01601f19169190910160400192915050565b80356001600160a01b0381168114610cec57600080fd5b919050565b60008060408385031215610d0457600080fd5b610d0d83610cd5565b946020939093013593505050565b600080600060608486031215610d3057600080fd5b610d3984610cd5565b9250610d4760208501610cd5565b9150604084013590509250925092565b600060208284031215610d6957600080fd5b6107c082610cd5565b60008060408385031215610d8557600080fd5b610d8e83610cd5565b9150610d9c60208401610cd5565b90509250929050565b600060208284031215610db757600080fd5b5035919050565b634e487b7160e01b600052604160045260246000fd5b600060208284031215610de657600080fd5b815167ffffffffffffffff80821115610dfe57600080fd5b818401915084601f830112610e1257600080fd5b815181811115610e2457610e24610dbe565b604051601f8201601f19908116603f01168101908382118183101715610e4c57610e4c610dbe565b81604052828152876020848701011115610e6557600080fd5b610e76836020830160208801610c7e565b979650505050505050565b6f022bab632b910283937ba32b1ba32b2160851b815260008251610eac816010850160208701610c7e565b9190910160100192915050565b634e487b7160e01b600052601160045260246000fd5b8181038181111561038457610384610eb9565b8082018082111561038457610384610eb9565b600060208284031215610f0757600080fd5b815160ff811681146107c057600080fd5b600760fc1b815260008251610f34816001850160208701610c7e565b9190910160010192915050565b600060208284031215610f5357600080fd5b5051919050565b60008251610f6c818460208701610c7e565b9190910192915050565b600060208284031215610f8857600080fd5b815180151581146107c057600080fdfea26469706673582212207f02b5adab04f9083113f84c0a6b837313e455901ae378a32083bba23f5eff8564736f6c6343000817003360a060405234801561001057600080fd5b503360805260805161014a61002f60003960006013015261014a6000f3fe608060405234801561001057600080fd5b507f00000000000000000000000000000000000000000000000000000000000000006001600160a01b03811633036100d75760008081523681601f37805180156100785760018114610085576002811461009557600381146100a857600481146100be578182fd5b36600019016020a0508081f35b60205136602019016040a1508081f35b60405160205136604019016060a2508081f35b60605160405160205136606019016080a3508081f35b608051606051604051602051366080190160a0a4508081f35b633a7128eb60e21b6000523660006004373360601b366004015260008036601801600080855af13d6000803e80801561010f573d6000f35b3d6000fdfea2646970667358221220b447dc14656bbe6d3f87e327c5cf94ed446eedba65a7a6fc6e1a3ca21e187df364736f6c63430008170033a2646970667358221220823b43f90f72f98491d97050ff3055f816481ddb13649efaddc6fc22988a08e564736f6c63430008170033","linkReferences":{}},"methodIdentifiers":{"activateMarket(address)":"4e807177","activatePToken(address)":"0d771df7","dTokenToUnderlying(address)":"c3c96b2b","eTokenToDToken(address)":"6b5e3606","eTokenToUnderlying(address)":"b93982a0","enterMarket(uint256,address)":"73f0b437","exitMarket(uint256,address)":"c8a5fba3","getChainlinkPriceFeedConfig(address)":"b3312cf4","getDTokenAddress(string,address)":"c94dbc18","getEnteredMarkets(address)":"8ccb720b","getInterestAccumulator(string,address)":"276b227f","getInterestRate(string,address)":"c7ec0997","getInterestRateModel(string,address)":"52d94d6b","getLastInterestAccumulatorUpdate(string,address)":"59ce0cda","getLiquidityStatus(address)":"e05f13ba","getPricingConfig(address)":"546422d6","getPricingParameters(string,address)":"c064e411","getPricingType(string,address)":"e7786102","getReserveBalance(string,address)":"98cfb230","getReserveFee(string,address)":"f2e77117","getTotalBalances(string,address)":"ab9690df","getTotalBorrows(string,address)":"7163c7e4","getUnderlying(string,address)":"1c8df625","getUnderlyingDecimals(string,address)":"7808bca8","getUserAsset(string,address,address)":"85df21f6","interestAccumulator(address)":"bcc343ae","interestRate(address)":"7c2c69c0","interestRateModel(address)":"b409dd9b","moduleGitCommit()":"69a92ea3","moduleId()":"a1308f27","reserveFee(address)":"b74b1ed5","underlyingToAssetConfig(address)":"4e9cfac2","underlyingToAssetConfigUnresolved(address)":"8f34bdbc","underlyingToDToken(address)":"1b300582","underlyingToEToken(address)":"89488749","underlyingToPToken(address)":"fd7948d4"},"id":36}