{"abi":[{"type":"function","name":"activateMarket","inputs":[{"name":"underlying","type":"address","internalType":"address"}],"outputs":[{"name":"","type":"address","internalType":"address"}],"stateMutability":"nonpayable"},{"type":"function","name":"activatePToken","inputs":[{"name":"underlying","type":"address","internalType":"address"}],"outputs":[{"name":"","type":"address","internalType":"address"}],"stateMutability":"nonpayable"},{"type":"function","name":"dTokenToUnderlying","inputs":[{"name":"dToken","type":"address","internalType":"address"}],"outputs":[{"name":"underlying","type":"address","internalType":"address"}],"stateMutability":"view"},{"type":"function","name":"eTokenToDToken","inputs":[{"name":"eToken","type":"address","internalType":"address"}],"outputs":[{"name":"dTokenAddr","type":"address","internalType":"address"}],"stateMutability":"view"},{"type":"function","name":"eTokenToUnderlying","inputs":[{"name":"eToken","type":"address","internalType":"address"}],"outputs":[{"name":"underlying","type":"address","internalType":"address"}],"stateMutability":"view"},{"type":"function","name":"enterMarket","inputs":[{"name":"subAccountId","type":"uint256","internalType":"uint256"},{"name":"newMarket","type":"address","internalType":"address"}],"outputs":[],"stateMutability":"nonpayable"},{"type":"function","name":"exitMarket","inputs":[{"name":"subAccountId","type":"uint256","internalType":"uint256"},{"name":"oldMarket","type":"address","internalType":"address"}],"outputs":[],"stateMutability":"nonpayable"},{"type":"function","name":"getChainlinkPriceFeedConfig","inputs":[{"name":"underlying","type":"address","internalType":"address"}],"outputs":[{"name":"chainlinkAggregator","type":"address","internalType":"address"}],"stateMutability":"view"},{"type":"function","name":"getDTokenAddress","inputs":[{"name":"eToken","type":"address","internalType":"address"}],"outputs":[{"name":"","type":"address","internalType":"address"}],"stateMutability":"view"},{"type":"function","name":"getEnteredMarkets","inputs":[{"name":"account","type":"address","internalType":"address"}],"outputs":[{"name":"","type":"address[]","internalType":"address[]"}],"stateMutability":"view"},{"type":"function","name":"getInterestAccumulator","inputs":[{"name":"eToken","type":"address","internalType":"address"}],"outputs":[{"name":"","type":"uint256","internalType":"uint256"}],"stateMutability":"view"},{"type":"function","name":"getInterestRate","inputs":[{"name":"eToken","type":"address","internalType":"address"}],"outputs":[{"name":"","type":"int96","internalType":"int96"}],"stateMutability":"view"},{"type":"function","name":"getInterestRateModel","inputs":[{"name":"eToken","type":"address","internalType":"address"}],"outputs":[{"name":"","type":"uint32","internalType":"uint32"}],"stateMutability":"view"},{"type":"function","name":"getLastInterestAccumulatorUpdate","inputs":[{"name":"eToken","type":"address","internalType":"address"}],"outputs":[{"name":"","type":"uint40","internalType":"uint40"}],"stateMutability":"view"},{"type":"function","name":"getPricingConfig","inputs":[{"name":"underlying","type":"address","internalType":"address"}],"outputs":[{"name":"pricingType","type":"uint16","internalType":"uint16"},{"name":"pricingParameters","type":"uint32","internalType":"uint32"},{"name":"pricingForwarded","type":"address","internalType":"address"}],"stateMutability":"view"},{"type":"function","name":"getPricingParameters","inputs":[{"name":"eToken","type":"address","internalType":"address"}],"outputs":[{"name":"","type":"uint32","internalType":"uint32"}],"stateMutability":"view"},{"type":"function","name":"getPricingType","inputs":[{"name":"eToken","type":"address","internalType":"address"}],"outputs":[{"name":"","type":"uint16","internalType":"uint16"}],"stateMutability":"view"},{"type":"function","name":"getReserveBalance","inputs":[{"name":"eToken","type":"address","internalType":"address"}],"outputs":[{"name":"","type":"uint96","internalType":"uint96"}],"stateMutability":"view"},{"type":"function","name":"getReserveFee","inputs":[{"name":"eToken","type":"address","internalType":"address"}],"outputs":[{"name":"","type":"uint32","internalType":"uint32"}],"stateMutability":"view"},{"type":"function","name":"getTotalBalances","inputs":[{"name":"eToken","type":"address","internalType":"address"}],"outputs":[{"name":"","type":"uint112","internalType":"uint112"}],"stateMutability":"view"},{"type":"function","name":"getTotalBorrows","inputs":[{"name":"eToken","type":"address","internalType":"address"}],"outputs":[{"name":"","type":"uint144","internalType":"uint144"}],"stateMutability":"view"},{"type":"function","name":"getUnderlying","inputs":[{"name":"eToken","type":"address","internalType":"address"}],"outputs":[{"name":"","type":"address","internalType":"address"}],"stateMutability":"view"},{"type":"function","name":"getUnderlyingDecimals","inputs":[{"name":"eToken","type":"address","internalType":"address"}],"outputs":[{"name":"","type":"uint8","internalType":"uint8"}],"stateMutability":"view"},{"type":"function","name":"getUserAsset","inputs":[{"name":"eToken","type":"address","internalType":"address"},{"name":"user","type":"address","internalType":"address"}],"outputs":[{"name":"","type":"tuple","internalType":"struct Storage.UserAsset","components":[{"name":"balance","type":"uint112","internalType":"uint112"},{"name":"owed","type":"uint144","internalType":"uint144"},{"name":"interestAccumulator","type":"uint256","internalType":"uint256"}]}],"stateMutability":"view"},{"type":"function","name":"interestAccumulator","inputs":[{"name":"underlying","type":"address","internalType":"address"}],"outputs":[{"name":"","type":"uint256","internalType":"uint256"}],"stateMutability":"view"},{"type":"function","name":"interestRate","inputs":[{"name":"underlying","type":"address","internalType":"address"}],"outputs":[{"name":"","type":"int96","internalType":"int96"}],"stateMutability":"view"},{"type":"function","name":"interestRateModel","inputs":[{"name":"underlying","type":"address","internalType":"address"}],"outputs":[{"name":"","type":"uint256","internalType":"uint256"}],"stateMutability":"view"},{"type":"function","name":"moduleGitCommit","inputs":[],"outputs":[{"name":"","type":"bytes32","internalType":"bytes32"}],"stateMutability":"view"},{"type":"function","name":"moduleId","inputs":[],"outputs":[{"name":"","type":"uint256","internalType":"uint256"}],"stateMutability":"view"},{"type":"function","name":"reserveFee","inputs":[{"name":"underlying","type":"address","internalType":"address"}],"outputs":[{"name":"","type":"uint32","internalType":"uint32"}],"stateMutability":"view"},{"type":"function","name":"underlyingToAssetConfig","inputs":[{"name":"underlying","type":"address","internalType":"address"}],"outputs":[{"name":"","type":"tuple","internalType":"struct Storage.AssetConfig","components":[{"name":"eTokenAddress","type":"address","internalType":"address"},{"name":"borrowIsolated","type":"bool","internalType":"bool"},{"name":"collateralFactor","type":"uint32","internalType":"uint32"},{"name":"borrowFactor","type":"uint32","internalType":"uint32"},{"name":"twapWindow","type":"uint24","internalType":"uint24"}]}],"stateMutability":"view"},{"type":"function","name":"underlyingToAssetConfigUnresolved","inputs":[{"name":"underlying","type":"address","internalType":"address"}],"outputs":[{"name":"config","type":"tuple","internalType":"struct Storage.AssetConfig","components":[{"name":"eTokenAddress","type":"address","internalType":"address"},{"name":"borrowIsolated","type":"bool","internalType":"bool"},{"name":"collateralFactor","type":"uint32","internalType":"uint32"},{"name":"borrowFactor","type":"uint32","internalType":"uint32"},{"name":"twapWindow","type":"uint24","internalType":"uint24"}]}],"stateMutability":"view"},{"type":"function","name":"underlyingToDToken","inputs":[{"name":"underlying","type":"address","internalType":"address"}],"outputs":[{"name":"","type":"address","internalType":"address"}],"stateMutability":"view"},{"type":"function","name":"underlyingToEToken","inputs":[{"name":"underlying","type":"address","internalType":"address"}],"outputs":[{"name":"","type":"address","internalType":"address"}],"stateMutability":"view"},{"type":"function","name":"underlyingToPToken","inputs":[{"name":"underlying","type":"address","internalType":"address"}],"outputs":[{"name":"","type":"address","internalType":"address"}],"stateMutability":"view"},{"type":"event","name":"AssetStatus","inputs":[{"name":"underlying","type":"address","indexed":true,"internalType":"address"},{"name":"totalBalances","type":"uint256","indexed":false,"internalType":"uint256"},{"name":"totalBorrows","type":"uint256","indexed":false,"internalType":"uint256"},{"name":"reserveBalance","type":"uint96","indexed":false,"internalType":"uint96"},{"name":"poolSize","type":"uint256","indexed":false,"internalType":"uint256"},{"name":"interestAccumulator","type":"uint256","indexed":false,"internalType":"uint256"},{"name":"interestRate","type":"int96","indexed":false,"internalType":"int96"},{"name":"timestamp","type":"uint256","indexed":false,"internalType":"uint256"}],"anonymous":false},{"type":"event","name":"Borrow","inputs":[{"name":"underlying","type":"address","indexed":true,"internalType":"address"},{"name":"account","type":"address","indexed":true,"internalType":"address"},{"name":"amount","type":"uint256","indexed":false,"internalType":"uint256"}],"anonymous":false},{"type":"event","name":"DelegateAverageLiquidity","inputs":[{"name":"account","type":"address","indexed":true,"internalType":"address"},{"name":"delegate","type":"address","indexed":true,"internalType":"address"}],"anonymous":false},{"type":"event","name":"Deposit","inputs":[{"name":"underlying","type":"address","indexed":true,"internalType":"address"},{"name":"account","type":"address","indexed":true,"internalType":"address"},{"name":"amount","type":"uint256","indexed":false,"internalType":"uint256"}],"anonymous":false},{"type":"event","name":"EnterMarket","inputs":[{"name":"underlying","type":"address","indexed":true,"internalType":"address"},{"name":"account","type":"address","indexed":true,"internalType":"address"}],"anonymous":false},{"type":"event","name":"ExitMarket","inputs":[{"name":"underlying","type":"address","indexed":true,"internalType":"address"},{"name":"account","type":"address","indexed":true,"internalType":"address"}],"anonymous":false},{"type":"event","name":"Genesis","inputs":[],"anonymous":false},{"type":"event","name":"GovConvertReserves","inputs":[{"name":"underlying","type":"address","indexed":true,"internalType":"address"},{"name":"recipient","type":"address","indexed":true,"internalType":"address"},{"name":"amount","type":"uint256","indexed":false,"internalType":"uint256"}],"anonymous":false},{"type":"event","name":"GovSetAssetConfig","inputs":[{"name":"underlying","type":"address","indexed":true,"internalType":"address"},{"name":"newConfig","type":"tuple","indexed":false,"internalType":"struct Storage.AssetConfig","components":[{"name":"eTokenAddress","type":"address","internalType":"address"},{"name":"borrowIsolated","type":"bool","internalType":"bool"},{"name":"collateralFactor","type":"uint32","internalType":"uint32"},{"name":"borrowFactor","type":"uint32","internalType":"uint32"},{"name":"twapWindow","type":"uint24","internalType":"uint24"}]}],"anonymous":false},{"type":"event","name":"GovSetChainlinkPriceFeed","inputs":[{"name":"underlying","type":"address","indexed":true,"internalType":"address"},{"name":"chainlinkAggregator","type":"address","indexed":false,"internalType":"address"}],"anonymous":false},{"type":"event","name":"GovSetIRM","inputs":[{"name":"underlying","type":"address","indexed":true,"internalType":"address"},{"name":"interestRateModel","type":"uint256","indexed":false,"internalType":"uint256"},{"name":"resetParams","type":"bytes","indexed":false,"internalType":"bytes"}],"anonymous":false},{"type":"event","name":"GovSetPricingConfig","inputs":[{"name":"underlying","type":"address","indexed":true,"internalType":"address"},{"name":"newPricingType","type":"uint16","indexed":false,"internalType":"uint16"},{"name":"newPricingParameter","type":"uint32","indexed":false,"internalType":"uint32"}],"anonymous":false},{"type":"event","name":"GovSetReserveFee","inputs":[{"name":"underlying","type":"address","indexed":true,"internalType":"address"},{"name":"newReserveFee","type":"uint32","indexed":false,"internalType":"uint32"}],"anonymous":false},{"type":"event","name":"InstallerInstallModule","inputs":[{"name":"moduleId","type":"uint256","indexed":true,"internalType":"uint256"},{"name":"moduleImpl","type":"address","indexed":true,"internalType":"address"},{"name":"moduleGitCommit","type":"bytes32","indexed":false,"internalType":"bytes32"}],"anonymous":false},{"type":"event","name":"InstallerSetGovernorAdmin","inputs":[{"name":"newGovernorAdmin","type":"address","indexed":true,"internalType":"address"}],"anonymous":false},{"type":"event","name":"InstallerSetUpgradeAdmin","inputs":[{"name":"newUpgradeAdmin","type":"address","indexed":true,"internalType":"address"}],"anonymous":false},{"type":"event","name":"Liquidation","inputs":[{"name":"liquidator","type":"address","indexed":true,"internalType":"address"},{"name":"violator","type":"address","indexed":true,"internalType":"address"},{"name":"underlying","type":"address","indexed":true,"internalType":"address"},{"name":"collateral","type":"address","indexed":false,"internalType":"address"},{"name":"repay","type":"uint256","indexed":false,"internalType":"uint256"},{"name":"yield","type":"uint256","indexed":false,"internalType":"uint256"},{"name":"healthScore","type":"uint256","indexed":false,"internalType":"uint256"},{"name":"baseDiscount","type":"uint256","indexed":false,"internalType":"uint256"},{"name":"discount","type":"uint256","indexed":false,"internalType":"uint256"}],"anonymous":false},{"type":"event","name":"MarketActivated","inputs":[{"name":"underlying","type":"address","indexed":true,"internalType":"address"},{"name":"eToken","type":"address","indexed":true,"internalType":"address"},{"name":"dToken","type":"address","indexed":true,"internalType":"address"}],"anonymous":false},{"type":"event","name":"PTokenActivated","inputs":[{"name":"underlying","type":"address","indexed":true,"internalType":"address"},{"name":"pToken","type":"address","indexed":true,"internalType":"address"}],"anonymous":false},{"type":"event","name":"PTokenUnWrap","inputs":[{"name":"underlying","type":"address","indexed":true,"internalType":"address"},{"name":"account","type":"address","indexed":true,"internalType":"address"},{"name":"amount","type":"uint256","indexed":false,"internalType":"uint256"}],"anonymous":false},{"type":"event","name":"PTokenWrap","inputs":[{"name":"underlying","type":"address","indexed":true,"internalType":"address"},{"name":"account","type":"address","indexed":true,"internalType":"address"},{"name":"amount","type":"uint256","indexed":false,"internalType":"uint256"}],"anonymous":false},{"type":"event","name":"ProxyCreated","inputs":[{"name":"proxy","type":"address","indexed":true,"internalType":"address"},{"name":"moduleId","type":"uint256","indexed":false,"internalType":"uint256"}],"anonymous":false},{"type":"event","name":"Repay","inputs":[{"name":"underlying","type":"address","indexed":true,"internalType":"address"},{"name":"account","type":"address","indexed":true,"internalType":"address"},{"name":"amount","type":"uint256","indexed":false,"internalType":"uint256"}],"anonymous":false},{"type":"event","name":"RequestBorrow","inputs":[{"name":"account","type":"address","indexed":true,"internalType":"address"},{"name":"amount","type":"uint256","indexed":false,"internalType":"uint256"}],"anonymous":false},{"type":"event","name":"RequestBurn","inputs":[{"name":"account","type":"address","indexed":true,"internalType":"address"},{"name":"amount","type":"uint256","indexed":false,"internalType":"uint256"}],"anonymous":false},{"type":"event","name":"RequestDeposit","inputs":[{"name":"account","type":"address","indexed":true,"internalType":"address"},{"name":"amount","type":"uint256","indexed":false,"internalType":"uint256"}],"anonymous":false},{"type":"event","name":"RequestDonate","inputs":[{"name":"account","type":"address","indexed":true,"internalType":"address"},{"name":"amount","type":"uint256","indexed":false,"internalType":"uint256"}],"anonymous":false},{"type":"event","name":"RequestLiquidate","inputs":[{"name":"liquidator","type":"address","indexed":true,"internalType":"address"},{"name":"violator","type":"address","indexed":true,"internalType":"address"},{"name":"underlying","type":"address","indexed":true,"internalType":"address"},{"name":"collateral","type":"address","indexed":false,"internalType":"address"},{"name":"repay","type":"uint256","indexed":false,"internalType":"uint256"},{"name":"minYield","type":"uint256","indexed":false,"internalType":"uint256"}],"anonymous":false},{"type":"event","name":"RequestMint","inputs":[{"name":"account","type":"address","indexed":true,"internalType":"address"},{"name":"amount","type":"uint256","indexed":false,"internalType":"uint256"}],"anonymous":false},{"type":"event","name":"RequestRepay","inputs":[{"name":"account","type":"address","indexed":true,"internalType":"address"},{"name":"amount","type":"uint256","indexed":false,"internalType":"uint256"}],"anonymous":false},{"type":"event","name":"RequestSwap","inputs":[{"name":"accountIn","type":"address","indexed":true,"internalType":"address"},{"name":"accountOut","type":"address","indexed":true,"internalType":"address"},{"name":"underlyingIn","type":"address","indexed":true,"internalType":"address"},{"name":"underlyingOut","type":"address","indexed":false,"internalType":"address"},{"name":"amount","type":"uint256","indexed":false,"internalType":"uint256"},{"name":"swapType","type":"uint256","indexed":false,"internalType":"uint256"}],"anonymous":false},{"type":"event","name":"RequestSwapHub","inputs":[{"name":"accountIn","type":"address","indexed":true,"internalType":"address"},{"name":"accountOut","type":"address","indexed":true,"internalType":"address"},{"name":"underlyingIn","type":"address","indexed":true,"internalType":"address"},{"name":"underlyingOut","type":"address","indexed":false,"internalType":"address"},{"name":"amountIn","type":"uint256","indexed":false,"internalType":"uint256"},{"name":"amountOut","type":"uint256","indexed":false,"internalType":"uint256"},{"name":"mode","type":"uint256","indexed":false,"internalType":"uint256"},{"name":"swapHandler","type":"address","indexed":false,"internalType":"address"}],"anonymous":false},{"type":"event","name":"RequestSwapHubRepay","inputs":[{"name":"accountIn","type":"address","indexed":true,"internalType":"address"},{"name":"accountOut","type":"address","indexed":true,"internalType":"address"},{"name":"underlyingIn","type":"address","indexed":true,"internalType":"address"},{"name":"underlyingOut","type":"address","indexed":false,"internalType":"address"},{"name":"targetDebt","type":"uint256","indexed":false,"internalType":"uint256"},{"name":"swapHandler","type":"address","indexed":false,"internalType":"address"}],"anonymous":false},{"type":"event","name":"RequestTransferDToken","inputs":[{"name":"from","type":"address","indexed":true,"internalType":"address"},{"name":"to","type":"address","indexed":true,"internalType":"address"},{"name":"amount","type":"uint256","indexed":false,"internalType":"uint256"}],"anonymous":false},{"type":"event","name":"RequestTransferEToken","inputs":[{"name":"from","type":"address","indexed":true,"internalType":"address"},{"name":"to","type":"address","indexed":true,"internalType":"address"},{"name":"amount","type":"uint256","indexed":false,"internalType":"uint256"}],"anonymous":false},{"type":"event","name":"RequestWithdraw","inputs":[{"name":"account","type":"address","indexed":true,"internalType":"address"},{"name":"amount","type":"uint256","indexed":false,"internalType":"uint256"}],"anonymous":false},{"type":"event","name":"TrackAverageLiquidity","inputs":[{"name":"account","type":"address","indexed":true,"internalType":"address"}],"anonymous":false},{"type":"event","name":"UnTrackAverageLiquidity","inputs":[{"name":"account","type":"address","indexed":true,"internalType":"address"}],"anonymous":false},{"type":"event","name":"Withdraw","inputs":[{"name":"underlying","type":"address","indexed":true,"internalType":"address"},{"name":"account","type":"address","indexed":true,"internalType":"address"},{"name":"amount","type":"uint256","indexed":false,"internalType":"uint256"}],"anonymous":false}],"bytecode":{"object":"0x60c060405234801561001057600080fd5b5060026080527f99ac22643f1ec0e690c9b0b8e1f8cce7e4839b1e1d2f86273dcc8c19cc0e981c60a05260805160a051613f3261005f60003960006105ad015260006107180152613f326000f3fe60806040523480156200001157600080fd5b50600436106200023d5760003560e01c8063748818dc116200013d578063b74b1ed511620000bb578063c3c96b2b1162000086578063c3c96b2b1462000868578063c8a5fba3146200087f578063d3ea0f891462000896578063e06ece4d14620008cc578063fd7948d4146200091d57600080fd5b8063b74b1ed514620007cb578063b87147df14620007e2578063b93982a0146200083a578063bcc343ae146200085157600080fd5b80638f34bdbc11620001085780638f34bdbc14620006fb578063a1308f271462000712578063a1e03bb5146200073a578063b3312cf41462000785578063b409dd9b14620007b457600080fd5b8063748818dc14620006315780637c2c69c0146200067b5780638948874914620006a65780638ccb720b14620006d557600080fd5b80634e80717711620001cb57806354a05771116200019657806354a05771146200056e57806369a92ea314620005a75780636b5e360614620005cf57806370b38d4714620005e657806373f0b437146200061857600080fd5b80634e807177146200046c5780634e89a71114620004835780634e9cfac214620004b5578063546422d6146200052857600080fd5b80631b300582116200020c5780631b30058214620003575780633e1eaf831462000398578063474cf46814620003e75780634c6fc8e9146200043357600080fd5b80630490e1f414620002425780630d771df7146200029157806311ee7b1514620002c157806315226b5414620002ff575b600080fd5b6200027962000253366004620028a3565b6001600160a01b0316600090815260096020526040902054600160d01b900461ffff1690565b60405161ffff90911681526020015b60405180910390f35b620002a8620002a2366004620028a3565b6200094c565b6040516001600160a01b03909116815260200162000288565b620002f0620002d2366004620028a3565b6001600160a01b031660009081526009602052604090206004015490565b60405190815260200162000288565b6200033e62000310366004620028a3565b6001600160a01b0316600090815260096020526040902060010154600160a01b90046001600160601b031690565b6040516001600160601b03909116815260200162000288565b620002a862000368366004620028a3565b6001600160a01b039081166000908152600860209081526040808320548416835260099091529020600201541690565b620003d1620003a9366004620028a3565b6001600160a01b0316600090815260096020526040902054600160e01b900463ffffffff1690565b60405163ffffffff909116815260200162000288565b620003fe620003f8366004620028c3565b62000b5e565b6040805182516001600160701b031681526020808401516001600160901b031690820152918101519082015260600162000288565b620003d162000444366004620028a3565b6001600160a01b0316600090815260096020526040902054600160b01b900463ffffffff1690565b620002a86200047d366004620028a3565b62000bfd565b620002a862000494366004620028a3565b6001600160a01b039081166000908152600960205260409020600101541690565b620004cc620004c6366004620028a3565b62000ca3565b60405162000288919081516001600160a01b0316815260208083015115159082015260408083015163ffffffff908116918301919091526060808401519091169082015260809182015162ffffff169181019190915260a00190565b6200053f62000539366004620028a3565b62000cb8565b6040805161ffff909416845263ffffffff90921660208401526001600160a01b03169082015260600162000288565b620003d16200057f366004620028a3565b6001600160a01b0316600090815260096020526040902054600160301b900463ffffffff1690565b620002f07f000000000000000000000000000000000000000000000000000000000000000081565b620002a8620005e0366004620028a3565b62000d1f565b620002a8620005f7366004620028a3565b6001600160a01b039081166000908152600960205260409020600201541690565b6200062f6200062936600462002901565b62000d84565b005b6200066462000642366004620028a3565b6001600160a01b031660009081526009602052604090205464ffffffffff1690565b60405164ffffffffff909116815260200162000288565b620006926200068c366004620028a3565b62000e1a565b604051600b9190910b815260200162000288565b620002a8620006b7366004620028a3565b6001600160a01b039081166000908152600860205260409020541690565b620006ec620006e6366004620028a3565b62000e3a565b60405162000288919062002929565b620004cc6200070c366004620028a3565b62000e47565b620002f07f000000000000000000000000000000000000000000000000000000000000000081565b620007726200074b366004620028a3565b6001600160a01b031660009081526009602052604090205465010000000000900460ff1690565b60405160ff909116815260200162000288565b620002a862000796366004620028a3565b6001600160a01b039081166000908152600d60205260409020541690565b620002f0620007c5366004620028a3565b62000ee9565b620003d1620007dc366004620028a3565b62000f0c565b62000821620007f3366004620028a3565b6001600160a01b0316600090815260096020526040902060030154600160701b90046001600160901b031690565b6040516001600160901b03909116815260200162000288565b620002a86200084b366004620028a3565b62000f56565b620002f062000862366004620028a3565b62000fb6565b620002a862000879366004620028a3565b62000fe0565b6200062f6200089036600462002901565b62001063565b62000692620008a7366004620028a3565b6001600160a01b0316600090815260096020526040902054600160501b9004600b0b90565b62000904620008dd366004620028a3565b6001600160a01b03166000908152600960205260409020600301546001600160701b031690565b6040516001600160701b03909116815260200162000288565b620002a86200092e366004620028a3565b6001600160a01b039081166000908152600c60205260409020541690565b60006001600054146200097c5760405162461bcd60e51b8152600401620009739062002978565b60405180910390fd5b600260009081556001600160a01b038381168252600b6020526040909120541615620009dd5760405162461bcd60e51b815260206004820152600f60248201526e3297b732b9ba32b216b83a37b5b2b760891b604482015260640162000973565b6001600160a01b038281166000908152600c6020526040902054161562000a2057506001600160a01b038082166000908152600c60205260409020541662000b54565b600062000a2d836200118c565b9050806040015163ffffffff1660000362000a8b5760405162461bcd60e51b815260206004820152601760248201527f652f70746f6b656e2f6e6f742d636f6c6c61746572616c000000000000000000604482015260640162000973565b506000308360405162000a9e906200281a565b6001600160a01b03928316815291166020820152604001604051809103906000f08015801562000ad2573d6000803e3d6000fd5b506001600160a01b038082166000818152600b602090815260408083208054958a166001600160a01b03199687168117909155808452600c90925280832080549095168417909455925193945090927f73fb3a739df7a607a2d4190be1c2d2beb0a1a1d66712602ace77dfa83381b73f9190a362000b508162001274565b5090505b6001600055919050565b60408051606081018252600080825260208201819052918101919091526001600160a01b03831660009081526009602052604081206005019062000ba3848262001701565b6001600160a01b031681526020808201929092526040908101600020815160608101835281546001600160701b0381168252600160701b90046001600160901b031693810193909352600101549082015290505b92915050565b600060016000541462000c245760405162461bcd60e51b8152600401620009739062002978565b600260009081556001600160a01b038381168252600b602052604090912054161562000c8d5760405162461bcd60e51b81526020600482015260176024820152763297b6b0b935b2ba3997b4b73b30b634b216ba37b5b2b760491b604482015260640162000973565b62000c988262001274565b600160005592915050565b62000cad62002828565b62000bf7826200118c565b60008060008062000cc9856200175b565b8054600160d01b810461ffff169550600160e01b900463ffffffff16935090506003841462000cfa57600062000d16565b6001600160a01b038086166000908152600b6020526040902054165b93959294505050565b6001600160a01b03808216600090815260096020526040902060020154168062000d7f5760405162461bcd60e51b815260206004820152601060248201526f3297b4b73b30b634b216b2ba37b5b2b760811b604482015260640162000973565b919050565b60016000541462000da95760405162461bcd60e51b8152600401620009739062002978565b6002600090815560271936013560601c9062000dc6828562001701565b6001600160a01b038481166000908152600860205260409020549192501662000e035760405162461bcd60e51b815260040162000973906200299e565b62000e0f8184620017b5565b505060016000555050565b60008062000e28836200175b565b54600160501b9004600b0b9392505050565b606062000bf782620019a8565b62000e5162002828565b506001600160a01b03818116600090815260086020908152604091829020825160a0810184529054938416808252600160a01b850460ff16151592820192909252600160a81b840463ffffffff90811693820193909352600160c81b84049092166060830152600160e81b90920462ffffff1660808201529062000d7f5760405162461bcd60e51b815260040162000973906200299e565b60008062000ef7836200175b565b54600160301b900463ffffffff169392505050565b60008062000f1a836200175b565b8054909150600160b01b900463ffffffff9081161462000f49578054600160b01b900463ffffffff1662000f4f565b6336d616005b9392505050565b6001600160a01b03808216600090815260096020526040902060010154168062000d7f5760405162461bcd60e51b815260206004820152601060248201526f3297b4b73b30b634b216b2ba37b5b2b760811b604482015260640162000973565b60008062000fc4836200175b565b9050600062000fd4848362001b00565b60800151949350505050565b6001600160a01b038082166000908152600a6020526040812054909116806200103f5760405162461bcd60e51b815260206004820152601060248201526f3297b4b73b30b634b216b23a37b5b2b760811b604482015260640162000973565b6001600160a01b039081166000908152600960205260409020600101541692915050565b600160005414620010885760405162461bcd60e51b8152600401620009739062002978565b6002600090815560271936013560601c90620010a5828562001701565b90506000620010b4846200118c565b80516001600160a01b039081166000908152600960209081526040808320938716835260058401909152902054919250906001600160701b03811690600160701b90046001600160901b03168015620011475760405162461bcd60e51b8152602060048201526014602482015273652f6f75747374616e64696e672d626f72726f7760601b604482015260640162000973565b62001153858862001bd1565b604084015163ffffffff16158015906200116c57508115155b156200117d576200117d8562001e19565b50506001600055505050505050565b6200119662002828565b6001600160a01b03828116600090815260086020908152604091829020825160a0810184529054938416808252600160a01b850460ff16151592820192909252600160a81b840463ffffffff90811693820193909352600160c81b84049092166060830152600160e81b90920462ffffff166080820152906200122d5760405162461bcd60e51b815260040162000973906200299e565b63ffffffff8016816060015163ffffffff160362001250576342c1d80060608201525b62ffffff8016816080015162ffffff160362000bf757610708608082015292915050565b6001600160a01b0381811660009081526008602052604081205490911615620012b657506001600160a01b039081166000908152600860205260409020541690565b6001600160a01b03821660009081526005602052604090205463ffffffff16158015620012ec57506001600160a01b0382163014155b620013345760405162461bcd60e51b81526020600482015260176024820152763297b6b0b935b2ba3997b4b73b30b634b216ba37b5b2b760491b604482015260640162000973565b6000826001600160a01b031663313ce5676040518163ffffffff1660e01b8152600401602060405180830381865afa15801562001375573d6000803e3d6000fd5b505050506040513d601f19601f820116820180604052508101906200139b9190620029ce565b905060128160ff161115620013e95760405162461bcd60e51b8152602060048201526013602482015272652f746f6f2d6d616e792d646563696d616c7360681b604482015260640162000973565b620013f362002856565b6040516001600160a01b03851660248201526000906200145790620f42409063476ee6c960e11b906044015b60408051601f198184030181529190526020810180516001600160e01b03166001600160e01b03199093169290921790915262001ea3565b9050808060200190518101906200146f919062002a88565b9150506000620014826207a12062001f34565b60408301516001600160a01b039091169081905290506000620014a86207a12162001f34565b6040848101516001600160a01b038981166000818152600860209081528582208551815483880151888a015160608a01516080909a01519389166001600160a81b031990931692909217600160a01b911515919091021767ffffffffffffffff60a81b1916600160a81b63ffffffff9283160263ffffffff60c81b191617600160c81b98821698909802979097176001600160e81b0316600160e81b62ffffff90921691909102179055868416808352600a825286832080546001600160a01b0319908116968c169687179091559483526009825295909120600181018054851690931790925588518254918a01516002840180549095169096179093554264ffffffffff166001600160d01b03909116600160d01b61ffff909416939093026001600160e01b031692909217600160e01b94909316939093029190911765ffffffffffff1916176501000000000060ff8816021779ffffffff000000000000000000000000ffffffff000000000000191679ffffffff000000000000000000000000001e848000000000000017815590915062001649620f424062002118565b8160010160146101000a8154816001600160601b0302191690836001600160601b031602179055506200167f620f424062002182565b6003820180546dffffffffffffffffffffffffffff19166001600160701b03929092169190911790556b033b2e3c9fd0803ce800000060048201556040516001600160a01b0383811691858216918a16907f2ece124509c63be11a6985ae00b93c8cb8f8d8898f6e5239fc9e38bc7190966790600090a4509095945050505050565b60006101008210620017565760405162461bcd60e51b815260206004820152601860248201527f652f7375622d6163636f756e742d69642d746f6f2d6269670000000000000000604482015260640162000973565b501890565b6001600160a01b0380821660009081526008602052604081205490911680620017985760405162461bcd60e51b815260040162000973906200299e565b6001600160a01b0316600090815260096020526040902092915050565b6001600160a01b0382166000908152600660209081526040808320805460079093529220600160301b90910463ffffffff169081156200186a5782546001600160a01b03808616600160501b909204160362001812575050505050565b60015b8263ffffffff168110156200186857846001600160a01b03168282600160201b811062001846576200184662002b69565b01546001600160a01b0316036200185f57505050505050565b60010162001815565b505b600a8263ffffffff1610620018c25760405162461bcd60e51b815260206004820152601a60248201527f652f746f6f2d6d616e792d656e74657265642d6d61726b657473000000000000604482015260640162000973565b8163ffffffff16600003620018f9578254600160501b600160f01b031916600160501b6001600160a01b0386160217835562001938565b83818363ffffffff16600160201b811062001918576200191862002b69565b0180546001600160a01b0319166001600160a01b03929092169190911790555b6200194582600162002b95565b835463ffffffff91909116600160301b0269ffffffff000000000000199091161783556040516001600160a01b0380871691908616907f1c0971b8e0f7bb4e90bdbd87cfe682c36c383e2fc3dc4716ecc02771186293cc90600090a35050505050565b6001600160a01b0380821660009081526006602052604081205460609263ffffffff600160301b83041692600160501b90920416908267ffffffffffffffff811115620019f957620019f9620029f3565b60405190808252806020026020018201604052801562001a23578160200160208202803683370190505b5090508263ffffffff1660000362001a3d57949350505050565b6001600160a01b038516600090815260076020526040812082519091849184919062001a6d5762001a6d62002b69565b6001600160a01b039092166020928302919091019091015260015b8463ffffffff1681101562001af5578181600160201b811062001aaf5762001aaf62002b69565b015483516001600160a01b039091169084908390811062001ad45762001ad462002b69565b6001600160a01b039092166020928302919091019091015260010162001a88565b509095945050505050565b604080516101e081018252600080825260208201819052918101829052606081018290526080810182905260a0810182905260c0810182905260e08101829052610100810182905261012081018290526101408101829052610160810182905261018081018290526101a081018290526101c08101829052905460011462001bbd5760405162461bcd60e51b815260206004820152600f60248201526e652f726f2d7265656e7472616e637960881b604482015260640162000973565b62001bca838383620021dd565b5092915050565b6001600160a01b0382166000908152600660209081526040808320805460079093529083209092600160301b90920463ffffffff16916000199083900362001c1b57505050505050565b83546001600160a01b03808716600160501b909204160362001c405750600062001caa565b60015b8363ffffffff1681101562001c9757856001600160a01b03168382600160201b811062001c745762001c7462002b69565b01546001600160a01b03160362001c8e5780915062001c97565b60010162001c43565b50600019810362001caa57505050505050565b600062001cb960018562002bb5565b63ffffffff16905080821462001d70578160000362001d15578281600160201b811062001cea5762001cea62002b69565b01548554600160501b600160f01b0319166001600160a01b03909116600160501b0217855562001d70565b8281600160201b811062001d2d5762001d2d62002b69565b01546001600160a01b03168383600160201b811062001d505762001d5062002b69565b0180546001600160a01b0319166001600160a01b03929092169190911790555b845469ffffffff0000000000001916600160301b63ffffffff831602178555801562001dd05760008382600160201b811062001db05762001db062002b69565b0180546001600160a01b0319166001600160a01b03929092169190911790555b866001600160a01b0316866001600160a01b03167f7a35d9c64b6bcbe8e9104e3f481fb44a765d4b2a54cfa1c2d434a46c69f0418960405160405180910390a350505050505050565b6001600160a01b03811660009081526006602052604090205460ff168062001e6e576040516001600160a01b038316602482015262001e6990620f4240906361cdaa1d60e11b906044016200141f565b505050565b60001960ff82160162001e9f576001600160a01b0382166000908152600660205260409020805460ff191660021790555b5050565b6000828152600360205260408082205490516060929182916001600160a01b039091169062001ed490869062002bd5565b600060405180830381855af49150503d806000811462001f11576040519150601f19603f3d011682016040523d82523d6000602084013e62001f16565b606091505b50915091508162001f2c5762001f2c81620025b6565b949350505050565b60008160000362001f885760405162461bcd60e51b815260206004820152601d60248201527f652f6372656174652d70726f78792f696e76616c69642d6d6f64756c65000000604482015260640162000973565b620f423f82111562001fdd5760405162461bcd60e51b815260206004820152601e60248201527f652f6372656174652d70726f78792f696e7465726e616c2d6d6f64756c650000604482015260640162000973565b6000828152600460205260409020546001600160a01b0316156200201757506000908152600460205260409020546001600160a01b031690565b600060405162002027906200287c565b604051809103906000f08015801562002044573d6000803e3d6000fd5b5090506207a11f83116200207a57600083815260046020526040902080546001600160a01b0319166001600160a01b0383161790555b60408051808201825263ffffffff8086168252600060208084018281526001600160a01b03878116808552600590935292869020945185549151909316600160201b026001600160c01b031990911692909316919091179190911790915590517f6c6ffd7df9a0cfaa14ee2cf752003968de6c340564276242aa48ca641b09bce4906200210a9086815260200190565b60405180910390a292915050565b60006001600160601b038211156200217e5760405162461bcd60e51b815260206004820152602260248201527f652f736d616c6c2d616d6f756e742d746f6f2d6c617267652d746f2d656e636f604482015261646560f01b606482015260840162000973565b5090565b60006001600160701b038211156200217e5760405162461bcd60e51b815260206004820152601c60248201527f652f616d6f756e742d746f6f2d6c617267652d746f2d656e636f646500000000604482015260640162000973565b6001600160a01b0383168152815464ffffffffff811660a083015265010000000000810460ff90811660c08401819052600160301b830463ffffffff90811660e0860152600160501b8404600b0b610100860152600160b01b84048116610120860152600160d01b840461ffff16610140860152600160e01b9093049092166101608401526001840154600160a01b90046001600160601b0316606084015260038401546001600160701b038082166020860152600160701b9091046001600160901b03166040850152600485015460808501526012839003909116600a0a6101a084018190526000929181620022d857620022d862002c06565b046101c08401526000620022ed8430620025ff565b9050836101c00151811162002310576101a0840151810261018085015262002319565b60006101808501525b8360a0015164ffffffffff164214620025ad576001925060008460a0015164ffffffffff16426200234b919062002c1c565b905060006b033b2e3c9fd0803ce800000086608001516200239b886101000151600b0b6b033b2e3c9fd0803ce800000062002387919062002c32565b856b033b2e3c9fd0803ce8000000620026eb565b620023a7919062002c5d565b620023b3919062002c77565b9050600086608001518288604001516001600160901b0316620023d7919062002c5d565b620023e3919062002c77565b606088015160208901519192506001600160601b0316906001600160701b0316600062002419633b9aca0063ee6b280062002c5d565b6101208b015163ffffffff9081161462002439578a61012001516200243f565b6336d616005b63ffffffff168b604001516001600160901b03168662002460919062002c1c565b6200246c919062002c5d565b62002478919062002c77565b90508015620024f857600062002493633b9aca008662002c77565b8b6101800151620024a5919062002c9a565b9050620024b3828262002c1c565b620024bf848362002c5d565b620024cb919062002c77565b92508a602001516001600160701b031683620024e8919062002c1c565b620024f4908562002c9a565b9350505b6001600160701b0382118015906200251757506001600160901b038411155b80156200252b57506001600160601b038311155b15620025a6576200253c84620027b5565b6001600160901b031660408b015260808a0185905264ffffffffff421660a08b015260208a01516001600160701b03168214620025a6576200257e8362002118565b6001600160601b031660608b0152620025978262002182565b6001600160701b031660208b01525b5050505050505b50509392505050565b805115620025c657805181602001fd5b60405162461bcd60e51b815260206004820152600d60248201526c3297b2b6b83a3c96b2b93937b960991b604482015260640162000973565b6040805183516001600160a01b03848116602480850191909152845180850390910181526044840185526020810180516001600160e01b03166370a0823160e01b179052935160009485938493169162030d40916200265e9162002bd5565b6000604051808303818686fa925050503d80600081146200269c576040519150601f19603f3d011682016040523d82523d6000602084013e620026a1565b606091505b5091509150811580620026b5575060208151105b15620026c757600093505050620026e2565b80806020019051810190620026dd919062002cb0565b935050505b60405292915050565b6000838015620027965760018416801562002709578592506200270d565b8392505b50600283046002850494505b84156200278f5785860286878204146200273257600080fd5b818101818110156200274357600080fd5b8590049650506001851615620027835785830283878204141587151516156200276b57600080fd5b818101818110156200277c57600080fd5b8590049350505b60028504945062002719565b50620027ad565b838015620027a85760009250620025ad565b839250505b509392505050565b60006001600160901b038211156200217e5760405162461bcd60e51b815260206004820152602160248201527f652f646562742d616d6f756e742d746f6f2d6c617267652d746f2d656e636f646044820152606560f81b606482015260840162000973565b6110b98062002ccb83390190565b6040805160a08101825260008082526020820181905291810182905260608101829052608081019190915290565b60408051606081018252600080825260208201529081016200287762002828565b905290565b6101798062003d8483390190565b6001600160a01b0381168114620028a057600080fd5b50565b600060208284031215620028b657600080fd5b813562000f4f816200288a565b60008060408385031215620028d757600080fd5b8235620028e4816200288a565b91506020830135620028f6816200288a565b809150509250929050565b600080604083850312156200291557600080fd5b823591506020830135620028f6816200288a565b6020808252825182820181905260009190848201906040850190845b818110156200296c5783516001600160a01b03168352928401929184019160010162002945565b50909695505050505050565b6020808252600c908201526b652f7265656e7472616e637960a01b604082015260600190565b602080825260169082015275194bdb585c9ad95d0b5b9bdd0b5858dd1a5d985d195960521b604082015260600190565b600060208284031215620029e157600080fd5b815160ff8116811462000f4f57600080fd5b634e487b7160e01b600052604160045260246000fd5b6040516060810167ffffffffffffffff8111828210171562002a3b57634e487b7160e01b600052604160045260246000fd5b60405290565b60405160a0810167ffffffffffffffff8111828210171562002a3b57634e487b7160e01b600052604160045260246000fd5b805163ffffffff8116811462000d7f57600080fd5b600081830360e081121562002a9c57600080fd5b62002aa662002a09565b835161ffff8116811462002ab957600080fd5b815262002ac96020850162002a73565b602082015260a0603f198301121562002ae157600080fd5b62002aeb62002a41565b9150604084015162002afd816200288a565b82526060840151801515811462002b1357600080fd5b602083015262002b266080850162002a73565b604083015262002b3960a0850162002a73565b606083015260c084015162ffffff8116811462002b5557600080fd5b608083015260408101919091529392505050565b634e487b7160e01b600052603260045260246000fd5b634e487b7160e01b600052601160045260246000fd5b63ffffffff81811683821601908082111562001bca5762001bca62002b7f565b63ffffffff82811682821603908082111562001bca5762001bca62002b7f565b6000825160005b8181101562002bf8576020818601810151858301520162002bdc565b506000920191825250919050565b634e487b7160e01b600052601260045260246000fd5b8181038181111562000bf75762000bf762002b7f565b808201828112600083128015821682158216171562002c555762002c5562002b7f565b505092915050565b808202811582820484141762000bf75762000bf762002b7f565b60008262002c9557634e487b7160e01b600052601260045260246000fd5b500490565b8082018082111562000bf75762000bf762002b7f565b60006020828403121562002cc357600080fd5b505191905056fe60c060405234801561001057600080fd5b506040516110b93803806110b983398101604081905261002f91610062565b6001600160a01b039182166080521660a052610095565b80516001600160a01b038116811461005d57600080fd5b919050565b6000806040838503121561007557600080fd5b61007e83610046565b915061008c60208401610046565b90509250929050565b60805160a051610fce6100eb6000396000818161019101528181610275015281816106960152818161071f015281816107df015281816109530152610a2c01526000818161039501526104870152610fce6000f3fe608060405234801561001057600080fd5b50600436106100ea5760003560e01c806370a082311161008c578063b77dfe0311610066578063b77dfe03146101ff578063dd62ed3e14610212578063de0e9a3e1461024b578063ea598cb01461025e57600080fd5b806370a08231146101bb57806395d89b41146101e4578063a9059cbb146101ec57600080fd5b80631ed575db116100c85780631ed575db1461014257806323b872dd14610157578063313ce5671461016a5780636f307dc31461018457600080fd5b806306fdde03146100ef578063095ea7b31461010d57806318160ddd14610130575b600080fd5b6100f7610271565b6040516101049190610ca2565b60405180910390f35b61012061011b366004610cf1565b61031d565b6040519015158152602001610104565b6002545b604051908152602001610104565b610155610150366004610cf1565b61038a565b005b610120610165366004610d1b565b610409565b610172610692565b60405160ff9091168152602001610104565b6040516001600160a01b037f0000000000000000000000000000000000000000000000000000000000000000168152602001610104565b6101346101c9366004610d57565b6001600160a01b031660009081526020819052604090205490565b6100f761071b565b6101206101fa366004610cf1565b6107b3565b61015561020d366004610d57565b6107c7565b610134610220366004610d72565b6001600160a01b03918216600090815260016020908152604080832093909416825291909152205490565b610155610259366004610da5565b610941565b61015561026c366004610da5565b61094e565b60607f00000000000000000000000000000000000000000000000000000000000000006001600160a01b03166306fdde036040518163ffffffff1660e01b8152600401600060405180830381865afa1580156102d1573d6000803e3d6000fd5b505050506040513d6000823e601f3d908101601f191682016040526102f99190810190610dd4565b6040516020016103099190610e81565b604051602081830303815290604052905090565b3360008181526001602090815260408083206001600160a01b038716808552925280832085905551919290917f8c5be1e5ebec7d5bd14f71427d1e84f3dd0314c0f7b2291e5b200ac8c7c3b925906103789086815260200190565b60405180910390a35060015b92915050565b336001600160a01b037f000000000000000000000000000000000000000000000000000000000000000016146103fb5760405162461bcd60e51b81526020600482015260116024820152701c195c9b5a5cdcda5bdb8819195b9a5959607a1b60448201526064015b60405180910390fd5b6104058282610983565b5050565b6001600160a01b0383166000908152602081905260408120548211156104685760405162461bcd60e51b8152602060048201526014602482015273696e73756666696369656e742062616c616e636560601b60448201526064016103f2565b6001600160a01b03841633148015906104aa5750336001600160a01b037f00000000000000000000000000000000000000000000000000000000000000001614155b80156104db57506001600160a01b038416600090815260016020908152604080832033845290915290205460001914155b156105df576001600160a01b038416600090815260016020908152604080832033845290915290205482111561054c5760405162461bcd60e51b8152602060048201526016602482015275696e73756666696369656e7420616c6c6f77616e636560501b60448201526064016103f2565b6001600160a01b03841660009081526001602090815260408083203384529091528120805484929061057f908490610ecf565b90915550506001600160a01b038416600081815260016020908152604080832033808552908352928190205490519081529192917f8c5be1e5ebec7d5bd14f71427d1e84f3dd0314c0f7b2291e5b200ac8c7c3b925910160405180910390a35b6001600160a01b03841660009081526020819052604081208054849290610607908490610ecf565b90915550506001600160a01b03831660009081526020819052604081208054849290610634908490610ee2565b92505081905550826001600160a01b0316846001600160a01b03167fddf252ad1be2c89b69c2b068fc378daa952ba7f163c4a11628f55a4df523b3ef8460405161068091815260200190565b60405180910390a35060019392505050565b60007f00000000000000000000000000000000000000000000000000000000000000006001600160a01b031663313ce5676040518163ffffffff1660e01b8152600401602060405180830381865afa1580156106f2573d6000803e3d6000fd5b505050506040513d601f19601f820116820180604052508101906107169190610ef5565b905090565b60607f00000000000000000000000000000000000000000000000000000000000000006001600160a01b03166395d89b416040518163ffffffff1660e01b8152600401600060405180830381865afa15801561077b573d6000803e3d6000fd5b505050506040513d6000823e601f3d908101601f191682016040526107a39190810190610dd4565b6040516020016103099190610f18565b60006107c0338484610409565b9392505050565b6040516370a0823160e01b81523060048201526000907f00000000000000000000000000000000000000000000000000000000000000006001600160a01b0316906370a0823190602401602060405180830381865afa15801561082e573d6000803e3d6000fd5b505050506040513d601f19601f820116820180604052508101906108529190610f41565b905060025481116108a55760405162461bcd60e51b815260206004820152601b60248201527f6e6f20737572706c75732062616c616e636520746f20636c61696d000000000060448201526064016103f2565b6000600254826108b59190610ecf565b905080600260008282546108c99190610ee2565b90915550506001600160a01b038316600090815260208190526040812080548392906108f6908490610ee2565b90915550506040518181526001600160a01b038416906000907fddf252ad1be2c89b69c2b068fc378daa952ba7f163c4a11628f55a4df523b3ef9060200160405180910390a3505050565b61094b3382610983565b50565b61097a7f0000000000000000000000000000000000000000000000000000000000000000333084610a97565b61094b336107c7565b6001600160a01b0382166000908152602081905260409020548111156109e25760405162461bcd60e51b8152602060048201526014602482015273696e73756666696369656e742062616c616e636560601b60448201526064016103f2565b80600260008282546109f49190610ecf565b90915550506001600160a01b03821660009081526020819052604081208054839290610a21908490610ecf565b90915550610a5290507f00000000000000000000000000000000000000000000000000000000000000008383610b8f565b6040518181526000906001600160a01b038416907fddf252ad1be2c89b69c2b068fc378daa952ba7f163c4a11628f55a4df523b3ef9060200160405180910390a35050565b604080516001600160a01b0385811660248301528481166044830152606480830185905283518084039091018152608490920183526020820180516001600160e01b03166323b872dd60e01b1790529151600092839290881691610afb9190610f5a565b6000604051808303816000865af19150503d8060008114610b38576040519150601f19603f3d011682016040523d82523d6000602084013e610b3d565b606091505b5091509150818015610b67575080511580610b67575080806020019051810190610b679190610f76565b8190610b865760405162461bcd60e51b81526004016103f29190610ca2565b50505050505050565b604080516001600160a01b038481166024830152604480830185905283518084039091018152606490920183526020820180516001600160e01b031663a9059cbb60e01b1790529151600092839290871691610beb9190610f5a565b6000604051808303816000865af19150503d8060008114610c28576040519150601f19603f3d011682016040523d82523d6000602084013e610c2d565b606091505b5091509150818015610c57575080511580610c57575080806020019051810190610c579190610f76565b8190610c765760405162461bcd60e51b81526004016103f29190610ca2565b505050505050565b60005b83811015610c99578181015183820152602001610c81565b50506000910152565b6020815260008251806020840152610cc1816040850160208701610c7e565b601f01601f19169190910160400192915050565b80356001600160a01b0381168114610cec57600080fd5b919050565b60008060408385031215610d0457600080fd5b610d0d83610cd5565b946020939093013593505050565b600080600060608486031215610d3057600080fd5b610d3984610cd5565b9250610d4760208501610cd5565b9150604084013590509250925092565b600060208284031215610d6957600080fd5b6107c082610cd5565b60008060408385031215610d8557600080fd5b610d8e83610cd5565b9150610d9c60208401610cd5565b90509250929050565b600060208284031215610db757600080fd5b5035919050565b634e487b7160e01b600052604160045260246000fd5b600060208284031215610de657600080fd5b815167ffffffffffffffff80821115610dfe57600080fd5b818401915084601f830112610e1257600080fd5b815181811115610e2457610e24610dbe565b604051601f8201601f19908116603f01168101908382118183101715610e4c57610e4c610dbe565b81604052828152876020848701011115610e6557600080fd5b610e76836020830160208801610c7e565b979650505050505050565b6f022bab632b910283937ba32b1ba32b2160851b815260008251610eac816010850160208701610c7e565b9190910160100192915050565b634e487b7160e01b600052601160045260246000fd5b8181038181111561038457610384610eb9565b8082018082111561038457610384610eb9565b600060208284031215610f0757600080fd5b815160ff811681146107c057600080fd5b600760fc1b815260008251610f34816001850160208701610c7e565b9190910160010192915050565b600060208284031215610f5357600080fd5b5051919050565b60008251610f6c818460208701610c7e565b9190910192915050565b600060208284031215610f8857600080fd5b815180151581146107c057600080fdfea26469706673582212207f02b5adab04f9083113f84c0a6b837313e455901ae378a32083bba23f5eff8564736f6c6343000817003360a060405234801561001057600080fd5b503360805260805161014a61002f60003960006013015261014a6000f3fe608060405234801561001057600080fd5b507f00000000000000000000000000000000000000000000000000000000000000006001600160a01b03811633036100d75760008081523681601f37805180156100785760018114610085576002811461009557600381146100a857600481146100be578182fd5b36600019016020a0508081f35b60205136602019016040a1508081f35b60405160205136604019016060a2508081f35b60605160405160205136606019016080a3508081f35b608051606051604051602051366080190160a0a4508081f35b633a7128eb60e21b6000523660006004373360601b366004015260008036601801600080855af13d6000803e80801561010f573d6000f35b3d6000fdfea2646970667358221220b447dc14656bbe6d3f87e327c5cf94ed446eedba65a7a6fc6e1a3ca21e187df364736f6c63430008170033a2646970667358221220a91d9eb98e77a48293f4e8dd2bfa922b437cff04d4dcc41537449c36327e8b8c64736f6c63430008170033","linkReferences":{}},"methodIdentifiers":{"activateMarket(address)":"4e807177","activatePToken(address)":"0d771df7","dTokenToUnderlying(address)":"c3c96b2b","eTokenToDToken(address)":"6b5e3606","eTokenToUnderlying(address)":"b93982a0","enterMarket(uint256,address)":"73f0b437","exitMarket(uint256,address)":"c8a5fba3","getChainlinkPriceFeedConfig(address)":"b3312cf4","getDTokenAddress(address)":"70b38d47","getEnteredMarkets(address)":"8ccb720b","getInterestAccumulator(address)":"11ee7b15","getInterestRate(address)":"d3ea0f89","getInterestRateModel(address)":"54a05771","getLastInterestAccumulatorUpdate(address)":"748818dc","getPricingConfig(address)":"546422d6","getPricingParameters(address)":"3e1eaf83","getPricingType(address)":"0490e1f4","getReserveBalance(address)":"15226b54","getReserveFee(address)":"4c6fc8e9","getTotalBalances(address)":"e06ece4d","getTotalBorrows(address)":"b87147df","getUnderlying(address)":"4e89a711","getUnderlyingDecimals(address)":"a1e03bb5","getUserAsset(address,address)":"474cf468","interestAccumulator(address)":"bcc343ae","interestRate(address)":"7c2c69c0","interestRateModel(address)":"b409dd9b","moduleGitCommit()":"69a92ea3","moduleId()":"a1308f27","reserveFee(address)":"b74b1ed5","underlyingToAssetConfig(address)":"4e9cfac2","underlyingToAssetConfigUnresolved(address)":"8f34bdbc","underlyingToDToken(address)":"1b300582","underlyingToEToken(address)":"89488749","underlyingToPToken(address)":"fd7948d4"},"id":36}