{"abi":[{"type":"constructor","inputs":[{"name":"moduleGitCommit_","type":"bytes32","internalType":"bytes32"}],"stateMutability":"nonpayable"},{"type":"function","name":"DISCOUNT_BOOSTER_SLOPE","inputs":[],"outputs":[{"name":"","type":"uint256","internalType":"uint256"}],"stateMutability":"view"},{"type":"function","name":"MAXIMUM_BOOSTER_DISCOUNT","inputs":[],"outputs":[{"name":"","type":"uint256","internalType":"uint256"}],"stateMutability":"view"},{"type":"function","name":"MAXIMUM_DISCOUNT","inputs":[],"outputs":[{"name":"","type":"uint256","internalType":"uint256"}],"stateMutability":"view"},{"type":"function","name":"TARGET_HEALTH","inputs":[],"outputs":[{"name":"","type":"uint256","internalType":"uint256"}],"stateMutability":"view"},{"type":"function","name":"UNDERLYING_RESERVES_FEE","inputs":[],"outputs":[{"name":"","type":"uint256","internalType":"uint256"}],"stateMutability":"view"},{"type":"function","name":"checkLiquidation","inputs":[{"name":"liquidator","type":"address","internalType":"address"},{"name":"violator","type":"address","internalType":"address"},{"name":"underlying","type":"address","internalType":"address"},{"name":"collateral","type":"address","internalType":"address"}],"outputs":[{"name":"liqOpp","type":"tuple","internalType":"struct Liquidation.LiquidationOpportunity","components":[{"name":"repay","type":"uint256","internalType":"uint256"},{"name":"yield","type":"uint256","internalType":"uint256"},{"name":"healthScore","type":"uint256","internalType":"uint256"},{"name":"baseDiscount","type":"uint256","internalType":"uint256"},{"name":"discount","type":"uint256","internalType":"uint256"},{"name":"conversionRate","type":"uint256","internalType":"uint256"}]}],"stateMutability":"nonpayable"},{"type":"function","name":"liquidate","inputs":[{"name":"violator","type":"address","internalType":"address"},{"name":"underlying","type":"address","internalType":"address"},{"name":"collateral","type":"address","internalType":"address"},{"name":"repay","type":"uint256","internalType":"uint256"},{"name":"minYield","type":"uint256","internalType":"uint256"}],"outputs":[],"stateMutability":"nonpayable"},{"type":"function","name":"moduleGitCommit","inputs":[],"outputs":[{"name":"","type":"bytes32","internalType":"bytes32"}],"stateMutability":"view"},{"type":"function","name":"moduleId","inputs":[],"outputs":[{"name":"","type":"uint256","internalType":"uint256"}],"stateMutability":"view"},{"type":"event","name":"AssetStatus","inputs":[{"name":"underlying","type":"address","indexed":true,"internalType":"address"},{"name":"totalBalances","type":"uint256","indexed":false,"internalType":"uint256"},{"name":"totalBorrows","type":"uint256","indexed":false,"internalType":"uint256"},{"name":"reserveBalance","type":"uint96","indexed":false,"internalType":"uint96"},{"name":"poolSize","type":"uint256","indexed":false,"internalType":"uint256"},{"name":"interestAccumulator","type":"uint256","indexed":false,"internalType":"uint256"},{"name":"interestRate","type":"int96","indexed":false,"internalType":"int96"},{"name":"timestamp","type":"uint256","indexed":false,"internalType":"uint256"}],"anonymous":false},{"type":"event","name":"Borrow","inputs":[{"name":"underlying","type":"address","indexed":true,"internalType":"address"},{"name":"account","type":"address","indexed":true,"internalType":"address"},{"name":"amount","type":"uint256","indexed":false,"internalType":"uint256"}],"anonymous":false},{"type":"event","name":"DelegateAverageLiquidity","inputs":[{"name":"account","type":"address","indexed":true,"internalType":"address"},{"name":"delegate","type":"address","indexed":true,"internalType":"address"}],"anonymous":false},{"type":"event","name":"Deposit","inputs":[{"name":"underlying","type":"address","indexed":true,"internalType":"address"},{"name":"account","type":"address","indexed":true,"internalType":"address"},{"name":"amount","type":"uint256","indexed":false,"internalType":"uint256"}],"anonymous":false},{"type":"event","name":"EnterMarket","inputs":[{"name":"underlying","type":"address","indexed":true,"internalType":"address"},{"name":"account","type":"address","indexed":true,"internalType":"address"}],"anonymous":false},{"type":"event","name":"ExitMarket","inputs":[{"name":"underlying","type":"address","indexed":true,"internalType":"address"},{"name":"account","type":"address","indexed":true,"internalType":"address"}],"anonymous":false},{"type":"event","name":"Genesis","inputs":[],"anonymous":false},{"type":"event","name":"GovConvertReserves","inputs":[{"name":"underlying","type":"address","indexed":true,"internalType":"address"},{"name":"recipient","type":"address","indexed":true,"internalType":"address"},{"name":"amount","type":"uint256","indexed":false,"internalType":"uint256"}],"anonymous":false},{"type":"event","name":"GovSetAssetConfig","inputs":[{"name":"underlying","type":"address","indexed":true,"internalType":"address"},{"name":"newConfig","type":"tuple","indexed":false,"internalType":"struct Storage.AssetConfig","components":[{"name":"eTokenAddress","type":"address","internalType":"address"},{"name":"borrowIsolated","type":"bool","internalType":"bool"},{"name":"collateralFactor","type":"uint32","internalType":"uint32"},{"name":"borrowFactor","type":"uint32","internalType":"uint32"},{"name":"twapWindow","type":"uint24","internalType":"uint24"}]}],"anonymous":false},{"type":"event","name":"GovSetChainlinkPriceFeed","inputs":[{"name":"underlying","type":"address","indexed":true,"internalType":"address"},{"name":"chainlinkAggregator","type":"address","indexed":false,"internalType":"address"}],"anonymous":false},{"type":"event","name":"GovSetIRM","inputs":[{"name":"underlying","type":"address","indexed":true,"internalType":"address"},{"name":"interestRateModel","type":"uint256","indexed":false,"internalType":"uint256"},{"name":"resetParams","type":"bytes","indexed":false,"internalType":"bytes"}],"anonymous":false},{"type":"event","name":"GovSetPricingConfig","inputs":[{"name":"underlying","type":"address","indexed":true,"internalType":"address"},{"name":"newPricingType","type":"uint16","indexed":false,"internalType":"uint16"},{"name":"newPricingParameter","type":"uint32","indexed":false,"internalType":"uint32"}],"anonymous":false},{"type":"event","name":"GovSetReserveFee","inputs":[{"name":"underlying","type":"address","indexed":true,"internalType":"address"},{"name":"newReserveFee","type":"uint32","indexed":false,"internalType":"uint32"}],"anonymous":false},{"type":"event","name":"InstallerInstallModule","inputs":[{"name":"moduleId","type":"uint256","indexed":true,"internalType":"uint256"},{"name":"moduleImpl","type":"address","indexed":true,"internalType":"address"},{"name":"moduleGitCommit","type":"bytes32","indexed":false,"internalType":"bytes32"}],"anonymous":false},{"type":"event","name":"InstallerSetGovernorAdmin","inputs":[{"name":"newGovernorAdmin","type":"address","indexed":true,"internalType":"address"}],"anonymous":false},{"type":"event","name":"InstallerSetUpgradeAdmin","inputs":[{"name":"newUpgradeAdmin","type":"address","indexed":true,"internalType":"address"}],"anonymous":false},{"type":"event","name":"Liquidation","inputs":[{"name":"liquidator","type":"address","indexed":true,"internalType":"address"},{"name":"violator","type":"address","indexed":true,"internalType":"address"},{"name":"underlying","type":"address","indexed":true,"internalType":"address"},{"name":"collateral","type":"address","indexed":false,"internalType":"address"},{"name":"repay","type":"uint256","indexed":false,"internalType":"uint256"},{"name":"yield","type":"uint256","indexed":false,"internalType":"uint256"},{"name":"healthScore","type":"uint256","indexed":false,"internalType":"uint256"},{"name":"baseDiscount","type":"uint256","indexed":false,"internalType":"uint256"},{"name":"discount","type":"uint256","indexed":false,"internalType":"uint256"}],"anonymous":false},{"type":"event","name":"MarketActivated","inputs":[{"name":"underlying","type":"address","indexed":true,"internalType":"address"},{"name":"eToken","type":"address","indexed":true,"internalType":"address"},{"name":"dToken","type":"address","indexed":true,"internalType":"address"}],"anonymous":false},{"type":"event","name":"PTokenActivated","inputs":[{"name":"underlying","type":"address","indexed":true,"internalType":"address"},{"name":"pToken","type":"address","indexed":true,"internalType":"address"}],"anonymous":false},{"type":"event","name":"PTokenUnWrap","inputs":[{"name":"underlying","type":"address","indexed":true,"internalType":"address"},{"name":"account","type":"address","indexed":true,"internalType":"address"},{"name":"amount","type":"uint256","indexed":false,"internalType":"uint256"}],"anonymous":false},{"type":"event","name":"PTokenWrap","inputs":[{"name":"underlying","type":"address","indexed":true,"internalType":"address"},{"name":"account","type":"address","indexed":true,"internalType":"address"},{"name":"amount","type":"uint256","indexed":false,"internalType":"uint256"}],"anonymous":false},{"type":"event","name":"ProxyCreated","inputs":[{"name":"proxy","type":"address","indexed":true,"internalType":"address"},{"name":"moduleId","type":"uint256","indexed":false,"internalType":"uint256"}],"anonymous":false},{"type":"event","name":"Repay","inputs":[{"name":"underlying","type":"address","indexed":true,"internalType":"address"},{"name":"account","type":"address","indexed":true,"internalType":"address"},{"name":"amount","type":"uint256","indexed":false,"internalType":"uint256"}],"anonymous":false},{"type":"event","name":"RequestBorrow","inputs":[{"name":"account","type":"address","indexed":true,"internalType":"address"},{"name":"amount","type":"uint256","indexed":false,"internalType":"uint256"}],"anonymous":false},{"type":"event","name":"RequestBurn","inputs":[{"name":"account","type":"address","indexed":true,"internalType":"address"},{"name":"amount","type":"uint256","indexed":false,"internalType":"uint256"}],"anonymous":false},{"type":"event","name":"RequestDeposit","inputs":[{"name":"account","type":"address","indexed":true,"internalType":"address"},{"name":"amount","type":"uint256","indexed":false,"internalType":"uint256"}],"anonymous":false},{"type":"event","name":"RequestDonate","inputs":[{"name":"account","type":"address","indexed":true,"internalType":"address"},{"name":"amount","type":"uint256","indexed":false,"internalType":"uint256"}],"anonymous":false},{"type":"event","name":"RequestLiquidate","inputs":[{"name":"liquidator","type":"address","indexed":true,"internalType":"address"},{"name":"violator","type":"address","indexed":true,"internalType":"address"},{"name":"underlying","type":"address","indexed":true,"internalType":"address"},{"name":"collateral","type":"address","indexed":false,"internalType":"address"},{"name":"repay","type":"uint256","indexed":false,"internalType":"uint256"},{"name":"minYield","type":"uint256","indexed":false,"internalType":"uint256"}],"anonymous":false},{"type":"event","name":"RequestMint","inputs":[{"name":"account","type":"address","indexed":true,"internalType":"address"},{"name":"amount","type":"uint256","indexed":false,"internalType":"uint256"}],"anonymous":false},{"type":"event","name":"RequestRepay","inputs":[{"name":"account","type":"address","indexed":true,"internalType":"address"},{"name":"amount","type":"uint256","indexed":false,"internalType":"uint256"}],"anonymous":false},{"type":"event","name":"RequestSwap","inputs":[{"name":"accountIn","type":"address","indexed":true,"internalType":"address"},{"name":"accountOut","type":"address","indexed":true,"internalType":"address"},{"name":"underlyingIn","type":"address","indexed":true,"internalType":"address"},{"name":"underlyingOut","type":"address","indexed":false,"internalType":"address"},{"name":"amount","type":"uint256","indexed":false,"internalType":"uint256"},{"name":"swapType","type":"uint256","indexed":false,"internalType":"uint256"}],"anonymous":false},{"type":"event","name":"RequestSwapHub","inputs":[{"name":"accountIn","type":"address","indexed":true,"internalType":"address"},{"name":"accountOut","type":"address","indexed":true,"internalType":"address"},{"name":"underlyingIn","type":"address","indexed":true,"internalType":"address"},{"name":"underlyingOut","type":"address","indexed":false,"internalType":"address"},{"name":"amountIn","type":"uint256","indexed":false,"internalType":"uint256"},{"name":"amountOut","type":"uint256","indexed":false,"internalType":"uint256"},{"name":"mode","type":"uint256","indexed":false,"internalType":"uint256"},{"name":"swapHandler","type":"address","indexed":false,"internalType":"address"}],"anonymous":false},{"type":"event","name":"RequestSwapHubRepay","inputs":[{"name":"accountIn","type":"address","indexed":true,"internalType":"address"},{"name":"accountOut","type":"address","indexed":true,"internalType":"address"},{"name":"underlyingIn","type":"address","indexed":true,"internalType":"address"},{"name":"underlyingOut","type":"address","indexed":false,"internalType":"address"},{"name":"targetDebt","type":"uint256","indexed":false,"internalType":"uint256"},{"name":"swapHandler","type":"address","indexed":false,"internalType":"address"}],"anonymous":false},{"type":"event","name":"RequestTransferDToken","inputs":[{"name":"from","type":"address","indexed":true,"internalType":"address"},{"name":"to","type":"address","indexed":true,"internalType":"address"},{"name":"amount","type":"uint256","indexed":false,"internalType":"uint256"}],"anonymous":false},{"type":"event","name":"RequestTransferEToken","inputs":[{"name":"from","type":"address","indexed":true,"internalType":"address"},{"name":"to","type":"address","indexed":true,"internalType":"address"},{"name":"amount","type":"uint256","indexed":false,"internalType":"uint256"}],"anonymous":false},{"type":"event","name":"RequestWithdraw","inputs":[{"name":"account","type":"address","indexed":true,"internalType":"address"},{"name":"amount","type":"uint256","indexed":false,"internalType":"uint256"}],"anonymous":false},{"type":"event","name":"TrackAverageLiquidity","inputs":[{"name":"account","type":"address","indexed":true,"internalType":"address"}],"anonymous":false},{"type":"event","name":"UnTrackAverageLiquidity","inputs":[{"name":"account","type":"address","indexed":true,"internalType":"address"}],"anonymous":false},{"type":"event","name":"Withdraw","inputs":[{"name":"underlying","type":"address","indexed":true,"internalType":"address"},{"name":"account","type":"address","indexed":true,"internalType":"address"},{"name":"amount","type":"uint256","indexed":false,"internalType":"uint256"}],"anonymous":false}],"bytecode":{"object":"0x60c06040523480156200001157600080fd5b5060405162002e1538038062002e15833981016040819052620000349162000042565b600360805260a0526200005c565b6000602082840312156200005557600080fd5b5051919050565b60805160a051612d936200008260003960006101300152600061017b0152612d936000f3fe608060405234801561001057600080fd5b50600436106100935760003560e01c80636f70e66f116100665780636f70e66f1461015257806387d6d4da14610167578063a1308f2714610176578063a8e1cf4b1461019d578063ae539533146101ab57600080fd5b80631a96d9d5146100985780632579605214610100578063279cfb391461011c57806369a92ea31461012b575b600080fd5b6100ab6100a6366004612abc565b6101ba565b6040516100f79190600060c082019050825182526020830151602083015260408301516040830152606083015160608301526080830151608083015260a083015160a083015292915050565b60405180910390f35b61010e66470de4df82000081565b6040519081526020016100f7565b61010e6702c68af0bb14000081565b61010e7f000000000000000000000000000000000000000000000000000000000000000081565b610165610160366004612b10565b610285565b005b61010e671bc16d674ec8000081565b61010e7f000000000000000000000000000000000000000000000000000000000000000081565b61010e6658d15e1762800081565b61010e671158e460913d000081565b6101f36040518060c001604052806000815260200160008152602001600081526020016000815260200160008152602001600081525090565b6001600054146102395760405162461bcd60e51b815260206004820152600c60248201526b652f7265656e7472616e637960a01b60448201526064015b60405180910390fd5b6002600055610246612a00565b6001600160a01b0380871682528581166020830152848116604083015283166060820152610273816103fb565b60c00151600160005595945050505050565b6001600054146102c65760405162461bcd60e51b815260206004820152600c60248201526b652f7265656e7472616e637960a01b6044820152606401610230565b600260009081556001600160a01b03861681526006602052604090205460ff161561033d5760405162461bcd60e51b815260206004820152602160248201527f652f6c69712f76696f6c61746f722d6c69717569646974792d646566657272656044820152601960fa1b6064820152608401610230565b604080516001600160a01b038581168252602082018590528183018490529151602719360135606090811c9388811693908a169285927f258be119f0bb402a931bfc28de6236747c14f2a56e87e9e7fe5151976b65e5a0928290030190a46103a4816109e4565b6103ad866109e4565b6103b5612a00565b6001600160a01b03808316825287811660208301528681166040830152851660608201526103e2816103fb565b6103ed818585610a90565b505060016000555050505050565b61040d81602001518260000151610d87565b156104535760405162461bcd60e51b81526020600482015260166024820152753297b634b897b9b2b63316b634b8bab4b230ba34b7b760511b6044820152606401610230565b61046581602001518260400151610da3565b6104bf5760405162461bcd60e51b815260206004820152602560248201527f652f6c69712f76696f6c61746f722d6e6f742d656e74657265642d756e6465726044820152646c79696e6760d81b6064820152608401610230565b6104d181602001518260600151610da3565b61052b5760405162461bcd60e51b815260206004820152602560248201527f652f6c69712f76696f6c61746f722d6e6f742d656e74657265642d636f6c6c616044820152641d195c985b60da1b6064820152608401610230565b6105388160400151610e86565b6080820152606081015161054b90610e86565b60a082015260c0810151604080830180516001600160a01b03908116600090815260086020908152848220549092168152600990915291822090519091906105939083610f07565b6060850180516001600160a01b03908116600090815260086020908152604080832054909316825260099052908120915192935090916105d39083610f07565b600060208088018290528188528801519192509081906105f29061100e565b91509150806000036106135750506000196040909501949094525050505050565b8061062683670de0b6b3a7640000612b7b565b6106309190612ba8565b6040880152808210610646575050505050505050565b60008760400151670de0b6b3a76400006106609190612bca565b6106719066470de4df820000612bdd565b905060006106838a600001518461106d565b90506000670de0b6b3a764000061069a8385612b7b565b6106a49190612ba8565b90506106b76658d15e1762800084612bdd565b8111156106d2576106cf6658d15e1762800084612bdd565b90505b6702c68af0bb1400008111156106ed57506702c68af0bb1400005b60608a0183905260808a0181905261070d81670de0b6b3a7640000612bca565b60a08c015160808d015161072990670de0b6b3a7640000612b7b565b6107339190612ba8565b61074590670de0b6b3a7640000612b7b565b61074f9190612ba8565b60a08b0152505050606088015160408901516001600160a01b0391821691160361077d5760001987526108e4565b600061078c89606001516110fe565b9050600061079d8a604001516110fe565b6040830151606082015191925063ffffffff90811691166000670de0b6b3a76400006107d1671158e460913d000088612b7b565b6107db9190612ba8565b90506000826000036107f4576001600160901b03610815565b8261080b63ee6b2800671158e460913d0000612b7b565b6108159190612ba8565b905060008d60800151670de0b6b3a76400006108319190612bca565b63ee6b280061084887670de0b6b3a7640000612b7b565b6108529190612ba8565b61086490670de0b6b3a7640000612b7b565b61086e9190612ba8565b9050808211610881576000198e526108dc565b600061088d8284612bca565b6108978b86612bca565b6108a990670de0b6b3a7640000612b7b565b6108b39190612ba8565b90508f6080015181670de0b6b3a76400006108ce9190612b7b565b6108d89190612ba8565b8f52505b505050505050505b60006108f587878b6020015161122b565b90508088600001511115610907578088525b5060a08701518751670de0b6b3a76400009161092291612b7b565b61092c9190612ba8565b602080890191909152888101516001600160a01b031660009081526005860190915260408120546109679085906001600160701b0316611280565b905087602001518110156109a05760a088015161098c82670de0b6b3a7640000612b7b565b6109969190612ba8565b8852602088018190525b50865160e0890152670de0b6b3a76400006109c266470de4df82000082612bdd565b88516109ce9190612b7b565b6109d89190612ba8565b90965250505050505050565b6001600160a01b038116600090815260066020526040812054610100900464ffffffffff1690819003610a15575050565b6000610a218242612bca565b905080600003610a3057505050565b6001600160a01b0383166000908152600660205260409020805465ffffffffff0019166101004264ffffffffff1602179055610a6c83826112a1565b6001600160a01b039093166000908152600660205260409020600101929092555050565b60c083015151821115610ae55760405162461bcd60e51b815260206004820152601c60248201527f652f6c69712f6578636573736976652d72657061792d616d6f756e74000000006044820152606401610230565b604080840180516001600160a01b03908116600090815260086020908152848220549092168152600990915291822090518290610b229083610f07565b60c0870151519091508503610b3d578560e001519250610b87565b670de0b6b3a7640000610b5766470de4df82000082612bdd565b610b70906ec097ce7bc90715b34b9f1000000000612ba8565b610b7a9087612b7b565b610b849190612ba8565b92505b6000610b938487612bca565b600284015460208901518951929350610bbc92869286926001600160a01b03909116918961135f565b60028301548751610bdb91859185916001600160a01b0316908561150c565b6000633b9aca0083604001516001600160901b0316610bfa9190612ba8565b836101800151610c0a9190612bdd565b90506000610c188383612bca565b6020850151610c30906001600160701b031684612b7b565b610c3a9190612ba8565b9050610c5f858586602001516001600160701b031684610c5a9190612bca565b611672565b505050610c6b8161173a565b50506060840180516001600160a01b0390811660009081526008602090815260408083205490931682526009905290812091519091908290610cad9083610f07565b9050670de0b6b3a76400008760c0015160a0015185610ccc9190612b7b565b610cd69190612ba8565b925084831015610d1a5760405162461bcd60e51b815260206004820152600f60248201526e194bdb1a5c4bdb5a5b8b5e5a595b19608a1b6044820152606401610230565b80516001600160a01b039081166000908152600860209081526040909120549089015189519190921691610d5e9185918591859190610d59848b6117f5565b611816565b610d678261173a565b50508551610d7591506119b3565b610d80858383611a39565b5050505050565b60ff8281176001600160a01b0390811691831716145b92915050565b6001600160a01b03808316600090815260066020526040812054909163ffffffff600160301b83041691600160501b900416818303610de757600092505050610d9d565b836001600160a01b0316816001600160a01b031603610e0b57600192505050610d9d565b6001600160a01b038516600090815260076020526040902060015b8363ffffffff16811015610e7957856001600160a01b031682826401000000008110610e5457610e54612bf0565b01546001600160a01b031603610e71576001945050505050610d9d565b600101610e26565b5060009695505050505050565b6040516001600160a01b03821660248201526000908190610eea90620f4240906341976e0960e01b906044015b60408051601f198184030181529190526020810180516001600160e01b03166001600160e01b031990931692909217909152611ac9565b905080806020019051810190610f009190612c06565b9392505050565b604080516101e081018252600080825260208201819052918101829052606081018290526080810182905260a0810182905260c0810182905260e08101829052610100810182905261012081018290526101408101829052610160810182905261018081018290526101a081018290526101c0810191909152610f8b838383611b4b565b15610d9d5760a0810151825464ffffffffff90911664ffffffffff19909116178255805160608201516001600160601b0316600160a01b026001600160a01b03909116176001830155602081015160408201516001600160901b0316600160701b026001600160701b039091161760038301556080810151600483015592915050565b6040516001600160a01b03821660248201526000908190819061104190620f424090631bff4ba560e11b90604401610eb3565b90506000818060200190518101906110599190612c1f565b805160209091015190969095509350505050565b6000808261107a85611eeb565b61108c90670de0b6b3a7640000612b7b565b6110969190612ba8565b9050670de0b6b3a76400008111156110b35750670de0b6b3a76400005b670de0b6b3a76400006110ce81671bc16d674ec80000612bca565b6110d89083612b7b565b6110e29190612ba8565b90506110f681670de0b6b3a7640000612bdd565b949350505050565b6040805160a0810182526000808252602082018190529181018290526060810182905260808101919091526001600160a01b03828116600090815260086020908152604091829020825160a0810184529054938416808252600160a01b850460ff16151592820192909252600160a81b840463ffffffff90811693820193909352600160c81b84049092166060830152600160e81b90920462ffffff166080820152906111e65760405162461bcd60e51b8152602060048201526016602482015275194bdb585c9ad95d0b5b9bdd0b5858dd1a5d985d195960521b6044820152606401610230565b63ffffffff8016816060015163ffffffff1603611208576342c1d80060608201525b62ffffff8016816080015162ffffff1603610d9d57610708608082015292915050565b6001600160a01b0381166000908152600584016020526040812054633b9aca009061127690859061127190889083908890600160701b90046001600160901b0316611f54565b611fa6565b6110f69190612ba8565b60008061128c84611fe4565b9050670de0b6b3a76400006112768285612b7b565b600080620151808310156112b557826112ba565b620151805b905060006112cb8262015180612bca565b905060008060006112db8861100e565b915091508082116112ed5760006112f7565b6112f78183612bca565b9250505062015180838261130b9190612b7b565b6113159190612ba8565b6001600160a01b0387166000908152600660205260409020600101546201518090611341908590612b7b565b61134b9190612ba8565b6113559190612bdd565b9695505050505050565b600061136f633b9aca0083612b7b565b905060008061137f89898861206d565b915091506000806113918b8b8961206d565b91509150816000036113ab576113ab878b60000151612100565b83851180156113d557506101a08a01516113c990633b9aca00612b7b565b6113d38587612bca565b105b156113de578394505b848410156114275760405162461bcd60e51b8152602060048201526016602482015275652f696e73756666696369656e742d62616c616e636560501b6044820152606401610230565b8484039350633b9aca00841015611449576114428486612bdd565b9450600093505b6114538583612bdd565b915061145e846122f9565b6001600160a01b038916600090815260058d016020526040902080546001600160901b0392909216600160701b026001600160701b039092169190911790556114a6826122f9565b6001600160a01b038816600090815260058d016020526040902080546001600160901b0392909216600160701b026001600160701b039092169190911790556114f28a8a8a8688612360565b6114ff8a8a898486612360565b5050505050505050505050565b61151a633b9aca0082612b7b565b61014085015190915061ffff166003141580611550575083516001600160a01b039081166000908152600b602052604090205416155b6115955760405162461bcd60e51b8152602060048201526016602482015275194bd89bdc9c9bddcb5b9bdd0b5cdd5c1c1bdc9d195960521b6044820152606401610230565b6000806115a387878661206d565b91509150816000036115bd576115bd848760000151612100565b6115c78383612bdd565b91506115d2826122f9565b6001600160a01b03851660009081526005890160205260409081902080546001600160701b0316600160701b6001600160901b03948516021790558701516116259161162091869116612bdd565b6122f9565b6001600160901b0316604087018190526003880180546001600160701b0316600160701b90920291909117905561165c87876124a7565b6116698686868486612360565b50505050505050565b60008183606001516001600160601b031661168d9190612bdd565b905060008284602001516001600160701b03166116aa9190612bdd565b90506001600160601b0382118015906116ca57506001600160701b038111155b15610d80576116d8826125c6565b6001600160601b0316606085018190526001860180546001600160a01b0316600160a01b90920291909117905561170e8161262a565b6001600160701b0316602085018190526003860180546001600160701b03191690911790555050505050565b80600001516001600160a01b03167f2f2d732e1a7a15fe7a2e51d3482efe83ff791579cebc5e3cd12cd2064374bc7f8260200151633b9aca0084604001516001600160901b031661178b9190612ba8565b6060808601516101808701516080808901516101008a0151604080516001600160701b03909916895260208901979097526001600160601b03909416958701959095529285015290830191909152600b0b60a08201524260c082015260e00160405180910390a250565b60008061180184611fe4565b90508061127684670de0b6b3a7640000612b7b565b6001600160a01b03831660009081526005870160205260409020546001600160701b0316818110156118835760405162461bcd60e51b8152602060048201526016602482015275652f696e73756666696369656e742d62616c616e636560501b6044820152606401610230565b81810361188f8161262a565b6001600160a01b03868116600090815260058b01602052604080822080546001600160701b0319166001600160701b03958616179055918716815220546118e1916118dc91869116612bdd565b61262a565b6001600160a01b03858116600090815260058b01602090815260409182902080546001600160701b0319166001600160701b039590951694909417909355895190518681528883169391909216917f9b1bfa7fa9ee420a16e124f794c35ac9f90472acc99140eb2f6447c714cad8eb910160405180910390a386516040518481526001600160a01b038087169216907f5548c837ab068cf56a2c2479df0882a4922fd203edb7517321831d95078c5f629060200160405180910390a36119a986868686612683565b5050505050505050565b6001600160a01b03811660009081526006602052604090205460ff1680611a05576040516001600160a01b0383166024820152611a0090620f4240906361cdaa1d60e11b90604401610eb3565b505050565b60001960ff821601611a35576001600160a01b0382166000908152600660205260409020805460ff191660021790555b5050565b604080840151602080860151865160608089015160c0808b015180890151818501516080928301518b516001600160a01b039687168152998a018e90529a89018c90529488015286019290925260a085019690965293851694918216939116917fbba0f1d6fb8b9abe2bbc543b7c13d43faba91c6f78da4700381c94041ac7267d910160405180910390a4505050565b6000828152600360205260408082205490516060929182916001600160a01b0390911690611af8908690612c9e565b600060405180830381855af49150503d8060008114611b33576040519150601f19603f3d011682016040523d82523d6000602084013e611b38565b606091505b5091509150816110f6576110f6816127a3565b6001600160a01b0383168152815464ffffffffff811660a083015265010000000000810460ff90811660c08401819052600160301b830463ffffffff90811660e0860152600160501b8404600b0b610100860152600160b01b84048116610120860152600160d01b840461ffff16610140860152600160e01b9093049092166101608401526001840154600160a01b90046001600160601b0316606084015260038401546001600160701b038082166020860152600160701b9091046001600160901b03166040850152600485015460808501526012839003909116600a0a6101a084018190526000929181611c4357611c43612b92565b046101c08401526000611c5684306127ea565b9050836101c001518111611c77576101a08401518102610180850152611c80565b60006101808501525b8360a0015164ffffffffff164214611ee2576001925060008460a0015164ffffffffff1642611caf9190612bca565b905060006b033b2e3c9fd0803ce80000008660800151611cfb886101000151600b0b6b033b2e3c9fd0803ce8000000611ce89190612ccd565b856b033b2e3c9fd0803ce80000006128cd565b611d059190612b7b565b611d0f9190612ba8565b9050600086608001518288604001516001600160901b0316611d319190612b7b565b611d3b9190612ba8565b606088015160208901519192506001600160601b0316906001600160701b03166000611d6f633b9aca0063ee6b2800612b7b565b6101208b015163ffffffff90811614611d8d578a6101200151611d93565b6336d616005b63ffffffff168b604001516001600160901b031686611db29190612bca565b611dbc9190612b7b565b611dc69190612ba8565b90508015611e37576000611dde633b9aca0086612ba8565b8b6101800151611dee9190612bdd565b9050611dfa8282612bca565b611e048483612b7b565b611e0e9190612ba8565b92508a602001516001600160701b031683611e299190612bca565b611e339085612bdd565b9350505b6001600160701b038211801590611e5557506001600160901b038411155b8015611e6857506001600160601b038311155b15611edb57611e76846122f9565b6001600160901b031660408b015260808a0185905264ffffffffff421660a08b015260208a01516001600160701b03168214611edb57611eb5836125c6565b6001600160601b031660608b0152611ecc8261262a565b6001600160701b031660208b01525b5050505050505b50509392505050565b6001600160a01b038082166000908152600660205260408120600201549091168015801590611f3957506001600160a01b038181166000908152600660205260409020600201548116908416145b611f4b57611f468361298a565b610f00565b610f008161298a565b600081600003611f66575060006110f6565b6001600160a01b03831660009081526005860160205260409020600101546080850151611f939084612b7b565b611f9d9190612ba8565b95945050505050565b600081600003611fb857506000610d9d565b6101a0830151633b9aca000280806000198582010181611fda57611fda612b92565b0402949350505050565b600080633b9aca0083604001516001600160901b03166120049190612ba8565b8361018001516120149190612bdd565b905080158061202e575060208301516001600160701b0316155b156120435750670de0b6b3a764000092915050565b60208301516001600160701b031661206382670de0b6b3a7640000612b7b565b610f009190612ba8565b6001600160a01b0381166000908152600584016020526040812054600160701b90046001600160901b03166120a485858584611f54565b91506120af826122f9565b6001600160a01b0390931660009081526005909501602052604090942080546001600160901b0393909316600160701b026001600160701b0390931692909217825560809092015160019091015591565b6001600160a01b0382166000908152600660209081526040808320805460079093529220600160301b90910463ffffffff169081156121ae5782546001600160a01b03808616600160501b909204160361215b575050505050565b60015b8263ffffffff168110156121ac57846001600160a01b03168282640100000000811061218c5761218c612bf0565b01546001600160a01b0316036121a457505050505050565b60010161215e565b505b600a8263ffffffff16106122045760405162461bcd60e51b815260206004820152601a60248201527f652f746f6f2d6d616e792d656e74657265642d6d61726b6574730000000000006044820152606401610230565b8163ffffffff1660000361224e5782547fffff0000000000000000000000000000000000000000ffffffffffffffffffff16600160501b6001600160a01b0386160217835561228b565b83818363ffffffff16640100000000811061226b5761226b612bf0565b0180546001600160a01b0319166001600160a01b03929092169190911790555b612296826001612cf5565b835463ffffffff91909116600160301b0269ffffffff000000000000199091161783556040516001600160a01b0380871691908616907f1c0971b8e0f7bb4e90bdbd87cfe682c36c383e2fc3dc4716ecc02771186293cc90600090a35050505050565b60006001600160901b0382111561235c5760405162461bcd60e51b815260206004820152602160248201527f652f646562742d616d6f756e742d746f6f2d6c617267652d746f2d656e636f646044820152606560f81b6064820152608401610230565b5090565b633b9aca0061236f8684611fa6565b6123799190612ba8565b9150633b9aca0061238a8683611fa6565b6123949190612ba8565b9050818111156124205760006123aa8383612bca565b9050836001600160a01b031686600001516001600160a01b03167f312a5e5e1079f5dda4e95dbbd0b908b291fd5b992ef22073643ab691572c5b52836040516123f591815260200190565b60405180910390a361241a85600086896101a00151856124159190612ba8565b612683565b50610d80565b80821115610d805760006124348284612bca565b9050836001600160a01b031686600001516001600160a01b03167f05f2eeda0e08e4b437f487c8d7d29b14537d15e3488170dc3de5dbdf8dac46848360405161247f91815260200190565b60405180910390a361249f85856000896101a00151856124159190612ba8565b505050505050565b600080633b9aca0083604001516001600160901b03166124c79190612ba8565b90506000818461018001516124dc9190612bdd565b9050806000036124ef5760009250612528565b670de0b6b3a76400008161250763ffffffff83612b7b565b6125119085612b7b565b61251b9190612ba8565b6125259190612ba8565b92505b505060e082015182516040516001600160a01b03909116602482015263ffffffff838116604483015260009261256c92911690631aa1811f60e31b90606401610eb3565b90506000818060200190518101906125849190612d19565b600b81900b61010090950194909452505082546001600160601b03909216600160501b026bffffffffffffffffffffffff60501b199092169190911790915550565b60006001600160601b0382111561235c5760405162461bcd60e51b815260206004820152602260248201527f652f736d616c6c2d616d6f756e742d746f6f2d6c617267652d746f2d656e636f604482015261646560f01b6064820152608401610230565b60006001600160701b0382111561235c5760405162461bcd60e51b815260206004820152601c60248201527f652f616d6f756e742d746f6f2d6c617267652d746f2d656e636f6465000000006044820152606401610230565b600060405190506000856001600160a01b03166003604051806060016040528060218152602001612d3d60219139805160209182012060405160f89390931b6001600160f81b0319169183019190915260218201526001600160a01b038781166041830152861660618201526081810185905260a10160408051601f198184030181529082905261271391612c9e565b6000604051808303816000865af19150503d8060008114612750576040519150601f19603f3d011682016040523d82523d6000602084013e612755565b606091505b50509050806127995760405162461bcd60e51b815260206004820152601060248201526f194bdb1bd9cb5c1c9bde1e4b59985a5b60821b6044820152606401610230565b5060405250505050565b8051156127b257805181602001fd5b60405162461bcd60e51b815260206004820152600d60248201526c3297b2b6b83a3c96b2b93937b960991b6044820152606401610230565b6040805183516001600160a01b03848116602480850191909152845180850390910181526044840185526020810180516001600160e01b03166370a0823160e01b179052935160009485938493169162030d409161284791612c9e565b6000604051808303818686fa925050503d8060008114612883576040519150601f19603f3d011682016040523d82523d6000602084013e612888565b606091505b509150915081158061289b575060208151105b156128ab576000935050506128c4565b808060200190518101906128bf9190612c06565b935050505b60405292915050565b600083801561296d576001841680156128e8578592506128ec565b8392505b50600283046002850494505b841561296757858602868782041461290f57600080fd5b8181018181101561291f57600080fd5b859004965050600185161561295c57858302838782041415871515161561294557600080fd5b8181018181101561295557600080fd5b8590049350505b6002850494506128f8565b50612982565b83801561297d5760009250611ee2565b839250505b509392505050565b6001600160a01b038116600090815260066020526040812054610100900464ffffffffff168082036129bf5750600092915050565b60006129cb8242612bca565b9050806000036129f6575050506001600160a01b031660009081526006602052604090206001015490565b6110f684826112a1565b60405180610100016040528060006001600160a01b0316815260200160006001600160a01b0316815260200160006001600160a01b0316815260200160006001600160a01b031681526020016000815260200160008152602001612a936040518060c001604052806000815260200160008152602001600081526020016000815260200160008152602001600081525090565b8152602001600081525090565b80356001600160a01b0381168114612ab757600080fd5b919050565b60008060008060808587031215612ad257600080fd5b612adb85612aa0565b9350612ae960208601612aa0565b9250612af760408601612aa0565b9150612b0560608601612aa0565b905092959194509250565b600080600080600060a08688031215612b2857600080fd5b612b3186612aa0565b9450612b3f60208701612aa0565b9350612b4d60408701612aa0565b94979396509394606081013594506080013592915050565b634e487b7160e01b600052601160045260246000fd5b8082028115828204841417610d9d57610d9d612b65565b634e487b7160e01b600052601260045260246000fd5b600082612bc557634e487b7160e01b600052601260045260246000fd5b500490565b81810381811115610d9d57610d9d612b65565b80820180821115610d9d57610d9d612b65565b634e487b7160e01b600052603260045260246000fd5b600060208284031215612c1857600080fd5b5051919050565b600060808284031215612c3157600080fd5b6040516080810181811067ffffffffffffffff82111715612c6257634e487b7160e01b600052604160045260246000fd5b806040525082518152602083015160208201526040830151604082015260608301518015158114612c9257600080fd5b60608201529392505050565b6000825160005b81811015612cbf5760208186018101518583015201612ca5565b506000920191825250919050565b8082018281126000831280158216821582161715612ced57612ced612b65565b505092915050565b63ffffffff818116838216019080821115612d1257612d12612b65565b5092915050565b600060208284031215612d2b57600080fd5b815180600b0b8114610f0057600080fdfe5472616e7366657228616464726573732c616464726573732c75696e7432353629a264697066735822122037c1b9c604e511963443ec143cf67700ba7fd190d1aeede773edce3fbeb4025264736f6c63430008170033","linkReferences":{}},"methodIdentifiers":{"DISCOUNT_BOOSTER_SLOPE()":"87d6d4da","MAXIMUM_BOOSTER_DISCOUNT()":"a8e1cf4b","MAXIMUM_DISCOUNT()":"279cfb39","TARGET_HEALTH()":"ae539533","UNDERLYING_RESERVES_FEE()":"25796052","checkLiquidation(address,address,address,address)":"1a96d9d5","liquidate(address,address,address,uint256,uint256)":"6f70e66f","moduleGitCommit()":"69a92ea3","moduleId()":"a1308f27"},"id":23}