{"abi":[{"type":"constructor","inputs":[{"name":"moduleGitCommit_","type":"bytes32","internalType":"bytes32"}],"stateMutability":"nonpayable"},{"type":"function","name":"convertReserves","inputs":[{"name":"underlying","type":"address","internalType":"address"},{"name":"recipient","type":"address","internalType":"address"},{"name":"amount","type":"uint256","internalType":"uint256"}],"outputs":[],"stateMutability":"nonpayable"},{"type":"function","name":"getGovernorAdmin","inputs":[],"outputs":[{"name":"","type":"address","internalType":"address"}],"stateMutability":"view"},{"type":"function","name":"moduleGitCommit","inputs":[],"outputs":[{"name":"","type":"bytes32","internalType":"bytes32"}],"stateMutability":"view"},{"type":"function","name":"moduleId","inputs":[],"outputs":[{"name":"","type":"uint256","internalType":"uint256"}],"stateMutability":"view"},{"type":"function","name":"setAssetConfig","inputs":[{"name":"underlying","type":"address","internalType":"address"},{"name":"newConfig","type":"tuple","internalType":"struct Storage.AssetConfig","components":[{"name":"eTokenAddress","type":"address","internalType":"address"},{"name":"borrowIsolated","type":"bool","internalType":"bool"},{"name":"collateralFactor","type":"uint32","internalType":"uint32"},{"name":"borrowFactor","type":"uint32","internalType":"uint32"},{"name":"twapWindow","type":"uint24","internalType":"uint24"}]}],"outputs":[],"stateMutability":"nonpayable"},{"type":"function","name":"setChainlinkPriceFeed","inputs":[{"name":"underlying","type":"address","internalType":"address"},{"name":"chainlinkAggregator","type":"address","internalType":"address"}],"outputs":[],"stateMutability":"nonpayable"},{"type":"function","name":"setIRM","inputs":[{"name":"underlying","type":"address","internalType":"address"},{"name":"interestRateModel","type":"uint256","internalType":"uint256"},{"name":"resetParams","type":"bytes","internalType":"bytes"}],"outputs":[],"stateMutability":"nonpayable"},{"type":"function","name":"setPricingConfig","inputs":[{"name":"underlying","type":"address","internalType":"address"},{"name":"newPricingType","type":"uint16","internalType":"uint16"},{"name":"newPricingParameter","type":"uint32","internalType":"uint32"}],"outputs":[],"stateMutability":"nonpayable"},{"type":"function","name":"setReserveFee","inputs":[{"name":"underlying","type":"address","internalType":"address"},{"name":"newReserveFee","type":"uint32","internalType":"uint32"}],"outputs":[],"stateMutability":"nonpayable"},{"type":"event","name":"AssetStatus","inputs":[{"name":"underlying","type":"address","indexed":true,"internalType":"address"},{"name":"totalBalances","type":"uint256","indexed":false,"internalType":"uint256"},{"name":"totalBorrows","type":"uint256","indexed":false,"internalType":"uint256"},{"name":"reserveBalance","type":"uint96","indexed":false,"internalType":"uint96"},{"name":"poolSize","type":"uint256","indexed":false,"internalType":"uint256"},{"name":"interestAccumulator","type":"uint256","indexed":false,"internalType":"uint256"},{"name":"interestRate","type":"int96","indexed":false,"internalType":"int96"},{"name":"timestamp","type":"uint256","indexed":false,"internalType":"uint256"}],"anonymous":false},{"type":"event","name":"Borrow","inputs":[{"name":"underlying","type":"address","indexed":true,"internalType":"address"},{"name":"account","type":"address","indexed":true,"internalType":"address"},{"name":"amount","type":"uint256","indexed":false,"internalType":"uint256"}],"anonymous":false},{"type":"event","name":"DelegateAverageLiquidity","inputs":[{"name":"account","type":"address","indexed":true,"internalType":"address"},{"name":"delegate","type":"address","indexed":true,"internalType":"address"}],"anonymous":false},{"type":"event","name":"Deposit","inputs":[{"name":"underlying","type":"address","indexed":true,"internalType":"address"},{"name":"account","type":"address","indexed":true,"internalType":"address"},{"name":"amount","type":"uint256","indexed":false,"internalType":"uint256"}],"anonymous":false},{"type":"event","name":"EnterMarket","inputs":[{"name":"underlying","type":"address","indexed":true,"internalType":"address"},{"name":"account","type":"address","indexed":true,"internalType":"address"}],"anonymous":false},{"type":"event","name":"ExitMarket","inputs":[{"name":"underlying","type":"address","indexed":true,"internalType":"address"},{"name":"account","type":"address","indexed":true,"internalType":"address"}],"anonymous":false},{"type":"event","name":"Genesis","inputs":[],"anonymous":false},{"type":"event","name":"GovConvertReserves","inputs":[{"name":"underlying","type":"address","indexed":true,"internalType":"address"},{"name":"recipient","type":"address","indexed":true,"internalType":"address"},{"name":"amount","type":"uint256","indexed":false,"internalType":"uint256"}],"anonymous":false},{"type":"event","name":"GovSetAssetConfig","inputs":[{"name":"underlying","type":"address","indexed":true,"internalType":"address"},{"name":"newConfig","type":"tuple","indexed":false,"internalType":"struct Storage.AssetConfig","components":[{"name":"eTokenAddress","type":"address","internalType":"address"},{"name":"borrowIsolated","type":"bool","internalType":"bool"},{"name":"collateralFactor","type":"uint32","internalType":"uint32"},{"name":"borrowFactor","type":"uint32","internalType":"uint32"},{"name":"twapWindow","type":"uint24","internalType":"uint24"}]}],"anonymous":false},{"type":"event","name":"GovSetChainlinkPriceFeed","inputs":[{"name":"underlying","type":"address","indexed":true,"internalType":"address"},{"name":"chainlinkAggregator","type":"address","indexed":false,"internalType":"address"}],"anonymous":false},{"type":"event","name":"GovSetIRM","inputs":[{"name":"underlying","type":"address","indexed":true,"internalType":"address"},{"name":"interestRateModel","type":"uint256","indexed":false,"internalType":"uint256"},{"name":"resetParams","type":"bytes","indexed":false,"internalType":"bytes"}],"anonymous":false},{"type":"event","name":"GovSetPricingConfig","inputs":[{"name":"underlying","type":"address","indexed":true,"internalType":"address"},{"name":"newPricingType","type":"uint16","indexed":false,"internalType":"uint16"},{"name":"newPricingParameter","type":"uint32","indexed":false,"internalType":"uint32"}],"anonymous":false},{"type":"event","name":"GovSetReserveFee","inputs":[{"name":"underlying","type":"address","indexed":true,"internalType":"address"},{"name":"newReserveFee","type":"uint32","indexed":false,"internalType":"uint32"}],"anonymous":false},{"type":"event","name":"InstallerInstallModule","inputs":[{"name":"moduleId","type":"uint256","indexed":true,"internalType":"uint256"},{"name":"moduleImpl","type":"address","indexed":true,"internalType":"address"},{"name":"moduleGitCommit","type":"bytes32","indexed":false,"internalType":"bytes32"}],"anonymous":false},{"type":"event","name":"InstallerSetGovernorAdmin","inputs":[{"name":"newGovernorAdmin","type":"address","indexed":true,"internalType":"address"}],"anonymous":false},{"type":"event","name":"InstallerSetUpgradeAdmin","inputs":[{"name":"newUpgradeAdmin","type":"address","indexed":true,"internalType":"address"}],"anonymous":false},{"type":"event","name":"Liquidation","inputs":[{"name":"liquidator","type":"address","indexed":true,"internalType":"address"},{"name":"violator","type":"address","indexed":true,"internalType":"address"},{"name":"underlying","type":"address","indexed":true,"internalType":"address"},{"name":"collateral","type":"address","indexed":false,"internalType":"address"},{"name":"repay","type":"uint256","indexed":false,"internalType":"uint256"},{"name":"yield","type":"uint256","indexed":false,"internalType":"uint256"},{"name":"healthScore","type":"uint256","indexed":false,"internalType":"uint256"},{"name":"baseDiscount","type":"uint256","indexed":false,"internalType":"uint256"},{"name":"discount","type":"uint256","indexed":false,"internalType":"uint256"}],"anonymous":false},{"type":"event","name":"MarketActivated","inputs":[{"name":"underlying","type":"address","indexed":true,"internalType":"address"},{"name":"eToken","type":"address","indexed":true,"internalType":"address"},{"name":"dToken","type":"address","indexed":true,"internalType":"address"}],"anonymous":false},{"type":"event","name":"PTokenActivated","inputs":[{"name":"underlying","type":"address","indexed":true,"internalType":"address"},{"name":"pToken","type":"address","indexed":true,"internalType":"address"}],"anonymous":false},{"type":"event","name":"PTokenUnWrap","inputs":[{"name":"underlying","type":"address","indexed":true,"internalType":"address"},{"name":"account","type":"address","indexed":true,"internalType":"address"},{"name":"amount","type":"uint256","indexed":false,"internalType":"uint256"}],"anonymous":false},{"type":"event","name":"PTokenWrap","inputs":[{"name":"underlying","type":"address","indexed":true,"internalType":"address"},{"name":"account","type":"address","indexed":true,"internalType":"address"},{"name":"amount","type":"uint256","indexed":false,"internalType":"uint256"}],"anonymous":false},{"type":"event","name":"ProxyCreated","inputs":[{"name":"proxy","type":"address","indexed":true,"internalType":"address"},{"name":"moduleId","type":"uint256","indexed":false,"internalType":"uint256"}],"anonymous":false},{"type":"event","name":"Repay","inputs":[{"name":"underlying","type":"address","indexed":true,"internalType":"address"},{"name":"account","type":"address","indexed":true,"internalType":"address"},{"name":"amount","type":"uint256","indexed":false,"internalType":"uint256"}],"anonymous":false},{"type":"event","name":"RequestBorrow","inputs":[{"name":"account","type":"address","indexed":true,"internalType":"address"},{"name":"amount","type":"uint256","indexed":false,"internalType":"uint256"}],"anonymous":false},{"type":"event","name":"RequestBurn","inputs":[{"name":"account","type":"address","indexed":true,"internalType":"address"},{"name":"amount","type":"uint256","indexed":false,"internalType":"uint256"}],"anonymous":false},{"type":"event","name":"RequestDeposit","inputs":[{"name":"account","type":"address","indexed":true,"internalType":"address"},{"name":"amount","type":"uint256","indexed":false,"internalType":"uint256"}],"anonymous":false},{"type":"event","name":"RequestDonate","inputs":[{"name":"account","type":"address","indexed":true,"internalType":"address"},{"name":"amount","type":"uint256","indexed":false,"internalType":"uint256"}],"anonymous":false},{"type":"event","name":"RequestLiquidate","inputs":[{"name":"liquidator","type":"address","indexed":true,"internalType":"address"},{"name":"violator","type":"address","indexed":true,"internalType":"address"},{"name":"underlying","type":"address","indexed":true,"internalType":"address"},{"name":"collateral","type":"address","indexed":false,"internalType":"address"},{"name":"repay","type":"uint256","indexed":false,"internalType":"uint256"},{"name":"minYield","type":"uint256","indexed":false,"internalType":"uint256"}],"anonymous":false},{"type":"event","name":"RequestMint","inputs":[{"name":"account","type":"address","indexed":true,"internalType":"address"},{"name":"amount","type":"uint256","indexed":false,"internalType":"uint256"}],"anonymous":false},{"type":"event","name":"RequestRepay","inputs":[{"name":"account","type":"address","indexed":true,"internalType":"address"},{"name":"amount","type":"uint256","indexed":false,"internalType":"uint256"}],"anonymous":false},{"type":"event","name":"RequestSwap","inputs":[{"name":"accountIn","type":"address","indexed":true,"internalType":"address"},{"name":"accountOut","type":"address","indexed":true,"internalType":"address"},{"name":"underlyingIn","type":"address","indexed":true,"internalType":"address"},{"name":"underlyingOut","type":"address","indexed":false,"internalType":"address"},{"name":"amount","type":"uint256","indexed":false,"internalType":"uint256"},{"name":"swapType","type":"uint256","indexed":false,"internalType":"uint256"}],"anonymous":false},{"type":"event","name":"RequestSwapHub","inputs":[{"name":"accountIn","type":"address","indexed":true,"internalType":"address"},{"name":"accountOut","type":"address","indexed":true,"internalType":"address"},{"name":"underlyingIn","type":"address","indexed":true,"internalType":"address"},{"name":"underlyingOut","type":"address","indexed":false,"internalType":"address"},{"name":"amountIn","type":"uint256","indexed":false,"internalType":"uint256"},{"name":"amountOut","type":"uint256","indexed":false,"internalType":"uint256"},{"name":"mode","type":"uint256","indexed":false,"internalType":"uint256"},{"name":"swapHandler","type":"address","indexed":false,"internalType":"address"}],"anonymous":false},{"type":"event","name":"RequestSwapHubRepay","inputs":[{"name":"accountIn","type":"address","indexed":true,"internalType":"address"},{"name":"accountOut","type":"address","indexed":true,"internalType":"address"},{"name":"underlyingIn","type":"address","indexed":true,"internalType":"address"},{"name":"underlyingOut","type":"address","indexed":false,"internalType":"address"},{"name":"targetDebt","type":"uint256","indexed":false,"internalType":"uint256"},{"name":"swapHandler","type":"address","indexed":false,"internalType":"address"}],"anonymous":false},{"type":"event","name":"RequestTransferDToken","inputs":[{"name":"from","type":"address","indexed":true,"internalType":"address"},{"name":"to","type":"address","indexed":true,"internalType":"address"},{"name":"amount","type":"uint256","indexed":false,"internalType":"uint256"}],"anonymous":false},{"type":"event","name":"RequestTransferEToken","inputs":[{"name":"from","type":"address","indexed":true,"internalType":"address"},{"name":"to","type":"address","indexed":true,"internalType":"address"},{"name":"amount","type":"uint256","indexed":false,"internalType":"uint256"}],"anonymous":false},{"type":"event","name":"RequestWithdraw","inputs":[{"name":"account","type":"address","indexed":true,"internalType":"address"},{"name":"amount","type":"uint256","indexed":false,"internalType":"uint256"}],"anonymous":false},{"type":"event","name":"TrackAverageLiquidity","inputs":[{"name":"account","type":"address","indexed":true,"internalType":"address"}],"anonymous":false},{"type":"event","name":"UnTrackAverageLiquidity","inputs":[{"name":"account","type":"address","indexed":true,"internalType":"address"}],"anonymous":false},{"type":"event","name":"Withdraw","inputs":[{"name":"underlying","type":"address","indexed":true,"internalType":"address"},{"name":"account","type":"address","indexed":true,"internalType":"address"},{"name":"amount","type":"uint256","indexed":false,"internalType":"uint256"}],"anonymous":false}],"bytecode":{"object":"0x60c060405234801561001057600080fd5b5060405161231538038061231583398101604081905261002f9161003c565b600460805260a052610055565b60006020828403121561004e57600080fd5b5051919050565b60805160a05161229c610079600039600060eb01526000610153015261229c6000f3fe608060405234801561001057600080fd5b50600436106100935760003560e01c806369a92ea31161006657806369a92ea3146100e6578063749c8023146101205780637e5d899414610133578063a1308f271461014e578063b533461c1461017557600080fd5b806327f5411b14610098578063349e7016146100ad5780634081dfbb146100c05780635f348cee146100d3575b600080fd5b6100ab6100a6366004611c05565b610188565b005b6100ab6100bb366004611c57565b6103cf565b6100ab6100ce366004611c98565b6106ae565b6100ab6100e1366004611d21565b610857565b61010d7f000000000000000000000000000000000000000000000000000000000000000081565b6040519081526020015b60405180910390f35b6100ab61012e366004611d5a565b6109e8565b6002546040516001600160a01b039091168152602001610117565b61010d7f000000000000000000000000000000000000000000000000000000000000000081565b6100ab610183366004611d88565b610b45565b6001600054146101b35760405162461bcd60e51b81526004016101aa90611dc9565b60405180910390fd5b600260009081556101c2610c88565b6002549091506001600160a01b038083169116146101f25760405162461bcd60e51b81526004016101aa90611def565b6001600160a01b03808516600090815260086020526040902054168061022a5760405162461bcd60e51b81526004016101aa90611e1b565b60008461ffff161180156102425750600561ffff8516105b6102875760405162461bcd60e51b8152602060048201526016602482015275652f676f762f6261642d70726963696e672d7479706560501b60448201526064016101aa565b6001600160a01b0381166000908152600960205260408120906102aa8783610c94565b61ffff87166101408201819052835463ffffffff881661016084018190526001600160d01b03909116600160d01b83026001600160e01b031617600160e01b90910217845590915060031901610374576001600160a01b038781166000908152600d6020526040902054166103745760405162461bcd60e51b815260206004820152602a60248201527f652f676f762f636861696e6c696e6b2d70726963652d666565642d6e6f742d696044820152691b9a5d1a585b1a5e995960b21b60648201526084016101aa565b6040805161ffff8816815263ffffffff871660208201526001600160a01b038916917fb42e11e41775b21a7e11931c1a1fe32289448b573008085ad3a0cc1d36ebcdac910160405180910390a2505060016000555050505050565b6001600054146103f15760405162461bcd60e51b81526004016101aa90611dc9565b60026000908155610400610c88565b6002549091506001600160a01b038083169116146104305760405162461bcd60e51b81526004016101aa90611def565b6001600160a01b0380851660009081526008602052604090205416806104685760405162461bcd60e51b81526004016101aa90611e1b565b61047184610d9c565b6001600160a01b03811660009081526009602052604090206001810154620f4240600160a01b9091046001600160601b031610156104f15760405162461bcd60e51b815260206004820152601760248201527f652f676f762f72657365727665732d6465706c6574656400000000000000000060448201526064016101aa565b60006104fd8783610c94565b90506000620f424082606001516001600160601b031661051d9190611e68565b9050600019860361052c578095505b8086111561057c5760405162461bcd60e51b815260206004820152601b60248201527f652f676f762f696e73756666696369656e742d7265736572766573000000000060448201526064016101aa565b85826060015161058c9190611e7b565b6001600160601b0316606083018190526001840180546001600160a01b0316600160a01b90920291909117905560208201516105db906105d69088906001600160701b0316611e68565b610e48565b6001600160701b0316602083018190526003840180546001600160701b031916909117905561060d8383868a8a610ea5565b6001600160a01b0387166000908152600584016020526040902054600160701b90046001600160901b0316156106465761064687610fa8565b61064f8261102e565b866001600160a01b0316886001600160a01b03167f9dfab619929d737980968add0d472f481469b1be7e472f75cf5df47fadae34bd61068e858a6110e9565b60405190815260200160405180910390a350506001600055505050505050565b6001600054146106d05760405162461bcd60e51b81526004016101aa90611dc9565b600260009081556106df610c88565b6002549091506001600160a01b0380831691161461070f5760405162461bcd60e51b81526004016101aa90611def565b6001600160a01b0380861660009081526008602052604090205416806107475760405162461bcd60e51b81526004016101aa90611e1b565b6001600160a01b03811660009081526009602052604081209061076a8883610c94565b90506107c48763c9741a7f60e01b8a898960405160240161078d93929190611ecb565b60408051601f198184030181529190526020810180516001600160e01b03166001600160e01b03199093169290921790915261111c565b5063ffffffff871660e08201819052825469ffffffff000000000000191666010000000000009091021782556107fa828261119e565b6108038161102e565b876001600160a01b03167f495733be20f6d9fcc3682e88e5faf682470a76e930fd5ac349c88efe4aa99e2a88888860405161084093929190611ef9565b60405180910390a250506001600055505050505050565b6001600054146108795760405162461bcd60e51b81526004016101aa90611dc9565b60026000908155610888610c88565b6002549091506001600160a01b038083169116146108b85760405162461bcd60e51b81526004016101aa90611def565b6001600160a01b0380841660009081526008602052604090205416806108f05760405162461bcd60e51b81526004016101aa90611e1b565b63ee6b28008363ffffffff1611158061090e575063ffffffff838116145b6109525760405162461bcd60e51b8152602060048201526015602482015274652f676f762f6261642d726573657276652d66656560581b60448201526064016101aa565b6001600160a01b0381166000908152600960205260408120906109758683610c94565b63ffffffff86166101208201819052835463ffffffff60b01b1916600160b01b82021784556040519081529091506001600160a01b038716907f96204b6d3e72df984cd56140e4f19434a6cea7024de7e7445c148848f92ea9b19060200160405180910390a25050600160005550505050565b600160005414610a0a5760405162461bcd60e51b81526004016101aa90611dc9565b60026000908155610a19610c88565b6002549091506001600160a01b03808316911614610a495760405162461bcd60e51b81526004016101aa90611def565b6001600160a01b038084166000908152600860205260409020541680610a815760405162461bcd60e51b81526004016101aa90611e1b565b6001600160a01b038316610ad75760405162461bcd60e51b815260206004820152601b60248201527f652f676f762f6261642d636861696e6c696e6b2d61646472657373000000000060448201526064016101aa565b6001600160a01b038481166000818152600d602090815260409182902080546001600160a01b0319169488169485179055905192835290917fb2453bc938ee1fc6a9c1cab9ceeac5a5c725e9919d65c481ee67e45631a328a4910160405180910390a2505060016000555050565b600160005414610b675760405162461bcd60e51b81526004016101aa90611dc9565b60026000908155610b76610c88565b6002549091506001600160a01b03808316911614610ba65760405162461bcd60e51b81526004016101aa90611def565b610bb36020830183611f13565b6001600160a01b038481166000908152600860205260409020548116911614610c165760405162461bcd60e51b81526020600482015260156024820152740ca5ecedeec5ecae8ded6cadc5adad2e6dac2e8c6d605b1b60448201526064016101aa565b6001600160a01b03831660009081526008602052604090208290610c3a8282611f69565b905050826001600160a01b03167fce457d9a7f5e5c808d92f14ac28aecfe1718dc2284951f4b54128cb849846a1d83604051610c769190612057565b60405180910390a25050600160005550565b60271936013560601c90565b604080516101e081018252600080825260208201819052918101829052606081018290526080810182905260a0810182905260c0810182905260e08101829052610100810182905261012081018290526101408101829052610160810182905261018081018290526101a081018290526101c0810191909152610d188383836112bd565b15610d965760a0810151825464ffffffffff90911664ffffffffff19909116178255805160608201516001600160601b0316600160a01b026001600160a01b03909116176001830155602081015160408201516001600160901b0316600160701b026001600160701b03909116176003830155608081015160048301555b92915050565b6001600160a01b038116600090815260066020526040812054610100900464ffffffffff1690819003610dcd575050565b6000610dd98242611e68565b905080600003610de857505050565b6001600160a01b0383166000908152600660205260409020805465ffffffffff0019166101004264ffffffffff1602179055610e248382611660565b6001600160a01b039093166000908152600660205260409020600101929092555050565b60006001600160701b03821115610ea15760405162461bcd60e51b815260206004820152601c60248201527f652f616d6f756e742d746f6f2d6c617267652d746f2d656e636f64650000000060448201526064016101aa565b5090565b6001600160a01b0382166000908152600586016020526040902054610ed8906105d69083906001600160701b03166120d6565b6001600160a01b0383166000908152600587016020908152604090912080546001600160701b0319166001600160701b03938416179055850151610f22916105d6918491166120d6565b6001600160701b0316602085018190526003860180546001600160701b0319169091179055610f51858561119e565b83516040518281526001600160a01b038085169216907f5548c837ab068cf56a2c2479df0882a4922fd203edb7517321831d95078c5f629060200160405180910390a3610fa1836000848461171e565b5050505050565b6001600160a01b03811660009081526006602052604090205460ff1680610ffa576040516001600160a01b0383166024820152610ff590620f4240906361cdaa1d60e11b9060440161078d565b505050565b60001960ff82160161102a576001600160a01b0382166000908152600660205260409020805460ff191660021790555b5050565b80600001516001600160a01b03167f2f2d732e1a7a15fe7a2e51d3482efe83ff791579cebc5e3cd12cd2064374bc7f8260200151633b9aca0084604001516001600160901b031661107f91906120ff565b6060808601516101808701516080808901516101008a0151604080516001600160701b03909916895260208901979097526001600160601b03909416958701959095529285015290830191909152600b0b60a08201524260c082015260e00160405180910390a250565b6000806110f58461183e565b9050670de0b6b3a764000061110a8285612121565b61111491906120ff565b949350505050565b6000828152600360205260408082205490516060929182916001600160a01b039091169061114b908690612138565b600060405180830381855af49150503d8060008114611186576040519150601f19603f3d011682016040523d82523d6000602084013e61118b565b606091505b50915091508161111457611114816118ce565b600080633b9aca0083604001516001600160901b03166111be91906120ff565b90506000818461018001516111d391906120d6565b9050806000036111e6576000925061121f565b670de0b6b3a7640000816111fe63ffffffff83612121565b6112089085612121565b61121291906120ff565b61121c91906120ff565b92505b505060e082015182516040516001600160a01b03909116602482015263ffffffff838116604483015260009261126392911690631aa1811f60e31b9060640161078d565b905060008180602001905181019061127b9190612167565b600b81900b61010090950194909452505082546001600160601b03909216600160501b026bffffffffffffffffffffffff60501b199092169190911790915550565b6001600160a01b0383168152815464ffffffffff811660a083015265010000000000810460ff90811660c084018190526601000000000000830463ffffffff90811660e0860152600160501b8404600b0b610100860152600160b01b84048116610120860152600160d01b840461ffff16610140860152600160e01b9093049092166101608401526001840154600160a01b90046001600160601b0316606084015260038401546001600160701b038082166020860152600160701b9091046001600160901b03166040850152600485015460808501526012839003909116600a0a6101a0840181905260009291816113b8576113b86120e9565b046101c084015260006113cb8430611915565b9050836101c0015181116113ec576101a084015181026101808501526113f5565b60006101808501525b8360a0015164ffffffffff164214611657576001925060008460a0015164ffffffffff16426114249190611e68565b905060006b033b2e3c9fd0803ce80000008660800151611470886101000151600b0b6b033b2e3c9fd0803ce800000061145d919061218a565b856b033b2e3c9fd0803ce80000006119f8565b61147a9190612121565b61148491906120ff565b9050600086608001518288604001516001600160901b03166114a69190612121565b6114b091906120ff565b606088015160208901519192506001600160601b0316906001600160701b031660006114e4633b9aca0063ee6b2800612121565b6101208b015163ffffffff90811614611502578a6101200151611508565b6336d616005b63ffffffff168b604001516001600160901b0316866115279190611e68565b6115319190612121565b61153b91906120ff565b905080156115ac576000611553633b9aca00866120ff565b8b610180015161156391906120d6565b905061156f8282611e68565b6115798483612121565b61158391906120ff565b92508a602001516001600160701b03168361159e9190611e68565b6115a890856120d6565b9350505b6001600160701b0382118015906115ca57506001600160901b038411155b80156115dd57506001600160601b038311155b15611650576115eb84611ab5565b6001600160901b031660408b015260808a0185905264ffffffffff421660a08b015260208a01516001600160701b031682146116505761162a83611b18565b6001600160601b031660608b015261164182610e48565b6001600160701b031660208b01525b5050505050505b50509392505050565b600080620151808310156116745782611679565b620151805b9050600061168a8262015180611e68565b9050600080600061169a88611b7c565b915091508082116116ac5760006116b6565b6116b68183611e68565b925050506201518083826116ca9190612121565b6116d491906120ff565b6001600160a01b0387166000908152600660205260409020600101546201518090611700908590612121565b61170a91906120ff565b61171491906120d6565b9695505050505050565b600060405190506000856001600160a01b0316600360405180606001604052806021815260200161224660219139805160209182012060405160f89390931b6001600160f81b0319169183019190915260218201526001600160a01b038781166041830152861660618201526081810185905260a10160408051601f19818403018152908290526117ae91612138565b6000604051808303816000865af19150503d80600081146117eb576040519150601f19603f3d011682016040523d82523d6000602084013e6117f0565b606091505b50509050806118345760405162461bcd60e51b815260206004820152601060248201526f194bdb1bd9cb5c1c9bde1e4b59985a5b60821b60448201526064016101aa565b5060405250505050565b600080633b9aca0083604001516001600160901b031661185e91906120ff565b83610180015161186e91906120d6565b9050801580611888575060208301516001600160701b0316155b1561189d5750670de0b6b3a764000092915050565b60208301516001600160701b03166118bd82670de0b6b3a7640000612121565b6118c791906120ff565b9392505050565b8051156118dd57805181602001fd5b60405162461bcd60e51b815260206004820152600d60248201526c3297b2b6b83a3c96b2b93937b960991b60448201526064016101aa565b6040805183516001600160a01b03848116602480850191909152845180850390910181526044840185526020810180516001600160e01b03166370a0823160e01b179052935160009485938493169162030d409161197291612138565b6000604051808303818686fa925050503d80600081146119ae576040519150601f19603f3d011682016040523d82523d6000602084013e6119b3565b606091505b50915091508115806119c6575060208151105b156119d6576000935050506119ef565b808060200190518101906119ea91906121b2565b935050505b60405292915050565b6000838015611a9857600184168015611a1357859250611a17565b8392505b50600283046002850494505b8415611a92578586028687820414611a3a57600080fd5b81810181811015611a4a57600080fd5b8590049650506001851615611a87578583028387820414158715151615611a7057600080fd5b81810181811015611a8057600080fd5b8590049350505b600285049450611a23565b50611aad565b838015611aa85760009250611657565b839250505b509392505050565b60006001600160901b03821115610ea15760405162461bcd60e51b815260206004820152602160248201527f652f646562742d616d6f756e742d746f6f2d6c617267652d746f2d656e636f646044820152606560f81b60648201526084016101aa565b60006001600160601b03821115610ea15760405162461bcd60e51b815260206004820152602260248201527f652f736d616c6c2d616d6f756e742d746f6f2d6c617267652d746f2d656e636f604482015261646560f01b60648201526084016101aa565b6040516001600160a01b038216602482015260009081908190611baf90620f424090631bff4ba560e11b9060440161078d565b9050600081806020019051810190611bc791906121cb565b805160209091015190969095509350505050565b6001600160a01b0381168114611bf057600080fd5b50565b63ffffffff81168114611bf057600080fd5b600080600060608486031215611c1a57600080fd5b8335611c2581611bdb565b9250602084013561ffff81168114611c3c57600080fd5b91506040840135611c4c81611bf3565b809150509250925092565b600080600060608486031215611c6c57600080fd5b8335611c7781611bdb565b92506020840135611c8781611bdb565b929592945050506040919091013590565b60008060008060608587031215611cae57600080fd5b8435611cb981611bdb565b935060208501359250604085013567ffffffffffffffff80821115611cdd57600080fd5b818701915087601f830112611cf157600080fd5b813581811115611d0057600080fd5b886020828501011115611d1257600080fd5b95989497505060200194505050565b60008060408385031215611d3457600080fd5b8235611d3f81611bdb565b91506020830135611d4f81611bf3565b809150509250929050565b60008060408385031215611d6d57600080fd5b8235611d7881611bdb565b91506020830135611d4f81611bdb565b60008082840360c0811215611d9c57600080fd5b8335611da781611bdb565b925060a0601f1982011215611dbb57600080fd5b506020830190509250929050565b6020808252600c908201526b652f7265656e7472616e637960a01b604082015260600190565b602080825260129082015271194bd9dbdd8bdd5b985d5d1a1bdc9a5e995960721b604082015260600190565b6020808252601e908201527f652f676f762f756e6465726c79696e672d6e6f742d6163746976617465640000604082015260600190565b634e487b7160e01b600052601160045260246000fd5b81810381811115610d9657610d96611e52565b6001600160601b03828116828216039080821115611e9b57611e9b611e52565b5092915050565b81835281816020850137506000828201602090810191909152601f909101601f19169091010190565b6001600160a01b0384168152604060208201819052600090611ef09083018486611ea2565b95945050505050565b838152604060208201526000611ef0604083018486611ea2565b600060208284031215611f2557600080fd5b81356118c781611bdb565b8015158114611bf057600080fd5b60008135610d9681611bf3565b62ffffff81168114611bf057600080fd5b60008135610d9681611f4b565b8135611f7481611bdb565b81546001600160a01b031981166001600160a01b039290921691821783556020840135611fa081611f30565b60ff60a01b90151560a01b166001600160a81b031982168317811784556040850135611fcb81611bf3565b6001600160c81b0319929092169092179190911760a89190911b63ffffffff60a81b1617815561202461200060608401611f3e565b82805463ffffffff60c81b191660c89290921b63ffffffff60c81b16919091179055565b61102a61203360808401611f5c565b8280546001600160e81b031660e89290921b6001600160e81b031916919091179055565b60a08101823561206681611bdb565b6001600160a01b03168252602083013561207f81611f30565b15156020830152604083013561209481611bf3565b63ffffffff90811660408401526060840135906120b082611bf3565b16606083015260808301356120c481611f4b565b62ffffff811660808401525092915050565b80820180821115610d9657610d96611e52565b634e487b7160e01b600052601260045260246000fd5b60008261211c57634e487b7160e01b600052601260045260246000fd5b500490565b8082028115828204841417610d9657610d96611e52565b6000825160005b81811015612159576020818601810151858301520161213f565b506000920191825250919050565b60006020828403121561217957600080fd5b815180600b0b81146118c757600080fd5b80820182811260008312801582168215821617156121aa576121aa611e52565b505092915050565b6000602082840312156121c457600080fd5b5051919050565b6000608082840312156121dd57600080fd5b6040516080810181811067ffffffffffffffff8211171561220e57634e487b7160e01b600052604160045260246000fd5b8060405250825181526020830151602082015260408301516040820152606083015161223981611f30565b6060820152939250505056fe5472616e7366657228616464726573732c616464726573732c75696e7432353629a2646970667358221220a56346f271ffdbfde7f6ebe676f8f8712a981b28e46fa84d9ab06818106c551064736f6c63430008170033","linkReferences":{}},"methodIdentifiers":{"convertReserves(address,address,uint256)":"349e7016","getGovernorAdmin()":"7e5d8994","moduleGitCommit()":"69a92ea3","moduleId()":"a1308f27","setAssetConfig(address,(address,bool,uint32,uint32,uint24))":"b533461c","setChainlinkPriceFeed(address,address)":"749c8023","setIRM(address,uint256,bytes)":"4081dfbb","setPricingConfig(address,uint16,uint32)":"27f5411b","setReserveFee(address,uint32)":"5f348cee"},"id":21}