{"abi":[{"type":"constructor","inputs":[{"name":"eul_","type":"address","internalType":"address"},{"name":"eulStakes_","type":"address","internalType":"address"}],"stateMutability":"nonpayable"},{"type":"function","name":"claim","inputs":[{"name":"account","type":"address","internalType":"address"},{"name":"token","type":"address","internalType":"address"},{"name":"claimable","type":"uint256","internalType":"uint256"},{"name":"proof","type":"bytes32[]","internalType":"bytes32[]"},{"name":"stake","type":"address","internalType":"address"}],"outputs":[],"stateMutability":"nonpayable"},{"type":"function","name":"claimed","inputs":[{"name":"","type":"address","internalType":"address"},{"name":"","type":"address","internalType":"address"}],"outputs":[{"name":"","type":"uint256","internalType":"uint256"}],"stateMutability":"view"},{"type":"function","name":"currRoot","inputs":[],"outputs":[{"name":"","type":"bytes32","internalType":"bytes32"}],"stateMutability":"view"},{"type":"function","name":"eul","inputs":[],"outputs":[{"name":"","type":"address","internalType":"address"}],"stateMutability":"view"},{"type":"function","name":"eulStakes","inputs":[],"outputs":[{"name":"","type":"address","internalType":"address"}],"stateMutability":"view"},{"type":"function","name":"name","inputs":[],"outputs":[{"name":"","type":"string","internalType":"string"}],"stateMutability":"view"},{"type":"function","name":"owner","inputs":[],"outputs":[{"name":"","type":"address","internalType":"address"}],"stateMutability":"view"},{"type":"function","name":"prevRoot","inputs":[],"outputs":[{"name":"","type":"bytes32","internalType":"bytes32"}],"stateMutability":"view"},{"type":"function","name":"transferOwnership","inputs":[{"name":"newOwner","type":"address","internalType":"address"}],"outputs":[],"stateMutability":"nonpayable"},{"type":"function","name":"updateRoot","inputs":[{"name":"newRoot","type":"bytes32","internalType":"bytes32"}],"outputs":[],"stateMutability":"nonpayable"},{"type":"event","name":"OwnerChanged","inputs":[{"name":"newOwner","type":"address","indexed":true,"internalType":"address"}],"anonymous":false}],"bytecode":{"object":"0x60c06040523480156200001157600080fd5b5060405162000bdd38038062000bdd833981016040819052620000349162000190565b6001600160a01b03808316608052811660a052600080546001600160a01b0319163317905562000068828260001962000070565b50506200026c565b604080516001600160a01b038481166024830152604480830185905283518084039091018152606490920183526020820180516001600160e01b031663095ea7b360e01b1790529151600092839290871691620000ce9190620001ee565b6000604051808303816000865af19150503d80600081146200010d576040519150601f19603f3d011682016040523d82523d6000602084013e62000112565b606091505b509150915081801562000140575080511580620001405750808060200190518101906200014091906200020c565b81906200016b5760405162461bcd60e51b815260040162000162919062000237565b60405180910390fd5b505050505050565b80516001600160a01b03811681146200018b57600080fd5b919050565b60008060408385031215620001a457600080fd5b620001af8362000173565b9150620001bf6020840162000173565b90509250929050565b60005b83811015620001e5578181015183820152602001620001cb565b50506000910152565b6000825162000202818460208701620001c8565b9190910192915050565b6000602082840312156200021f57600080fd5b815180151581146200023057600080fd5b9392505050565b602081526000825180602084015262000258816040850160208701620001c8565b601f01601f19169190910160400192915050565b60805160a05161093d620002a06000396000818161013a01526104d001526000818161019f0152610423015261093d6000f3fe608060405234801561001057600080fd5b506004361061009e5760003560e01c806390110218116100665780639011021814610187578063d0bd90671461019a578063e3f5b195146101c1578063f2fde38b146101ca578063fdb4beda146101dd57600080fd5b806306fdde03146100a35780630c9cbf0e146100e757806321ff99701461012057806367342d59146101355780638da5cb5b14610174575b600080fd5b6100d16040518060400160405280600f81526020016e22aaa6102234b9ba3934b13aba37b960891b81525081565b6040516100de9190610746565b60405180910390f35b6101126100f5366004610795565b600360209081526000928352604080842090915290825290205481565b6040519081526020016100de565b61013361012e3660046107c8565b6101e6565b005b61015c7f000000000000000000000000000000000000000000000000000000000000000081565b6040516001600160a01b0390911681526020016100de565b60005461015c906001600160a01b031681565b6101336101953660046107e1565b61023e565b61015c7f000000000000000000000000000000000000000000000000000000000000000081565b61011260015481565b6101336101d8366004610891565b610538565b61011260025481565b6000546001600160a01b031633146102345760405162461bcd60e51b815260206004820152600c60248201526b1d5b985d5d1a1bdc9a5e995960a21b60448201526064015b60405180910390fd5b6001805460025555565b60006102c8848480806020026020016040519081016040528093929190818152602001838360200280828437600092019190915250506040516bffffffffffffffffffffffff1960608d811b821660208401528c901b166034820152604881018a905260680191506102ad9050565b604051602081830303815290604052805190602001206105c9565b90506001548114806102db575060025481145b61031f5760405162461bcd60e51b81526020600482015260156024820152741c1c9bdbd9881a5b9d985b1a590bd95e1c1a5c9959605a1b604482015260640161022b565b6001600160a01b038088166000908152600360209081526040808320938a16835292905220548086116103865760405162461bcd60e51b815260206004820152600f60248201526e185b1c9958591e4818db185a5b5959608a1b604482015260640161022b565b6001600160a01b0380891660009081526003602090815260408083208b8516845290915290208790558187039084166103c9576103c4888a83610633565b61052d565b336001600160a01b038a16146104215760405162461bcd60e51b815260206004820181905260248201527f63616e206f6e6c79206175746f2d7374616b6520666f7220796f757273656c66604482015260640161022b565b7f00000000000000000000000000000000000000000000000000000000000000006001600160a01b0316886001600160a01b0316146104a25760405162461bcd60e51b815260206004820152601760248201527f63616e206f6e6c79206175746f2d7374616b652045554c000000000000000000604482015260640161022b565b6040516347a3644560e01b81526001600160a01b038a811660048301528581166024830152604482018390527f000000000000000000000000000000000000000000000000000000000000000016906347a3644590606401600060405180830381600087803b15801561051457600080fd5b505af1158015610528573d6000803e3d6000fd5b505050505b505050505050505050565b6000546001600160a01b031633146105815760405162461bcd60e51b815260206004820152600c60248201526b1d5b985d5d1a1bdc9a5e995960a21b604482015260640161022b565b600080546001600160a01b0319166001600160a01b038316908117825560405190917fa2ea9883a321a3e97b8266c2b078bfeec6d50c711ed71f874a90d500ae2eaf3691a250565b600081815b845181101561062b5760008582815181106105eb576105eb6108b3565b602002602001015190508083116106115760008381526020829052604090209250610622565b600081815260208490526040902092505b506001016105ce565b509392505050565b604080516001600160a01b038481166024830152604480830185905283518084039091018152606490920183526020820180516001600160e01b031663a9059cbb60e01b179052915160009283929087169161068f91906108c9565b6000604051808303816000865af19150503d80600081146106cc576040519150601f19603f3d011682016040523d82523d6000602084013e6106d1565b606091505b50915091508180156106fb5750805115806106fb5750808060200190518101906106fb91906108e5565b819061071a5760405162461bcd60e51b815260040161022b9190610746565b505050505050565b60005b8381101561073d578181015183820152602001610725565b50506000910152565b6020815260008251806020840152610765816040850160208701610722565b601f01601f19169190910160400192915050565b80356001600160a01b038116811461079057600080fd5b919050565b600080604083850312156107a857600080fd5b6107b183610779565b91506107bf60208401610779565b90509250929050565b6000602082840312156107da57600080fd5b5035919050565b60008060008060008060a087890312156107fa57600080fd5b61080387610779565b955061081160208801610779565b945060408701359350606087013567ffffffffffffffff8082111561083557600080fd5b818901915089601f83011261084957600080fd5b81358181111561085857600080fd5b8a60208260051b850101111561086d57600080fd5b60208301955080945050505061088560808801610779565b90509295509295509295565b6000602082840312156108a357600080fd5b6108ac82610779565b9392505050565b634e487b7160e01b600052603260045260246000fd5b600082516108db818460208701610722565b9190910192915050565b6000602082840312156108f757600080fd5b815180151581146108ac57600080fdfea264697066735822122095fdca0b2d7fae8fa43729b8a217c9250b5ba096d8e181ca86021a330af8269964736f6c63430008170033","linkReferences":{}},"methodIdentifiers":{"claim(address,address,uint256,bytes32[],address)":"90110218","claimed(address,address)":"0c9cbf0e","currRoot()":"e3f5b195","eul()":"d0bd9067","eulStakes()":"67342d59","name()":"06fdde03","owner()":"8da5cb5b","prevRoot()":"fdb4beda","transferOwnership(address)":"f2fde38b","updateRoot(bytes32)":"21ff9970"},"id":15}