{"abi":[{"type":"function","name":"allowance","inputs":[{"name":"holder","type":"address","internalType":"address"},{"name":"spender","type":"address","internalType":"address"}],"outputs":[{"name":"","type":"uint256","internalType":"uint256"}],"stateMutability":"view"},{"type":"function","name":"approve","inputs":[{"name":"spender","type":"address","internalType":"address"},{"name":"amount","type":"uint256","internalType":"uint256"}],"outputs":[{"name":"","type":"bool","internalType":"bool"}],"stateMutability":"nonpayable"},{"type":"function","name":"approveSubAccount","inputs":[{"name":"subAccountId","type":"uint256","internalType":"uint256"},{"name":"spender","type":"address","internalType":"address"},{"name":"amount","type":"uint256","internalType":"uint256"}],"outputs":[{"name":"","type":"bool","internalType":"bool"}],"stateMutability":"nonpayable"},{"type":"function","name":"balanceOf","inputs":[{"name":"account","type":"address","internalType":"address"}],"outputs":[{"name":"","type":"uint256","internalType":"uint256"}],"stateMutability":"view"},{"type":"function","name":"balanceOfUnderlying","inputs":[{"name":"account","type":"address","internalType":"address"}],"outputs":[{"name":"","type":"uint256","internalType":"uint256"}],"stateMutability":"view"},{"type":"function","name":"burn","inputs":[{"name":"subAccountId","type":"uint256","internalType":"uint256"},{"name":"amount","type":"uint256","internalType":"uint256"}],"outputs":[],"stateMutability":"nonpayable"},{"type":"function","name":"convertBalanceToUnderlying","inputs":[{"name":"balance","type":"uint256","internalType":"uint256"}],"outputs":[{"name":"","type":"uint256","internalType":"uint256"}],"stateMutability":"view"},{"type":"function","name":"convertUnderlyingToBalance","inputs":[{"name":"underlyingAmount","type":"uint256","internalType":"uint256"}],"outputs":[{"name":"","type":"uint256","internalType":"uint256"}],"stateMutability":"view"},{"type":"function","name":"decimals","inputs":[],"outputs":[{"name":"","type":"uint8","internalType":"uint8"}],"stateMutability":"pure"},{"type":"function","name":"deposit","inputs":[{"name":"subAccountId","type":"uint256","internalType":"uint256"},{"name":"amount","type":"uint256","internalType":"uint256"}],"outputs":[],"stateMutability":"nonpayable"},{"type":"function","name":"donateToReserves","inputs":[{"name":"subAccountId","type":"uint256","internalType":"uint256"},{"name":"amount","type":"uint256","internalType":"uint256"}],"outputs":[],"stateMutability":"nonpayable"},{"type":"function","name":"getDTokenAddress","inputs":[{"name":"eToken","type":"address","internalType":"address"}],"outputs":[{"name":"","type":"address","internalType":"address"}],"stateMutability":"view"},{"type":"function","name":"getInterestAccumulator","inputs":[{"name":"eToken","type":"address","internalType":"address"}],"outputs":[{"name":"","type":"uint256","internalType":"uint256"}],"stateMutability":"view"},{"type":"function","name":"getInterestRate","inputs":[{"name":"eToken","type":"address","internalType":"address"}],"outputs":[{"name":"","type":"int96","internalType":"int96"}],"stateMutability":"view"},{"type":"function","name":"getInterestRateModel","inputs":[{"name":"eToken","type":"address","internalType":"address"}],"outputs":[{"name":"","type":"uint32","internalType":"uint32"}],"stateMutability":"view"},{"type":"function","name":"getLastInterestAccumulatorUpdate","inputs":[{"name":"eToken","type":"address","internalType":"address"}],"outputs":[{"name":"","type":"uint40","internalType":"uint40"}],"stateMutability":"view"},{"type":"function","name":"getPricingParameters","inputs":[{"name":"eToken","type":"address","internalType":"address"}],"outputs":[{"name":"","type":"uint32","internalType":"uint32"}],"stateMutability":"view"},{"type":"function","name":"getPricingType","inputs":[{"name":"eToken","type":"address","internalType":"address"}],"outputs":[{"name":"","type":"uint16","internalType":"uint16"}],"stateMutability":"view"},{"type":"function","name":"getReserveBalance","inputs":[{"name":"eToken","type":"address","internalType":"address"}],"outputs":[{"name":"","type":"uint96","internalType":"uint96"}],"stateMutability":"view"},{"type":"function","name":"getReserveFee","inputs":[{"name":"eToken","type":"address","internalType":"address"}],"outputs":[{"name":"","type":"uint32","internalType":"uint32"}],"stateMutability":"view"},{"type":"function","name":"getTotalBalances","inputs":[{"name":"eToken","type":"address","internalType":"address"}],"outputs":[{"name":"","type":"uint112","internalType":"uint112"}],"stateMutability":"view"},{"type":"function","name":"getTotalBorrows","inputs":[{"name":"eToken","type":"address","internalType":"address"}],"outputs":[{"name":"","type":"uint144","internalType":"uint144"}],"stateMutability":"view"},{"type":"function","name":"getUnderlying","inputs":[{"name":"eToken","type":"address","internalType":"address"}],"outputs":[{"name":"","type":"address","internalType":"address"}],"stateMutability":"view"},{"type":"function","name":"getUnderlyingDecimals","inputs":[{"name":"eToken","type":"address","internalType":"address"}],"outputs":[{"name":"","type":"uint8","internalType":"uint8"}],"stateMutability":"view"},{"type":"function","name":"getUserAsset","inputs":[{"name":"eToken","type":"address","internalType":"address"},{"name":"user","type":"address","internalType":"address"}],"outputs":[{"name":"","type":"tuple","internalType":"struct Storage.UserAsset","components":[{"name":"balance","type":"uint112","internalType":"uint112"},{"name":"owed","type":"uint144","internalType":"uint144"},{"name":"interestAccumulator","type":"uint256","internalType":"uint256"}]}],"stateMutability":"view"},{"type":"function","name":"mint","inputs":[{"name":"subAccountId","type":"uint256","internalType":"uint256"},{"name":"amount","type":"uint256","internalType":"uint256"}],"outputs":[],"stateMutability":"nonpayable"},{"type":"function","name":"moduleGitCommit","inputs":[],"outputs":[{"name":"","type":"bytes32","internalType":"bytes32"}],"stateMutability":"view"},{"type":"function","name":"moduleId","inputs":[],"outputs":[{"name":"","type":"uint256","internalType":"uint256"}],"stateMutability":"view"},{"type":"function","name":"name","inputs":[],"outputs":[{"name":"","type":"string","internalType":"string"}],"stateMutability":"view"},{"type":"function","name":"reserveBalance","inputs":[],"outputs":[{"name":"","type":"uint256","internalType":"uint256"}],"stateMutability":"view"},{"type":"function","name":"reserveBalanceUnderlying","inputs":[],"outputs":[{"name":"","type":"uint256","internalType":"uint256"}],"stateMutability":"view"},{"type":"function","name":"symbol","inputs":[],"outputs":[{"name":"","type":"string","internalType":"string"}],"stateMutability":"view"},{"type":"function","name":"totalSupply","inputs":[],"outputs":[{"name":"","type":"uint256","internalType":"uint256"}],"stateMutability":"view"},{"type":"function","name":"totalSupplyUnderlying","inputs":[],"outputs":[{"name":"","type":"uint256","internalType":"uint256"}],"stateMutability":"view"},{"type":"function","name":"touch","inputs":[],"outputs":[],"stateMutability":"nonpayable"},{"type":"function","name":"transfer","inputs":[{"name":"to","type":"address","internalType":"address"},{"name":"amount","type":"uint256","internalType":"uint256"}],"outputs":[{"name":"","type":"bool","internalType":"bool"}],"stateMutability":"nonpayable"},{"type":"function","name":"transferFrom","inputs":[{"name":"from","type":"address","internalType":"address"},{"name":"to","type":"address","internalType":"address"},{"name":"amount","type":"uint256","internalType":"uint256"}],"outputs":[{"name":"","type":"bool","internalType":"bool"}],"stateMutability":"nonpayable"},{"type":"function","name":"transferFromMax","inputs":[{"name":"from","type":"address","internalType":"address"},{"name":"to","type":"address","internalType":"address"}],"outputs":[{"name":"","type":"bool","internalType":"bool"}],"stateMutability":"nonpayable"},{"type":"function","name":"underlyingAsset","inputs":[],"outputs":[{"name":"","type":"address","internalType":"address"}],"stateMutability":"view"},{"type":"function","name":"withdraw","inputs":[{"name":"subAccountId","type":"uint256","internalType":"uint256"},{"name":"amount","type":"uint256","internalType":"uint256"}],"outputs":[],"stateMutability":"nonpayable"},{"type":"event","name":"Approval","inputs":[{"name":"owner","type":"address","indexed":true,"internalType":"address"},{"name":"spender","type":"address","indexed":true,"internalType":"address"},{"name":"value","type":"uint256","indexed":false,"internalType":"uint256"}],"anonymous":false},{"type":"event","name":"AssetStatus","inputs":[{"name":"underlying","type":"address","indexed":true,"internalType":"address"},{"name":"totalBalances","type":"uint256","indexed":false,"internalType":"uint256"},{"name":"totalBorrows","type":"uint256","indexed":false,"internalType":"uint256"},{"name":"reserveBalance","type":"uint96","indexed":false,"internalType":"uint96"},{"name":"poolSize","type":"uint256","indexed":false,"internalType":"uint256"},{"name":"interestAccumulator","type":"uint256","indexed":false,"internalType":"uint256"},{"name":"interestRate","type":"int96","indexed":false,"internalType":"int96"},{"name":"timestamp","type":"uint256","indexed":false,"internalType":"uint256"}],"anonymous":false},{"type":"event","name":"Borrow","inputs":[{"name":"underlying","type":"address","indexed":true,"internalType":"address"},{"name":"account","type":"address","indexed":true,"internalType":"address"},{"name":"amount","type":"uint256","indexed":false,"internalType":"uint256"}],"anonymous":false},{"type":"event","name":"DelegateAverageLiquidity","inputs":[{"name":"account","type":"address","indexed":true,"internalType":"address"},{"name":"delegate","type":"address","indexed":true,"internalType":"address"}],"anonymous":false},{"type":"event","name":"Deposit","inputs":[{"name":"underlying","type":"address","indexed":true,"internalType":"address"},{"name":"account","type":"address","indexed":true,"internalType":"address"},{"name":"amount","type":"uint256","indexed":false,"internalType":"uint256"}],"anonymous":false},{"type":"event","name":"EnterMarket","inputs":[{"name":"underlying","type":"address","indexed":true,"internalType":"address"},{"name":"account","type":"address","indexed":true,"internalType":"address"}],"anonymous":false},{"type":"event","name":"ExitMarket","inputs":[{"name":"underlying","type":"address","indexed":true,"internalType":"address"},{"name":"account","type":"address","indexed":true,"internalType":"address"}],"anonymous":false},{"type":"event","name":"Genesis","inputs":[],"anonymous":false},{"type":"event","name":"GovConvertReserves","inputs":[{"name":"underlying","type":"address","indexed":true,"internalType":"address"},{"name":"recipient","type":"address","indexed":true,"internalType":"address"},{"name":"amount","type":"uint256","indexed":false,"internalType":"uint256"}],"anonymous":false},{"type":"event","name":"GovSetAssetConfig","inputs":[{"name":"underlying","type":"address","indexed":true,"internalType":"address"},{"name":"newConfig","type":"tuple","indexed":false,"internalType":"struct Storage.AssetConfig","components":[{"name":"eTokenAddress","type":"address","internalType":"address"},{"name":"borrowIsolated","type":"bool","internalType":"bool"},{"name":"collateralFactor","type":"uint32","internalType":"uint32"},{"name":"borrowFactor","type":"uint32","internalType":"uint32"},{"name":"twapWindow","type":"uint24","internalType":"uint24"}]}],"anonymous":false},{"type":"event","name":"GovSetChainlinkPriceFeed","inputs":[{"name":"underlying","type":"address","indexed":true,"internalType":"address"},{"name":"chainlinkAggregator","type":"address","indexed":false,"internalType":"address"}],"anonymous":false},{"type":"event","name":"GovSetIRM","inputs":[{"name":"underlying","type":"address","indexed":true,"internalType":"address"},{"name":"interestRateModel","type":"uint256","indexed":false,"internalType":"uint256"},{"name":"resetParams","type":"bytes","indexed":false,"internalType":"bytes"}],"anonymous":false},{"type":"event","name":"GovSetPricingConfig","inputs":[{"name":"underlying","type":"address","indexed":true,"internalType":"address"},{"name":"newPricingType","type":"uint16","indexed":false,"internalType":"uint16"},{"name":"newPricingParameter","type":"uint32","indexed":false,"internalType":"uint32"}],"anonymous":false},{"type":"event","name":"GovSetReserveFee","inputs":[{"name":"underlying","type":"address","indexed":true,"internalType":"address"},{"name":"newReserveFee","type":"uint32","indexed":false,"internalType":"uint32"}],"anonymous":false},{"type":"event","name":"InstallerInstallModule","inputs":[{"name":"moduleId","type":"uint256","indexed":true,"internalType":"uint256"},{"name":"moduleImpl","type":"address","indexed":true,"internalType":"address"},{"name":"moduleGitCommit","type":"bytes32","indexed":false,"internalType":"bytes32"}],"anonymous":false},{"type":"event","name":"InstallerSetGovernorAdmin","inputs":[{"name":"newGovernorAdmin","type":"address","indexed":true,"internalType":"address"}],"anonymous":false},{"type":"event","name":"InstallerSetUpgradeAdmin","inputs":[{"name":"newUpgradeAdmin","type":"address","indexed":true,"internalType":"address"}],"anonymous":false},{"type":"event","name":"Liquidation","inputs":[{"name":"liquidator","type":"address","indexed":true,"internalType":"address"},{"name":"violator","type":"address","indexed":true,"internalType":"address"},{"name":"underlying","type":"address","indexed":true,"internalType":"address"},{"name":"collateral","type":"address","indexed":false,"internalType":"address"},{"name":"repay","type":"uint256","indexed":false,"internalType":"uint256"},{"name":"yield","type":"uint256","indexed":false,"internalType":"uint256"},{"name":"healthScore","type":"uint256","indexed":false,"internalType":"uint256"},{"name":"baseDiscount","type":"uint256","indexed":false,"internalType":"uint256"},{"name":"discount","type":"uint256","indexed":false,"internalType":"uint256"}],"anonymous":false},{"type":"event","name":"MarketActivated","inputs":[{"name":"underlying","type":"address","indexed":true,"internalType":"address"},{"name":"eToken","type":"address","indexed":true,"internalType":"address"},{"name":"dToken","type":"address","indexed":true,"internalType":"address"}],"anonymous":false},{"type":"event","name":"PTokenActivated","inputs":[{"name":"underlying","type":"address","indexed":true,"internalType":"address"},{"name":"pToken","type":"address","indexed":true,"internalType":"address"}],"anonymous":false},{"type":"event","name":"PTokenUnWrap","inputs":[{"name":"underlying","type":"address","indexed":true,"internalType":"address"},{"name":"account","type":"address","indexed":true,"internalType":"address"},{"name":"amount","type":"uint256","indexed":false,"internalType":"uint256"}],"anonymous":false},{"type":"event","name":"PTokenWrap","inputs":[{"name":"underlying","type":"address","indexed":true,"internalType":"address"},{"name":"account","type":"address","indexed":true,"internalType":"address"},{"name":"amount","type":"uint256","indexed":false,"internalType":"uint256"}],"anonymous":false},{"type":"event","name":"ProxyCreated","inputs":[{"name":"proxy","type":"address","indexed":true,"internalType":"address"},{"name":"moduleId","type":"uint256","indexed":false,"internalType":"uint256"}],"anonymous":false},{"type":"event","name":"Repay","inputs":[{"name":"underlying","type":"address","indexed":true,"internalType":"address"},{"name":"account","type":"address","indexed":true,"internalType":"address"},{"name":"amount","type":"uint256","indexed":false,"internalType":"uint256"}],"anonymous":false},{"type":"event","name":"RequestBorrow","inputs":[{"name":"account","type":"address","indexed":true,"internalType":"address"},{"name":"amount","type":"uint256","indexed":false,"internalType":"uint256"}],"anonymous":false},{"type":"event","name":"RequestBurn","inputs":[{"name":"account","type":"address","indexed":true,"internalType":"address"},{"name":"amount","type":"uint256","indexed":false,"internalType":"uint256"}],"anonymous":false},{"type":"event","name":"RequestDeposit","inputs":[{"name":"account","type":"address","indexed":true,"internalType":"address"},{"name":"amount","type":"uint256","indexed":false,"internalType":"uint256"}],"anonymous":false},{"type":"event","name":"RequestDonate","inputs":[{"name":"account","type":"address","indexed":true,"internalType":"address"},{"name":"amount","type":"uint256","indexed":false,"internalType":"uint256"}],"anonymous":false},{"type":"event","name":"RequestLiquidate","inputs":[{"name":"liquidator","type":"address","indexed":true,"internalType":"address"},{"name":"violator","type":"address","indexed":true,"internalType":"address"},{"name":"underlying","type":"address","indexed":true,"internalType":"address"},{"name":"collateral","type":"address","indexed":false,"internalType":"address"},{"name":"repay","type":"uint256","indexed":false,"internalType":"uint256"},{"name":"minYield","type":"uint256","indexed":false,"internalType":"uint256"}],"anonymous":false},{"type":"event","name":"RequestMint","inputs":[{"name":"account","type":"address","indexed":true,"internalType":"address"},{"name":"amount","type":"uint256","indexed":false,"internalType":"uint256"}],"anonymous":false},{"type":"event","name":"RequestRepay","inputs":[{"name":"account","type":"address","indexed":true,"internalType":"address"},{"name":"amount","type":"uint256","indexed":false,"internalType":"uint256"}],"anonymous":false},{"type":"event","name":"RequestSwap","inputs":[{"name":"accountIn","type":"address","indexed":true,"internalType":"address"},{"name":"accountOut","type":"address","indexed":true,"internalType":"address"},{"name":"underlyingIn","type":"address","indexed":true,"internalType":"address"},{"name":"underlyingOut","type":"address","indexed":false,"internalType":"address"},{"name":"amount","type":"uint256","indexed":false,"internalType":"uint256"},{"name":"swapType","type":"uint256","indexed":false,"internalType":"uint256"}],"anonymous":false},{"type":"event","name":"RequestSwapHub","inputs":[{"name":"accountIn","type":"address","indexed":true,"internalType":"address"},{"name":"accountOut","type":"address","indexed":true,"internalType":"address"},{"name":"underlyingIn","type":"address","indexed":true,"internalType":"address"},{"name":"underlyingOut","type":"address","indexed":false,"internalType":"address"},{"name":"amountIn","type":"uint256","indexed":false,"internalType":"uint256"},{"name":"amountOut","type":"uint256","indexed":false,"internalType":"uint256"},{"name":"mode","type":"uint256","indexed":false,"internalType":"uint256"},{"name":"swapHandler","type":"address","indexed":false,"internalType":"address"}],"anonymous":false},{"type":"event","name":"RequestSwapHubRepay","inputs":[{"name":"accountIn","type":"address","indexed":true,"internalType":"address"},{"name":"accountOut","type":"address","indexed":true,"internalType":"address"},{"name":"underlyingIn","type":"address","indexed":true,"internalType":"address"},{"name":"underlyingOut","type":"address","indexed":false,"internalType":"address"},{"name":"targetDebt","type":"uint256","indexed":false,"internalType":"uint256"},{"name":"swapHandler","type":"address","indexed":false,"internalType":"address"}],"anonymous":false},{"type":"event","name":"RequestTransferDToken","inputs":[{"name":"from","type":"address","indexed":true,"internalType":"address"},{"name":"to","type":"address","indexed":true,"internalType":"address"},{"name":"amount","type":"uint256","indexed":false,"internalType":"uint256"}],"anonymous":false},{"type":"event","name":"RequestTransferEToken","inputs":[{"name":"from","type":"address","indexed":true,"internalType":"address"},{"name":"to","type":"address","indexed":true,"internalType":"address"},{"name":"amount","type":"uint256","indexed":false,"internalType":"uint256"}],"anonymous":false},{"type":"event","name":"RequestWithdraw","inputs":[{"name":"account","type":"address","indexed":true,"internalType":"address"},{"name":"amount","type":"uint256","indexed":false,"internalType":"uint256"}],"anonymous":false},{"type":"event","name":"TrackAverageLiquidity","inputs":[{"name":"account","type":"address","indexed":true,"internalType":"address"}],"anonymous":false},{"type":"event","name":"Transfer","inputs":[{"name":"from","type":"address","indexed":true,"internalType":"address"},{"name":"to","type":"address","indexed":true,"internalType":"address"},{"name":"value","type":"uint256","indexed":false,"internalType":"uint256"}],"anonymous":false},{"type":"event","name":"UnTrackAverageLiquidity","inputs":[{"name":"account","type":"address","indexed":true,"internalType":"address"}],"anonymous":false},{"type":"event","name":"Withdraw","inputs":[{"name":"underlying","type":"address","indexed":true,"internalType":"address"},{"name":"account","type":"address","indexed":true,"internalType":"address"},{"name":"amount","type":"uint256","indexed":false,"internalType":"uint256"}],"anonymous":false}],"bytecode":{"object":"0x60c060405234801561001057600080fd5b506207a1206080527f99ac22643f1ec0e690c9b0b8e1f8cce7e4839b1e1d2f86273dcc8c19cc0e981c60a05260805160a051613b666100616000396000610560015260006106270152613b666000f3fe608060405234801561001057600080fd5b50600436106102485760003560e01c806369a92ea31161013b578063a9059cbb116100b8578063dd62ed3e1161007c578063dd62ed3e14610759578063e06ece4d1461076c578063e2bbb158146107b9578063e73277d0146107cc578063fea61faa146107d457600080fd5b8063a9059cbb14610686578063b390c0ab14610699578063b87147df146106ac578063cbfdd7e114610700578063d3ea0f891461071357600080fd5b806395d89b41116100ff57806395d89b4114610612578063a10954fe1461061a578063a1308f2714610622578063a1e03bb514610649578063a55526db1461067e57600080fd5b806369a92ea31461055b57806370a082311461058257806370b38d47146105955780637158da7c146105c4578063748818dc146105cc57600080fd5b806332d1ca9b116101c9578063474cf4681161018d578063474cf4681461044e5780634c6fc8e9146104955780634e89a711146104cb57806352eac8af1461051257806354a057711461052557600080fd5b806332d1ca9b146103b757806336f022aa146103ca5780633af9e669146103dd5780633e1eaf83146103f0578063441a3e701461043b57600080fd5b806315226b541161021057806315226b541461031e57806318160ddd146103725780631b2ef1ca1461037a57806323b872dd1461038f578063313ce567146103a257600080fd5b8063010ad6d11461024d5780630490e1f41461027357806306fdde03146102ba578063095ea7b3146102cf57806311ee7b15146102f2575b600080fd5b61026061025b3660046135ec565b6107dc565b6040519081526020015b60405180910390f35b6102a7610281366004613621565b6001600160a01b0316600090815260096020526040902054600160d01b900461ffff1690565b60405161ffff909116815260200161026a565b6102c2610820565b60405161026a9190613660565b6102e26102dd366004613693565b6108bc565b604051901515815260200161026a565b610260610300366004613621565b6001600160a01b031660009081526009602052604090206004015490565b61035a61032c366004613621565b6001600160a01b0316600090815260096020526040902060010154600160a01b90046001600160601b031690565b6040516001600160601b03909116815260200161026a565b6102606108d3565b61038d6103883660046136bd565b610907565b005b6102e261039d3660046136df565b610a26565b60125b60405160ff909116815260200161026a565b6102e26103c536600461371b565b610cc1565b61038d6103d83660046136bd565b610da8565b6102606103eb366004613621565b610fa7565b6104266103fe366004613621565b6001600160a01b0316600090815260096020526040902054600160e01b900463ffffffff1690565b60405163ffffffff909116815260200161026a565b61038d6104493660046136bd565b610fff565b61046161045c366004613740565b611124565b6040805182516001600160701b031681526020808401516001600160901b031690820152918101519082015260600161026a565b6104266104a3366004613621565b6001600160a01b0316600090815260096020526040902054600160b01b900463ffffffff1690565b6104fa6104d9366004613621565b6001600160a01b039081166000908152600960205260409020600101541690565b6040516001600160a01b03909116815260200161026a565b6102606105203660046135ec565b6111bf565b610426610533366004613621565b6001600160a01b0316600090815260096020526040902054600160301b900463ffffffff1690565b6102607f000000000000000000000000000000000000000000000000000000000000000081565b610260610590366004613621565b6111f3565b6104fa6105a3366004613621565b6001600160a01b039081166000908152600960205260409020600201541690565b6104fa61122e565b6105fc6105da366004613621565b6001600160a01b031660009081526009602052604090205464ffffffffff1690565b60405164ffffffffff909116815260200161026a565b6102c2611243565b6102606112ca565b6102607f000000000000000000000000000000000000000000000000000000000000000081565b6103a5610657366004613621565b6001600160a01b031660009081526009602052604090205465010000000000900460ff1690565b61038d6112fe565b6102e2610694366004613693565b611361565b61038d6106a73660046136bd565b61136f565b6106e86106ba366004613621565b6001600160a01b0316600090815260096020526040902060030154600160701b90046001600160901b031690565b6040516001600160901b03909116815260200161026a565b6102e261070e366004613740565b61149d565b610746610721366004613621565b6001600160a01b0316600090815260096020526040902054600160501b9004600b0b90565b604051600b9190910b815260200161026a565b610260610767366004613740565b6114e7565b6107a161077a366004613621565b6001600160a01b03166000908152600960205260409020600301546001600160701b031690565b6040516001600160701b03909116815260200161026a565b61038d6107c73660046136bd565b611526565b610260611666565b6102606116b6565b60008060006107e96116f4565b50509150915060006107fb838361177b565b9050806101a0015161080d82876117d9565b610817919061379f565b95945050505050565b6060600061082c6116f4565b5050509050806001600160a01b03166306fdde036040518163ffffffff1660e01b8152600401600060405180830381865afa15801561086f573d6000803e3d6000fd5b505050506040513d6000823e601f3d908101601f1916820160405261089791908101906137d7565b6040516020016108a79190613884565b60405160208183030381529060405291505090565b60006108ca60008484610cc1565b90505b92915050565b60008060006108e06116f4565b50509150915060006108f2838361177b565b602001516001600160701b0316949350505050565b6001600054146109325760405162461bcd60e51b8152600401610929906138b8565b60405180910390fd5b600260009081558080806109446116f4565b935093509350935060006109588288611804565b90506109638161185c565b806001600160a01b03167f7053340faeaa787c14d517bde5b7f4f7e1ebc393c59b246723598563d39af9ed8760405161099e91815260200190565b60405180910390a260006109b28686611908565b90506109be818861199e565b965060006109cc82896119f6565b90506109d882826117d9565b97506109e78683878685611a2c565b6002860154610a0490879084906001600160a01b0316868c611b34565b610a0d83611c9a565b610a1682611d53565b5050600160005550505050505050565b6000600160005414610a4a5760405162461bcd60e51b8152600401610929906138b8565b60026000908155808080610a5c6116f4565b93509350935093506000610a708585611908565b90506001600160a01b038916610a84578198505b876001600160a01b0316896001600160a01b031603610ad75760405162461bcd60e51b815260206004820152600f60248201526e3297b9b2b63316ba3930b739b332b960891b6044820152606401610929565b610ae08961185c565b610ae98861185c565b876001600160a01b0316896001600160a01b03167f05c051db3761ec29f60be6db25acec44695498d628df7aa22ebff5a2922f8ffb89604051610b2e91815260200190565b60405180910390a386600003610b4c57600195505050505050610cb5565b60ff8083176001600160a01b03908116918b171614158015610b9757506001600160a01b03808a16600090815260068601602090815260408083209386168352929052205460001914155b15610c52576001600160a01b03808a166000908152600686016020908152604080832093861683529290522054871115610c135760405162461bcd60e51b815260206004820152601860248201527f652f696e73756666696369656e742d616c6c6f77616e636500000000000000006044820152606401610929565b6001600160a01b0389811660009081526006860160209081526040808320938616835292905220805488900390819055610c529084908b908590611e0e565b610c608482858c8c8c611f0e565b610c6989611c9a565b6001600160a01b0388166000908152600585016020526040902054600160701b90046001600160901b031615610ca257610ca288611c9a565b610cab81611d53565b6001955050505050505b60016000559392505050565b6000600160005414610ce55760405162461bcd60e51b8152600401610929906138b8565b600260009081558080610cf66116f4565b935093509350506000610d098289611804565b905060ff8088176001600160a01b039081169183171603610d5e5760405162461bcd60e51b815260206004820152600f60248201526e194bdcd95b198b585c1c1c9bdd985b608a1b6044820152606401610929565b6001600160a01b0380821660009081526006860160209081526040808320938b16835292905220869055610d9483828989611e0e565b600194505050505060016000559392505050565b600160005414610dca5760405162461bcd60e51b8152600401610929906138b8565b60026000908155808080610ddc6116f4565b93509350935093506000610df08288611804565b9050610dfb8161185c565b806001600160a01b03167f1e090bfa40abafd9102cc09ab955b704519a275c8e78b2549f66c1b4439ce9d787604051610e3691815260200190565b60405180910390a26000610e4a8686611908565b6001600160a01b03831660009081526005870160205260408120549192506001600160701b039091169060018901610e8757509650866000610eac565b88821015610ea75760405162461bcd60e51b8152600401610929906138de565b508781035b610eb58161207d565b6001600160a01b0385166000908152600589016020526040902080546001600160701b0319166001600160701b03929092169190911790556060830151610f0f90610f0a908b906001600160601b031661390e565b6120da565b6001600160601b031660608401819052600188018054600160a01b9092026001600160a01b0392831617905583516040518683169291909116907f9b1bfa7fa9ee420a16e124f794c35ac9f90472acc99140eb2f6447c714cad8eb90610f78908d815260200190565b60405180910390a3610f8d868560008c61213e565b610f9683611d53565b505060016000555050505050505050565b6000806000610fb46116f4565b5050915091506000610fc6838361177b565b6101a08101516001600160a01b03871660009081526005850160205260409020549192509061080d9083906001600160701b03166117d9565b6001600054146110215760405162461bcd60e51b8152600401610929906138b8565b600260009081558080806110336116f4565b935093509350935060006110478288611804565b90506110528161185c565b806001600160a01b03167f0afd74a2a0a78f6c15e41029f44995ee023fe49276f44a4b2b2cf674829362e68760405161108d91815260200190565b60405180910390a260006110a18686611908565b905060006110b18683858b612194565b610180840151919950915088111561110b5760405162461bcd60e51b815260206004820152601860248201527f652f696e73756666696369656e742d706f6f6c2d73697a6500000000000000006044820152606401610929565b61111682858a6121fe565b50610a04868387868561229e565b60408051606081018252600080825260208201819052918101919091526001600160a01b0383166000908152600960205260408120600501906111678482611804565b6001600160a01b031681526020808201929092526040908101600020815160608101835281546001600160701b0381168252600160701b90046001600160901b03169381019390935260010154908201529392505050565b60008060006111cc6116f4565b50509150915060006111de838361177b565b9050610817816111ee838861199e565b6123c0565b6000806111fe6116f4565b50506001600160a01b039094166000908152600590940160205250506040909120546001600160701b0316919050565b6000806112396116f4565b5091949350505050565b6060600061124f6116f4565b5050509050806001600160a01b03166395d89b416040518163ffffffff1660e01b8152600401600060405180830381865afa158015611292573d6000803e3d6000fd5b505050506040513d6000823e601f3d908101601f191682016040526112ba91908101906137d7565b6040516020016108a79190613921565b60008060006112d76116f4565b50509150915060006112e9838361177b565b606001516001600160601b0316949350505050565b6001600054146113205760405162461bcd60e51b8152600401610929906138b8565b60026000908155806113306116f4565b50509150915060006113428383611908565b905061134e82826123e1565b61135781611d53565b5050600160005550565b60006108ca60008484610a26565b6001600054146113915760405162461bcd60e51b8152600401610929906138b8565b600260009081558080806113a36116f4565b935093509350935060006113b78288611804565b90506113c28161185c565b806001600160a01b03167ff05dc13309edd62ddfddf2ba57299daa8fc08d8be6d2fad6c648fa9b2b0d91df876040516113fd91815260200190565b60405180910390a260006114118686611908565b90506000611420868385612500565b9050806000036114365750505050505050611494565b60006114448784868c612194565b9099509050818911156114615781985061145e838a6119f6565b90505b61146e878488878561229e565b600287015461148b90889085906001600160a01b0316878d61254b565b610f8d84611c9a565b50506001600055565b6000806114a86116f4565b50506001600160a01b03861660009081526005820160205260409020549092506114df9150859085906001600160701b0316610a26565b949350505050565b6000806114f26116f4565b50506001600160a01b0395861660009081526006919091016020908152604080832096909716825294909452505050205490565b6001600054146115485760405162461bcd60e51b8152600401610929906138b8565b6002600090815580808061155a6116f4565b9350935093509350600061156e8288611804565b90506115798161185c565b806001600160a01b03167fab5515522df06610b9fbcbbbd8416018226aca39364adcf5524751fcfef40ae5876040516115b491815260200190565b60405180910390a260006115c88686611908565b905060001987036115e0576115dd818461269d565b96505b6115ea818861199e565b965060006115f982858a612780565b6101808301805182900390529050600061161383836123c0565b6101808401805184019052905061162d8784888785611a2c565b6001600160a01b0384166000908152600588016020526040902054600160701b90046001600160901b031615610f8d57610f8d84611c9a565b60008060006116736116f4565b5050915091506000611685838361177b565b9050806101a001516116a48283606001516001600160601b03166117d9565b6116ae919061379f565b935050505090565b60008060006116c36116f4565b50509150915060006116d5838361177b565b9050806101a001516116a48283602001516001600160701b03166117d9565b36601319810135606090811c600081815260096020526040902060018101546001600160a01b031693909260271990910135901c836117755760405162461bcd60e51b815260206004820152601c60248201527f652f756e7265636f676e697a65642d65746f6b656e2d63616c6c6572000000006044820152606401610929565b90919293565b611783613570565b6001600054146117c75760405162461bcd60e51b815260206004820152600f60248201526e652f726f2d7265656e7472616e637960881b6044820152606401610929565b6117d283838361281c565b5092915050565b6000806117e584612bbc565b9050670de0b6b3a76400006117fa828561394a565b6114df919061379f565b600061010082106118575760405162461bcd60e51b815260206004820152601860248201527f652f7375622d6163636f756e742d69642d746f6f2d62696700000000000000006044820152606401610929565b501890565b6001600160a01b038116600090815260066020526040812054610100900464ffffffffff169081900361188d575050565b60006118998242613961565b9050806000036118a857505050565b6001600160a01b0383166000908152600660205260409020805465ffffffffff0019166101004264ffffffffff16021790556118e48382612c4c565b6001600160a01b039093166000908152600660205260409020600101929092555050565b611910613570565b61191b83838361281c565b156108cd5760a0810151825464ffffffffff90911664ffffffffff19909116178255805160608201516001600160601b0316600160a01b026001600160a01b03909116176001830155602081015160408201516001600160901b0316600160701b026001600160701b039091161760038301556080810151600483015592915050565b6000826101c001518211156119ea5760405162461bcd60e51b8152602060048201526012602482015271652f616d6f756e742d746f6f2d6c6172676560701b6044820152606401610929565b506101a0909101510290565b600080611a0284612bbc565b905080611a10600182613961565b611a2285670de0b6b3a764000061394a565b6117fa919061390e565b6001600160a01b0382166000908152600586016020526040902054611a6490611a5f9083906001600160701b031661390e565b61207d565b6001600160a01b0383166000908152600587016020908152604090912080546001600160701b0319166001600160701b03938416179055850151611aae91611a5f9184911661390e565b6001600160701b0316602085018190526003860180546001600160701b0319169091179055611add85856123e1565b83516040518281526001600160a01b038085169216907f5548c837ab068cf56a2c2479df0882a4922fd203edb7517321831d95078c5f629060200160405180910390a3611b2d836000848461213e565b5050505050565b611b42633b9aca008261394a565b61014085015190915061ffff166003141580611b78575083516001600160a01b039081166000908152600b602052604090205416155b611bbd5760405162461bcd60e51b8152602060048201526016602482015275194bd89bdc9c9bddcb5b9bdd0b5cdd5c1c1bdc9d195960521b6044820152606401610929565b600080611bcb878786612d0a565b9150915081600003611be557611be5848760000151612d9d565b611bef838361390e565b9150611bfa82612f96565b6001600160a01b03851660009081526005890160205260409081902080546001600160701b0316600160701b6001600160901b0394851602179055870151611c4d91611c489186911661390e565b612f96565b6001600160901b0316604087018190526003880180546001600160701b0316600160701b909202919091179055611c8487876123e1565b611c918686868486612ff9565b50505050505050565b6001600160a01b03811660009081526006602052604090205460ff1680611d1f576040516001600160a01b0383166024820152611d1a90620f4240906361cdaa1d60e11b906044015b60408051601f198184030181529190526020810180516001600160e01b03166001600160e01b031990931692909217909152613138565b505050565b60001960ff821601611d4f576001600160a01b0382166000908152600660205260409020805460ff191660021790555b5050565b80600001516001600160a01b03167f2f2d732e1a7a15fe7a2e51d3482efe83ff791579cebc5e3cd12cd2064374bc7f8260200151633b9aca0084604001516001600160901b0316611da4919061379f565b6060808601516101808701516080808901516101008a0151604080516001600160701b03909916895260208901979097526001600160601b03909416958701959095529285015290830191909152600b0b60a08201524260c082015260e00160405180910390a250565b600060405190506000856001600160a01b03166003604051806060016040528060218152602001613aef602191398051602091820120604051611e6493926001600160a01b03808c1692908b16918a9101613974565b60408051601f1981840301815290829052611e7e916139a6565b6000604051808303816000865af19150503d8060008114611ebb576040519150601f19603f3d011682016040523d82523d6000602084013e611ec0565b606091505b5050905080611f045760405162461bcd60e51b815260206004820152601060248201526f194bdb1bd9cb5c1c9bde1e4b59985a5b60821b6044820152606401610929565b5060405250505050565b6001600160a01b03831660009081526005870160205260409020546001600160701b031681811015611f525760405162461bcd60e51b8152600401610929906138de565b818103611f5e8161207d565b6001600160a01b03868116600090815260058b01602052604080822080546001600160701b0319166001600160701b0395861617905591871681522054611fab91611a5f9186911661390e565b6001600160a01b03858116600090815260058b01602090815260409182902080546001600160701b0319166001600160701b039590951694909417909355895190518681528883169391909216917f9b1bfa7fa9ee420a16e124f794c35ac9f90472acc99140eb2f6447c714cad8eb910160405180910390a386516040518481526001600160a01b038087169216907f5548c837ab068cf56a2c2479df0882a4922fd203edb7517321831d95078c5f629060200160405180910390a36120738686868661213e565b5050505050505050565b60006001600160701b038211156120d65760405162461bcd60e51b815260206004820152601c60248201527f652f616d6f756e742d746f6f2d6c617267652d746f2d656e636f6465000000006044820152606401610929565b5090565b60006001600160601b038211156120d65760405162461bcd60e51b815260206004820152602260248201527f652f736d616c6c2d616d6f756e742d746f6f2d6c617267652d746f2d656e636f604482015261646560f01b6064820152608401610929565b600060405190506000856001600160a01b03166003604051806060016040528060218152602001613b10602191398051602091820120604051611e6493926001600160a01b03808c1692908b16918a9101613974565b600080600060001984036121d857506001600160a01b03841660009081526005870160205260409020546001600160701b03166121d186826117d9565b93506121f1565b6121e2868561199e565b93506121ee86856119f6565b90505b9296929550919350505050565b61018083015183516101a085015160009291612225918690612220908761379f565b6131ba565b600061223a86612235883061269d565b61199e565b61018087018190529050808210156122945760405162461bcd60e51b815260206004820152601a60248201527f652f6e656761746976652d7472616e736665722d616d6f756e740000000000006044820152606401610929565b9003949350505050565b6001600160a01b03821660009081526005860160205260409020546001600160701b0316818110156122e25760405162461bcd60e51b8152600401610929906138de565b6122ef611a5f8383613961565b6001600160a01b0384166000908152600588016020908152604090912080546001600160701b0319166001600160701b0393841617905586015161233991611a5f91859116613961565b6001600160701b0316602086018190526003870180546001600160701b031916909117905561236886866123e1565b84516040518381526001600160a01b038086169216907f9b1bfa7fa9ee420a16e124f794c35ac9f90472acc99140eb2f6447c714cad8eb9060200160405180910390a36123b8848460008561213e565b505050505050565b6000806123cc84612bbc565b9050806117fa84670de0b6b3a764000061394a565b600080633b9aca0083604001516001600160901b0316612401919061379f565b9050600081846101800151612416919061390e565b9050806000036124295760009250612462565b670de0b6b3a76400008161244163ffffffff8361394a565b61244b908561394a565b612455919061379f565b61245f919061379f565b92505b505060e082015182516040516001600160a01b03909116602482015263ffffffff83811660448301526000926124a692911690631aa1811f60e31b90606401611ce3565b90506000818060200190518101906124be91906139c2565b600b81900b61010090950194909452505082546001600160601b03909216600160501b026bffffffffffffffffffffffff60501b199092169190911790915550565b6001600160a01b0381166000908152600584016020526040812054633b9aca00906117fa90859061254690889083908890600160701b90046001600160901b03166132a1565b6132e0565b600061255b633b9aca008361394a565b905060008061256b888887612d0a565b91509150600061257b88846132e0565b9050808411156125c05760405162461bcd60e51b815260206004820152601060248201526f0ca5ee4cae0c2f25ae8dede5adaeac6d60831b6044820152606401610929565b6040880151848203906001600160901b03168411156125ea5788604001516001600160901b031693505b6125f381612f96565b6001600160a01b038816600090815260058c0160205260409081902080546001600160701b0316600160701b6001600160901b03948516021790558a015161264d91839161264391889116613961565b611c48919061390e565b6001600160901b031660408a0181905260038b0180546001600160701b0316600160701b9092029190911790556126848a8a6123e1565b6126918989898685612ff9565b50505050505050505050565b6040805183516001600160a01b03848116602480850191909152845180850390910181526044840185526020810180516001600160e01b03166370a0823160e01b179052935160009485938493169162030d40916126fa916139a6565b6000604051808303818686fa925050503d8060008114612736576040519150601f19603f3d011682016040523d82523d6000602084013e61273b565b606091505b509150915081158061274e575060208151105b1561275e57600093505050612777565b8080602001905181019061277291906139e5565b935050505b60405292915050565b61018083015183516101a0850151600092916127a991869030906127a4908861379f565b61331e565b60006127b986612235883061269d565b61018087018190529050818110156128135760405162461bcd60e51b815260206004820152601a60248201527f652f6e656761746976652d7472616e736665722d616d6f756e740000000000006044820152606401610929565b03949350505050565b6001600160a01b0383168152815464ffffffffff811660a083015265010000000000810460ff90811660c08401819052600160301b830463ffffffff90811660e0860152600160501b8404600b0b610100860152600160b01b84048116610120860152600160d01b840461ffff16610140860152600160e01b9093049092166101608401526001840154600160a01b90046001600160601b0316606084015260038401546001600160701b038082166020860152600160701b9091046001600160901b03166040850152600485015460808501526012839003909116600a0a6101a08401819052600092918161291457612914613773565b046101c08401526000612927843061269d565b9050836101c001518111612948576101a08401518102610180850152612951565b60006101808501525b8360a0015164ffffffffff164214612bb3576001925060008460a0015164ffffffffff16426129809190613961565b905060006b033b2e3c9fd0803ce800000086608001516129cc886101000151600b0b6b033b2e3c9fd0803ce80000006129b991906139fe565b856b033b2e3c9fd0803ce800000061340d565b6129d6919061394a565b6129e0919061379f565b9050600086608001518288604001516001600160901b0316612a02919061394a565b612a0c919061379f565b606088015160208901519192506001600160601b0316906001600160701b03166000612a40633b9aca0063ee6b280061394a565b6101208b015163ffffffff90811614612a5e578a6101200151612a64565b6336d616005b63ffffffff168b604001516001600160901b031686612a839190613961565b612a8d919061394a565b612a97919061379f565b90508015612b08576000612aaf633b9aca008661379f565b8b6101800151612abf919061390e565b9050612acb8282613961565b612ad5848361394a565b612adf919061379f565b92508a602001516001600160701b031683612afa9190613961565b612b04908561390e565b9350505b6001600160701b038211801590612b2657506001600160901b038411155b8015612b3957506001600160601b038311155b15612bac57612b4784612f96565b6001600160901b031660408b015260808a0185905264ffffffffff421660a08b015260208a01516001600160701b03168214612bac57612b86836120da565b6001600160601b031660608b0152612b9d8261207d565b6001600160701b031660208b01525b5050505050505b50509392505050565b600080633b9aca0083604001516001600160901b0316612bdc919061379f565b836101800151612bec919061390e565b9050801580612c06575060208301516001600160701b0316155b15612c1b5750670de0b6b3a764000092915050565b60208301516001600160701b0316612c3b82670de0b6b3a764000061394a565b612c45919061379f565b9392505050565b60008062015180831015612c605782612c65565b620151805b90506000612c768262015180613961565b90506000806000612c86886134ca565b91509150808211612c98576000612ca2565b612ca28183613961565b92505050620151808382612cb6919061394a565b612cc0919061379f565b6001600160a01b0387166000908152600660205260409020600101546201518090612cec90859061394a565b612cf6919061379f565b612d00919061390e565b9695505050505050565b6001600160a01b0381166000908152600584016020526040812054600160701b90046001600160901b0316612d41858585846132a1565b9150612d4c82612f96565b6001600160a01b0390931660009081526005909501602052604090942080546001600160901b0393909316600160701b026001600160701b0390931692909217825560809092015160019091015591565b6001600160a01b0382166000908152600660209081526040808320805460079093529220600160301b90910463ffffffff16908115612e4b5782546001600160a01b03808616600160501b9092041603612df8575050505050565b60015b8263ffffffff16811015612e4957846001600160a01b031682826401000000008110612e2957612e29613a26565b01546001600160a01b031603612e4157505050505050565b600101612dfb565b505b600a8263ffffffff1610612ea15760405162461bcd60e51b815260206004820152601a60248201527f652f746f6f2d6d616e792d656e74657265642d6d61726b6574730000000000006044820152606401610929565b8163ffffffff16600003612eeb5782547fffff0000000000000000000000000000000000000000ffffffffffffffffffff16600160501b6001600160a01b03861602178355612f28565b83818363ffffffff166401000000008110612f0857612f08613a26565b0180546001600160a01b0319166001600160a01b03929092169190911790555b612f33826001613a3c565b835463ffffffff91909116600160301b0269ffffffff000000000000199091161783556040516001600160a01b0380871691908616907f1c0971b8e0f7bb4e90bdbd87cfe682c36c383e2fc3dc4716ecc02771186293cc90600090a35050505050565b60006001600160901b038211156120d65760405162461bcd60e51b815260206004820152602160248201527f652f646562742d616d6f756e742d746f6f2d6c617267652d746f2d656e636f646044820152606560f81b6064820152608401610929565b633b9aca0061300886846132e0565b613012919061379f565b9150633b9aca0061302386836132e0565b61302d919061379f565b9050818111156130b95760006130438383613961565b9050836001600160a01b031686600001516001600160a01b03167f312a5e5e1079f5dda4e95dbbd0b908b291fd5b992ef22073643ab691572c5b528360405161308e91815260200190565b60405180910390a36130b385600086896101a00151856130ae919061379f565b61213e565b50611b2d565b80821115611b2d5760006130cd8284613961565b9050836001600160a01b031686600001516001600160a01b03167f05f2eeda0e08e4b437f487c8d7d29b14537d15e3488170dc3de5dbdf8dac46848360405161311891815260200190565b60405180910390a36123b885856000896101a00151856130ae919061379f565b6000828152600360205260408082205490516060929182916001600160a01b03909116906131679086906139a6565b600060405180830381855af49150503d80600081146131a2576040519150601f19603f3d011682016040523d82523d6000602084013e6131a7565b606091505b5091509150816114df576114df81613529565b604080516001600160a01b038481166024830152604480830185905283518084039091018152606490920183526020820180516001600160e01b031663a9059cbb60e01b179052915160009283929087169161321691906139a6565b6000604051808303816000865af19150503d8060008114613253576040519150601f19603f3d011682016040523d82523d6000602084013e613258565b606091505b50915091508180156132825750805115806132825750808060200190518101906132829190613a69565b81906123b85760405162461bcd60e51b81526004016109299190613660565b6000816000036132b3575060006114df565b6001600160a01b0383166000908152600586016020526040902060010154608085015161080d908461394a565b6000816000036132f2575060006108cd565b6101a0830151633b9aca00028080600019858201018161331457613314613773565b0402949350505050565b604080516001600160a01b0385811660248301528481166044830152606480830185905283518084039091018152608490920183526020820180516001600160e01b03166323b872dd60e01b179052915160009283929088169161338291906139a6565b6000604051808303816000865af19150503d80600081146133bf576040519150601f19603f3d011682016040523d82523d6000602084013e6133c4565b606091505b50915091508180156133ee5750805115806133ee5750808060200190518101906133ee9190613a69565b8190611c915760405162461bcd60e51b81526004016109299190613660565b60008380156134ad576001841680156134285785925061342c565b8392505b50600283046002850494505b84156134a757858602868782041461344f57600080fd5b8181018181101561345f57600080fd5b859004965050600185161561349c57858302838782041415871515161561348557600080fd5b8181018181101561349557600080fd5b8590049350505b600285049450613438565b506134c2565b8380156134bd5760009250612bb3565b839250505b509392505050565b6040516001600160a01b0382166024820152600090819081906134fd90620f424090631bff4ba560e11b90604401611ce3565b90506000818060200190518101906135159190613a84565b805160209091015190969095509350505050565b80511561353857805181602001fd5b60405162461bcd60e51b815260206004820152600d60248201526c3297b2b6b83a3c96b2b93937b960991b6044820152606401610929565b604080516101e081018252600080825260208201819052918101829052606081018290526080810182905260a0810182905260c0810182905260e08101829052610100810182905261012081018290526101408101829052610160810182905261018081018290526101a081018290526101c081019190915290565b6000602082840312156135fe57600080fd5b5035919050565b80356001600160a01b038116811461361c57600080fd5b919050565b60006020828403121561363357600080fd5b6108ca82613605565b60005b8381101561365757818101518382015260200161363f565b50506000910152565b602081526000825180602084015261367f81604085016020870161363c565b601f01601f19169190910160400192915050565b600080604083850312156136a657600080fd5b6136af83613605565b946020939093013593505050565b600080604083850312156136d057600080fd5b50508035926020909101359150565b6000806000606084860312156136f457600080fd5b6136fd84613605565b925061370b60208501613605565b9150604084013590509250925092565b60008060006060848603121561373057600080fd5b8335925061370b60208501613605565b6000806040838503121561375357600080fd5b61375c83613605565b915061376a60208401613605565b90509250929050565b634e487b7160e01b600052601260045260246000fd5b634e487b7160e01b600052601160045260246000fd5b6000826137bc57634e487b7160e01b600052601260045260246000fd5b500490565b634e487b7160e01b600052604160045260246000fd5b6000602082840312156137e957600080fd5b815167ffffffffffffffff8082111561380157600080fd5b818401915084601f83011261381557600080fd5b815181811115613827576138276137c1565b604051601f8201601f19908116603f0116810190838211818310171561384f5761384f6137c1565b8160405282815287602084870101111561386857600080fd5b61387983602083016020880161363c565b979650505050505050565b6b022bab632b9102837b7b61d160a51b8152600082516138ab81600c85016020870161363c565b91909101600c0192915050565b6020808252600c908201526b652f7265656e7472616e637960a01b604082015260600190565b602080825260169082015275652f696e73756666696369656e742d62616c616e636560501b604082015260600190565b808201808211156108cd576108cd613789565b606560f81b81526000825161393d81600185016020870161363c565b9190910160010192915050565b80820281158282048414176108cd576108cd613789565b818103818111156108cd576108cd613789565b60f89590951b6001600160f81b0319168552600185019390935260218401919091526041830152606182015260810190565b600082516139b881846020870161363c565b9190910192915050565b6000602082840312156139d457600080fd5b815180600b0b8114612c4557600080fd5b6000602082840312156139f757600080fd5b5051919050565b8082018281126000831280158216821582161715613a1e57613a1e613789565b505092915050565b634e487b7160e01b600052603260045260246000fd5b63ffffffff8181168382160190808211156117d2576117d2613789565b8051801515811461361c57600080fd5b600060208284031215613a7b57600080fd5b6108ca82613a59565b600060808284031215613a9657600080fd5b6040516080810181811067ffffffffffffffff82111715613ab957613ab96137c1565b8060405250825181526020830151602082015260408301516040820152613ae260608401613a59565b6060820152939250505056fe417070726f76616c28616464726573732c616464726573732c75696e74323536295472616e7366657228616464726573732c616464726573732c75696e7432353629a2646970667358221220955c201bfd415838e6d8ccefa19e6c32d56275986a1b23a194704e7f79c8df9564736f6c63430008170033","linkReferences":{}},"methodIdentifiers":{"allowance(address,address)":"dd62ed3e","approve(address,uint256)":"095ea7b3","approveSubAccount(uint256,address,uint256)":"32d1ca9b","balanceOf(address)":"70a08231","balanceOfUnderlying(address)":"3af9e669","burn(uint256,uint256)":"b390c0ab","convertBalanceToUnderlying(uint256)":"010ad6d1","convertUnderlyingToBalance(uint256)":"52eac8af","decimals()":"313ce567","deposit(uint256,uint256)":"e2bbb158","donateToReserves(uint256,uint256)":"36f022aa","getDTokenAddress(address)":"70b38d47","getInterestAccumulator(address)":"11ee7b15","getInterestRate(address)":"d3ea0f89","getInterestRateModel(address)":"54a05771","getLastInterestAccumulatorUpdate(address)":"748818dc","getPricingParameters(address)":"3e1eaf83","getPricingType(address)":"0490e1f4","getReserveBalance(address)":"15226b54","getReserveFee(address)":"4c6fc8e9","getTotalBalances(address)":"e06ece4d","getTotalBorrows(address)":"b87147df","getUnderlying(address)":"4e89a711","getUnderlyingDecimals(address)":"a1e03bb5","getUserAsset(address,address)":"474cf468","mint(uint256,uint256)":"1b2ef1ca","moduleGitCommit()":"69a92ea3","moduleId()":"a1308f27","name()":"06fdde03","reserveBalance()":"a10954fe","reserveBalanceUnderlying()":"e73277d0","symbol()":"95d89b41","totalSupply()":"18160ddd","totalSupplyUnderlying()":"fea61faa","touch()":"a55526db","transfer(address,uint256)":"a9059cbb","transferFrom(address,address,uint256)":"23b872dd","transferFromMax(address,address)":"cbfdd7e1","underlyingAsset()":"7158da7c","withdraw(uint256,uint256)":"441a3e70"},"id":34}